{
  "_format": "hh-sol-artifact-1",
  "contractName": "AgreementRegistry",
  "sourceName": "contracts/AgreementRegistry.sol",
  "abi": [
    {
      "inputs": [
        {
          "internalType": "contract LinkTokenInterface",
          "name": "_linkToken",
          "type": "address"
        },
        {
          "internalType": "contract IUniversalAdapter",
          "name": "_universalAdapter",
          "type": "address"
        }
      ],
      "stateMutability": "nonpayable",
      "type": "constructor"
    },
    {
      "anonymous": false,
      "inputs": [
        {
          "indexed": true,
          "internalType": "address",
          "name": "owner",
          "type": "address"
        },
        {
          "indexed": true,
          "internalType": "address",
          "name": "spender",
          "type": "address"
        },
        {
          "indexed": true,
          "internalType": "uint256",
          "name": "id",
          "type": "uint256"
        }
      ],
      "name": "Approval",
      "type": "event"
    },
    {
      "anonymous": false,
      "inputs": [
        {
          "indexed": true,
          "internalType": "address",
          "name": "owner",
          "type": "address"
        },
        {
          "indexed": true,
          "internalType": "address",
          "name": "operator",
          "type": "address"
        },
        {
          "indexed": false,
          "internalType": "bool",
          "name": "approved",
          "type": "bool"
        }
      ],
      "name": "ApprovalForAll",
      "type": "event"
    },
    {
      "anonymous": false,
      "inputs": [
        {
          "indexed": false,
          "internalType": "address",
          "name": "owner",
          "type": "address"
        },
        {
          "indexed": false,
          "internalType": "uint256",
          "name": "id",
          "type": "uint256"
        }
      ],
      "name": "Created",
      "type": "event"
    },
    {
      "anonymous": false,
      "inputs": [
        {
          "indexed": true,
          "internalType": "address",
          "name": "user",
          "type": "address"
        },
        {
          "indexed": true,
          "internalType": "address",
          "name": "newOwner",
          "type": "address"
        }
      ],
      "name": "OwnerUpdated",
      "type": "event"
    },
    {
      "anonymous": false,
      "inputs": [
        {
          "indexed": true,
          "internalType": "address",
          "name": "from",
          "type": "address"
        },
        {
          "indexed": true,
          "internalType": "address",
          "name": "to",
          "type": "address"
        },
        {
          "indexed": true,
          "internalType": "uint256",
          "name": "id",
          "type": "uint256"
        }
      ],
      "name": "Transfer",
      "type": "event"
    },
    {
      "inputs": [
        {
          "internalType": "uint256",
          "name": "",
          "type": "uint256"
        }
      ],
      "name": "agreements",
      "outputs": [
        {
          "internalType": "contract Agreement",
          "name": "",
          "type": "address"
        }
      ],
      "stateMutability": "view",
      "type": "function"
    },
    {
      "inputs": [
        {
          "internalType": "address",
          "name": "spender",
          "type": "address"
        },
        {
          "internalType": "uint256",
          "name": "id",
          "type": "uint256"
        }
      ],
      "name": "approve",
      "outputs": [],
      "stateMutability": "nonpayable",
      "type": "function"
    },
    {
      "inputs": [
        {
          "internalType": "address",
          "name": "owner",
          "type": "address"
        }
      ],
      "name": "balanceOf",
      "outputs": [
        {
          "internalType": "uint256",
          "name": "",
          "type": "uint256"
        }
      ],
      "stateMutability": "view",
      "type": "function"
    },
    {
      "inputs": [
        {
          "internalType": "address",
          "name": "redeemer",
          "type": "address"
        },
        {
          "internalType": "uint256",
          "name": "deadline",
          "type": "uint256"
        },
        {
          "internalType": "bool",
          "name": "soulbound",
          "type": "bool"
        },
        {
          "internalType": "uint256",
          "name": "maxPayout",
          "type": "uint256"
        },
        {
          "internalType": "bytes",
          "name": "data",
          "type": "bytes"
        }
      ],
      "name": "createAgreement",
      "outputs": [
        {
          "internalType": "uint256",
          "name": "agreementId_",
          "type": "uint256"
        }
      ],
      "stateMutability": "nonpayable",
      "type": "function"
    },
    {
      "inputs": [
        {
          "internalType": "uint256",
          "name": "",
          "type": "uint256"
        }
      ],
      "name": "getApproved",
      "outputs": [
        {
          "internalType": "address",
          "name": "",
          "type": "address"
        }
      ],
      "stateMutability": "view",
      "type": "function"
    },
    {
      "inputs": [
        {
          "internalType": "address",
          "name": "creator",
          "type": "address"
        }
      ],
      "name": "getCreatorAgreements",
      "outputs": [
        {
          "internalType": "uint256[]",
          "name": "",
          "type": "uint256[]"
        }
      ],
      "stateMutability": "view",
      "type": "function"
    },
    {
      "inputs": [
        {
          "internalType": "address",
          "name": "redeemer",
          "type": "address"
        }
      ],
      "name": "getRedeemerAgreements",
      "outputs": [
        {
          "internalType": "uint256[]",
          "name": "",
          "type": "uint256[]"
        }
      ],
      "stateMutability": "view",
      "type": "function"
    },
    {
      "inputs": [],
      "name": "ids",
      "outputs": [
        {
          "internalType": "uint256",
          "name": "",
          "type": "uint256"
        }
      ],
      "stateMutability": "view",
      "type": "function"
    },
    {
      "inputs": [
        {
          "internalType": "address",
          "name": "",
          "type": "address"
        },
        {
          "internalType": "address",
          "name": "",
          "type": "address"
        }
      ],
      "name": "isApprovedForAll",
      "outputs": [
        {
          "internalType": "bool",
          "name": "",
          "type": "bool"
        }
      ],
      "stateMutability": "view",
      "type": "function"
    },
    {
      "inputs": [],
      "name": "name",
      "outputs": [
        {
          "internalType": "string",
          "name": "",
          "type": "string"
        }
      ],
      "stateMutability": "view",
      "type": "function"
    },
    {
      "inputs": [],
      "name": "owner",
      "outputs": [
        {
          "internalType": "address",
          "name": "",
          "type": "address"
        }
      ],
      "stateMutability": "view",
      "type": "function"
    },
    {
      "inputs": [
        {
          "internalType": "uint256",
          "name": "id",
          "type": "uint256"
        }
      ],
      "name": "ownerOf",
      "outputs": [
        {
          "internalType": "address",
          "name": "owner",
          "type": "address"
        }
      ],
      "stateMutability": "view",
      "type": "function"
    },
    {
      "inputs": [
        {
          "internalType": "address",
          "name": "from",
          "type": "address"
        },
        {
          "internalType": "address",
          "name": "to",
          "type": "address"
        },
        {
          "internalType": "uint256",
          "name": "id",
          "type": "uint256"
        }
      ],
      "name": "safeTransferFrom",
      "outputs": [],
      "stateMutability": "nonpayable",
      "type": "function"
    },
    {
      "inputs": [
        {
          "internalType": "address",
          "name": "from",
          "type": "address"
        },
        {
          "internalType": "address",
          "name": "to",
          "type": "address"
        },
        {
          "internalType": "uint256",
          "name": "id",
          "type": "uint256"
        },
        {
          "internalType": "bytes",
          "name": "data",
          "type": "bytes"
        }
      ],
      "name": "safeTransferFrom",
      "outputs": [],
      "stateMutability": "nonpayable",
      "type": "function"
    },
    {
      "inputs": [
        {
          "internalType": "address",
          "name": "operator",
          "type": "address"
        },
        {
          "internalType": "bool",
          "name": "approved",
          "type": "bool"
        }
      ],
      "name": "setApprovalForAll",
      "outputs": [],
      "stateMutability": "nonpayable",
      "type": "function"
    },
    {
      "inputs": [
        {
          "internalType": "address",
          "name": "newOwner",
          "type": "address"
        }
      ],
      "name": "setOwner",
      "outputs": [],
      "stateMutability": "nonpayable",
      "type": "function"
    },
    {
      "inputs": [
        {
          "internalType": "bytes4",
          "name": "interfaceId",
          "type": "bytes4"
        }
      ],
      "name": "supportsInterface",
      "outputs": [
        {
          "internalType": "bool",
          "name": "",
          "type": "bool"
        }
      ],
      "stateMutability": "view",
      "type": "function"
    },
    {
      "inputs": [],
      "name": "symbol",
      "outputs": [
        {
          "internalType": "string",
          "name": "",
          "type": "string"
        }
      ],
      "stateMutability": "view",
      "type": "function"
    },
    {
      "inputs": [
        {
          "internalType": "uint256",
          "name": "id",
          "type": "uint256"
        }
      ],
      "name": "tokenURI",
      "outputs": [
        {
          "internalType": "string",
          "name": "uri",
          "type": "string"
        }
      ],
      "stateMutability": "view",
      "type": "function"
    },
    {
      "inputs": [
        {
          "internalType": "address",
          "name": "from",
          "type": "address"
        },
        {
          "internalType": "address",
          "name": "to",
          "type": "address"
        },
        {
          "internalType": "uint256",
          "name": "id",
          "type": "uint256"
        }
      ],
      "name": "transferFrom",
      "outputs": [],
      "stateMutability": "nonpayable",
      "type": "function"
    }
  ],
  "bytecode": "0x60806040523480156200001157600080fd5b5060405162003abd38038062003abd8339810160408190526200003491620001eb565b604080518082018252601a81527f556e6976657273616c20416461707465722050726f746f636f6c0000000000006020808301919091528251808401845260048152630754170760e41b91810191909152600080546001600160a01b0319163390811782559351929391928291907f8292fce18fa69edf4db7b94ea2e58241df0ae57f97e0a6c9b29067028bf92d76908290a3508151620000dd9060019060208501906200012c565b508051620000f39060029060208401906200012c565b5050600780546001600160a01b039485166001600160a01b03199182161790915560088054939094169216919091179091555062000266565b8280546200013a906200022a565b90600052602060002090601f0160209004810192826200015e5760008555620001a9565b82601f106200017957805160ff1916838001178555620001a9565b82800160010185558215620001a9579182015b82811115620001a95782518255916020019190600101906200018c565b50620001b7929150620001bb565b5090565b5b80821115620001b75760008155600101620001bc565b6001600160a01b0381168114620001e857600080fd5b50565b60008060408385031215620001ff57600080fd5b82516200020c81620001d2565b60208401519092506200021f81620001d2565b809150509250929050565b600181811c908216806200023f57607f821691505b6020821081036200026057634e487b7160e01b600052602260045260246000fd5b50919050565b61384780620002766000396000f3fe60806040523480156200001157600080fd5b5060043610620001125760003560e01c806301ffc9a7146200011757806306fdde031462000143578063081812fc146200015c578063095ea7b3146200019757806313af403514620001b057806323b872dd14620001c757806342842e0e14620001de5780636352211e14620001f557806368facffe146200020c57806370a0823114620002325780638da5cb5b146200025857806395d89b41146200026c578063a22cb4651462000276578063b88d4fde146200028d578063bae1904014620002a4578063bd14de9614620002bb578063c87b56dd14620002d2578063dafb82dd14620002e9578063e7657e151462000300578063e985e9c5146200030a575b600080fd5b6200012e62000128366004620015cf565b6200033b565b60405190151581526020015b60405180910390f35b6200014d6200038f565b6040516200013a919062001657565b620001886200016d3660046200166c565b6005602052600090815260409020546001600160a01b031681565b6040516200013a919062001686565b620001ae620001a8366004620016b0565b62000425565b005b620001ae620001c1366004620016df565b620004f3565b620001ae620001d8366004620016ff565b62000589565b620001ae620001ef366004620016ff565b6200065d565b62000188620002063660046200166c565b62000722565b620002236200021d366004620016df565b6200077b565b6040516200013a919062001745565b6200024962000243366004620016df565b620007e9565b6040519081526020016200013a565b60005462000188906001600160a01b031681565b6200014d6200084e565b620001ae620002873660046200179a565b6200085d565b620001ae6200029e366004620017d8565b620008c9565b62000223620002b5366004620016df565b62000999565b62000188620002cc3660046200166c565b62000a05565b6200014d620002e33660046200166c565b62000a30565b62000249620002fa36600462001895565b62000d3b565b6200024960095481565b6200012e6200031b3660046200198c565b600660209081526000928352604080842090915290825290205460ff1681565b60006301ffc9a760e01b6001600160e01b0319831614806200036d57506380ac58cd60e01b6001600160e01b03198316145b80620003895750635b5e139f60e01b6001600160e01b03198316145b92915050565b600180546200039e90620019bf565b80601f0160208091040260200160405190810160405280929190818152602001828054620003cc90620019bf565b80156200041d5780601f10620003f1576101008083540402835291602001916200041d565b820191906000526020600020905b815481529060010190602001808311620003ff57829003601f168201915b505050505081565b6000818152600360205260409020546001600160a01b0316338114806200046f57506001600160a01b038116600090815260066020908152604080832033845290915290205460ff165b620004975760405162461bcd60e51b81526004016200048e90620019fb565b60405180910390fd5b60008281526005602052604080822080546001600160a01b0319166001600160a01b0387811691821790925591518593918516917f8c5be1e5ebec7d5bd14f71427d1e84f3dd0314c0f7b2291e5b200ac8c7c3b92591a4505050565b6000546001600160a01b031633146200053e5760405162461bcd60e51b815260206004820152600c60248201526b15539055551213d49256915160a21b60448201526064016200048e565b600080546001600160a01b0319166001600160a01b0383169081178255604051909133917f8292fce18fa69edf4db7b94ea2e58241df0ae57f97e0a6c9b29067028bf92d769190a350565b600b81815481106200059f576200059f62001a23565b6000918252602091829020015460408051630fad0f5160e01b815290516001600160a01b0390921692630fad0f51926004808401938290030181865afa158015620005ee573d6000803e3d6000fd5b505050506040513d601f19601f8201168201806040525081019062000614919062001a39565b156200064b5760405162461bcd60e51b81526020600482015260056024820152641093d5539160da1b60448201526064016200048e565b6200065883838362001004565b505050565b6200066a83838362000589565b6001600160a01b0382163b1580620007035750604051630a85bd0160e11b808252906001600160a01b0384169063150b7a0290620006b19033908890879060040162001a59565b6020604051808303816000875af1158015620006d1573d6000803e3d6000fd5b505050506040513d601f19601f82011682018060405250810190620006f7919062001a8c565b6001600160e01b031916145b620006585760405162461bcd60e51b81526004016200048e9062001aac565b6000818152600360205260409020546001600160a01b031680620007765760405162461bcd60e51b815260206004820152600a6024820152691393d517d3525395115160b21b60448201526064016200048e565b919050565b6001600160a01b0381166000908152600d6020908152604091829020805483518184028101840190945280845260609392830182828015620007dd57602002820191906000526020600020905b815481526020019060010190808311620007c8575b50505050509050919050565b60006001600160a01b038216620008325760405162461bcd60e51b815260206004820152600c60248201526b5a45524f5f4144445245535360a01b60448201526064016200048e565b506001600160a01b031660009081526004602052604090205490565b600280546200039e90620019bf565b3360008181526006602090815260408083206001600160a01b03871680855290835292819020805460ff191686151590811790915590519081529192917f17307eab39ab6107e8899845ad3d59bd9653f200f220920489ca2b5937696c31910160405180910390a35050565b620008d685858562000589565b6001600160a01b0384163b1580620009735750604051630a85bd0160e11b808252906001600160a01b0386169063150b7a0290620009219033908a9089908990899060040162001ad6565b6020604051808303816000875af115801562000941573d6000803e3d6000fd5b505050506040513d601f19601f8201168201806040525081019062000967919062001a8c565b6001600160e01b031916145b620009925760405162461bcd60e51b81526004016200048e9062001aac565b5050505050565b6001600160a01b0381166000908152600c6020908152604091829020805483518184028101840190945280845260609392830182828015620007dd5760200282019190600052602060002090815481526020019060010190808311620007c85750505050509050919050565b600b818154811062000a1657600080fd5b6000918252602090912001546001600160a01b0316905081565b6000818152600360205260409020546060906001600160a01b031662000a865760405162461bcd60e51b815260206004820152600a6024820152691253959053125117d25160b21b60448201526064016200048e565b6000600b838154811062000a9e5762000a9e62001a23565b6000918252602090912001546001600160a01b0316905062000ac0816200117f565b6007546040516370a0823160e01b815262000b3f916001600160a01b0316906370a082319062000af590869060040162001686565b602060405180830381865afa15801562000b13573d6000803e3d6000fd5b505050506040513d601f19601f8201168201806040525081019062000b39919062001b2a565b620012a0565b62000bb7836001600160a01b0316638da5cb5b6040518163ffffffff1660e01b8152600401602060405180830381865afa15801562000b82573d6000803e3d6000fd5b505050506040513d601f19601f8201168201806040525081019062000ba8919062001b44565b6001600160a01b03166200117f565b60008681526003602052604090205462000bda906001600160a01b03166200117f565b846001600160a01b0316630fad0f516040518163ffffffff1660e01b8152600401602060405180830381865afa15801562000c19573d6000803e3d6000fd5b505050506040513d601f19601f8201168201806040525081019062000c3f919062001a39565b62000c68576040518060400160405280600581526020016466616c736560d81b81525062000c86565b604051806040016040528060048152602001637472756560e01b8152505b62000cc9866001600160a01b031663c19d93fb6040518163ffffffff1660e01b8152600401602060405180830381865afa15801562000b13573d6000803e3d6000fd5b62000d0c876001600160a01b03166329dcb0cf6040518163ffffffff1660e01b8152600401602060405180830381865afa15801562000b13573d6000803e3d6000fd5b60405160200162000d24979695949392919062001b82565b604051602081830303815290604052915050919050565b60006001600160a01b03861662000d875760405162461bcd60e51b815260206004820152600f60248201526e494e56414c49445f4144445245535360881b60448201526064016200048e565b42851162000dcb5760405162461bcd60e51b815260206004820152601060248201526f494e56414c49445f444541444c494e4560801b60448201526064016200048e565b600980546000918262000dde8362001cda565b90915550336000818152600a6020908152604080832080546001810190915581516001600160601b0319606087811b8216838701528f901b166034820152604880820192909252825180820390920182526068019182905280519201919091206007546008549596509094929385936001600160a01b0392831693921691309188918e908e908d9062000e7190620015a7565b62000e8498979695949392919062001cf6565b8190604051809103906000f590508015801562000ea5573d6000803e3d6000fd5b506007546040516323b872dd60e01b81523360048201526001600160a01b038084166024830152604482018a90529293509116906323b872dd906064016020604051808303816000875af115801562000f02573d6000803e3d6000fd5b505050506040513d601f19601f8201168201806040525081019062000f28919062001a39565b50600b805460018082019092557f0175b7a638427703f0dbe7bb9bbf987a2551717b34e79f33b5b1008d1fa01db90180546001600160a01b0319166001600160a01b0384811691909117909155336000908152600c602090815260408083208054808701825590845282842001889055928d168252600d8152918120805493840181558152200183905562000fbe8984620013c0565b60408051338152602081018590527f0ce3610e89a4bb9ec9359763f99110ed52a4abaea0b62028a1637e242ca2768b910160405180910390a15090979650505050505050565b6000818152600360205260409020546001600160a01b038481169116146200105c5760405162461bcd60e51b815260206004820152600a60248201526957524f4e475f46524f4d60b01b60448201526064016200048e565b6001600160a01b038216620010855760405162461bcd60e51b81526004016200048e9062001d5a565b336001600160a01b0384161480620010c057506001600160a01b038316600090815260066020908152604080832033845290915290205460ff165b80620010e257506000818152600560205260409020546001600160a01b031633145b620011015760405162461bcd60e51b81526004016200048e90620019fb565b6001600160a01b0380841660008181526004602090815260408083208054600019019055938616808352848320805460010190558583526003825284832080546001600160a01b0319908116831790915560059092528483208054909216909155925184939291600080516020620037f283398151915291a4505050565b60408051602880825260608281019093526000919060208201818036833701905050905060005b601481101562001299576000620011bf82601362001d85565b620011cc90600862001d9f565b6001600160a01b038616901c60f881901b915060f41b600f60f81b908116908216620011f88262001489565b856200120686600262001d9f565b8151811062001219576200121962001a23565b60200101906001600160f81b031916908160001a9053506200123b8162001489565b856200124986600262001d9f565b6200125690600162001dc1565b8151811062001269576200126962001a23565b60200101906001600160f81b031916908160001a9053505050508080620012909062001cda565b915050620011a6565b5092915050565b606081600003620012c85750506040805180820190915260018152600360fc1b602082015290565b8160005b8115620012f85780620012df8162001cda565b9150620012f09050600a8362001df2565b9150620012cc565b6000816001600160401b038111156200131557620013156200187f565b6040519080825280601f01601f19166020018201604052801562001340576020820181803683370190505b5090505b8415620013b8576200135860018362001d85565b915062001367600a8662001e09565b6200137490603062001dc1565b60f81b8183815181106200138c576200138c62001a23565b60200101906001600160f81b031916908160001a905350620013b0600a8662001df2565b945062001344565b949350505050565b620013cc8282620014cc565b6001600160a01b0382163b1580620014665750604051630a85bd0160e11b808252906001600160a01b0384169063150b7a029062001414903390600090879060040162001a59565b6020604051808303816000875af115801562001434573d6000803e3d6000fd5b505050506040513d601f19601f820116820180604052508101906200145a919062001a8c565b6001600160e01b031916145b620014855760405162461bcd60e51b81526004016200048e9062001aac565b5050565b6000600a60f883901c10620014b257620014a960f883901c605762001e20565b60f81b62000389565b620014c360f883901c603062001e20565b60f81b92915050565b6001600160a01b038216620014f55760405162461bcd60e51b81526004016200048e9062001d5a565b6000818152600360205260409020546001600160a01b0316156200154d5760405162461bcd60e51b815260206004820152600e60248201526d1053149150511657d3525395115160921b60448201526064016200048e565b6001600160a01b038216600081815260046020908152604080832080546001019055848352600390915280822080546001600160a01b031916841790555183929190600080516020620037f2833981519152908290a45050565b6119a98062001e4983390190565b6001600160e01b031981168114620015cc57600080fd5b50565b600060208284031215620015e257600080fd5b8135620015ef81620015b5565b9392505050565b60005b8381101562001613578181015183820152602001620015f9565b8381111562001623576000848401525b50505050565b6000815180845262001643816020860160208601620015f6565b601f01601f19169290920160200192915050565b602081526000620015ef602083018462001629565b6000602082840312156200167f57600080fd5b5035919050565b6001600160a01b0391909116815260200190565b6001600160a01b0381168114620015cc57600080fd5b60008060408385031215620016c457600080fd5b8235620016d1816200169a565b946020939093013593505050565b600060208284031215620016f257600080fd5b8135620015ef816200169a565b6000806000606084860312156200171557600080fd5b833562001722816200169a565b9250602084013562001734816200169a565b929592945050506040919091013590565b6020808252825182820181905260009190848201906040850190845b818110156200177f5783518352928401929184019160010162001761565b50909695505050505050565b8015158114620015cc57600080fd5b60008060408385031215620017ae57600080fd5b8235620017bb816200169a565b91506020830135620017cd816200178b565b809150509250929050565b600080600080600060808688031215620017f157600080fd5b8535620017fe816200169a565b9450602086013562001810816200169a565b93506040860135925060608601356001600160401b03808211156200183457600080fd5b818801915088601f8301126200184957600080fd5b8135818111156200185957600080fd5b8960208285010111156200186c57600080fd5b9699959850939650602001949392505050565b634e487b7160e01b600052604160045260246000fd5b600080600080600060a08688031215620018ae57600080fd5b8535620018bb816200169a565b9450602086013593506040860135620018d4816200178b565b92506060860135915060808601356001600160401b0380821115620018f857600080fd5b818801915088601f8301126200190d57600080fd5b8135818111156200192257620019226200187f565b604051601f8201601f19908116603f011681019083821181831017156200194d576200194d6200187f565b816040528281528b60208487010111156200196757600080fd5b8260208601602083013760006020848301015280955050505050509295509295909350565b60008060408385031215620019a057600080fd5b8235620019ad816200169a565b91506020830135620017cd816200169a565b600181811c90821680620019d457607f821691505b602082108103620019f557634e487b7160e01b600052602260045260246000fd5b50919050565b6020808252600e908201526d1393d517d055551213d49256915160921b604082015260600190565b634e487b7160e01b600052603260045260246000fd5b60006020828403121562001a4c57600080fd5b8151620015ef816200178b565b6001600160a01b039384168152919092166020820152604081019190915260806060820181905260009082015260a00190565b60006020828403121562001a9f57600080fd5b8151620015ef81620015b5565b60208082526010908201526f155394d0519157d49150d2541251539560821b604082015260600190565b6001600160a01b038681168252851660208201526040810184905260806060820181905281018290526000828460a0840137600060a0848401015260a0601f19601f85011683010190509695505050505050565b60006020828403121562001b3d57600080fd5b5051919050565b60006020828403121562001b5757600080fd5b8151620015ef816200169a565b6000815162001b78818560208601620015f6565b9290920192915050565b6a1130b2323932b9b9911d1160a91b8152875160009062001bab81600b850160208d01620015f6565b6c1116113130b630b731b2911d1160991b600b91840191820152885162001bda816018840160208d01620015f6565b6c11161131b932b0ba37b9111d1160991b60189290910191820152875162001c0a816025840160208c01620015f6565b6d1116113932b232b2b6b2b9111d1160911b60259290910191820152865162001c3b816033840160208b01620015f6565b6e11161139b7bab63137bab732111d1160891b6033929091019182015262001cb662001caf62001c9562001c8e62001c77604286018b62001b64565b6a11161139ba30ba32911d1160a91b8152600b0190565b8862001b64565b6d1116113232b0b23634b732911d1160911b8152600e0190565b8562001b64565b9a9950505050505050505050565b634e487b7160e01b600052601160045260246000fd5b60006001820162001cef5762001cef62001cc4565b5060010190565b6001600160a01b03898116825288811660208301528781166040830152606082018790528516608082015260a0810184905282151560c082015261010060e0820181905260009062001d4b8382018562001629565b9b9a5050505050505050505050565b6020808252601190820152701253959053125117d49150d25412515395607a1b604082015260600190565b60008282101562001d9a5762001d9a62001cc4565b500390565b600081600019048311821515161562001dbc5762001dbc62001cc4565b500290565b6000821982111562001dd75762001dd762001cc4565b500190565b634e487b7160e01b600052601260045260246000fd5b60008262001e045762001e0462001ddc565b500490565b60008262001e1b5762001e1b62001ddc565b500690565b600060ff821660ff84168060ff0382111562001e405762001e4062001cc4565b01939250505056fe6101406040523480156200001257600080fd5b50604051620019a9380380620019a98339810160408190526200003591620002e1565b600080546001600160a01b0319166001600160a01b03861690811782556040518692907f8292fce18fa69edf4db7b94ea2e58241df0ae57f97e0a6c9b29067028bf92d76908290a3506001600160a01b0380891660805287811660a052861660c05260e0859052610100839052811515610120528051620000c09082016020908101908301620003a5565b60026000600360006006600060056000600460008a9190509080519060200190620000ed92919062000155565b5050885162000102919060208b019062000155565b5050875162000117919060208a019062000155565b505086516200012c9190602089019062000155565b50508551620001419190602088019062000155565b5050505050505050505050505050620004c2565b828054620001639062000486565b90600052602060002090601f016020900481019282620001875760008555620001d2565b82601f10620001a257805160ff1916838001178555620001d2565b82800160010185558215620001d2579182015b82811115620001d2578251825591602001919060010190620001b5565b50620001e0929150620001e4565b5090565b5b80821115620001e05760008155600101620001e5565b6001600160a01b03811681146200021157600080fd5b50565b634e487b7160e01b600052604160045260246000fd5b600082601f8301126200023c57600080fd5b81516001600160401b038082111562000259576200025962000214565b604051601f8301601f19908116603f0116810190828211818310171562000284576200028462000214565b81604052838152602092508683858801011115620002a157600080fd5b600091505b83821015620002c55785820183015181830184015290820190620002a6565b83821115620002d75760008385830101525b9695505050505050565b600080600080600080600080610100898b031215620002ff57600080fd5b88516200030c81620001fb565b60208a01519098506200031f81620001fb565b60408a01519097506200033281620001fb565b60608a015160808b015191975095506200034c81620001fb565b60a08a015160c08b0151919550935080151581146200036a57600080fd5b60e08a01519092506001600160401b038111156200038757600080fd5b620003958b828c016200022a565b9150509295985092959890939650565b600080600080600060a08688031215620003be57600080fd5b85516001600160401b0380821115620003d657600080fd5b620003e489838a016200022a565b96506020880151915080821115620003fb57600080fd5b6200040989838a016200022a565b955060408801519150808211156200042057600080fd5b6200042e89838a016200022a565b945060608801519150808211156200044557600080fd5b6200045389838a016200022a565b935060808801519150808211156200046a57600080fd5b5062000479888289016200022a565b9150509295509295909350565b600181811c908216806200049b57607f821691505b602082108103620004bc57634e487b7160e01b600052602260045260246000fd5b50919050565b60805160a05160c05160e051610100516101205161141362000596600039600060cf0152600081816101200152610d3e0152600081816101fb015281816102f4015281816107720152818161093701528181610dda0152610f0201526000818161031a015281816107ca0152818161098f01528181610e000152610f360152600081816104be01528181610547015261067501526000818161040601528181610491015281816106e6015281816107a00152818161084c0152818161096501528181610a7b0152610c4d01526114136000f3fe608060405234801561001057600080fd5b50600436106100c55760003560e01c80630fad0f51146100ca57806313af40351461010657806329dcb0cf1461011b578063322000fa1461015057806334a8482714610163578063355c76ba146101865780635d64e3101461019b5780637b40d6b7146101ae5780638da5cb5b146101b6578063aa3ec0a9146101d6578063b79550be146101de578063c19d93fb146101e6578063cf6ad876146101ee578063e2739491146101f6578063edbf55f61461021d575b600080fd5b6100f17f000000000000000000000000000000000000000000000000000000000000000081565b60405190151581526020015b60405180910390f35b610119610114366004611089565b610225565b005b6101427f000000000000000000000000000000000000000000000000000000000000000081565b6040519081526020016100fd565b61014261015e3660046110f5565b6102a3565b6100f1610171366004611089565b60076020526000908152604090205460ff1681565b61018e6105dc565b6040516100fd9190611160565b6101196101a93660046111b5565b61066a565b61018e610b96565b6000546101c9906001600160a01b031681565b6040516100fd91906111d7565b61018e610ba3565b610119610bb0565b610142610d30565b610119610d77565b6101427f000000000000000000000000000000000000000000000000000000000000000081565b61018e610fce565b6000546001600160a01b031633146102585760405162461bcd60e51b815260040161024f906111eb565b60405180910390fd5b600080546001600160a01b0319166001600160a01b0383169081178255604051909133917f8292fce18fa69edf4db7b94ea2e58241df0ae57f97e0a6c9b29067028bf92d769190a350565b60006102ad610d30565b156102e55760405162461bcd60e51b8152602060048201526008602482015267494e41435449564560c01b604482015260640161024f565b6040516331a9108f60e11b81527f000000000000000000000000000000000000000000000000000000000000000060048201527f00000000000000000000000000000000000000000000000000000000000000006001600160a01b031690636352211e90602401602060405180830381865afa158015610369573d6000803e3d6000fd5b505050506040513d601f19601f8201168201806040525081019061038d9190611211565b6001600160a01b0316336001600160a01b0316146103bd5760405162461bcd60e51b815260040161024f906111eb565b6000600480546103cc9061122e565b905011156103e2576103e060048484610fdb565b505b6040516323b872dd60e01b81523360048201523060248201526064604482018190527f00000000000000000000000000000000000000000000000000000000000000006001600160a01b0316916323b872dd91016020604051808303816000875af1158015610455573d6000803e3d6000fd5b505050506040513d601f19601f820116820180604052508101906104799190611268565b5060405163095ea7b360e01b81526001600160a01b037f0000000000000000000000000000000000000000000000000000000000000000169063095ea7b3906104e9907f00000000000000000000000000000000000000000000000000000000000000009060649060040161128a565b6020604051808303816000875af1158015610508573d6000803e3d6000fd5b505050506040513d601f19601f8201168201806040525081019061052c9190611268565b5060405163d303e6a560e01b81526000906001600160a01b037f0000000000000000000000000000000000000000000000000000000000000000169063d303e6a59061058f906305d64e3160e41b906002906003908c908c906004908101611342565b6020604051808303816000875af11580156105ae573d6000803e3d6000fd5b505050506040513d601f19601f820116820180604052508101906105d291906113c4565b9695505050505050565b600580546105e99061122e565b80601f01602080910402602001604051908101604052809291908181526020018280546106159061122e565b80156106625780601f1061063757610100808354040283529160200191610662565b820191906000526020600020905b81548152906001019060200180831161064557829003601f168201915b505050505081565b336001600160a01b037f000000000000000000000000000000000000000000000000000000000000000016146106cb5760405162461bcd60e51b81526020600482015260066024820152654e4f545f554160d01b604482015260640161024f565b600180556040516370a0823160e01b81526001600160a01b037f000000000000000000000000000000000000000000000000000000000000000016906370a082319061071b9030906004016111d7565b602060405180830381865afa158015610738573d6000803e3d6000fd5b505050506040513d601f19601f8201168201806040525081019061075c91906113c4565b811115610928576040516331a9108f60e11b81527f000000000000000000000000000000000000000000000000000000000000000060048201526001600160a01b037f000000000000000000000000000000000000000000000000000000000000000081169163a9059cbb917f00000000000000000000000000000000000000000000000000000000000000001690636352211e90602401602060405180830381865afa158015610811573d6000803e3d6000fd5b505050506040513d601f19601f820116820180604052508101906108359190611211565b6040516370a0823160e01b81526001600160a01b037f000000000000000000000000000000000000000000000000000000000000000016906370a08231906108819030906004016111d7565b602060405180830381865afa15801561089e573d6000803e3d6000fd5b505050506040513d601f19601f820116820180604052508101906108c291906113c4565b6040518363ffffffff1660e01b81526004016108df92919061128a565b6020604051808303816000875af11580156108fe573d6000803e3d6000fd5b505050506040513d601f19601f820116820180604052508101906109229190611268565b50610b5f565b6040516331a9108f60e11b81527f000000000000000000000000000000000000000000000000000000000000000060048201526001600160a01b037f000000000000000000000000000000000000000000000000000000000000000081169163a9059cbb917f00000000000000000000000000000000000000000000000000000000000000001690636352211e90602401602060405180830381865afa1580156109d6573d6000803e3d6000fd5b505050506040513d601f19601f820116820180604052508101906109fa9190611211565b6040516001600160e01b031960e084901b168152610a1d9190859060040161128a565b6020604051808303816000875af1158015610a3c573d6000803e3d6000fd5b505050506040513d601f19601f82011682018060405250810190610a609190611268565b506000546040516370a0823160e01b81526001600160a01b037f000000000000000000000000000000000000000000000000000000000000000081169263a9059cbb9291169083906370a0823190610abc9030906004016111d7565b602060405180830381865afa158015610ad9573d6000803e3d6000fd5b505050506040513d601f19601f82011682018060405250810190610afd91906113c4565b6040518363ffffffff1660e01b8152600401610b1a92919061128a565b6020604051808303816000875af1158015610b39573d6000803e3d6000fd5b505050506040513d601f19601f82011682018060405250810190610b5d9190611268565b505b6040518181527fd14df08fabc3175c71c9c6b212bd0fd290d0e78a5f809c5f28deb5ba6f029b919060200160405180910390a15050565b600680546105e99061122e565b600380546105e99061122e565b6000546001600160a01b03163314610bf65760405162461bcd60e51b81526020600482015260096024820152682727aa2fa7aba722a960b91b604482015260640161024f565b610bfe610d30565b600003610c365760405162461bcd60e51b815260206004820152600660248201526541435449564560d01b604482015260640161024f565b6040516370a0823160e01b81526001600160a01b037f0000000000000000000000000000000000000000000000000000000000000000169063a9059cbb90339083906370a0823190610c8c9030906004016111d7565b602060405180830381865afa158015610ca9573d6000803e3d6000fd5b505050506040513d601f19601f82011682018060405250810190610ccd91906113c4565b6040518363ffffffff1660e01b8152600401610cea92919061128a565b6020604051808303816000875af1158015610d09573d6000803e3d6000fd5b505050506040513d601f19601f82011682018060405250810190610d2d9190611268565b50565b6000600154600114610d70577f00000000000000000000000000000000000000000000000000000000000000004211610d6a575060015490565b50600390565b5060015490565b610d7f610d30565b15610db45760405162461bcd60e51b815260206004820152600560248201526412539050d560da1b604482015260640161024f565b60005433906001600160a01b031680821480610e8857506040516331a9108f60e11b81527f000000000000000000000000000000000000000000000000000000000000000060048201527f00000000000000000000000000000000000000000000000000000000000000006001600160a01b031690636352211e90602401602060405180830381865afa158015610e4f573d6000803e3d6000fd5b505050506040513d601f19601f82011682018060405250810190610e739190611211565b6001600160a01b0316826001600160a01b0316145b610ebd5760405162461bcd60e51b815260040161024f90602080825260049082015263082aaa8960e31b604082015260600190565b6001600160a01b03808316600090815260076020526040808220805460ff191660011790559183168152205460ff168015610fbf57506040516331a9108f60e11b81527f000000000000000000000000000000000000000000000000000000000000000060048201526007906000906001600160a01b037f00000000000000000000000000000000000000000000000000000000000000001690636352211e90602401602060405180830381865afa158015610f7d573d6000803e3d6000fd5b505050506040513d601f19601f82011682018060405250810190610fa19190611211565b6001600160a01b0316815260208101919091526040016000205460ff165b15610fca5760026001555b5050565b600280546105e99061122e565b828054610fe79061122e565b90600052602060002090601f016020900481019282611009576000855561104f565b82601f106110225782800160ff1982351617855561104f565b8280016001018555821561104f579182015b8281111561104f578235825591602001919060010190611034565b5061105b92915061105f565b5090565b5b8082111561105b5760008155600101611060565b6001600160a01b0381168114610d2d57600080fd5b60006020828403121561109b57600080fd5b81356110a681611074565b9392505050565b60008083601f8401126110bf57600080fd5b5081356001600160401b038111156110d657600080fd5b6020830191508360208285010111156110ee57600080fd5b9250929050565b6000806000806040858703121561110b57600080fd5b84356001600160401b038082111561112257600080fd5b61112e888389016110ad565b9096509450602087013591508082111561114757600080fd5b50611154878288016110ad565b95989497509550505050565b600060208083528351808285015260005b8181101561118d57858101830151858201604001528201611171565b8181111561119f576000604083870101525b50601f01601f1916929092016040019392505050565b600080604083850312156111c857600080fd5b50508035926020909101359150565b6001600160a01b0391909116815260200190565b6020808252600c908201526b15539055551213d49256915160a21b604082015260600190565b60006020828403121561122357600080fd5b81516110a681611074565b600181811c9082168061124257607f821691505b60208210810361126257634e487b7160e01b600052602260045260246000fd5b50919050565b60006020828403121561127a57600080fd5b815180151581146110a657600080fd5b6001600160a01b03929092168252602082015260400190565b8054600090600181811c90808316806112bd57607f831692505b602080841082036112de57634e487b7160e01b600052602260045260246000fd5b838852602088018280156112f9576001811461130a57611335565b60ff19871682528282019750611335565b60008981526020902060005b8781101561132f57815484820152908601908401611316565b83019850505b5050505050505092915050565b63ffffffff60e01b8716815260a06020820152600061136460a08301886112a3565b828103604084015261137681886112a3565b9050828103606084015284815284866020830137600060208683010152601f19601f8601168101905060208382030160808401526113b760208201856112a3565b9998505050505050505050565b6000602082840312156113d657600080fd5b505191905056fea264697066735822122061579385e8fbf5d21497f7a2404394dd9097b4b4a8f0e1c08452f809ab0177e064736f6c634300080e0033ddf252ad1be2c89b69c2b068fc378daa952ba7f163c4a11628f55a4df523b3efa2646970667358221220ccaed4b8a2ed5cddac9c53c15300e44789b9de11607f4413a8775314744a79cb64736f6c634300080e0033",
  "linkReferences": {},
  "deployedLinkReferences": {}
}