{
  "_format": "hh-sol-artifact-1",
  "contractName": "AgreementRegistry",
  "sourceName": "contracts/AgreementRegistry.sol",
  "abi": [
    {
      "inputs": [
        {
          "internalType": "contract LinkTokenInterface",
          "name": "_linkToken",
          "type": "address"
        },
        {
          "internalType": "contract IUniversalAdapter",
          "name": "_universalAdapter",
          "type": "address"
        }
      ],
      "stateMutability": "nonpayable",
      "type": "constructor"
    },
    {
      "anonymous": false,
      "inputs": [
        {
          "indexed": true,
          "internalType": "address",
          "name": "owner",
          "type": "address"
        },
        {
          "indexed": true,
          "internalType": "address",
          "name": "spender",
          "type": "address"
        },
        {
          "indexed": true,
          "internalType": "uint256",
          "name": "id",
          "type": "uint256"
        }
      ],
      "name": "Approval",
      "type": "event"
    },
    {
      "anonymous": false,
      "inputs": [
        {
          "indexed": true,
          "internalType": "address",
          "name": "owner",
          "type": "address"
        },
        {
          "indexed": true,
          "internalType": "address",
          "name": "operator",
          "type": "address"
        },
        {
          "indexed": false,
          "internalType": "bool",
          "name": "approved",
          "type": "bool"
        }
      ],
      "name": "ApprovalForAll",
      "type": "event"
    },
    {
      "anonymous": false,
      "inputs": [
        {
          "indexed": false,
          "internalType": "address",
          "name": "owner",
          "type": "address"
        },
        {
          "indexed": false,
          "internalType": "uint256",
          "name": "id",
          "type": "uint256"
        }
      ],
      "name": "Created",
      "type": "event"
    },
    {
      "anonymous": false,
      "inputs": [
        {
          "indexed": true,
          "internalType": "address",
          "name": "user",
          "type": "address"
        },
        {
          "indexed": true,
          "internalType": "address",
          "name": "newOwner",
          "type": "address"
        }
      ],
      "name": "OwnerUpdated",
      "type": "event"
    },
    {
      "anonymous": false,
      "inputs": [
        {
          "indexed": true,
          "internalType": "address",
          "name": "from",
          "type": "address"
        },
        {
          "indexed": true,
          "internalType": "address",
          "name": "to",
          "type": "address"
        },
        {
          "indexed": true,
          "internalType": "uint256",
          "name": "id",
          "type": "uint256"
        }
      ],
      "name": "Transfer",
      "type": "event"
    },
    {
      "inputs": [
        {
          "internalType": "uint256",
          "name": "",
          "type": "uint256"
        }
      ],
      "name": "agreements",
      "outputs": [
        {
          "internalType": "contract Agreement",
          "name": "",
          "type": "address"
        }
      ],
      "stateMutability": "view",
      "type": "function"
    },
    {
      "inputs": [
        {
          "internalType": "address",
          "name": "to",
          "type": "address"
        },
        {
          "internalType": "uint256",
          "name": "id",
          "type": "uint256"
        }
      ],
      "name": "approve",
      "outputs": [],
      "stateMutability": "nonpayable",
      "type": "function"
    },
    {
      "inputs": [
        {
          "internalType": "address",
          "name": "owner",
          "type": "address"
        }
      ],
      "name": "balanceOf",
      "outputs": [
        {
          "internalType": "uint256",
          "name": "",
          "type": "uint256"
        }
      ],
      "stateMutability": "view",
      "type": "function"
    },
    {
      "inputs": [
        {
          "internalType": "uint256",
          "name": "id",
          "type": "uint256"
        }
      ],
      "name": "burn",
      "outputs": [],
      "stateMutability": "nonpayable",
      "type": "function"
    },
    {
      "inputs": [
        {
          "internalType": "uint256",
          "name": "",
          "type": "uint256"
        }
      ],
      "name": "getApproved",
      "outputs": [
        {
          "internalType": "address",
          "name": "",
          "type": "address"
        }
      ],
      "stateMutability": "view",
      "type": "function"
    },
    {
      "inputs": [
        {
          "internalType": "address",
          "name": "creator",
          "type": "address"
        }
      ],
      "name": "getCreatorAgreements",
      "outputs": [
        {
          "internalType": "uint256[]",
          "name": "",
          "type": "uint256[]"
        }
      ],
      "stateMutability": "view",
      "type": "function"
    },
    {
      "inputs": [
        {
          "internalType": "address",
          "name": "redeemer",
          "type": "address"
        }
      ],
      "name": "getRedeemerAgreements",
      "outputs": [
        {
          "internalType": "uint256[]",
          "name": "",
          "type": "uint256[]"
        }
      ],
      "stateMutability": "view",
      "type": "function"
    },
    {
      "inputs": [],
      "name": "ids",
      "outputs": [
        {
          "internalType": "uint256",
          "name": "",
          "type": "uint256"
        }
      ],
      "stateMutability": "view",
      "type": "function"
    },
    {
      "inputs": [
        {
          "internalType": "address",
          "name": "",
          "type": "address"
        },
        {
          "internalType": "address",
          "name": "",
          "type": "address"
        }
      ],
      "name": "isApprovedForAll",
      "outputs": [
        {
          "internalType": "bool",
          "name": "",
          "type": "bool"
        }
      ],
      "stateMutability": "view",
      "type": "function"
    },
    {
      "inputs": [],
      "name": "name",
      "outputs": [
        {
          "internalType": "string",
          "name": "",
          "type": "string"
        }
      ],
      "stateMutability": "view",
      "type": "function"
    },
    {
      "inputs": [
        {
          "internalType": "address",
          "name": "sender",
          "type": "address"
        },
        {
          "internalType": "uint256",
          "name": "value",
          "type": "uint256"
        },
        {
          "internalType": "bytes",
          "name": "data",
          "type": "bytes"
        }
      ],
      "name": "onTokenTransfer",
      "outputs": [],
      "stateMutability": "nonpayable",
      "type": "function"
    },
    {
      "inputs": [],
      "name": "owner",
      "outputs": [
        {
          "internalType": "address",
          "name": "",
          "type": "address"
        }
      ],
      "stateMutability": "view",
      "type": "function"
    },
    {
      "inputs": [
        {
          "internalType": "uint256",
          "name": "id",
          "type": "uint256"
        }
      ],
      "name": "ownerOf",
      "outputs": [
        {
          "internalType": "address",
          "name": "owner",
          "type": "address"
        }
      ],
      "stateMutability": "view",
      "type": "function"
    },
    {
      "inputs": [
        {
          "internalType": "address",
          "name": "from",
          "type": "address"
        },
        {
          "internalType": "address",
          "name": "to",
          "type": "address"
        },
        {
          "internalType": "uint256",
          "name": "id",
          "type": "uint256"
        }
      ],
      "name": "safeTransferFrom",
      "outputs": [],
      "stateMutability": "nonpayable",
      "type": "function"
    },
    {
      "inputs": [
        {
          "internalType": "address",
          "name": "from",
          "type": "address"
        },
        {
          "internalType": "address",
          "name": "to",
          "type": "address"
        },
        {
          "internalType": "uint256",
          "name": "id",
          "type": "uint256"
        },
        {
          "internalType": "bytes",
          "name": "data",
          "type": "bytes"
        }
      ],
      "name": "safeTransferFrom",
      "outputs": [],
      "stateMutability": "nonpayable",
      "type": "function"
    },
    {
      "inputs": [
        {
          "internalType": "address",
          "name": "operator",
          "type": "address"
        },
        {
          "internalType": "bool",
          "name": "approved",
          "type": "bool"
        }
      ],
      "name": "setApprovalForAll",
      "outputs": [],
      "stateMutability": "nonpayable",
      "type": "function"
    },
    {
      "inputs": [
        {
          "internalType": "address",
          "name": "newOwner",
          "type": "address"
        }
      ],
      "name": "setOwner",
      "outputs": [],
      "stateMutability": "nonpayable",
      "type": "function"
    },
    {
      "inputs": [
        {
          "internalType": "bytes4",
          "name": "interfaceId",
          "type": "bytes4"
        }
      ],
      "name": "supportsInterface",
      "outputs": [
        {
          "internalType": "bool",
          "name": "",
          "type": "bool"
        }
      ],
      "stateMutability": "view",
      "type": "function"
    },
    {
      "inputs": [],
      "name": "symbol",
      "outputs": [
        {
          "internalType": "string",
          "name": "",
          "type": "string"
        }
      ],
      "stateMutability": "view",
      "type": "function"
    },
    {
      "inputs": [
        {
          "internalType": "uint256",
          "name": "id",
          "type": "uint256"
        }
      ],
      "name": "tokenURI",
      "outputs": [
        {
          "internalType": "string",
          "name": "uri",
          "type": "string"
        }
      ],
      "stateMutability": "view",
      "type": "function"
    },
    {
      "inputs": [
        {
          "internalType": "address",
          "name": "from",
          "type": "address"
        },
        {
          "internalType": "address",
          "name": "to",
          "type": "address"
        },
        {
          "internalType": "uint256",
          "name": "id",
          "type": "uint256"
        }
      ],
      "name": "transferFrom",
      "outputs": [],
      "stateMutability": "nonpayable",
      "type": "function"
    }
  ],
  "bytecode": "0x60806040523480156200001157600080fd5b506040516200405e3803806200405e8339810160408190526200003491620001eb565b604080518082018252601a81527f556e6976657273616c20416461707465722050726f746f636f6c0000000000006020808301919091528251808401845260048152630754170760e41b91810191909152600080546001600160a01b0319163390811782559351929391928291907f8292fce18fa69edf4db7b94ea2e58241df0ae57f97e0a6c9b29067028bf92d76908290a3508151620000dd9060019060208501906200012c565b508051620000f39060029060208401906200012c565b5050600780546001600160a01b039485166001600160a01b03199182161790915560088054939094169216919091179091555062000266565b8280546200013a906200022a565b90600052602060002090601f0160209004810192826200015e5760008555620001a9565b82601f106200017957805160ff1916838001178555620001a9565b82800160010185558215620001a9579182015b82811115620001a95782518255916020019190600101906200018c565b50620001b7929150620001bb565b5090565b5b80821115620001b75760008155600101620001bc565b6001600160a01b0381168114620001e857600080fd5b50565b60008060408385031215620001ff57600080fd5b82516200020c81620001d2565b60208401519092506200021f81620001d2565b809150509250929050565b600181811c908216806200023f57607f821691505b6020821081036200026057634e487b7160e01b600052602260045260246000fd5b50919050565b613de880620002766000396000f3fe60806040523480156200001157600080fd5b50600436106200011e5760003560e01c806301ffc9a7146200012357806306fdde03146200014f578063081812fc1462000168578063095ea7b314620001a357806313af403514620001bc57806323b872dd14620001d357806342842e0e14620001ea57806342966c6814620002015780636352211e146200021857806368facffe146200022f57806370a0823114620002555780638da5cb5b146200027b57806395d89b41146200028f578063a22cb4651462000299578063a4c0ed3614620002b0578063b88d4fde14620002c7578063bae1904014620002de578063bd14de9614620002f5578063c87b56dd146200030c578063e7657e151462000323578063e985e9c5146200032d575b600080fd5b6200013a62000134366004620019f7565b6200035e565b60405190151581526020015b60405180910390f35b62000159620003b2565b60405162000146919062001a7f565b620001946200017936600462001a94565b6005602052600090815260409020546001600160a01b031681565b60405162000146919062001aae565b620001ba620001b436600462001ad8565b62000448565b005b620001ba620001cd36600462001b07565b6200050c565b620001ba620001e436600462001b27565b620005a2565b620001ba620001fb36600462001b27565b6200065f565b620001ba6200021236600462001a94565b62000724565b620001946200022936600462001a94565b6200081d565b620002466200024036600462001b07565b6200085a565b60405162000146919062001b6d565b6200026c6200026636600462001b07565b620008c8565b60405190815260200162000146565b60005462000194906001600160a01b031681565b620001596200092d565b620001ba620002aa36600462001bc2565b6200093c565b620001ba620002c136600462001c4b565b62000973565b620001ba620002d836600462001cac565b62000b4a565b62000246620002ef36600462001b07565b62000c1a565b620001946200030636600462001a94565b62000c86565b620001596200031d36600462001a94565b62000cb1565b6200026c60095481565b6200013a6200033e36600462001d26565b600660209081526000928352604080842090915290825290205460ff1681565b60006301ffc9a760e01b6001600160e01b0319831614806200039057506380ac58cd60e01b6001600160e01b03198316145b80620003ac5750635b5e139f60e01b6001600160e01b03198316145b92915050565b60018054620003c19062001d59565b80601f0160208091040260200160405190810160405280929190818152602001828054620003ef9062001d59565b8015620004405780601f10620004145761010080835404028352916020019162000440565b820191906000526020600020905b8154815290600101906020018083116200042257829003601f168201915b505050505081565b600b81815481106200045e576200045e62001d95565b6000918252602091829020015460408051630fad0f5160e01b815290516001600160a01b0390921692630fad0f51926004808401938290030181865afa158015620004ad573d6000803e3d6000fd5b505050506040513d601f19601f82011682018060405250810190620004d3919062001dab565b15620004fc5760405162461bcd60e51b8152600401620004f39062001dcb565b60405180910390fd5b62000508828262001107565b5050565b6000546001600160a01b03163314620005575760405162461bcd60e51b815260206004820152600c60248201526b15539055551213d49256915160a21b6044820152606401620004f3565b600080546001600160a01b0319166001600160a01b0383169081178255604051909133917f8292fce18fa69edf4db7b94ea2e58241df0ae57f97e0a6c9b29067028bf92d769190a350565b600b8181548110620005b857620005b862001d95565b6000918252602091829020015460408051630fad0f5160e01b815290516001600160a01b0390921692630fad0f51926004808401938290030181865afa15801562000607573d6000803e3d6000fd5b505050506040513d601f19601f820116820180604052508101906200062d919062001dab565b156200064d5760405162461bcd60e51b8152600401620004f39062001dcb565b6200065a838383620011cc565b505050565b6200066c838383620005a2565b6001600160a01b0382163b1580620007055750604051630a85bd0160e11b808252906001600160a01b0384169063150b7a0290620006b39033908890879060040162001dee565b6020604051808303816000875af1158015620006d3573d6000803e3d6000fd5b505050506040513d601f19601f82011682018060405250810190620006f9919062001e21565b6001600160e01b031916145b6200065a5760405162461bcd60e51b8152600401620004f39062001e41565b6000600b82815481106200073c576200073c62001d95565b600091825260209182902001546040805163c19d93fb60e01b815290516001600160a01b039092169350839263c19d93fb926004808401938290030181865afa1580156200078e573d6000803e3d6000fd5b505050506040513d601f19601f82011682018060405250810190620007b4919062001e6b565b6000036200081257806001600160a01b031663cf6ad8766040518163ffffffff1660e01b8152600401600060405180830381600087803b158015620007f857600080fd5b505af11580156200080d573d6000803e3d6000fd5b505050505b620005088262001347565b6000818152600360205260409020546001600160a01b031680620008555760405162461bcd60e51b8152600401620004f39062001e85565b919050565b6001600160a01b0381166000908152600d6020908152604091829020805483518184028101840190945280845260609392830182828015620008bc57602002820191906000526020600020905b815481526020019060010190808311620008a7575b50505050509050919050565b60006001600160a01b038216620009115760405162461bcd60e51b815260206004820152600c60248201526b5a45524f5f4144445245535360a01b6044820152606401620004f3565b506001600160a01b031660009081526004602052604090205490565b60028054620003c19062001d59565b60405162461bcd60e51b815260206004820152600b60248201526a1393d517d0531313d5d15160aa1b6044820152606401620004f3565b60008080806060620009888688018862001f1c565b600754949950929750909550935091506001600160a01b03163314620009dc5760405162461bcd60e51b81526020600482015260086024820152674e4f545f4c494e4b60c01b6044820152606401620004f3565b6001600160a01b03851662000a265760405162461bcd60e51b815260206004820152600f60248201526e494e56414c49445f4144445245535360881b6044820152606401620004f3565b81881462000a665760405162461bcd60e51b815260206004820152600c60248201526b15d493d391d7d05353d5539560a21b6044820152606401620004f3565b42841162000aaa5760405162461bcd60e51b815260206004820152601060248201526f494e56414c49445f444541444c494e4560801b6044820152606401620004f3565b600980546000918262000abd8362001ff6565b909155506001600160a01b038b166000908152600a602090815260408083208054600181019091559051939450919262000b13928e9290910160609290921b6001600160601b0319168252601482015260340190565b60405160208183030381529060405280519060200120905062000b3d8b82848a8a8a8a8a620013e9565b5050505050505050505050565b62000b57858585620005a2565b6001600160a01b0384163b158062000bf45750604051630a85bd0160e11b808252906001600160a01b0386169063150b7a029062000ba29033908a9089908990899060040162002012565b6020604051808303816000875af115801562000bc2573d6000803e3d6000fd5b505050506040513d601f19601f8201168201806040525081019062000be8919062001e21565b6001600160e01b031916145b62000c135760405162461bcd60e51b8152600401620004f39062001e41565b5050505050565b6001600160a01b0381166000908152600c6020908152604091829020805483518184028101840190945280845260609392830182828015620008bc5760200282019190600052602060002090815481526020019060010190808311620008a75750505050509050919050565b600b818154811062000c9757600080fd5b6000918252602090912001546001600160a01b0316905081565b6000818152600360205260409020546060906001600160a01b031662000d075760405162461bcd60e51b815260206004820152600a6024820152691253959053125117d25160b21b6044820152606401620004f3565b6000600b838154811062000d1f5762000d1f62001d95565b6000918252602090912001546001600160a01b0316905062000d4181620015ab565b6000826001600160a01b031663aa3ec0a96040518163ffffffff1660e01b8152600401600060405180830381865afa15801562000d82573d6000803e3d6000fd5b505050506040513d6000823e601f3d908101601f1916820160405262000dac919081019062002066565b511162000e2257816001600160a01b031663edbf55f66040518163ffffffff1660e01b8152600401600060405180830381865afa15801562000df2573d6000803e3d6000fd5b505050506040513d6000823e601f3d908101601f1916820160405262000e1c919081019062002066565b62000e8b565b816001600160a01b031663aa3ec0a96040518163ffffffff1660e01b8152600401600060405180830381865afa15801562000e61573d6000803e3d6000fd5b505050506040513d6000823e601f3d908101601f1916820160405262000e8b919081019062002066565b6007546040516370a0823160e01b815262000f0a916001600160a01b0316906370a082319062000ec090879060040162001aae565b602060405180830381865afa15801562000ede573d6000803e3d6000fd5b505050506040513d601f19601f8201168201806040525081019062000f04919062001e6b565b620016cc565b62000f82846001600160a01b0316638da5cb5b6040518163ffffffff1660e01b8152600401602060405180830381865afa15801562000f4d573d6000803e3d6000fd5b505050506040513d601f19601f8201168201806040525081019062000f739190620020e5565b6001600160a01b0316620015ab565b60008781526003602052604090205462000fa5906001600160a01b0316620015ab565b856001600160a01b0316630fad0f516040518163ffffffff1660e01b8152600401602060405180830381865afa15801562000fe4573d6000803e3d6000fd5b505050506040513d601f19601f820116820180604052508101906200100a919062001dab565b62001033576040518060400160405280600581526020016466616c736560d81b81525062001051565b604051806040016040528060048152602001637472756560e01b8152505b62001094876001600160a01b031663c19d93fb6040518163ffffffff1660e01b8152600401602060405180830381865afa15801562000ede573d6000803e3d6000fd5b620010d7886001600160a01b03166329dcb0cf6040518163ffffffff1660e01b8152600401602060405180830381865afa15801562000ede573d6000803e3d6000fd5b604051602001620010f098979695949392919062002123565b604051602081830303815290604052915050919050565b6000818152600360205260409020546001600160a01b0316338114806200115157506001600160a01b038116600090815260066020908152604080832033845290915290205460ff165b620011705760405162461bcd60e51b8152600401620004f39062002294565b60008281526005602052604080822080546001600160a01b0319166001600160a01b0387811691821790925591518593918516917f8c5be1e5ebec7d5bd14f71427d1e84f3dd0314c0f7b2291e5b200ac8c7c3b92591a4505050565b6000818152600360205260409020546001600160a01b03848116911614620012245760405162461bcd60e51b815260206004820152600a60248201526957524f4e475f46524f4d60b01b6044820152606401620004f3565b6001600160a01b0382166200124d5760405162461bcd60e51b8152600401620004f390620022bc565b336001600160a01b03841614806200128857506001600160a01b038316600090815260066020908152604080832033845290915290205460ff165b80620012aa57506000818152600560205260409020546001600160a01b031633145b620012c95760405162461bcd60e51b8152600401620004f39062002294565b6001600160a01b0380841660008181526004602090815260408083208054600019019055938616808352848320805460010190558583526003825284832080546001600160a01b031990811683179091556005909252848320805490921690915592518493929160008051602062003d9383398151915291a4505050565b6000818152600360205260409020546001600160a01b0316806200137f5760405162461bcd60e51b8152600401620004f39062001e85565b6001600160a01b038116600081815260046020908152604080832080546000190190558583526003825280832080546001600160a01b0319908116909155600590925280832080549092169091555184929060008051602062003d93833981519152908390a45050565b6007546008546040516000928a926001600160a01b039182169291169030908b908e908b908b908a906200141d90620019cf565b62001430989796959493929190620022e7565b8190604051809103906000f590508015801562001451573d6000803e3d6000fd5b5060075460405163a9059cbb60e01b81529192506001600160a01b03169063a9059cbb906200148790849087906004016200233c565b6020604051808303816000875af1158015620014a7573d6000803e3d6000fd5b505050506040513d601f19601f82011682018060405250810190620014cd919062001dab565b50600b805460018082019092557f0175b7a638427703f0dbe7bb9bbf987a2551717b34e79f33b5b1008d1fa01db90180546001600160a01b0319166001600160a01b03848116919091179091558a81166000908152600c6020908152604080832080548087018255908452828420018c9055928a168252600d81529181208054938401815581522001879055620015658688620017ec565b7f0ce3610e89a4bb9ec9359763f99110ed52a4abaea0b62028a1637e242ca2768b8988604051620015989291906200233c565b60405180910390a1505050505050505050565b60408051602880825260608281019093526000919060208201818036833701905050905060005b6014811015620016c5576000620015eb82601362002355565b620015f89060086200236f565b6001600160a01b038616901c60f881901b915060f41b600f60f81b9081169082166200162482620018b1565b85620016328660026200236f565b8151811062001645576200164562001d95565b60200101906001600160f81b031916908160001a9053506200166781620018b1565b85620016758660026200236f565b6200168290600162002391565b8151811062001695576200169562001d95565b60200101906001600160f81b031916908160001a9053505050508080620016bc9062001ff6565b915050620015d2565b5092915050565b606081600003620016f45750506040805180820190915260018152600360fc1b602082015290565b8160005b81156200172457806200170b8162001ff6565b91506200171c9050600a83620023c2565b9150620016f8565b6000816001600160401b0381111562001741576200174162001ea9565b6040519080825280601f01601f1916602001820160405280156200176c576020820181803683370190505b5090505b8415620017e4576200178460018362002355565b915062001793600a86620023d9565b620017a090603062002391565b60f81b818381518110620017b857620017b862001d95565b60200101906001600160f81b031916908160001a905350620017dc600a86620023c2565b945062001770565b949350505050565b620017f88282620018f4565b6001600160a01b0382163b1580620018925750604051630a85bd0160e11b808252906001600160a01b0384169063150b7a029062001840903390600090879060040162001dee565b6020604051808303816000875af115801562001860573d6000803e3d6000fd5b505050506040513d601f19601f8201168201806040525081019062001886919062001e21565b6001600160e01b031916145b620005085760405162461bcd60e51b8152600401620004f39062001e41565b6000600a60f883901c10620018da57620018d160f883901c6057620023f0565b60f81b620003ac565b620018eb60f883901c6030620023f0565b60f81b92915050565b6001600160a01b0382166200191d5760405162461bcd60e51b8152600401620004f390620022bc565b6000818152600360205260409020546001600160a01b031615620019755760405162461bcd60e51b815260206004820152600e60248201526d1053149150511657d3525395115160921b6044820152606401620004f3565b6001600160a01b038216600081815260046020908152604080832080546001019055848352600390915280822080546001600160a01b03191684179055518392919060008051602062003d93833981519152908290a45050565b61197a806200241983390190565b6001600160e01b031981168114620019f457600080fd5b50565b60006020828403121562001a0a57600080fd5b813562001a1781620019dd565b9392505050565b60005b8381101562001a3b57818101518382015260200162001a21565b8381111562001a4b576000848401525b50505050565b6000815180845262001a6b81602086016020860162001a1e565b601f01601f19169290920160200192915050565b60208152600062001a17602083018462001a51565b60006020828403121562001aa757600080fd5b5035919050565b6001600160a01b0391909116815260200190565b6001600160a01b0381168114620019f457600080fd5b6000806040838503121562001aec57600080fd5b823562001af98162001ac2565b946020939093013593505050565b60006020828403121562001b1a57600080fd5b813562001a178162001ac2565b60008060006060848603121562001b3d57600080fd5b833562001b4a8162001ac2565b9250602084013562001b5c8162001ac2565b929592945050506040919091013590565b6020808252825182820181905260009190848201906040850190845b8181101562001ba75783518352928401929184019160010162001b89565b50909695505050505050565b8015158114620019f457600080fd5b6000806040838503121562001bd657600080fd5b823562001be38162001ac2565b9150602083013562001bf58162001bb3565b809150509250929050565b60008083601f84011262001c1357600080fd5b5081356001600160401b0381111562001c2b57600080fd5b60208301915083602082850101111562001c4457600080fd5b9250929050565b6000806000806060858703121562001c6257600080fd5b843562001c6f8162001ac2565b93506020850135925060408501356001600160401b0381111562001c9257600080fd5b62001ca08782880162001c00565b95989497509550505050565b60008060008060006080868803121562001cc557600080fd5b853562001cd28162001ac2565b9450602086013562001ce48162001ac2565b93506040860135925060608601356001600160401b0381111562001d0757600080fd5b62001d158882890162001c00565b969995985093965092949392505050565b6000806040838503121562001d3a57600080fd5b823562001d478162001ac2565b9150602083013562001bf58162001ac2565b600181811c9082168062001d6e57607f821691505b60208210810362001d8f57634e487b7160e01b600052602260045260246000fd5b50919050565b634e487b7160e01b600052603260045260246000fd5b60006020828403121562001dbe57600080fd5b815162001a178162001bb3565b60208082526009908201526814d3d5531093d5539160ba1b604082015260600190565b6001600160a01b039384168152919092166020820152604081019190915260806060820181905260009082015260a00190565b60006020828403121562001e3457600080fd5b815162001a1781620019dd565b60208082526010908201526f155394d0519157d49150d2541251539560821b604082015260600190565b60006020828403121562001e7e57600080fd5b5051919050565b6020808252600a90820152691393d517d3525395115160b21b604082015260600190565b634e487b7160e01b600052604160045260246000fd5b604051601f8201601f191681016001600160401b038111828210171562001eea5762001eea62001ea9565b604052919050565b60006001600160401b0382111562001f0e5762001f0e62001ea9565b50601f01601f191660200190565b600080600080600060a0868803121562001f3557600080fd5b853562001f428162001ac2565b945060208601359350604086013562001f5b8162001bb3565b92506060860135915060808601356001600160401b0381111562001f7e57600080fd5b8601601f8101881362001f9057600080fd5b803562001fa762001fa18262001ef2565b62001ebf565b81815289602083850101111562001fbd57600080fd5b816020840160208301376000602083830101528093505050509295509295909350565b634e487b7160e01b600052601160045260246000fd5b6000600182016200200b576200200b62001fe0565b5060010190565b6001600160a01b038681168252851660208201526040810184905260806060820181905281018290526000828460a0840137600060a0848401015260a0601f19601f85011683010190509695505050505050565b6000602082840312156200207957600080fd5b81516001600160401b038111156200209057600080fd5b8201601f81018413620020a257600080fd5b8051620020b362001fa18262001ef2565b818152856020838501011115620020c957600080fd5b620020dc82602083016020860162001a1e565b95945050505050565b600060208284031215620020f857600080fd5b815162001a178162001ac2565b600081516200211981856020860162001a1e565b9290920192915050565b6a1130b2323932b9b9911d1160a91b815288516000906200214c81600b850160208e0162001a1e565b7211161130b3b932b2b6b2b73a21b7b232911d1160691b600b9184019182015289516200218181601e840160208e0162001a1e565b6c1116113130b630b731b2911d1160991b601e92909101918201528851620021b181602b840160208d0162001a1e565b6c11161131b932b0ba37b9111d1160991b602b92909101918201528751620021e1816038840160208c0162001a1e565b6d1116113932b232b2b6b2b9111d1160911b60389290910191820152620022856200227e620022646200225d620022466200223f62002224604688018e62002105565b6e11161139b7bab63137bab732111d1160891b8152600f0190565b8b62002105565b6a11161139ba30ba32911d1160a91b8152600b0190565b8862002105565b6d1116113232b0b23634b732911d1160911b8152600e0190565b8562002105565b9b9a5050505050505050505050565b6020808252600e908201526d1393d517d055551213d49256915160921b604082015260600190565b6020808252601190820152701253959053125117d49150d25412515395607a1b604082015260600190565b6001600160a01b03898116825288811660208301528781166040830152606082018790528516608082015260a0810184905282151560c082015261010060e08201819052600090620022858382018562001a51565b6001600160a01b03929092168252602082015260400190565b6000828210156200236a576200236a62001fe0565b500390565b60008160001904831182151516156200238c576200238c62001fe0565b500290565b60008219821115620023a757620023a762001fe0565b500190565b634e487b7160e01b600052601260045260246000fd5b600082620023d457620023d4620023ac565b500490565b600082620023eb57620023eb620023ac565b500690565b600060ff821660ff84168060ff0382111562002410576200241062001fe0565b01939250505056fe6101406040523480156200001257600080fd5b506040516200197a3803806200197a8339810160408190526200003591620002e1565b600080546001600160a01b0319166001600160a01b03861690811782556040518692907f8292fce18fa69edf4db7b94ea2e58241df0ae57f97e0a6c9b29067028bf92d76908290a3506001600160a01b0380891660805287811660a052861660c05260e0859052610100839052811515610120528051620000c09082016020908101908301620003a5565b60026000600360006006600060056000600460008a9190509080519060200190620000ed92919062000155565b5050885162000102919060208b019062000155565b5050875162000117919060208a019062000155565b505086516200012c9190602089019062000155565b50508551620001419190602088019062000155565b5050505050505050505050505050620004c2565b828054620001639062000486565b90600052602060002090601f016020900481019282620001875760008555620001d2565b82601f10620001a257805160ff1916838001178555620001d2565b82800160010185558215620001d2579182015b82811115620001d2578251825591602001919060010190620001b5565b50620001e0929150620001e4565b5090565b5b80821115620001e05760008155600101620001e5565b6001600160a01b03811681146200021157600080fd5b50565b634e487b7160e01b600052604160045260246000fd5b600082601f8301126200023c57600080fd5b81516001600160401b038082111562000259576200025962000214565b604051601f8301601f19908116603f0116810190828211818310171562000284576200028462000214565b81604052838152602092508683858801011115620002a157600080fd5b600091505b83821015620002c55785820183015181830184015290820190620002a6565b83821115620002d75760008385830101525b9695505050505050565b600080600080600080600080610100898b031215620002ff57600080fd5b88516200030c81620001fb565b60208a01519098506200031f81620001fb565b60408a01519097506200033281620001fb565b60608a015160808b015191975095506200034c81620001fb565b60a08a015160c08b0151919550935080151581146200036a57600080fd5b60e08a01519092506001600160401b038111156200038757600080fd5b620003958b828c016200022a565b9150509295985092959890939650565b600080600080600060a08688031215620003be57600080fd5b85516001600160401b0380821115620003d657600080fd5b620003e489838a016200022a565b96506020880151915080821115620003fb57600080fd5b6200040989838a016200022a565b955060408801519150808211156200042057600080fd5b6200042e89838a016200022a565b945060608801519150808211156200044557600080fd5b6200045389838a016200022a565b935060808801519150808211156200046a57600080fd5b5062000479888289016200022a565b9150509295509295909350565b600181811c908216806200049b57607f821691505b602082108103620004bc57634e487b7160e01b600052602260045260246000fd5b50919050565b60805160a05160c05160e05161010051610120516113eb6200058f600039600060c40152600081816101150152610d230152600081816101cd01528181610426015281816105eb015281816109310152610d9001526000818161047e01528181610643015281816109570152610db601526000818161032901528181610a6e0152610af401526000818161039a0152818161045401528181610500015281816106190152818161072f0152818161088701528181610a4101528181610c320152610e7801526113eb6000f3fe608060405234801561001057600080fd5b50600436106100ba5760003560e01c80630fad0f51146100bf57806313af4035146100fb57806329dcb0cf14610110578063355c76ba146101455780635d64e3101461015a5780637b40d6b71461016d5780638da5cb5b14610175578063a4c0ed3614610195578063aa3ec0a9146101a8578063b79550be146101b0578063c19d93fb146101b8578063cf6ad876146101c0578063e2739491146101c8578063edbf55f6146101ef575b600080fd5b6100e67f000000000000000000000000000000000000000000000000000000000000000081565b60405190151581526020015b60405180910390f35b61010e610109366004610f74565b6101f7565b005b6101377f000000000000000000000000000000000000000000000000000000000000000081565b6040519081526020016100f2565b61014d610290565b6040516100f29190610fe5565b61010e610168366004610ff8565b61031e565b61014d61084a565b600054610188906001600160a01b031681565b6040516100f2919061101a565b61010e6101a336600461102e565b610857565b61014d610b86565b61010e610b93565b610137610d15565b61010e610d5c565b6101377f000000000000000000000000000000000000000000000000000000000000000081565b61014d610eb9565b6000546001600160a01b031633146102455760405162461bcd60e51b815260206004820152600c60248201526b15539055551213d49256915160a21b60448201526064015b60405180910390fd5b600080546001600160a01b0319166001600160a01b0383169081178255604051909133917f8292fce18fa69edf4db7b94ea2e58241df0ae57f97e0a6c9b29067028bf92d769190a350565b6005805461029d906110b6565b80601f01602080910402602001604051908101604052809291908181526020018280546102c9906110b6565b80156103165780601f106102eb57610100808354040283529160200191610316565b820191906000526020600020905b8154815290600101906020018083116102f957829003601f168201915b505050505081565b336001600160a01b037f0000000000000000000000000000000000000000000000000000000000000000161461037f5760405162461bcd60e51b81526020600482015260066024820152654e4f545f554160d01b604482015260640161023c565b600180556040516370a0823160e01b81526001600160a01b037f000000000000000000000000000000000000000000000000000000000000000016906370a08231906103cf90309060040161101a565b602060405180830381865afa1580156103ec573d6000803e3d6000fd5b505050506040513d601f19601f8201168201806040525081019061041091906110f0565b8111156105dc576040516331a9108f60e11b81527f000000000000000000000000000000000000000000000000000000000000000060048201526001600160a01b037f000000000000000000000000000000000000000000000000000000000000000081169163a9059cbb917f00000000000000000000000000000000000000000000000000000000000000001690636352211e90602401602060405180830381865afa1580156104c5573d6000803e3d6000fd5b505050506040513d601f19601f820116820180604052508101906104e99190611109565b6040516370a0823160e01b81526001600160a01b037f000000000000000000000000000000000000000000000000000000000000000016906370a082319061053590309060040161101a565b602060405180830381865afa158015610552573d6000803e3d6000fd5b505050506040513d601f19601f8201168201806040525081019061057691906110f0565b6040518363ffffffff1660e01b8152600401610593929190611126565b6020604051808303816000875af11580156105b2573d6000803e3d6000fd5b505050506040513d601f19601f820116820180604052508101906105d6919061113f565b50610813565b6040516331a9108f60e11b81527f000000000000000000000000000000000000000000000000000000000000000060048201526001600160a01b037f000000000000000000000000000000000000000000000000000000000000000081169163a9059cbb917f00000000000000000000000000000000000000000000000000000000000000001690636352211e90602401602060405180830381865afa15801561068a573d6000803e3d6000fd5b505050506040513d601f19601f820116820180604052508101906106ae9190611109565b6040516001600160e01b031960e084901b1681526106d191908590600401611126565b6020604051808303816000875af11580156106f0573d6000803e3d6000fd5b505050506040513d601f19601f82011682018060405250810190610714919061113f565b506000546040516370a0823160e01b81526001600160a01b037f000000000000000000000000000000000000000000000000000000000000000081169263a9059cbb9291169083906370a082319061077090309060040161101a565b602060405180830381865afa15801561078d573d6000803e3d6000fd5b505050506040513d601f19601f820116820180604052508101906107b191906110f0565b6040518363ffffffff1660e01b81526004016107ce929190611126565b6020604051808303816000875af11580156107ed573d6000803e3d6000fd5b505050506040513d601f19601f82011682018060405250810190610811919061113f565b505b6040518181527fd14df08fabc3175c71c9c6b212bd0fd290d0e78a5f809c5f28deb5ba6f029b919060200160405180910390a15050565b6006805461029d906110b6565b61085f610d15565b1561087c5760405162461bcd60e51b815260040161023c90611161565b336001600160a01b037f000000000000000000000000000000000000000000000000000000000000000016146108df5760405162461bcd60e51b81526020600482015260086024820152674e4f545f4c494e4b60c01b604482015260640161023c565b606483146109225760405162461bcd60e51b815260206004820152601060248201526f125390d3d4949150d517d05353d5539560821b604482015260640161023c565b6040516331a9108f60e11b81527f000000000000000000000000000000000000000000000000000000000000000060048201527f00000000000000000000000000000000000000000000000000000000000000006001600160a01b031690636352211e90602401602060405180830381865afa1580156109a6573d6000803e3d6000fd5b505050506040513d601f19601f820116820180604052508101906109ca9190611109565b6001600160a01b0316846001600160a01b0316146109fa5760405162461bcd60e51b815260040161023c90611183565b606080610a098385018561124b565b8051919350915015610a2a578051610a28906004906020840190610ec6565b505b60405163095ea7b360e01b81526001600160a01b037f0000000000000000000000000000000000000000000000000000000000000000169063095ea7b390610a99907f000000000000000000000000000000000000000000000000000000000000000090606490600401611126565b6020604051808303816000875af1158015610ab8573d6000803e3d6000fd5b505050506040513d601f19601f82011682018060405250810190610adc919061113f565b5060405163d303e6a560e01b81526001600160a01b037f0000000000000000000000000000000000000000000000000000000000000000169063d303e6a590610b3a906305d64e3160e41b906002906003908890600490810161134d565b6020604051808303816000875af1158015610b59573d6000803e3d6000fd5b505050506040513d601f19601f82011682018060405250810190610b7d91906110f0565b50505050505050565b6003805461029d906110b6565b6000546001600160a01b03163314610bdb5760405162461bcd60e51b815260206004820152600b60248201526a2727aa2fa1a922a0aa27a960a91b604482015260640161023c565b610be3610d15565b600003610c1b5760405162461bcd60e51b815260206004820152600660248201526541435449564560d01b604482015260640161023c565b6040516370a0823160e01b81526001600160a01b037f0000000000000000000000000000000000000000000000000000000000000000169063a9059cbb90339083906370a0823190610c7190309060040161101a565b602060405180830381865afa158015610c8e573d6000803e3d6000fd5b505050506040513d601f19601f82011682018060405250810190610cb291906110f0565b6040518363ffffffff1660e01b8152600401610ccf929190611126565b6020604051808303816000875af1158015610cee573d6000803e3d6000fd5b505050506040513d601f19601f82011682018060405250810190610d12919061113f565b50565b6000600154600114610d55577f00000000000000000000000000000000000000000000000000000000000000004211610d4f575060015490565b50600390565b5060015490565b610d64610d15565b15610d815760405162461bcd60e51b815260040161023c90611161565b6040516331a9108f60e11b81527f000000000000000000000000000000000000000000000000000000000000000060048201527f00000000000000000000000000000000000000000000000000000000000000006001600160a01b031690636352211e90602401602060405180830381865afa158015610e05573d6000803e3d6000fd5b505050506040513d601f19601f82011682018060405250810190610e299190611109565b6001600160a01b0316336001600160a01b031614610e595760405162461bcd60e51b815260040161023c90611183565b60026001556000546040516370a0823160e01b81526001600160a01b037f000000000000000000000000000000000000000000000000000000000000000081169263a9059cbb9291169083906370a0823190610c7190309060040161101a565b6002805461029d906110b6565b828054610ed2906110b6565b90600052602060002090601f016020900481019282610ef45760008555610f3a565b82601f10610f0d57805160ff1916838001178555610f3a565b82800160010185558215610f3a579182015b82811115610f3a578251825591602001919060010190610f1f565b50610f46929150610f4a565b5090565b5b80821115610f465760008155600101610f4b565b6001600160a01b0381168114610d1257600080fd5b600060208284031215610f8657600080fd5b8135610f9181610f5f565b9392505050565b6000815180845260005b81811015610fbe57602081850181015186830182015201610fa2565b81811115610fd0576000602083870101525b50601f01601f19169290920160200192915050565b602081526000610f916020830184610f98565b6000806040838503121561100b57600080fd5b50508035926020909101359150565b6001600160a01b0391909116815260200190565b6000806000806060858703121561104457600080fd5b843561104f81610f5f565b93506020850135925060408501356001600160401b038082111561107257600080fd5b818701915087601f83011261108657600080fd5b81358181111561109557600080fd5b8860208285010111156110a757600080fd5b95989497505060200194505050565b600181811c908216806110ca57607f821691505b6020821081036110ea57634e487b7160e01b600052602260045260246000fd5b50919050565b60006020828403121561110257600080fd5b5051919050565b60006020828403121561111b57600080fd5b8151610f9181610f5f565b6001600160a01b03929092168252602082015260400190565b60006020828403121561115157600080fd5b81518015158114610f9157600080fd5b602080825260089082015267494e41435449564560c01b604082015260600190565b6020808252600c908201526b2727aa2fa922a222a2a6a2a960a11b604082015260600190565b634e487b7160e01b600052604160045260246000fd5b600082601f8301126111d057600080fd5b81356001600160401b03808211156111ea576111ea6111a9565b604051601f8301601f19908116603f01168101908282118183101715611212576112126111a9565b8160405283815286602085880101111561122b57600080fd5b836020870160208301376000602085830101528094505050505092915050565b6000806040838503121561125e57600080fd5b82356001600160401b038082111561127557600080fd5b611281868387016111bf565b9350602085013591508082111561129757600080fd5b506112a4858286016111bf565b9150509250929050565b8054600090600181811c90808316806112c857607f831692505b602080841082036112e957634e487b7160e01b600052602260045260246000fd5b83885260208801828015611304576001811461131557611340565b60ff19871682528282019750611340565b60008981526020902060005b8781101561133a57815484820152908601908401611321565b83019850505b5050505050505092915050565b63ffffffff60e01b8616815260a06020820152600061136f60a08301876112ae565b828103604084015261138181876112ae565b905082810360608401526113958186610f98565b905082810360808401526113a981856112ae565b9897505050505050505056fea2646970667358221220a599b95e3f1b3077b255d10461d65c307c7712c97b3aa3b65974e5cac108f6f564736f6c634300080e0033ddf252ad1be2c89b69c2b068fc378daa952ba7f163c4a11628f55a4df523b3efa2646970667358221220b3dd3b50506dee52454092a9a6a3abbd4ea8b2827f36b4025c778450ed23743264736f6c634300080e0033",
  "linkReferences": {},
  "deployedLinkReferences": {}
}