{
  "_format": "hh-sol-artifact-1",
  "contractName": "AgreementRegistry",
  "sourceName": "contracts/AgreementRegistry.sol",
  "abi": [
    {
      "inputs": [
        {
          "internalType": "contract LinkTokenInterface",
          "name": "_linkToken",
          "type": "address"
        },
        {
          "internalType": "contract IUniversalAdapter",
          "name": "_universalAdapter",
          "type": "address"
        }
      ],
      "stateMutability": "nonpayable",
      "type": "constructor"
    },
    {
      "anonymous": false,
      "inputs": [
        {
          "indexed": true,
          "internalType": "address",
          "name": "owner",
          "type": "address"
        },
        {
          "indexed": true,
          "internalType": "address",
          "name": "spender",
          "type": "address"
        },
        {
          "indexed": true,
          "internalType": "uint256",
          "name": "id",
          "type": "uint256"
        }
      ],
      "name": "Approval",
      "type": "event"
    },
    {
      "anonymous": false,
      "inputs": [
        {
          "indexed": true,
          "internalType": "address",
          "name": "owner",
          "type": "address"
        },
        {
          "indexed": true,
          "internalType": "address",
          "name": "operator",
          "type": "address"
        },
        {
          "indexed": false,
          "internalType": "bool",
          "name": "approved",
          "type": "bool"
        }
      ],
      "name": "ApprovalForAll",
      "type": "event"
    },
    {
      "anonymous": false,
      "inputs": [
        {
          "indexed": false,
          "internalType": "address",
          "name": "owner",
          "type": "address"
        },
        {
          "indexed": false,
          "internalType": "uint256",
          "name": "id",
          "type": "uint256"
        }
      ],
      "name": "Created",
      "type": "event"
    },
    {
      "anonymous": false,
      "inputs": [
        {
          "indexed": true,
          "internalType": "address",
          "name": "user",
          "type": "address"
        },
        {
          "indexed": true,
          "internalType": "address",
          "name": "newOwner",
          "type": "address"
        }
      ],
      "name": "OwnerUpdated",
      "type": "event"
    },
    {
      "anonymous": false,
      "inputs": [
        {
          "indexed": true,
          "internalType": "address",
          "name": "from",
          "type": "address"
        },
        {
          "indexed": true,
          "internalType": "address",
          "name": "to",
          "type": "address"
        },
        {
          "indexed": true,
          "internalType": "uint256",
          "name": "id",
          "type": "uint256"
        }
      ],
      "name": "Transfer",
      "type": "event"
    },
    {
      "inputs": [
        {
          "internalType": "uint256",
          "name": "",
          "type": "uint256"
        }
      ],
      "name": "agreements",
      "outputs": [
        {
          "internalType": "contract Agreement",
          "name": "",
          "type": "address"
        }
      ],
      "stateMutability": "view",
      "type": "function"
    },
    {
      "inputs": [
        {
          "internalType": "address",
          "name": "to",
          "type": "address"
        },
        {
          "internalType": "uint256",
          "name": "id",
          "type": "uint256"
        }
      ],
      "name": "approve",
      "outputs": [],
      "stateMutability": "nonpayable",
      "type": "function"
    },
    {
      "inputs": [
        {
          "internalType": "address",
          "name": "owner",
          "type": "address"
        }
      ],
      "name": "balanceOf",
      "outputs": [
        {
          "internalType": "uint256",
          "name": "",
          "type": "uint256"
        }
      ],
      "stateMutability": "view",
      "type": "function"
    },
    {
      "inputs": [
        {
          "internalType": "uint256",
          "name": "id",
          "type": "uint256"
        }
      ],
      "name": "burn",
      "outputs": [],
      "stateMutability": "nonpayable",
      "type": "function"
    },
    {
      "inputs": [
        {
          "internalType": "bytes",
          "name": "data",
          "type": "bytes"
        }
      ],
      "name": "createAgreement",
      "outputs": [],
      "stateMutability": "payable",
      "type": "function"
    },
    {
      "inputs": [
        {
          "internalType": "uint256",
          "name": "",
          "type": "uint256"
        }
      ],
      "name": "getApproved",
      "outputs": [
        {
          "internalType": "address",
          "name": "",
          "type": "address"
        }
      ],
      "stateMutability": "view",
      "type": "function"
    },
    {
      "inputs": [
        {
          "internalType": "address",
          "name": "creator",
          "type": "address"
        }
      ],
      "name": "getCreatorAgreements",
      "outputs": [
        {
          "internalType": "uint256[]",
          "name": "",
          "type": "uint256[]"
        }
      ],
      "stateMutability": "view",
      "type": "function"
    },
    {
      "inputs": [
        {
          "internalType": "address",
          "name": "redeemer",
          "type": "address"
        }
      ],
      "name": "getRedeemerAgreements",
      "outputs": [
        {
          "internalType": "uint256[]",
          "name": "",
          "type": "uint256[]"
        }
      ],
      "stateMutability": "view",
      "type": "function"
    },
    {
      "inputs": [],
      "name": "ids",
      "outputs": [
        {
          "internalType": "uint256",
          "name": "",
          "type": "uint256"
        }
      ],
      "stateMutability": "view",
      "type": "function"
    },
    {
      "inputs": [
        {
          "internalType": "address",
          "name": "",
          "type": "address"
        },
        {
          "internalType": "address",
          "name": "",
          "type": "address"
        }
      ],
      "name": "isApprovedForAll",
      "outputs": [
        {
          "internalType": "bool",
          "name": "",
          "type": "bool"
        }
      ],
      "stateMutability": "view",
      "type": "function"
    },
    {
      "inputs": [],
      "name": "name",
      "outputs": [
        {
          "internalType": "string",
          "name": "",
          "type": "string"
        }
      ],
      "stateMutability": "view",
      "type": "function"
    },
    {
      "inputs": [],
      "name": "owner",
      "outputs": [
        {
          "internalType": "address",
          "name": "",
          "type": "address"
        }
      ],
      "stateMutability": "view",
      "type": "function"
    },
    {
      "inputs": [
        {
          "internalType": "uint256",
          "name": "id",
          "type": "uint256"
        }
      ],
      "name": "ownerOf",
      "outputs": [
        {
          "internalType": "address",
          "name": "owner",
          "type": "address"
        }
      ],
      "stateMutability": "view",
      "type": "function"
    },
    {
      "inputs": [
        {
          "internalType": "address",
          "name": "from",
          "type": "address"
        },
        {
          "internalType": "address",
          "name": "to",
          "type": "address"
        },
        {
          "internalType": "uint256",
          "name": "id",
          "type": "uint256"
        }
      ],
      "name": "safeTransferFrom",
      "outputs": [],
      "stateMutability": "nonpayable",
      "type": "function"
    },
    {
      "inputs": [
        {
          "internalType": "address",
          "name": "from",
          "type": "address"
        },
        {
          "internalType": "address",
          "name": "to",
          "type": "address"
        },
        {
          "internalType": "uint256",
          "name": "id",
          "type": "uint256"
        },
        {
          "internalType": "bytes",
          "name": "data",
          "type": "bytes"
        }
      ],
      "name": "safeTransferFrom",
      "outputs": [],
      "stateMutability": "nonpayable",
      "type": "function"
    },
    {
      "inputs": [
        {
          "internalType": "address",
          "name": "operator",
          "type": "address"
        },
        {
          "internalType": "bool",
          "name": "approved",
          "type": "bool"
        }
      ],
      "name": "setApprovalForAll",
      "outputs": [],
      "stateMutability": "nonpayable",
      "type": "function"
    },
    {
      "inputs": [
        {
          "internalType": "address",
          "name": "newOwner",
          "type": "address"
        }
      ],
      "name": "setOwner",
      "outputs": [],
      "stateMutability": "nonpayable",
      "type": "function"
    },
    {
      "inputs": [
        {
          "internalType": "bytes4",
          "name": "interfaceId",
          "type": "bytes4"
        }
      ],
      "name": "supportsInterface",
      "outputs": [
        {
          "internalType": "bool",
          "name": "",
          "type": "bool"
        }
      ],
      "stateMutability": "view",
      "type": "function"
    },
    {
      "inputs": [],
      "name": "symbol",
      "outputs": [
        {
          "internalType": "string",
          "name": "",
          "type": "string"
        }
      ],
      "stateMutability": "view",
      "type": "function"
    },
    {
      "inputs": [
        {
          "internalType": "uint256",
          "name": "id",
          "type": "uint256"
        }
      ],
      "name": "tokenURI",
      "outputs": [
        {
          "internalType": "string",
          "name": "uri",
          "type": "string"
        }
      ],
      "stateMutability": "view",
      "type": "function"
    },
    {
      "inputs": [
        {
          "internalType": "address",
          "name": "from",
          "type": "address"
        },
        {
          "internalType": "address",
          "name": "to",
          "type": "address"
        },
        {
          "internalType": "uint256",
          "name": "id",
          "type": "uint256"
        }
      ],
      "name": "transferFrom",
      "outputs": [],
      "stateMutability": "nonpayable",
      "type": "function"
    }
  ],
  "bytecode": "0x60806040523480156200001157600080fd5b5060405162003da038038062003da08339810160408190526200003491620001eb565b604080518082018252601a81527f556e6976657273616c20416461707465722050726f746f636f6c0000000000006020808301919091528251808401845260048152630754170760e41b91810191909152600080546001600160a01b0319163390811782559351929391928291907f8292fce18fa69edf4db7b94ea2e58241df0ae57f97e0a6c9b29067028bf92d76908290a3508151620000dd9060019060208501906200012c565b508051620000f39060029060208401906200012c565b5050600780546001600160a01b039485166001600160a01b03199182161790915560088054939094169216919091179091555062000266565b8280546200013a906200022a565b90600052602060002090601f0160209004810192826200015e5760008555620001a9565b82601f106200017957805160ff1916838001178555620001a9565b82800160010185558215620001a9579182015b82811115620001a95782518255916020019190600101906200018c565b50620001b7929150620001bb565b5090565b5b80821115620001b75760008155600101620001bc565b6001600160a01b0381168114620001e857600080fd5b50565b60008060408385031215620001ff57600080fd5b82516200020c81620001d2565b60208401519092506200021f81620001d2565b809150509250929050565b600181811c908216806200023f57607f821691505b6020821081036200026057634e487b7160e01b600052602260045260246000fd5b50919050565b613b2a80620002766000396000f3fe608060405260043610620001105760003560e01c806301ffc9a7146200011557806306fdde03146200014f578063081812fc1462000176578063095ea7b314620001bf57806313af403514620001e657806323b872dd146200020b57806342842e0e146200023057806342966c6814620002555780634d00b4da146200027a5780636352211e146200029157806368facffe14620002b657806370a0823114620002ea5780638da5cb5b146200031e57806395d89b411462000340578063a22cb4651462000358578063b88d4fde146200037d578063bae1904014620003a2578063bd14de9614620003c7578063c87b56dd14620003ec578063e7657e151462000411578063e985e9c51462000429575b600080fd5b3480156200012257600080fd5b506200013a6200013436600462001a65565b62000468565b60405190151581526020015b60405180910390f35b3480156200015c57600080fd5b5062000167620004bc565b60405162000146919062001aed565b3480156200018357600080fd5b50620001b06200019536600462001b02565b6005602052600090815260409020546001600160a01b031681565b60405162000146919062001b1c565b348015620001cc57600080fd5b50620001e4620001de36600462001b46565b62000552565b005b348015620001f357600080fd5b50620001e46200020536600462001b75565b62000616565b3480156200021857600080fd5b50620001e46200022a36600462001b95565b620006ac565b3480156200023d57600080fd5b50620001e46200024f36600462001b95565b62000769565b3480156200026257600080fd5b50620001e46200027436600462001b02565b6200082e565b620001e46200028b36600462001c26565b62000927565b3480156200029e57600080fd5b50620001b0620002b036600462001b02565b62000aa8565b348015620002c357600080fd5b50620002db620002d536600462001b75565b62000ae5565b60405162000146919062001c6b565b348015620002f757600080fd5b506200030f6200030936600462001b75565b62000b53565b60405190815260200162000146565b3480156200032b57600080fd5b50600054620001b0906001600160a01b031681565b3480156200034d57600080fd5b506200016762000bb8565b3480156200036557600080fd5b50620001e46200037736600462001cc0565b62000bc7565b3480156200038a57600080fd5b50620001e46200039c36600462001cfe565b62000bfe565b348015620003af57600080fd5b50620002db620003c136600462001b75565b62000cce565b348015620003d457600080fd5b50620001b0620003e636600462001b02565b62000d3a565b348015620003f957600080fd5b50620001676200040b36600462001b02565b62000d65565b3480156200041e57600080fd5b506200030f60095481565b3480156200043657600080fd5b506200013a6200044836600462001d78565b600660209081526000928352604080842090915290825290205460ff1681565b60006301ffc9a760e01b6001600160e01b0319831614806200049a57506380ac58cd60e01b6001600160e01b03198316145b80620004b65750635b5e139f60e01b6001600160e01b03198316145b92915050565b60018054620004cb9062001dab565b80601f0160208091040260200160405190810160405280929190818152602001828054620004f99062001dab565b80156200054a5780601f106200051e576101008083540402835291602001916200054a565b820191906000526020600020905b8154815290600101906020018083116200052c57829003601f168201915b505050505081565b600b818154811062000568576200056862001de7565b6000918252602091829020015460408051630fad0f5160e01b815290516001600160a01b0390921692630fad0f51926004808401938290030181865afa158015620005b7573d6000803e3d6000fd5b505050506040513d601f19601f82011682018060405250810190620005dd919062001dfd565b15620006065760405162461bcd60e51b8152600401620005fd9062001e1d565b60405180910390fd5b620006128282620011bb565b5050565b6000546001600160a01b03163314620006615760405162461bcd60e51b815260206004820152600c60248201526b15539055551213d49256915160a21b6044820152606401620005fd565b600080546001600160a01b0319166001600160a01b0383169081178255604051909133917f8292fce18fa69edf4db7b94ea2e58241df0ae57f97e0a6c9b29067028bf92d769190a350565b600b8181548110620006c257620006c262001de7565b6000918252602091829020015460408051630fad0f5160e01b815290516001600160a01b0390921692630fad0f51926004808401938290030181865afa15801562000711573d6000803e3d6000fd5b505050506040513d601f19601f8201168201806040525081019062000737919062001dfd565b15620007575760405162461bcd60e51b8152600401620005fd9062001e1d565b6200076483838362001280565b505050565b62000776838383620006ac565b6001600160a01b0382163b15806200080f5750604051630a85bd0160e11b808252906001600160a01b0384169063150b7a0290620007bd9033908890879060040162001e40565b6020604051808303816000875af1158015620007dd573d6000803e3d6000fd5b505050506040513d601f19601f8201168201806040525081019062000803919062001e73565b6001600160e01b031916145b620007645760405162461bcd60e51b8152600401620005fd9062001e93565b6000600b828154811062000846576200084662001de7565b600091825260209182902001546040805163c19d93fb60e01b815290516001600160a01b039092169350839263c19d93fb926004808401938290030181865afa15801562000898573d6000803e3d6000fd5b505050506040513d601f19601f82011682018060405250810190620008be919062001ebd565b6000036200091c57806001600160a01b031663cf6ad8766040518163ffffffff1660e01b8152600401600060405180830381600087803b1580156200090257600080fd5b505af115801562000917573d6000803e3d6000fd5b505050505b6200061282620013fb565b600080808060606200093c8688018862001f4a565b9398509196509450925090506001600160a01b038516620009925760405162461bcd60e51b815260206004820152600f60248201526e494e56414c49445f4144445245535360881b6044820152606401620005fd565b813414620009d25760405162461bcd60e51b815260206004820152600c60248201526b15d493d391d7d05353d5539560a21b6044820152606401620005fd565b42841162000a165760405162461bcd60e51b815260206004820152601060248201526f494e56414c49445f444541444c494e4560801b6044820152606401620005fd565b600980546000918262000a298362002024565b90915550336000818152600a602090815260408083208054600181019091559051949550919362000a749392910160609290921b6001600160601b0319168252601482015260340190565b60405160208183030381529060405280519060200120905062000a9d818389898989896200149d565b505050505050505050565b6000818152600360205260409020546001600160a01b03168062000ae05760405162461bcd60e51b8152600401620005fd9062002040565b919050565b6001600160a01b0381166000908152600d602090815260409182902080548351818402810184019094528084526060939283018282801562000b4757602002820191906000526020600020905b81548152602001906001019080831162000b32575b50505050509050919050565b60006001600160a01b03821662000b9c5760405162461bcd60e51b815260206004820152600c60248201526b5a45524f5f4144445245535360a01b6044820152606401620005fd565b506001600160a01b031660009081526004602052604090205490565b60028054620004cb9062001dab565b60405162461bcd60e51b815260206004820152600b60248201526a1393d517d0531313d5d15160aa1b6044820152606401620005fd565b62000c0b858585620006ac565b6001600160a01b0384163b158062000ca85750604051630a85bd0160e11b808252906001600160a01b0386169063150b7a029062000c569033908a9089908990899060040162002064565b6020604051808303816000875af115801562000c76573d6000803e3d6000fd5b505050506040513d601f19601f8201168201806040525081019062000c9c919062001e73565b6001600160e01b031916145b62000cc75760405162461bcd60e51b8152600401620005fd9062001e93565b5050505050565b6001600160a01b0381166000908152600c602090815260409182902080548351818402810184019094528084526060939283018282801562000b47576020028201919060005260206000209081548152602001906001019080831162000b325750505050509050919050565b600b818154811062000d4b57600080fd5b6000918252602090912001546001600160a01b0316905081565b6000818152600360205260409020546060906001600160a01b031662000dbb5760405162461bcd60e51b815260206004820152600a6024820152691253959053125117d25160b21b6044820152606401620005fd565b6000600b838154811062000dd35762000dd362001de7565b6000918252602090912001546001600160a01b0316905062000df58162001619565b6000826001600160a01b031663aa3ec0a96040518163ffffffff1660e01b8152600401600060405180830381865afa15801562000e36573d6000803e3d6000fd5b505050506040513d6000823e601f3d908101601f1916820160405262000e609190810190620020b8565b511162000ed657816001600160a01b031663edbf55f66040518163ffffffff1660e01b8152600401600060405180830381865afa15801562000ea6573d6000803e3d6000fd5b505050506040513d6000823e601f3d908101601f1916820160405262000ed09190810190620020b8565b62000f3f565b816001600160a01b031663aa3ec0a96040518163ffffffff1660e01b8152600401600060405180830381865afa15801562000f15573d6000803e3d6000fd5b505050506040513d6000823e601f3d908101601f1916820160405262000f3f9190810190620020b8565b6007546040516370a0823160e01b815262000fbe916001600160a01b0316906370a082319062000f7490879060040162001b1c565b602060405180830381865afa15801562000f92573d6000803e3d6000fd5b505050506040513d601f19601f8201168201806040525081019062000fb8919062001ebd565b6200173a565b62001036846001600160a01b0316638da5cb5b6040518163ffffffff1660e01b8152600401602060405180830381865afa15801562001001573d6000803e3d6000fd5b505050506040513d601f19601f8201168201806040525081019062001027919062002137565b6001600160a01b031662001619565b60008781526003602052604090205462001059906001600160a01b031662001619565b856001600160a01b0316630fad0f516040518163ffffffff1660e01b8152600401602060405180830381865afa15801562001098573d6000803e3d6000fd5b505050506040513d601f19601f82011682018060405250810190620010be919062001dfd565b620010e7576040518060400160405280600581526020016466616c736560d81b81525062001105565b604051806040016040528060048152602001637472756560e01b8152505b62001148876001600160a01b031663c19d93fb6040518163ffffffff1660e01b8152600401602060405180830381865afa15801562000f92573d6000803e3d6000fd5b6200118b886001600160a01b03166329dcb0cf6040518163ffffffff1660e01b8152600401602060405180830381865afa15801562000f92573d6000803e3d6000fd5b604051602001620011a498979695949392919062002175565b604051602081830303815290604052915050919050565b6000818152600360205260409020546001600160a01b0316338114806200120557506001600160a01b038116600090815260066020908152604080832033845290915290205460ff165b620012245760405162461bcd60e51b8152600401620005fd90620022e6565b60008281526005602052604080822080546001600160a01b0319166001600160a01b0387811691821790925591518593918516917f8c5be1e5ebec7d5bd14f71427d1e84f3dd0314c0f7b2291e5b200ac8c7c3b92591a4505050565b6000818152600360205260409020546001600160a01b03848116911614620012d85760405162461bcd60e51b815260206004820152600a60248201526957524f4e475f46524f4d60b01b6044820152606401620005fd565b6001600160a01b038216620013015760405162461bcd60e51b8152600401620005fd906200230e565b336001600160a01b03841614806200133c57506001600160a01b038316600090815260066020908152604080832033845290915290205460ff165b806200135e57506000818152600560205260409020546001600160a01b031633145b6200137d5760405162461bcd60e51b8152600401620005fd90620022e6565b6001600160a01b0380841660008181526004602090815260408083208054600019019055938616808352848320805460010190558583526003825284832080546001600160a01b031990811683179091556005909252848320805490921690915592518493929160008051602062003ad583398151915291a4505050565b6000818152600360205260409020546001600160a01b031680620014335760405162461bcd60e51b8152600401620005fd9062002040565b6001600160a01b038116600081815260046020908152604080832080546000190190558583526003825280832080546001600160a01b0319908116909155600590925280832080549092169091555184929060008051602062003ad5833981519152908390a45050565b6007546008546040516000928a926001600160a01b039182169291169030908b9033908b908b908a90620014d19062001a3d565b620014e498979695949392919062002339565b8190604051809103906000f590508015801562001505573d6000803e3d6000fd5b506040519091506001600160a01b0382169084156108fc029085906000818181858888f1935050505015801562001540573d6000803e3d6000fd5b50600b805460018082019092557f0175b7a638427703f0dbe7bb9bbf987a2551717b34e79f33b5b1008d1fa01db90180546001600160a01b0319166001600160a01b0384811691909117909155336000908152600c6020908152604080832080548087018255908452828420018c9055928a168252600d81529181208054938401815581522001879055620015d686886200185a565b60408051338152602081018990527f0ce3610e89a4bb9ec9359763f99110ed52a4abaea0b62028a1637e242ca2768b910160405180910390a15050505050505050565b60408051602880825260608281019093526000919060208201818036833701905050905060005b601481101562001733576000620016598260136200238e565b62001666906008620023a8565b6001600160a01b038616901c60f881901b915060f41b600f60f81b90811690821662001692826200191f565b85620016a0866002620023a8565b81518110620016b357620016b362001de7565b60200101906001600160f81b031916908160001a905350620016d5816200191f565b85620016e3866002620023a8565b620016f0906001620023ca565b8151811062001703576200170362001de7565b60200101906001600160f81b031916908160001a90535050505080806200172a9062002024565b91505062001640565b5092915050565b606081600003620017625750506040805180820190915260018152600360fc1b602082015290565b8160005b8115620017925780620017798162002024565b91506200178a9050600a83620023fb565b915062001766565b6000816001600160401b03811115620017af57620017af62001ed7565b6040519080825280601f01601f191660200182016040528015620017da576020820181803683370190505b5090505b84156200185257620017f26001836200238e565b915062001801600a8662002412565b6200180e906030620023ca565b60f81b81838151811062001826576200182662001de7565b60200101906001600160f81b031916908160001a9053506200184a600a86620023fb565b9450620017de565b949350505050565b62001866828262001962565b6001600160a01b0382163b1580620019005750604051630a85bd0160e11b808252906001600160a01b0384169063150b7a0290620018ae903390600090879060040162001e40565b6020604051808303816000875af1158015620018ce573d6000803e3d6000fd5b505050506040513d601f19601f82011682018060405250810190620018f4919062001e73565b6001600160e01b031916145b620006125760405162461bcd60e51b8152600401620005fd9062001e93565b6000600a60f883901c1062001948576200193f60f883901c605762002429565b60f81b620004b6565b6200195960f883901c603062002429565b60f81b92915050565b6001600160a01b0382166200198b5760405162461bcd60e51b8152600401620005fd906200230e565b6000818152600360205260409020546001600160a01b031615620019e35760405162461bcd60e51b815260206004820152600e60248201526d1053149150511657d3525395115160921b6044820152606401620005fd565b6001600160a01b038216600081815260046020908152604080832080546001019055848352600390915280822080546001600160a01b03191684179055518392919060008051602062003ad5833981519152908290a45050565b611683806200245283390190565b6001600160e01b03198116811462001a6257600080fd5b50565b60006020828403121562001a7857600080fd5b813562001a858162001a4b565b9392505050565b60005b8381101562001aa957818101518382015260200162001a8f565b8381111562001ab9576000848401525b50505050565b6000815180845262001ad981602086016020860162001a8c565b601f01601f19169290920160200192915050565b60208152600062001a85602083018462001abf565b60006020828403121562001b1557600080fd5b5035919050565b6001600160a01b0391909116815260200190565b6001600160a01b038116811462001a6257600080fd5b6000806040838503121562001b5a57600080fd5b823562001b678162001b30565b946020939093013593505050565b60006020828403121562001b8857600080fd5b813562001a858162001b30565b60008060006060848603121562001bab57600080fd5b833562001bb88162001b30565b9250602084013562001bca8162001b30565b929592945050506040919091013590565b60008083601f84011262001bee57600080fd5b5081356001600160401b0381111562001c0657600080fd5b60208301915083602082850101111562001c1f57600080fd5b9250929050565b6000806020838503121562001c3a57600080fd5b82356001600160401b0381111562001c5157600080fd5b62001c5f8582860162001bdb565b90969095509350505050565b6020808252825182820181905260009190848201906040850190845b8181101562001ca55783518352928401929184019160010162001c87565b50909695505050505050565b801515811462001a6257600080fd5b6000806040838503121562001cd457600080fd5b823562001ce18162001b30565b9150602083013562001cf38162001cb1565b809150509250929050565b60008060008060006080868803121562001d1757600080fd5b853562001d248162001b30565b9450602086013562001d368162001b30565b93506040860135925060608601356001600160401b0381111562001d5957600080fd5b62001d678882890162001bdb565b969995985093965092949392505050565b6000806040838503121562001d8c57600080fd5b823562001d998162001b30565b9150602083013562001cf38162001b30565b600181811c9082168062001dc057607f821691505b60208210810362001de157634e487b7160e01b600052602260045260246000fd5b50919050565b634e487b7160e01b600052603260045260246000fd5b60006020828403121562001e1057600080fd5b815162001a858162001cb1565b60208082526009908201526814d3d5531093d5539160ba1b604082015260600190565b6001600160a01b039384168152919092166020820152604081019190915260806060820181905260009082015260a00190565b60006020828403121562001e8657600080fd5b815162001a858162001a4b565b60208082526010908201526f155394d0519157d49150d2541251539560821b604082015260600190565b60006020828403121562001ed057600080fd5b5051919050565b634e487b7160e01b600052604160045260246000fd5b604051601f8201601f191681016001600160401b038111828210171562001f185762001f1862001ed7565b604052919050565b60006001600160401b0382111562001f3c5762001f3c62001ed7565b50601f01601f191660200190565b600080600080600060a0868803121562001f6357600080fd5b853562001f708162001b30565b945060208601359350604086013562001f898162001cb1565b92506060860135915060808601356001600160401b0381111562001fac57600080fd5b8601601f8101881362001fbe57600080fd5b803562001fd562001fcf8262001f20565b62001eed565b81815289602083850101111562001feb57600080fd5b816020840160208301376000602083830101528093505050509295509295909350565b634e487b7160e01b600052601160045260246000fd5b6000600182016200203957620020396200200e565b5060010190565b6020808252600a90820152691393d517d3525395115160b21b604082015260600190565b6001600160a01b038681168252851660208201526040810184905260806060820181905281018290526000828460a0840137600060a0848401015260a0601f19601f85011683010190509695505050505050565b600060208284031215620020cb57600080fd5b81516001600160401b03811115620020e257600080fd5b8201601f81018413620020f457600080fd5b80516200210562001fcf8262001f20565b8181528560208385010111156200211b57600080fd5b6200212e82602083016020860162001a8c565b95945050505050565b6000602082840312156200214a57600080fd5b815162001a858162001b30565b600081516200216b81856020860162001a8c565b9290920192915050565b6a1130b2323932b9b9911d1160a91b815288516000906200219e81600b850160208e0162001a8c565b7211161130b3b932b2b6b2b73a21b7b232911d1160691b600b918401918201528951620021d381601e840160208e0162001a8c565b6c1116113130b630b731b2911d1160991b601e929091019182015288516200220381602b840160208d0162001a8c565b6c11161131b932b0ba37b9111d1160991b602b9290910191820152875162002233816038840160208c0162001a8c565b6d1116113932b232b2b6b2b9111d1160911b60389290910191820152620022d7620022d0620022b6620022af620022986200229162002276604688018e62002157565b6e11161139b7bab63137bab732111d1160891b8152600f0190565b8b62002157565b6a11161139ba30ba32911d1160a91b8152600b0190565b8862002157565b6d1116113232b0b23634b732911d1160911b8152600e0190565b8562002157565b9b9a5050505050505050505050565b6020808252600e908201526d1393d517d055551213d49256915160921b604082015260600190565b6020808252601190820152701253959053125117d49150d25412515395607a1b604082015260600190565b6001600160a01b03898116825288811660208301528781166040830152606082018790528516608082015260a0810184905282151560c082015261010060e08201819052600090620022d78382018562001abf565b600082821015620023a357620023a36200200e565b500390565b6000816000190483118215151615620023c557620023c56200200e565b500290565b60008219821115620023e057620023e06200200e565b500190565b634e487b7160e01b600052601260045260246000fd5b6000826200240d576200240d620023e5565b500490565b600082620024245762002424620023e5565b500690565b600060ff821660ff84168060ff038211156200244957620024496200200e565b01939250505056fe6101406040523480156200001257600080fd5b5060405162001683380380620016838339810160408190526200003591620002e1565b600080546001600160a01b0319166001600160a01b03861690811782556040518692907f8292fce18fa69edf4db7b94ea2e58241df0ae57f97e0a6c9b29067028bf92d76908290a3506001600160a01b0380891660805287811660a052861660c05260e0859052610100839052811515610120528051620000c09082016020908101908301620003a5565b60026000600360006006600060056000600460008a9190509080519060200190620000ed92919062000155565b5050885162000102919060208b019062000155565b5050875162000117919060208a019062000155565b505086516200012c9190602089019062000155565b50508551620001419190602088019062000155565b5050505050505050505050505050620004c2565b828054620001639062000486565b90600052602060002090601f016020900481019282620001875760008555620001d2565b82601f10620001a257805160ff1916838001178555620001d2565b82800160010185558215620001d2579182015b82811115620001d2578251825591602001919060010190620001b5565b50620001e0929150620001e4565b5090565b5b80821115620001e05760008155600101620001e5565b6001600160a01b03811681146200021157600080fd5b50565b634e487b7160e01b600052604160045260246000fd5b600082601f8301126200023c57600080fd5b81516001600160401b038082111562000259576200025962000214565b604051601f8301601f19908116603f0116810190828211818310171562000284576200028462000214565b81604052838152602092508683858801011115620002a157600080fd5b600091505b83821015620002c55785820183015181830184015290820190620002a6565b83821115620002d75760008385830101525b9695505050505050565b600080600080600080600080610100898b031215620002ff57600080fd5b88516200030c81620001fb565b60208a01519098506200031f81620001fb565b60408a01519097506200033281620001fb565b60608a015160808b015191975095506200034c81620001fb565b60a08a015160c08b0151919550935080151581146200036a57600080fd5b60e08a01519092506001600160401b038111156200038757600080fd5b620003958b828c016200022a565b9150509295985092959890939650565b600080600080600060a08688031215620003be57600080fd5b85516001600160401b0380821115620003d657600080fd5b620003e489838a016200022a565b96506020880151915080821115620003fb57600080fd5b6200040989838a016200022a565b955060408801519150808211156200042057600080fd5b6200042e89838a016200022a565b945060608801519150808211156200044557600080fd5b6200045389838a016200022a565b935060808801519150808211156200046a57600080fd5b5062000479888289016200022a565b9150509295509295909350565b600181811c908216806200049b57607f821691505b602082108103620004bc57634e487b7160e01b600052602260045260246000fd5b50919050565b60805160a05160c05160e05161010051610120516111246200055f60003960006101080152600081816101730152610a910152600081816102b80152818161049201528181610578015281816107a40152610afe0152600081816104b80152818161059e015281816107ca0152610b24015260008181610421015281816108e101526109670152600081816106fa01526108b401526111246000f3fe6080604052600436106100b15760003560e01c80630fad0f51146100f657806313af40351461013f57806329dcb0cf14610161578063355c76ba146101a35780635d64e310146101c55780637b40d6b7146101e55780638da5cb5b146101fa578063a4c0ed3614610232578063aa3ec0a914610252578063b79550be14610267578063c19d93fb1461027c578063cf6ad87614610291578063e2739491146102a6578063edbf55f6146102da57600080fd5b366100f1577f88a5966d370b9919b20f3e2c13ff65706f196a4e32cc2c12bf57088f8852587433346040516100e7929190610cac565b60405180910390a1005b600080fd5b34801561010257600080fd5b5061012a7f000000000000000000000000000000000000000000000000000000000000000081565b60405190151581526020015b60405180910390f35b34801561014b57600080fd5b5061015f61015a366004610cda565b6102ef565b005b34801561016d57600080fd5b506101957f000000000000000000000000000000000000000000000000000000000000000081565b604051908152602001610136565b3480156101af57600080fd5b506101b8610388565b6040516101369190610d4b565b3480156101d157600080fd5b5061015f6101e0366004610d5e565b610416565b3480156101f157600080fd5b506101b86106bd565b34801561020657600080fd5b5060005461021a906001600160a01b031681565b6040516001600160a01b039091168152602001610136565b34801561023e57600080fd5b5061015f61024d366004610d80565b6106ca565b34801561025e57600080fd5b506101b86109f9565b34801561027357600080fd5b5061015f610a06565b34801561028857600080fd5b50610195610a83565b34801561029d57600080fd5b5061015f610aca565b3480156102b257600080fd5b506101957f000000000000000000000000000000000000000000000000000000000000000081565b3480156102e657600080fd5b506101b8610c06565b6000546001600160a01b0316331461033d5760405162461bcd60e51b815260206004820152600c60248201526b15539055551213d49256915160a21b60448201526064015b60405180910390fd5b600080546001600160a01b0319166001600160a01b0383169081178255604051909133917f8292fce18fa69edf4db7b94ea2e58241df0ae57f97e0a6c9b29067028bf92d769190a350565b6005805461039590610e08565b80601f01602080910402602001604051908101604052809291908181526020018280546103c190610e08565b801561040e5780601f106103e35761010080835404028352916020019161040e565b820191906000526020600020905b8154815290600101906020018083116103f157829003601f168201915b505050505081565b336001600160a01b037f000000000000000000000000000000000000000000000000000000000000000016146104775760405162461bcd60e51b81526020600482015260066024820152654e4f545f554160d01b6044820152606401610334565b6001805547811115610569576040516331a9108f60e11b81527f000000000000000000000000000000000000000000000000000000000000000060048201527f00000000000000000000000000000000000000000000000000000000000000006001600160a01b031690636352211e90602401602060405180830381865afa158015610507573d6000803e3d6000fd5b505050506040513d601f19601f8201168201806040525081019061052b9190610e42565b6001600160a01b03166108fc479081150290604051600060405180830381858888f19350505050158015610563573d6000803e3d6000fd5b50610686565b6040516331a9108f60e11b81527f000000000000000000000000000000000000000000000000000000000000000060048201527f00000000000000000000000000000000000000000000000000000000000000006001600160a01b031690636352211e90602401602060405180830381865afa1580156105ed573d6000803e3d6000fd5b505050506040513d601f19601f820116820180604052508101906106119190610e42565b6040516001600160a01b03919091169082156108fc029083906000818181858888f19350505050158015610649573d6000803e3d6000fd5b50600080546040516001600160a01b03909116914780156108fc02929091818181858888f19350505050158015610684573d6000803e3d6000fd5b505b6040518181527fd14df08fabc3175c71c9c6b212bd0fd290d0e78a5f809c5f28deb5ba6f029b919060200160405180910390a15050565b6006805461039590610e08565b6106d2610a83565b156106ef5760405162461bcd60e51b815260040161033490610e5f565b336001600160a01b037f000000000000000000000000000000000000000000000000000000000000000016146107525760405162461bcd60e51b81526020600482015260086024820152674e4f545f4c494e4b60c01b6044820152606401610334565b606483146107955760405162461bcd60e51b815260206004820152601060248201526f125390d3d4949150d517d05353d5539560821b6044820152606401610334565b6040516331a9108f60e11b81527f000000000000000000000000000000000000000000000000000000000000000060048201527f00000000000000000000000000000000000000000000000000000000000000006001600160a01b031690636352211e90602401602060405180830381865afa158015610819573d6000803e3d6000fd5b505050506040513d601f19601f8201168201806040525081019061083d9190610e42565b6001600160a01b0316846001600160a01b03161461086d5760405162461bcd60e51b815260040161033490610e81565b60608061087c83850185610f49565b805191935091501561089d57805161089b906004906020840190610c13565b505b60405163095ea7b360e01b81526001600160a01b037f0000000000000000000000000000000000000000000000000000000000000000169063095ea7b39061090c907f000000000000000000000000000000000000000000000000000000000000000090606490600401610cac565b6020604051808303816000875af115801561092b573d6000803e3d6000fd5b505050506040513d601f19601f8201168201806040525081019061094f9190610fac565b5060405163d303e6a560e01b81526001600160a01b037f0000000000000000000000000000000000000000000000000000000000000000169063d303e6a5906109ad906305d64e3160e41b906002906003908890600490810161106d565b6020604051808303816000875af11580156109cc573d6000803e3d6000fd5b505050506040513d601f19601f820116820180604052508101906109f091906110d5565b50505050505050565b6003805461039590610e08565b610a0e610a83565b600003610a465760405162461bcd60e51b815260206004820152600660248201526541435449564560d01b6044820152606401610334565b600080546040516001600160a01b03909116914780156108fc02929091818181858888f19350505050158015610a80573d6000803e3d6000fd5b50565b6000600154600114610ac3577f00000000000000000000000000000000000000000000000000000000000000004211610abd575060015490565b50600390565b5060015490565b610ad2610a83565b15610aef5760405162461bcd60e51b815260040161033490610e5f565b6040516331a9108f60e11b81527f000000000000000000000000000000000000000000000000000000000000000060048201527f00000000000000000000000000000000000000000000000000000000000000006001600160a01b031690636352211e90602401602060405180830381865afa158015610b73573d6000803e3d6000fd5b505050506040513d601f19601f82011682018060405250810190610b979190610e42565b6001600160a01b0316336001600160a01b031614610bc75760405162461bcd60e51b815260040161033490610e81565b6002600155600080546040516001600160a01b03909116914780156108fc02929091818181858888f19350505050158015610a80573d6000803e3d6000fd5b6002805461039590610e08565b828054610c1f90610e08565b90600052602060002090601f016020900481019282610c415760008555610c87565b82601f10610c5a57805160ff1916838001178555610c87565b82800160010185558215610c87579182015b82811115610c87578251825591602001919060010190610c6c565b50610c93929150610c97565b5090565b5b80821115610c935760008155600101610c98565b6001600160a01b03929092168252602082015260400190565b6001600160a01b0381168114610a8057600080fd5b600060208284031215610cec57600080fd5b8135610cf781610cc5565b9392505050565b6000815180845260005b81811015610d2457602081850181015186830182015201610d08565b81811115610d36576000602083870101525b50601f01601f19169290920160200192915050565b602081526000610cf76020830184610cfe565b60008060408385031215610d7157600080fd5b50508035926020909101359150565b60008060008060608587031215610d9657600080fd5b8435610da181610cc5565b93506020850135925060408501356001600160401b0380821115610dc457600080fd5b818701915087601f830112610dd857600080fd5b813581811115610de757600080fd5b886020828501011115610df957600080fd5b95989497505060200194505050565b600181811c90821680610e1c57607f821691505b602082108103610e3c57634e487b7160e01b600052602260045260246000fd5b50919050565b600060208284031215610e5457600080fd5b8151610cf781610cc5565b602080825260089082015267494e41435449564560c01b604082015260600190565b6020808252600c908201526b2727aa2fa922a222a2a6a2a960a11b604082015260600190565b634e487b7160e01b600052604160045260246000fd5b600082601f830112610ece57600080fd5b81356001600160401b0380821115610ee857610ee8610ea7565b604051601f8301601f19908116603f01168101908282118183101715610f1057610f10610ea7565b81604052838152866020858801011115610f2957600080fd5b836020870160208301376000602085830101528094505050505092915050565b60008060408385031215610f5c57600080fd5b82356001600160401b0380821115610f7357600080fd5b610f7f86838701610ebd565b93506020850135915080821115610f9557600080fd5b50610fa285828601610ebd565b9150509250929050565b600060208284031215610fbe57600080fd5b81518015158114610cf757600080fd5b8054600090600181811c9080831680610fe857607f831692505b6020808410820361100957634e487b7160e01b600052602260045260246000fd5b83885260208801828015611024576001811461103557611060565b60ff19871682528282019750611060565b60008981526020902060005b8781101561105a57815484820152908601908401611041565b83019850505b5050505050505092915050565b63ffffffff60e01b8616815260a06020820152600061108f60a0830187610fce565b82810360408401526110a18187610fce565b905082810360608401526110b58186610cfe565b905082810360808401526110c98185610fce565b98975050505050505050565b6000602082840312156110e757600080fd5b505191905056fea2646970667358221220a27c37e645d4c1274ef7218c233abdfab69bc988159bc88feaba43099232396364736f6c634300080e0033ddf252ad1be2c89b69c2b068fc378daa952ba7f163c4a11628f55a4df523b3efa2646970667358221220bc5b87f9f7f60d23b916e05037ff6806357bed94d8269164c94003b81440f4d064736f6c634300080e0033",
  "linkReferences": {},
  "deployedLinkReferences": {}
}