{
  "_format": "hh-sol-artifact-1",
  "contractName": "DirectRequestAggregator",
  "sourceName": "contracts/DirectRequestAggregator.sol",
  "abi": [
    {
      "inputs": [
        {
          "internalType": "address",
          "name": "_link",
          "type": "address"
        },
        {
          "internalType": "bytes32",
          "name": "_hashedResponseJobspec",
          "type": "bytes32"
        },
        {
          "internalType": "bytes32",
          "name": "_unhashedResponseJobspec",
          "type": "bytes32"
        },
        {
          "internalType": "address[]",
          "name": "_oracles",
          "type": "address[]"
        },
        {
          "internalType": "uint256",
          "name": "_linkCostInJules",
          "type": "uint256"
        },
        {
          "internalType": "uint256",
          "name": "_expirationTimeInSeconds",
          "type": "uint256"
        },
        {
          "internalType": "uint256",
          "name": "_minGasForCallback",
          "type": "uint256"
        }
      ],
      "stateMutability": "nonpayable",
      "type": "constructor"
    },
    {
      "anonymous": false,
      "inputs": [
        {
          "indexed": true,
          "internalType": "bytes32",
          "name": "id",
          "type": "bytes32"
        }
      ],
      "name": "ChainlinkCancelled",
      "type": "event"
    },
    {
      "anonymous": false,
      "inputs": [
        {
          "indexed": true,
          "internalType": "bytes32",
          "name": "id",
          "type": "bytes32"
        }
      ],
      "name": "ChainlinkFulfilled",
      "type": "event"
    },
    {
      "anonymous": false,
      "inputs": [
        {
          "indexed": true,
          "internalType": "bytes32",
          "name": "id",
          "type": "bytes32"
        }
      ],
      "name": "ChainlinkRequested",
      "type": "event"
    },
    {
      "inputs": [
        {
          "internalType": "address",
          "name": "_address",
          "type": "address"
        }
      ],
      "name": "addressToString",
      "outputs": [
        {
          "internalType": "string",
          "name": "",
          "type": "string"
        }
      ],
      "stateMutability": "pure",
      "type": "function"
    },
    {
      "inputs": [
        {
          "internalType": "bytes32",
          "name": "_bytes32",
          "type": "bytes32"
        }
      ],
      "name": "bytes32ToHexString",
      "outputs": [
        {
          "internalType": "string",
          "name": "",
          "type": "string"
        }
      ],
      "stateMutability": "pure",
      "type": "function"
    },
    {
      "inputs": [],
      "name": "expirationTimeInSeconds",
      "outputs": [
        {
          "internalType": "uint256",
          "name": "",
          "type": "uint256"
        }
      ],
      "stateMutability": "view",
      "type": "function"
    },
    {
      "inputs": [],
      "name": "hashedResponseJobspec",
      "outputs": [
        {
          "internalType": "bytes32",
          "name": "",
          "type": "bytes32"
        }
      ],
      "stateMutability": "view",
      "type": "function"
    },
    {
      "inputs": [],
      "name": "linkCostInJules",
      "outputs": [
        {
          "internalType": "uint256",
          "name": "",
          "type": "uint256"
        }
      ],
      "stateMutability": "view",
      "type": "function"
    },
    {
      "inputs": [
        {
          "internalType": "address",
          "name": "callbackAddress",
          "type": "address"
        },
        {
          "internalType": "bytes4",
          "name": "callbackFunctionId",
          "type": "bytes4"
        },
        {
          "internalType": "string",
          "name": "js",
          "type": "string"
        },
        {
          "internalType": "string",
          "name": "cid",
          "type": "string"
        },
        {
          "internalType": "string",
          "name": "vars",
          "type": "string"
        },
        {
          "internalType": "bytes32",
          "name": "ref",
          "type": "bytes32"
        }
      ],
      "name": "makeRequest",
      "outputs": [
        {
          "internalType": "uint256",
          "name": "roundId",
          "type": "uint256"
        }
      ],
      "stateMutability": "nonpayable",
      "type": "function"
    },
    {
      "inputs": [],
      "name": "minGasForCallback",
      "outputs": [
        {
          "internalType": "uint256",
          "name": "",
          "type": "uint256"
        }
      ],
      "stateMutability": "view",
      "type": "function"
    },
    {
      "inputs": [],
      "name": "minResponses",
      "outputs": [
        {
          "internalType": "uint256",
          "name": "",
          "type": "uint256"
        }
      ],
      "stateMutability": "view",
      "type": "function"
    },
    {
      "inputs": [
        {
          "internalType": "uint256",
          "name": "",
          "type": "uint256"
        }
      ],
      "name": "oracles",
      "outputs": [
        {
          "internalType": "address",
          "name": "",
          "type": "address"
        }
      ],
      "stateMutability": "view",
      "type": "function"
    },
    {
      "inputs": [
        {
          "internalType": "bytes32",
          "name": "requestId",
          "type": "bytes32"
        },
        {
          "internalType": "bytes32",
          "name": "hashedAnswer",
          "type": "bytes32"
        }
      ],
      "name": "respondWithHashedAnswer",
      "outputs": [],
      "stateMutability": "nonpayable",
      "type": "function"
    },
    {
      "inputs": [
        {
          "internalType": "bytes32",
          "name": "requestId",
          "type": "bytes32"
        },
        {
          "internalType": "uint256",
          "name": "salt",
          "type": "uint256"
        },
        {
          "internalType": "bytes32",
          "name": "unhashedAnswer",
          "type": "bytes32"
        }
      ],
      "name": "respondWithUnhashedAnswer",
      "outputs": [],
      "stateMutability": "nonpayable",
      "type": "function"
    },
    {
      "inputs": [
        {
          "internalType": "bytes32",
          "name": "",
          "type": "bytes32"
        }
      ],
      "name": "roundIds",
      "outputs": [
        {
          "internalType": "uint256",
          "name": "",
          "type": "uint256"
        }
      ],
      "stateMutability": "view",
      "type": "function"
    },
    {
      "inputs": [],
      "name": "roundNum",
      "outputs": [
        {
          "internalType": "uint256",
          "name": "",
          "type": "uint256"
        }
      ],
      "stateMutability": "view",
      "type": "function"
    },
    {
      "inputs": [
        {
          "internalType": "uint256",
          "name": "",
          "type": "uint256"
        }
      ],
      "name": "rounds",
      "outputs": [
        {
          "internalType": "uint256",
          "name": "expiration",
          "type": "uint256"
        },
        {
          "internalType": "address",
          "name": "callbackAddress",
          "type": "address"
        },
        {
          "internalType": "bytes4",
          "name": "callbackFunctionId",
          "type": "bytes4"
        },
        {
          "components": [
            {
              "internalType": "bytes32",
              "name": "id",
              "type": "bytes32"
            },
            {
              "internalType": "address",
              "name": "callbackAddress",
              "type": "address"
            },
            {
              "internalType": "bytes4",
              "name": "callbackFunctionId",
              "type": "bytes4"
            },
            {
              "internalType": "uint256",
              "name": "nonce",
              "type": "uint256"
            },
            {
              "components": [
                {
                  "internalType": "bytes",
                  "name": "buf",
                  "type": "bytes"
                },
                {
                  "internalType": "uint256",
                  "name": "capacity",
                  "type": "uint256"
                }
              ],
              "internalType": "struct BufferChainlink.buffer",
              "name": "buf",
              "type": "tuple"
            }
          ],
          "internalType": "struct Chainlink.Request",
          "name": "request",
          "type": "tuple"
        }
      ],
      "stateMutability": "view",
      "type": "function"
    },
    {
      "inputs": [
        {
          "internalType": "uint8",
          "name": "_uint8",
          "type": "uint8"
        }
      ],
      "name": "toByte",
      "outputs": [
        {
          "internalType": "bytes1",
          "name": "b",
          "type": "bytes1"
        }
      ],
      "stateMutability": "pure",
      "type": "function"
    },
    {
      "inputs": [],
      "name": "unhashedResponseJobspec",
      "outputs": [
        {
          "internalType": "bytes32",
          "name": "",
          "type": "bytes32"
        }
      ],
      "stateMutability": "view",
      "type": "function"
    }
  ],
  "bytecode": "0x60a060405260016004556001600d553480156200001b57600080fd5b50604051620044fb380380620044fb833981810160405281019062000041919062000326565b608084511062000088576040517f08c379a00000000000000000000000000000000000000000000000000000000081526004016200007f906200042e565b60405180910390fd5b62000099876200014460201b60201c565b8673ffffffffffffffffffffffffffffffffffffffff1660808173ffffffffffffffffffffffffffffffffffffffff1660601b815250506003600285510281620000df57fe5b04600a819055506000600a541415620000fb576001600a819055505b856007819055508460088190555083600990805190602001906200012192919062000188565b5082600b8190555081600c8190555080600681905550505050505050506200054e565b80600260006101000a81548173ffffffffffffffffffffffffffffffffffffffff021916908373ffffffffffffffffffffffffffffffffffffffff16021790555050565b82805482825590600052602060002090810192821562000204579160200282015b82811115620002035782518260006101000a81548173ffffffffffffffffffffffffffffffffffffffff021916908373ffffffffffffffffffffffffffffffffffffffff16021790555091602001919060010190620001a9565b5b50905062000213919062000217565b5090565b5b808211156200025057600081816101000a81549073ffffffffffffffffffffffffffffffffffffffff02191690555060010162000218565b5090565b600081519050620002658162000500565b92915050565b600082601f8301126200027d57600080fd5b8151620002946200028e826200047e565b62000450565b91508181835260208401935060208101905083856020840282011115620002ba57600080fd5b60005b83811015620002ee5781620002d3888262000254565b845260208401935060208301925050600181019050620002bd565b5050505092915050565b60008151905062000309816200051a565b92915050565b600081519050620003208162000534565b92915050565b600080600080600080600060e0888a0312156200034257600080fd5b6000620003528a828b0162000254565b9750506020620003658a828b01620002f8565b9650506040620003788a828b01620002f8565b955050606088015167ffffffffffffffff8111156200039657600080fd5b620003a48a828b016200026b565b9450506080620003b78a828b016200030f565b93505060a0620003ca8a828b016200030f565b92505060c0620003dd8a828b016200030f565b91505092959891949750929550565b6000620003fb601683620004a7565b91507f496e76616c696420696e697469616c697a6174696f6e000000000000000000006000830152602082019050919050565b600060208201905081810360008301526200044981620003ec565b9050919050565b6000604051905081810181811067ffffffffffffffff821117156200047457600080fd5b8060405250919050565b600067ffffffffffffffff8211156200049657600080fd5b602082029050602081019050919050565b600082825260208201905092915050565b6000620004c582620004d6565b9050919050565b6000819050919050565b600073ffffffffffffffffffffffffffffffffffffffff82169050919050565b6000819050919050565b6200050b81620004b8565b81146200051757600080fd5b50565b6200052581620004cc565b81146200053157600080fd5b50565b6200053f81620004f6565b81146200054b57600080fd5b50565b60805160601c613f8562000576600039806114e652806115d2528061277e5250613f856000f3fe608060405234801561001057600080fd5b50600436106101005760003560e01c80638c65c81f11610097578063c4c3264811610066578063c4c32648146102b4578063c68b3787146102d2578063ccc57b6014610302578063e02c72021461033257610100565b80638c65c81f14610219578063a380a2a01461024c578063a4a6b17114610268578063a86b73f01461028457610100565b8063329c967e116100d3578063329c967e1461017d5780635b69a7d81461019b5780635c273214146101cb5780635e57966d146101e957610100565b8063119b22b3146101055780631624f1fa1461012357806321610de5146101415780632c0f61441461015f575b600080fd5b61010d610362565b60405161011a9190613c47565b60405180910390f35b61012b610368565b6040516101389190613aea565b60405180910390f35b61014961036e565b6040516101569190613c47565b60405180910390f35b610167610374565b6040516101749190613c47565b60405180910390f35b61018561037a565b6040516101929190613aea565b60405180910390f35b6101b560048036038101906101b091906133a4565b610380565b6040516101c29190613968565b60405180910390f35b6101d36103bc565b6040516101e09190613c47565b60405180910390f35b61020360048036038101906101fe91906131bf565b6103c2565b6040516102109190613b05565b60405180910390f35b610233600480360381019061022e91906133a4565b610657565b6040516102439493929190613c62565b60405180910390f35b61026660048036038101906102619190613355565b61083d565b005b610282600480360381019061027d9190613319565b610fc3565b005b61029e600480360381019061029991906133f6565b611322565b6040516102ab9190613acf565b60405180910390f35b6102bc61134d565b6040516102c99190613c47565b60405180910390f35b6102ec60048036038101906102e791906132f0565b611353565b6040516102f99190613b05565b60405180910390f35b61031c600480360381019061031791906131e8565b6114df565b6040516103299190613c47565b60405180910390f35b61034c600480360381019061034791906132f0565b611c39565b6040516103599190613c47565b60405180910390f35b600d5481565b60075481565b600b5481565b600c5481565b60085481565b6009818154811061038d57fe5b906000526020600020016000915054906101000a900473ffffffffffffffffffffffffffffffffffffffff1681565b60065481565b606060008273ffffffffffffffffffffffffffffffffffffffff1660001b905060606040518060400160405280601081526020017f303132333435363738396162636465660000000000000000000000000000000081525090506060602a67ffffffffffffffff8111801561043657600080fd5b506040519080825280601f01601f1916602001820160405280156104695781602001600182028036833780820191505090505b5090507f30000000000000000000000000000000000000000000000000000000000000008160008151811061049a57fe5b60200101907effffffffffffffffffffffffffffffffffffffffffffffffffffffffffffff1916908160001a9053507f7800000000000000000000000000000000000000000000000000000000000000816001815181106104f757fe5b60200101907effffffffffffffffffffffffffffffffffffffffffffffffffffffffffffff1916908160001a90535060005b601481101561064b5782600485600c84016020811061054457fe5b1a60f81b7effffffffffffffffffffffffffffffffffffffffffffffffffffffffffffff1916901c60f81c60ff168151811061057c57fe5b602001015160f81c60f81b82600283026002018151811061059957fe5b60200101907effffffffffffffffffffffffffffffffffffffffffffffffffffffffffffff1916908160001a90535082600f60f81b85600c8401602081106105dd57fe5b1a60f81b1660f81c60ff16815181106105f257fe5b602001015160f81c60f81b82600283026003018151811061060f57fe5b60200101907effffffffffffffffffffffffffffffffffffffffffffffffffffffffffffff1916908160001a9053508080600101915050610529565b50809350505050919050565b600f6020528060005260406000206000915090508060000154908060010160009054906101000a900473ffffffffffffffffffffffffffffffffffffffff16908060010160149054906101000a900460e01b90806002016040518060a0016040529081600082015481526020016001820160009054906101000a900473ffffffffffffffffffffffffffffffffffffffff1673ffffffffffffffffffffffffffffffffffffffff1673ffffffffffffffffffffffffffffffffffffffff1681526020016001820160149054906101000a900460e01b7bffffffffffffffffffffffffffffffffffffffffffffffffffffffff19167bffffffffffffffffffffffffffffffffffffffffffffffffffffffff191681526020016002820154815260200160038201604051806040016040529081600082018054600181600116156101000203166002900480601f0160208091040260200160405190810160405280929190818152602001828054600181600116156101000203166002900480156108215780601f106107f657610100808354040283529160200191610821565b820191906000526020600020905b81548152906001019060200180831161080457829003601f168201915b5050505050815260200160018201548152505081525050905084565b8282826000600e6000858152602001908152602001600020549050600a54600f600083815260200190815260200160002060080180549050146108b5576040517f08c379a00000000000000000000000000000000000000000000000000000000081526004016108ac90613ba7565b60405180910390fd5b3373ffffffffffffffffffffffffffffffffffffffff16600f6000838152602001908152602001600020600c01600086815260200190815260200160002060000160009054906101000a900473ffffffffffffffffffffffffffffffffffffffff1673ffffffffffffffffffffffffffffffffffffffff161461096d576040517f08c379a000000000000000000000000000000000000000000000000000000000815260040161096490613b87565b60405180910390fd5b60001515600f6000838152602001908152602001600020600c01600086815260200190815260200160002060000160149054906101000a900460ff161515146109eb576040517f08c379a00000000000000000000000000000000000000000000000000000000081526004016109e290613c27565b60405180910390fd5b60008360028460001c816109fb57fe5b0401604051602001610a0d919061394d565b604051602081830303815290604052805190602001209050600f6000838152602001908152602001600020600b0160003373ffffffffffffffffffffffffffffffffffffffff1673ffffffffffffffffffffffffffffffffffffffff168152602001908152602001600020548460028560001c81610a8757fe5b0401604051602001610a99919061394d565b6040516020818303038152906040528051906020012014610aef576040517f08c379a0000000000000000000000000000000000000000000000000000000008152600401610ae690613be7565b60405180910390fd5b87600f6000600e600084815260200190815260200160002054815260200190815260200160002060000154421115610b4257610b3d600e600083815260200190815260200160002054611c51565b610fb8565b6000600e60008b81526020019081526020016000205490506001600f6000838152602001908152602001600020600c0160008c815260200190815260200160002060000160146101000a81548160ff0219169083151502179055506000600f600083815260200190815260200160002060090180549050905060005b81811015610eae57600f60008481526020019081526020016000206009018181548110610be757fe5b9060005260206000209060020201600101548a1015610ea157600f6000848152602001908152602001600020600901600f60008581526020019081526020016000206009016001600f6000878152602001908152602001600020600901805490500381548110610c5357fe5b906000526020600020906002020190806001815401808255809150506001900390600052602060002090600202016000909190919091506000820160009054906101000a900473ffffffffffffffffffffffffffffffffffffffff168160000160006101000a81548173ffffffffffffffffffffffffffffffffffffffff021916908373ffffffffffffffffffffffffffffffffffffffff16021790555060018201548160010155505060008190505b82811015610ded57600f60008581526020019081526020016000206009018181548110610d2c57fe5b9060005260206000209060020201600f60008681526020019081526020016000206009016001830181548110610d5e57fe5b90600052602060002090600202016000820160009054906101000a900473ffffffffffffffffffffffffffffffffffffffff168160000160006101000a81548173ffffffffffffffffffffffffffffffffffffffff021916908373ffffffffffffffffffffffffffffffffffffffff160217905550600182015481600101559050508080600101915050610d03565b5060405180604001604052803373ffffffffffffffffffffffffffffffffffffffff1681526020018b815250600f60008581526020019081526020016000206009018281548110610e3a57fe5b906000526020600020906002020160008201518160000160006101000a81548173ffffffffffffffffffffffffffffffffffffffff021916908373ffffffffffffffffffffffffffffffffffffffff16021790555060208201518160010155905050610eae565b8080600101915050610bbe565b81811415610f7457600f600084815260200190815260200160002060090160405180604001604052803373ffffffffffffffffffffffffffffffffffffffff1681526020018c815250908060018154018082558091505060019003906000526020600020906002020160009091909190915060008201518160000160006101000a81548173ffffffffffffffffffffffffffffffffffffffff021916908373ffffffffffffffffffffffffffffffffffffffff1602179055506020820151816001015550505b600a54600f60008581526020019081526020016000206009018054905010610fb457610fb2600e60008e815260200190815260200160002054611dc8565b505b5050505b505050505050505050565b816000600e6000838152602001908152602001600020549050600a54600f60008381526020019081526020016000206009018054905010611039576040517f08c379a000000000000000000000000000000000000000000000000000000000815260040161103090613b47565b60405180910390fd5b3373ffffffffffffffffffffffffffffffffffffffff16600f6000838152602001908152602001600020600a01600084815260200190815260200160002060000160009054906101000a900473ffffffffffffffffffffffffffffffffffffffff1673ffffffffffffffffffffffffffffffffffffffff16146110f1576040517f08c379a00000000000000000000000000000000000000000000000000000000081526004016110e890613b87565b60405180910390fd5b60001515600f6000838152602001908152602001600020600a01600084815260200190815260200160002060000160149054906101000a900460ff1615151461116f576040517f08c379a000000000000000000000000000000000000000000000000000000000815260040161116690613c07565b60405180910390fd5b83600f6000600e6000848152602001908152602001600020548152602001908152602001600020600001544211156111c2576111bd600e600083815260200190815260200160002054611c51565b61131b565b6000600e60008781526020019081526020016000205490506001600f6000838152602001908152602001600020600a01600088815260200190815260200160002060000160146101000a81548160ff02191690831515021790555084600f6000838152602001908152602001600020600b0160003373ffffffffffffffffffffffffffffffffffffffff1673ffffffffffffffffffffffffffffffffffffffff16815260200190815260200160002081905550600f6000828152602001908152602001600020600801339080600181540180825580915050600190039060005260206000200160009091909190916101000a81548173ffffffffffffffffffffffffffffffffffffffff021916908373ffffffffffffffffffffffffffffffffffffffff160217905550600a54600f60008381526020019081526020016000206008018054905014156113195761131881611f7f565b5b505b5050505050565b6000600a8260ff16101561133e576030820160f81b9050611348565b6057820160f81b90505b919050565b600a5481565b606060006060604067ffffffffffffffff8111801561137157600080fd5b506040519080825280601f01601f1916602001820160405280156113a45781602001600182028036833780820191505090505b509050600091505b80518260ff1610156114d5576000600f60f81b8560028560ff16816113cd57fe5b0460ff16602081106113db57fe5b1a60f81b1660f81c9050600060048660028660ff16816113f757fe5b0460ff166020811061140557fe5b1a60f81b7effffffffffffffffffffffffffffffffffffffffffffffffffffffffffffff1916901c60f81c905061143b81611322565b838560ff168151811061144a57fe5b60200101907effffffffffffffffffffffffffffffffffffffffffffffffffffffffffffff1916908160001a90535060018401935061148882611322565b838560ff168151811061149757fe5b60200101907effffffffffffffffffffffffffffffffffffffffffffffffffffffffffffff1916908160001a905350505081806001019250506113ac565b8092505050919050565b6000600b547f000000000000000000000000000000000000000000000000000000000000000073ffffffffffffffffffffffffffffffffffffffff1663dd62ed3e33306040518363ffffffff1660e01b815260040161153f929190613983565b60206040518083038186803b15801561155757600080fd5b505afa15801561156b573d6000803e3d6000fd5b505050506040513d601f19601f8201168201806040525081019061158f91906133cd565b10156115d0576040517f08c379a00000000000000000000000000000000000000000000000000000000081526004016115c790613b67565b60405180910390fd5b7f000000000000000000000000000000000000000000000000000000000000000073ffffffffffffffffffffffffffffffffffffffff166323b872dd3330600b546040518463ffffffff1660e01b815260040161162f939291906139ac565b602060405180830381600087803b15801561164957600080fd5b505af115801561165d573d6000803e3d6000fd5b505050506040513d601f19601f8201168201806040525081019061168191906132c7565b5061168a612ead565b61169e6007543063a4a6b17160e01b6121af565b90506116f26040518060400160405280600381526020017f72657100000000000000000000000000000000000000000000000000000000008152506116e2336103c2565b836121e09092919063ffffffff16565b600089899050146117905761178b6040518060400160405280600281526020017f6a730000000000000000000000000000000000000000000000000000000000008152508a8a8080601f016020809104026020016040519081016040528093929190818152602001838380828437600081840152601f19601f82011690508083019250505050505050836121e09092919063ffffffff16565b61182b565b6000878790501461182a576118296040518060400160405280600381526020017f636964000000000000000000000000000000000000000000000000000000000081525088888080601f016020809104026020016040519081016040528093929190818152602001838380828437600081840152601f19601f82011690508083019250505050505050836121e09092919063ffffffff16565b5b5b600085859050146118c5576118c46040518060400160405280600481526020017f766172730000000000000000000000000000000000000000000000000000000081525086868080601f016020809104026020016040519081016040528093929190818152602001838380828437600081840152601f19601f82011690508083019250505050505050836121e09092919063ffffffff16565b5b60008314611937576119366040518060400160405280600381526020017f72656600000000000000000000000000000000000000000000000000000000008152508460405160200161191791906138ef565b604051602081830303815290604052836121e09092919063ffffffff16565b5b600d60008154809291906001019190505550600c544201600f6000600d548152602001908152602001600020600001819055508a600f6000600d54815260200190815260200160002060010160006101000a81548173ffffffffffffffffffffffffffffffffffffffff021916908373ffffffffffffffffffffffffffffffffffffffff16021790555089600f6000600d54815260200190815260200160002060010160146101000a81548163ffffffff021916908360e01c021790555080600f6000600d5481526020019081526020016000206002016000820151816000015560208201518160010160006101000a81548173ffffffffffffffffffffffffffffffffffffffff021916908373ffffffffffffffffffffffffffffffffffffffff16021790555060408201518160010160146101000a81548163ffffffff021916908360e01c0217905550606082015181600201556080820151816003016000820151816000019080519060200190611ab2929190612f1a565b50602082015181600101555050905050600080600090505b600980549050811015611c2457611b1a60098281548110611ae757fe5b9060005260206000200160009054906101000a900473ffffffffffffffffffffffffffffffffffffffff16846000612213565b9150600d54600e600084815260200190815260200160002081905550600f6000600d54815260200190815260200160002060070182908060018154018082558091505060019003906000526020600020016000909190919091505560098181548110611b8257fe5b9060005260206000200160009054906101000a900473ffffffffffffffffffffffffffffffffffffffff16600f6000600d548152602001908152602001600020600a01600084815260200190815260200160002060000160006101000a81548173ffffffffffffffffffffffffffffffffffffffff021916908373ffffffffffffffffffffffffffffffffffffffff1602179055508080600101915050611aca565b50600d54925050509998505050505050505050565b600e6020528060005260406000206000915090505481565b60005b600f600083815260200190815260200160002060070180549050811015611cc457600e6000600f60008581526020019081526020016000206007018381548110611c9a57fe5b90600052602060002001548152602001908152602001600020600090558080600101915050611c54565b50600f60008281526020019081526020016000206000808201600090556001820160006101000a81549073ffffffffffffffffffffffffffffffffffffffff02191690556001820160146101000a81549063ffffffff0219169055600282016000808201600090556001820160006101000a81549073ffffffffffffffffffffffffffffffffffffffff02191690556001820160146101000a81549063ffffffff021916905560028201600090556003820160008082016000611d879190612f9a565b600182016000905550505050600782016000611da39190612fe2565b600882016000611db39190613003565b600982016000611dc39190613024565b505050565b600060606000611dd7846122d6565b91509150611de48261275c565b6000600f600086815260200190815260200160002060010160009054906101000a900473ffffffffffffffffffffffffffffffffffffffff1690506000600f600087815260200190815260200160002060010160149054906101000a900460e01b9050611e5086611c51565b6006545a1015611e95576040517f08c379a0000000000000000000000000000000000000000000000000000000008152600401611e8c90613bc7565b60405180910390fd5b60008273ffffffffffffffffffffffffffffffffffffffff16828886604051602401611ec2929190613cae565b604051602081830303815290604052907bffffffffffffffffffffffffffffffffffffffffffffffffffffffff19166020820180517bffffffffffffffffffffffffffffffffffffffffffffffffffffffff8381831617835250505050604051611f2c919061390a565b6000604051808303816000865af19150503d8060008114611f69576040519150601f19603f3d011682016040523d82523d6000602084013e611f6e565b606091505b505090508095505050505050919050565b611f87612ead565b60006002600a5402600b5481611f9957fe5b04905060005b600f6000858152602001908152602001600020600801805490508110156121a9576000600f60008681526020019081526020016000206008018281548110611fe357fe5b9060005260206000200160009054906101000a900473ffffffffffffffffffffffffffffffffffffffff1690506120246008543063a380a2a060e01b6121af565b93506120cb6040518060400160405280600481526020017f68617368000000000000000000000000000000000000000000000000000000008152506120bb600f6000898152602001908152602001600020600b0160008573ffffffffffffffffffffffffffffffffffffffff1673ffffffffffffffffffffffffffffffffffffffff16815260200190815260200160002054611353565b866121e09092919063ffffffff16565b60006120d8828686612213565b905085600e60008381526020019081526020016000208190555081600f6000600d548152602001908152602001600020600c01600083815260200190815260200160002060000160006101000a81548173ffffffffffffffffffffffffffffffffffffffff021916908373ffffffffffffffffffffffffffffffffffffffff160217905550600f600087815260200190815260200160002060070181908060018154018082558091505060019003906000526020600020016000909190919091505550508080600101915050611f9f565b50505050565b6121b7612ead565b6121bf612ead565b6121d68585858461284f909392919063ffffffff16565b9150509392505050565b6121f78284608001516128ff90919063ffffffff16565b61220e8184608001516128ff90919063ffffffff16565b505050565b6000806004549050600181016004819055506060634042994660e01b60008087600001513089604001518760018c6080015160000151604051602401612260989796959493929190613a0c565b604051602081830303815290604052907bffffffffffffffffffffffffffffffffffffffffffffffffffffffff19166020820180517bffffffffffffffffffffffffffffffffffffffffffffffffffffffff838183161783525050505090506122cb86838684612924565b925050509392505050565b60606000806002600f600086815260200190815260200160002060090180549050816122fe57fe5b0490506000600f6000868152602001908152602001600020600901828154811061232457fe5b90600052602060002090600202016001015490506060600f60008781526020019081526020016000206009018054905067ffffffffffffffff8111801561236a57600080fd5b506040519080825280602002602001820160405280156123995781602001602082028036833780820191505090505b509050600f600087815260200190815260200160002060090183815481106123bd57fe5b906000526020600020906002020160000160009054906101000a900473ffffffffffffffffffffffffffffffffffffffff16816000815181106123fc57fe5b602002602001019073ffffffffffffffffffffffffffffffffffffffff16908173ffffffffffffffffffffffffffffffffffffffff1681525050600060019050600060019050600060018603905060006001870190506000600190505b84806124625750835b1561268a57848015612475575060008312155b80156124b2575086600f60008d8152602001908152602001600020600901848154811061249e57fe5b906000526020600020906002020160010154145b1561256a57600f60008c815260200190815260200160002060090183815481106124d857fe5b906000526020600020906002020160000160009054906101000a900473ffffffffffffffffffffffffffffffffffffffff1686828151811061251657fe5b602002602001019073ffffffffffffffffffffffffffffffffffffffff16908173ffffffffffffffffffffffffffffffffffffffff168152505080806001019150508280600190039350506001945061256f565b600094505b8380156125945750600f60008c81526020019081526020016000206009018054905082105b80156125d1575086600f60008d815260200190815260200160002060090183815481106125bd57fe5b906000526020600020906002020160010154145b1561268057600f60008c815260200190815260200160002060090182815481106125f757fe5b906000526020600020906002020160000160009054906101000a900473ffffffffffffffffffffffffffffffffffffffff1686828151811061263557fe5b602002602001019073ffffffffffffffffffffffffffffffffffffffff16908173ffffffffffffffffffffffffffffffffffffffff1681525050808060010191505060019350612685565b600093505b612459565b60608167ffffffffffffffff811180156126a357600080fd5b506040519080825280602002602001820160405280156126d25781602001602082028036833780820191505090505b50905060005b82811015612747578781815181106126ec57fe5b602002602001015182828151811061270057fe5b602002602001019073ffffffffffffffffffffffffffffffffffffffff16908173ffffffffffffffffffffffffffffffffffffffff168152505080806001019150506126d8565b5080889a509a50505050505050505050915091565b60008151600202600b548161276d57fe5b04905060005b825181101561284a577f000000000000000000000000000000000000000000000000000000000000000073ffffffffffffffffffffffffffffffffffffffff1663a9059cbb8483815181106127c457fe5b6020026020010151846040518363ffffffff1660e01b81526004016127ea9291906139e3565b602060405180830381600087803b15801561280457600080fd5b505af1158015612818573d6000803e3d6000fd5b505050506040513d601f19601f8201168201806040525081019061283c91906132c7565b508080600101915050612773565b505050565b612857612ead565b6128678560800151610100612ac8565b508385600001818152505082856020019073ffffffffffffffffffffffffffffffffffffffff16908173ffffffffffffffffffffffffffffffffffffffff16815250508185604001907bffffffffffffffffffffffffffffffffffffffffffffffffffffffff191690817bffffffffffffffffffffffffffffffffffffffffffffffffffffffff191681525050849050949350505050565b61290c8260038351612b1c565b61291f8183612ca190919063ffffffff16565b505050565b60003084604051602001612939929190613921565b604051602081830303815290604052805190602001209050846005600083815260200190815260200160002060006101000a81548173ffffffffffffffffffffffffffffffffffffffff021916908373ffffffffffffffffffffffffffffffffffffffff160217905550807fb5e6e01e79f91267dc17b4e6314d5d4d03593d2ceee0fbb452b750bd70ea5af960405160405180910390a2600260009054906101000a900473ffffffffffffffffffffffffffffffffffffffff1673ffffffffffffffffffffffffffffffffffffffff16634000aea08685856040518463ffffffff1660e01b8152600401612a2f93929190613a91565b602060405180830381600087803b158015612a4957600080fd5b505af1158015612a5d573d6000803e3d6000fd5b505050506040513d601f19601f82011682018060405250810190612a8191906132c7565b612ac0576040517f08c379a0000000000000000000000000000000000000000000000000000000008152600401612ab790613b27565b60405180910390fd5b949350505050565b612ad0613048565b600060208381612adc57fe5b0614612af55760208281612aec57fe5b06602003820191505b81836020018181525050604051808452600081528281016020016040525082905092915050565b60178167ffffffffffffffff1611612b5357612b4d8160058460ff16901b60ff161784612cc390919063ffffffff16565b50612c9c565b60ff8167ffffffffffffffff1611612ba957612b82601860058460ff16901b1784612cc390919063ffffffff16565b50612ba38167ffffffffffffffff16600185612ce39092919063ffffffff16565b50612c9b565b61ffff8167ffffffffffffffff1611612c0057612bd9601960058460ff16901b1784612cc390919063ffffffff16565b50612bfa8167ffffffffffffffff16600285612ce39092919063ffffffff16565b50612c9a565b63ffffffff8167ffffffffffffffff1611612c5957612c32601a60058460ff16901b1784612cc390919063ffffffff16565b50612c538167ffffffffffffffff16600485612ce39092919063ffffffff16565b50612c99565b612c76601b60058460ff16901b1784612cc390919063ffffffff16565b50612c978167ffffffffffffffff16600885612ce39092919063ffffffff16565b505b5b5b5b505050565b612ca9613048565b612cbb83846000015151848551612d05565b905092915050565b612ccb613048565b612cdb8384600001515184612dbe565b905092915050565b612ceb613048565b612cfc848560000151518585612e0c565b90509392505050565b612d0d613048565b8251821115612d1b57600080fd5b84602001518285011115612d4657612d45856002612d3f8860200151888701612e6d565b02612e89565b5b600080865180518760208301019350808887011115612d655787860182525b60208701925050505b60208410612d915780518252602082019150602081019050602084039350612d6e565b60006001856020036101000a03905080198251168184511681811785525050879350505050949350505050565b612dc6613048565b83602001518310612de357612de2846002866020015102612e89565b5b8351805160208583010184815381861415612dff576001820183525b5050508390509392505050565b612e14613048565b84602001518483011115612e3257612e3185600286850102612e89565b5b60006001836101000a0390508551838682010185831982511617815281518588011115612e5f5784870182525b505085915050949350505050565b600081831115612e7f57829050612e83565b8190505b92915050565b606082600001519050612e9c8383612ac8565b50612ea78382612ca1565b50505050565b6040518060a0016040528060008019168152602001600073ffffffffffffffffffffffffffffffffffffffff16815260200160007bffffffffffffffffffffffffffffffffffffffffffffffffffffffff1916815260200160008152602001612f14613048565b81525090565b828054600181600116156101000203166002900490600052602060002090601f016020900481019282601f10612f5b57805160ff1916838001178555612f89565b82800160010185558215612f89579182015b82811115612f88578251825591602001919060010190612f6d565b5b509050612f969190613062565b5090565b50805460018160011615610100020316600290046000825580601f10612fc05750612fdf565b601f016020900490600052602060002090810190612fde9190613062565b5b50565b5080546000825590600052602060002090810190613000919061307f565b50565b50805460008255906000526020600020908101906130219190613062565b50565b5080546000825560020290600052602060002090810190613045919061309c565b50565b604051806040016040528060608152602001600081525090565b5b8082111561307b576000816000905550600101613063565b5090565b5b80821115613098576000816000905550600101613080565b5090565b5b808211156130de57600080820160006101000a81549073ffffffffffffffffffffffffffffffffffffffff021916905560018201600090555060020161309d565b5090565b6000813590506130f181613ec5565b92915050565b60008151905061310681613edc565b92915050565b60008135905061311b81613ef3565b92915050565b60008135905061313081613f0a565b92915050565b60008083601f84011261314857600080fd5b8235905067ffffffffffffffff81111561316157600080fd5b60208301915083600182028301111561317957600080fd5b9250929050565b60008135905061318f81613f21565b92915050565b6000815190506131a481613f21565b92915050565b6000813590506131b981613f38565b92915050565b6000602082840312156131d157600080fd5b60006131df848285016130e2565b91505092915050565b600080600080600080600080600060c08a8c03121561320657600080fd5b60006132148c828d016130e2565b99505060206132258c828d01613121565b98505060408a013567ffffffffffffffff81111561324257600080fd5b61324e8c828d01613136565b975097505060608a013567ffffffffffffffff81111561326d57600080fd5b6132798c828d01613136565b955095505060808a013567ffffffffffffffff81111561329857600080fd5b6132a48c828d01613136565b935093505060a06132b78c828d0161310c565b9150509295985092959850929598565b6000602082840312156132d957600080fd5b60006132e7848285016130f7565b91505092915050565b60006020828403121561330257600080fd5b60006133108482850161310c565b91505092915050565b6000806040838503121561332c57600080fd5b600061333a8582860161310c565b925050602061334b8582860161310c565b9150509250929050565b60008060006060848603121561336a57600080fd5b60006133788682870161310c565b935050602061338986828701613180565b925050604061339a8682870161310c565b9150509250925092565b6000602082840312156133b657600080fd5b60006133c484828501613180565b91505092915050565b6000602082840312156133df57600080fd5b60006133ed84828501613195565b91505092915050565b60006020828403121561340857600080fd5b6000613416848285016131aa565b91505092915050565b61342881613de2565b82525050565b61343781613d2b565b82525050565b61344681613d2b565b82525050565b61345581613d49565b82525050565b61346481613d75565b82525050565b61347381613d75565b82525050565b61348a61348582613d75565b613e81565b82525050565b61349981613d7f565b82525050565b6134a881613d7f565b82525050565b60006134b982613cd7565b6134c38185613ced565b93506134d3818560208601613e3c565b6134dc81613ea7565b840191505092915050565b60006134f282613cd7565b6134fc8185613cfe565b935061350c818560208601613e3c565b61351581613ea7565b840191505092915050565b600061352b82613cd7565b6135358185613d0f565b9350613545818560208601613e3c565b80840191505092915050565b61356261355d82613df4565b613e6f565b82525050565b600061357382613ce2565b61357d8185613d1a565b935061358d818560208601613e3c565b61359681613ea7565b840191505092915050565b60006135ae602383613d1a565b91507f756e61626c6520746f207472616e73666572416e6443616c6c20746f206f726160008301527f636c6500000000000000000000000000000000000000000000000000000000006020830152604082019050919050565b6000613614600883613d1a565b91507f546f6f206c6174650000000000000000000000000000000000000000000000006000830152602082019050919050565b6000613654600f83613d1a565b91507f4e6f7420656e6f756768204c494e4b00000000000000000000000000000000006000830152602082019050919050565b6000613694601383613d1a565b91507f496e636f727265637420726571756573744964000000000000000000000000006000830152602082019050919050565b60006136d4600883613d1a565b91507f546f6f20736f6f6e0000000000000000000000000000000000000000000000006000830152602082019050919050565b6000613714600e83613d1a565b91507f4e6f7420656e6f756768206761730000000000000000000000000000000000006000830152602082019050919050565b6000613754601283613d1a565b91507f4861736820646f65736e2774206d6174636800000000000000000000000000006000830152602082019050919050565b6000613794601283613d1a565b91507f416c72656164656420726573706f6e64656400000000000000000000000000006000830152602082019050919050565b60006137d4601183613d1a565b91507f416c726561647920726573706f6e6465640000000000000000000000000000006000830152602082019050919050565b600060a08301600083015161381f600086018261345b565b506020830151613832602086018261342e565b5060408301516138456040860182613490565b50606083015161385860608601826138ba565b5060808301518482036080860152613870828261387d565b9150508091505092915050565b6000604083016000830151848203600086015261389a82826134ae565b91505060208301516138af60208601826138ba565b508091505092915050565b6138c381613dcb565b82525050565b6138d281613dcb565b82525050565b6138e96138e482613dcb565b613e9d565b82525050565b60006138fb8284613479565b60208201915081905092915050565b60006139168284613520565b915081905092915050565b600061392d8285613551565b60148201915061393d82846138d8565b6020820191508190509392505050565b600061395982846138d8565b60208201915081905092915050565b600060208201905061397d600083018461343d565b92915050565b6000604082019050613998600083018561341f565b6139a5602083018461343d565b9392505050565b60006060820190506139c1600083018661341f565b6139ce602083018561343d565b6139db60408301846138c9565b949350505050565b60006040820190506139f8600083018561343d565b613a0560208301846138c9565b9392505050565b600061010082019050613a22600083018b61343d565b613a2f602083018a6138c9565b613a3c604083018961346a565b613a49606083018861343d565b613a56608083018761349f565b613a6360a08301866138c9565b613a7060c08301856138c9565b81810360e0830152613a8281846134e7565b90509998505050505050505050565b6000606082019050613aa6600083018661343d565b613ab360208301856138c9565b8181036040830152613ac581846134e7565b9050949350505050565b6000602082019050613ae4600083018461344c565b92915050565b6000602082019050613aff600083018461346a565b92915050565b60006020820190508181036000830152613b1f8184613568565b905092915050565b60006020820190508181036000830152613b40816135a1565b9050919050565b60006020820190508181036000830152613b6081613607565b9050919050565b60006020820190508181036000830152613b8081613647565b9050919050565b60006020820190508181036000830152613ba081613687565b9050919050565b60006020820190508181036000830152613bc0816136c7565b9050919050565b60006020820190508181036000830152613be081613707565b9050919050565b60006020820190508181036000830152613c0081613747565b9050919050565b60006020820190508181036000830152613c2081613787565b9050919050565b60006020820190508181036000830152613c40816137c7565b9050919050565b6000602082019050613c5c60008301846138c9565b92915050565b6000608082019050613c7760008301876138c9565b613c84602083018661343d565b613c91604083018561349f565b8181036060830152613ca38184613807565b905095945050505050565b6000604082019050613cc360008301856138c9565b613cd0602083018461346a565b9392505050565b600081519050919050565b600081519050919050565b600082825260208201905092915050565b600082825260208201905092915050565b600081905092915050565b600082825260208201905092915050565b6000613d3682613dab565b9050919050565b60008115159050919050565b60007fff0000000000000000000000000000000000000000000000000000000000000082169050919050565b6000819050919050565b60007fffffffff0000000000000000000000000000000000000000000000000000000082169050919050565b600073ffffffffffffffffffffffffffffffffffffffff82169050919050565b6000819050919050565b600060ff82169050919050565b6000613ded82613e18565b9050919050565b6000613dff82613e06565b9050919050565b6000613e1182613dab565b9050919050565b6000613e2382613e2a565b9050919050565b6000613e3582613dab565b9050919050565b60005b83811015613e5a578082015181840152602081019050613e3f565b83811115613e69576000848401525b50505050565b6000613e7a82613e8b565b9050919050565b6000819050919050565b6000613e9682613eb8565b9050919050565b6000819050919050565b6000601f19601f8301169050919050565b60008160601b9050919050565b613ece81613d2b565b8114613ed957600080fd5b50565b613ee581613d3d565b8114613ef057600080fd5b50565b613efc81613d75565b8114613f0757600080fd5b50565b613f1381613d7f565b8114613f1e57600080fd5b50565b613f2a81613dcb565b8114613f3557600080fd5b50565b613f4181613dd5565b8114613f4c57600080fd5b5056fea2646970667358221220a602679669f9ddf35c261f4366e2af09d2aae071bacd9062f17b26b32bff139f64736f6c63430007000033",
  "linkReferences": {},
  "deployedLinkReferences": {}
}