{
  "_format": "hh-sol-artifact-1",
  "contractName": "LinkToken",
  "sourceName": "@chainlink/contracts/src/v0.4/LinkToken.sol",
  "abi": [
    {
      "constant": true,
      "inputs": [],
      "name": "name",
      "outputs": [
        {
          "name": "",
          "type": "string"
        }
      ],
      "payable": false,
      "stateMutability": "view",
      "type": "function"
    },
    {
      "constant": false,
      "inputs": [
        {
          "name": "_spender",
          "type": "address"
        },
        {
          "name": "_value",
          "type": "uint256"
        }
      ],
      "name": "approve",
      "outputs": [
        {
          "name": "",
          "type": "bool"
        }
      ],
      "payable": false,
      "stateMutability": "nonpayable",
      "type": "function"
    },
    {
      "constant": true,
      "inputs": [],
      "name": "totalSupply",
      "outputs": [
        {
          "name": "",
          "type": "uint256"
        }
      ],
      "payable": false,
      "stateMutability": "view",
      "type": "function"
    },
    {
      "constant": false,
      "inputs": [
        {
          "name": "_from",
          "type": "address"
        },
        {
          "name": "_to",
          "type": "address"
        },
        {
          "name": "_value",
          "type": "uint256"
        }
      ],
      "name": "transferFrom",
      "outputs": [
        {
          "name": "",
          "type": "bool"
        }
      ],
      "payable": false,
      "stateMutability": "nonpayable",
      "type": "function"
    },
    {
      "constant": true,
      "inputs": [],
      "name": "decimals",
      "outputs": [
        {
          "name": "",
          "type": "uint8"
        }
      ],
      "payable": false,
      "stateMutability": "view",
      "type": "function"
    },
    {
      "constant": false,
      "inputs": [
        {
          "name": "_to",
          "type": "address"
        },
        {
          "name": "_value",
          "type": "uint256"
        },
        {
          "name": "_data",
          "type": "bytes"
        }
      ],
      "name": "transferAndCall",
      "outputs": [
        {
          "name": "success",
          "type": "bool"
        }
      ],
      "payable": false,
      "stateMutability": "nonpayable",
      "type": "function"
    },
    {
      "constant": false,
      "inputs": [
        {
          "name": "_spender",
          "type": "address"
        },
        {
          "name": "_subtractedValue",
          "type": "uint256"
        }
      ],
      "name": "decreaseApproval",
      "outputs": [
        {
          "name": "success",
          "type": "bool"
        }
      ],
      "payable": false,
      "stateMutability": "nonpayable",
      "type": "function"
    },
    {
      "constant": true,
      "inputs": [
        {
          "name": "_owner",
          "type": "address"
        }
      ],
      "name": "balanceOf",
      "outputs": [
        {
          "name": "balance",
          "type": "uint256"
        }
      ],
      "payable": false,
      "stateMutability": "view",
      "type": "function"
    },
    {
      "constant": true,
      "inputs": [],
      "name": "symbol",
      "outputs": [
        {
          "name": "",
          "type": "string"
        }
      ],
      "payable": false,
      "stateMutability": "view",
      "type": "function"
    },
    {
      "constant": false,
      "inputs": [
        {
          "name": "_to",
          "type": "address"
        },
        {
          "name": "_value",
          "type": "uint256"
        }
      ],
      "name": "transfer",
      "outputs": [
        {
          "name": "success",
          "type": "bool"
        }
      ],
      "payable": false,
      "stateMutability": "nonpayable",
      "type": "function"
    },
    {
      "constant": false,
      "inputs": [
        {
          "name": "_spender",
          "type": "address"
        },
        {
          "name": "_addedValue",
          "type": "uint256"
        }
      ],
      "name": "increaseApproval",
      "outputs": [
        {
          "name": "success",
          "type": "bool"
        }
      ],
      "payable": false,
      "stateMutability": "nonpayable",
      "type": "function"
    },
    {
      "constant": true,
      "inputs": [
        {
          "name": "_owner",
          "type": "address"
        },
        {
          "name": "_spender",
          "type": "address"
        }
      ],
      "name": "allowance",
      "outputs": [
        {
          "name": "remaining",
          "type": "uint256"
        }
      ],
      "payable": false,
      "stateMutability": "view",
      "type": "function"
    },
    {
      "inputs": [],
      "payable": false,
      "stateMutability": "nonpayable",
      "type": "constructor"
    },
    {
      "anonymous": false,
      "inputs": [
        {
          "indexed": true,
          "name": "from",
          "type": "address"
        },
        {
          "indexed": true,
          "name": "to",
          "type": "address"
        },
        {
          "indexed": false,
          "name": "value",
          "type": "uint256"
        },
        {
          "indexed": false,
          "name": "data",
          "type": "bytes"
        }
      ],
      "name": "Transfer",
      "type": "event"
    },
    {
      "anonymous": false,
      "inputs": [
        {
          "indexed": true,
          "name": "owner",
          "type": "address"
        },
        {
          "indexed": true,
          "name": "spender",
          "type": "address"
        },
        {
          "indexed": false,
          "name": "value",
          "type": "uint256"
        }
      ],
      "name": "Approval",
      "type": "event"
    },
    {
      "anonymous": false,
      "inputs": [
        {
          "indexed": true,
          "name": "from",
          "type": "address"
        },
        {
          "indexed": true,
          "name": "to",
          "type": "address"
        },
        {
          "indexed": false,
          "name": "value",
          "type": "uint256"
        }
      ],
      "name": "Transfer",
      "type": "event"
    }
  ],
  "bytecode": "0x608060405234801561001057600080fd5b503360009081526001602052604090206b033b2e3c9fd0803ce80000009055610a608061003e6000396000f3006080604052600436106100a05763ffffffff60e060020a60003504166306fdde0381146100a5578063095ea7b31461012f57806318160ddd1461016757806323b872dd1461018e578063313ce567146101b85780634000aea0146101e3578063661884631461024c57806370a082311461027057806395d89b4114610291578063a9059cbb146102a6578063d73dd623146102ca578063dd62ed3e146102ee575b600080fd5b3480156100b157600080fd5b506100ba610315565b6040805160208082528351818301528351919283929083019185019080838360005b838110156100f45781810151838201526020016100dc565b50505050905090810190601f1680156101215780820380516001836020036101000a031916815260200191505b509250505060405180910390f35b34801561013b57600080fd5b50610153600160a060020a0360043516602435610341565b604080519115158252519081900360200190f35b34801561017357600080fd5b5061017c610382565b60408051918252519081900360200190f35b34801561019a57600080fd5b50610153600160a060020a0360043581169060243516604435610392565b3480156101c457600080fd5b506101cd6103d5565b6040805160ff9092168252519081900360200190f35b3480156101ef57600080fd5b50604080516020600460443581810135601f8101849004840285018401909552848452610153948235600160a060020a03169460248035953695946064949201919081908401838280828437509497506103da9650505050505050565b34801561025857600080fd5b50610153600160a060020a0360043516602435610414565b34801561027c57600080fd5b5061017c600160a060020a03600435166104f2565b34801561029d57600080fd5b506100ba61050d565b3480156102b257600080fd5b50610153600160a060020a036004351660243561052e565b3480156102d657600080fd5b50610153600160a060020a0360043516602435610567565b3480156102fa57600080fd5b5061017c600160a060020a03600435811690602435166105ee565b60408051808201909152600f8152608960020a6e21b430b4b72634b735902a37b5b2b702602082015281565b600082600160a060020a038116158015906103655750600160a060020a0381163014155b151561037057600080fd5b61037a8484610619565b949350505050565b6b033b2e3c9fd0803ce800000081565b600082600160a060020a038116158015906103b65750600160a060020a0381163014155b15156103c157600080fd5b6103cc85858561066d565b95945050505050565b601281565b600083600160a060020a038116158015906103fe5750600160a060020a0381163014155b151561040957600080fd5b6103cc858585610767565b336000908152600260209081526040808320600160a060020a03861684529091528120548083111561046957336000908152600260209081526040808320600160a060020a038816845290915281205561049e565b610479818463ffffffff61084c16565b336000908152600260209081526040808320600160a060020a03891684529091529020555b336000818152600260209081526040808320600160a060020a038916808552908352928190205481519081529051929392600080516020610a15833981519152929181900390910190a35060019392505050565b600160a060020a031660009081526001602052604090205490565b604080518082019091526004815260e060020a634c494e4b02602082015281565b600082600160a060020a038116158015906105525750600160a060020a0381163014155b151561055d57600080fd5b61037a848461085e565b336000908152600260209081526040808320600160a060020a038616845290915281205461059b908363ffffffff6108fc16565b336000818152600260209081526040808320600160a060020a038916808552908352928190208590558051948552519193600080516020610a15833981519152929081900390910190a350600192915050565b600160a060020a03918216600090815260026020908152604080832093909416825291909152205490565b336000818152600260209081526040808320600160a060020a03871680855290835281842086905581518681529151939490939092600080516020610a15833981519152928290030190a350600192915050565b600160a060020a038316600081815260026020908152604080832033845282528083205493835260019091528120549091906106af908463ffffffff61084c16565b600160a060020a0380871660009081526001602052604080822093909355908616815220546106e4908463ffffffff6108fc16565b600160a060020a03851660009081526001602052604090205561070d818463ffffffff61084c16565b600160a060020a03808716600081815260026020908152604080832033845282529182902094909455805187815290519288169391926000805160206109f5833981519152929181900390910190a3506001949350505050565b6000610773848461085e565b5083600160a060020a031633600160a060020a03167fe19260aff97b920c7df27010903aeb9c8d2be5d310a2c67824cf3f15396e4c1685856040518083815260200180602001828103825283818151815260200191508051906020019080838360005b838110156107ee5781810151838201526020016107d6565b50505050905090810190601f16801561081b5780820380516001836020036101000a031916815260200191505b50935050505060405180910390a36108328461090f565b1561084257610842848484610917565b5060019392505050565b60008282111561085857fe5b50900390565b3360009081526001602052604081205461087e908363ffffffff61084c16565b3360009081526001602052604080822092909255600160a060020a038516815220546108b0908363ffffffff6108fc16565b600160a060020a0384166000818152600160209081526040918290209390935580518581529051919233926000805160206109f58339815191529281900390910190a350600192915050565b8181018281101561090957fe5b92915050565b6000903b1190565b60405160e160020a635260769b0281523360048201818152602483018590526060604484019081528451606485015284518794600160a060020a0386169463a4c0ed369490938993899360840190602085019080838360005b83811015610988578181015183820152602001610970565b50505050905090810190601f1680156109b55780820380516001836020036101000a031916815260200191505b50945050505050600060405180830381600087803b1580156109d657600080fd5b505af11580156109ea573d6000803e3d6000fd5b50505050505050505600ddf252ad1be2c89b69c2b068fc378daa952ba7f163c4a11628f55a4df523b3ef8c5be1e5ebec7d5bd14f71427d1e84f3dd0314c0f7b2291e5b200ac8c7c3b925a165627a7a72305820c448ac2157bf8901cb3542e326528adeecacd975388f74a36d9dd920840c76770029",
  "linkReferences": {},
  "deployedLinkReferences": {}
}