{
  "_format": "hh-sol-artifact-1",
  "contractName": "Agreement",
  "sourceName": "contracts/Agreement.sol",
  "abi": [
    {
      "inputs": [
        {
          "internalType": "contract LinkTokenInterface",
          "name": "_linkToken",
          "type": "address"
        },
        {
          "internalType": "contract IUniversalAdapter",
          "name": "_universalAdapter",
          "type": "address"
        },
        {
          "internalType": "address",
          "name": "_agreementRegistry",
          "type": "address"
        },
        {
          "internalType": "uint256",
          "name": "_agreementId",
          "type": "uint256"
        },
        {
          "internalType": "address",
          "name": "_creator",
          "type": "address"
        },
        {
          "internalType": "uint256",
          "name": "_deadline",
          "type": "uint256"
        },
        {
          "internalType": "bool",
          "name": "_soulbound",
          "type": "bool"
        },
        {
          "internalType": "bytes",
          "name": "data",
          "type": "bytes"
        }
      ],
      "stateMutability": "nonpayable",
      "type": "constructor"
    },
    {
      "anonymous": false,
      "inputs": [
        {
          "indexed": true,
          "internalType": "uint256",
          "name": "agreementId",
          "type": "uint256"
        }
      ],
      "name": "AgreementCancelled",
      "type": "event"
    },
    {
      "anonymous": false,
      "inputs": [
        {
          "indexed": true,
          "internalType": "uint256",
          "name": "agreementId",
          "type": "uint256"
        }
      ],
      "name": "AgreementFulfilled",
      "type": "event"
    },
    {
      "anonymous": false,
      "inputs": [
        {
          "indexed": true,
          "internalType": "address",
          "name": "user",
          "type": "address"
        },
        {
          "indexed": true,
          "internalType": "address",
          "name": "newOwner",
          "type": "address"
        }
      ],
      "name": "OwnerUpdated",
      "type": "event"
    },
    {
      "anonymous": false,
      "inputs": [
        {
          "indexed": true,
          "internalType": "bytes32",
          "name": "requestId",
          "type": "bytes32"
        },
        {
          "indexed": false,
          "internalType": "bytes32",
          "name": "result",
          "type": "bytes32"
        }
      ],
      "name": "RequestFulfilled",
      "type": "event"
    },
    {
      "anonymous": false,
      "inputs": [
        {
          "indexed": true,
          "internalType": "bytes32",
          "name": "requestId",
          "type": "bytes32"
        },
        {
          "indexed": false,
          "internalType": "string",
          "name": "js",
          "type": "string"
        },
        {
          "indexed": false,
          "internalType": "string",
          "name": "cid",
          "type": "string"
        },
        {
          "indexed": false,
          "internalType": "string",
          "name": "vars",
          "type": "string"
        },
        {
          "indexed": false,
          "internalType": "string",
          "name": "ref",
          "type": "string"
        }
      ],
      "name": "RequestSent",
      "type": "event"
    },
    {
      "inputs": [],
      "name": "agreementId",
      "outputs": [
        {
          "internalType": "uint256",
          "name": "",
          "type": "uint256"
        }
      ],
      "stateMutability": "view",
      "type": "function"
    },
    {
      "inputs": [],
      "name": "cancelAgreement",
      "outputs": [],
      "stateMutability": "nonpayable",
      "type": "function"
    },
    {
      "inputs": [
        {
          "internalType": "address",
          "name": "",
          "type": "address"
        }
      ],
      "name": "cancellations",
      "outputs": [
        {
          "internalType": "bool",
          "name": "",
          "type": "bool"
        }
      ],
      "stateMutability": "view",
      "type": "function"
    },
    {
      "inputs": [],
      "name": "deadline",
      "outputs": [
        {
          "internalType": "uint256",
          "name": "",
          "type": "uint256"
        }
      ],
      "stateMutability": "view",
      "type": "function"
    },
    {
      "inputs": [
        {
          "internalType": "bytes32",
          "name": "requestId",
          "type": "bytes32"
        },
        {
          "internalType": "bytes32",
          "name": "_result",
          "type": "bytes32"
        }
      ],
      "name": "fulfillRequest",
      "outputs": [],
      "stateMutability": "nonpayable",
      "type": "function"
    },
    {
      "inputs": [],
      "name": "owner",
      "outputs": [
        {
          "internalType": "address",
          "name": "",
          "type": "address"
        }
      ],
      "stateMutability": "view",
      "type": "function"
    },
    {
      "inputs": [],
      "name": "recoverFunds",
      "outputs": [],
      "stateMutability": "nonpayable",
      "type": "function"
    },
    {
      "inputs": [
        {
          "internalType": "string",
          "name": "_vars",
          "type": "string"
        },
        {
          "internalType": "string",
          "name": "_ref",
          "type": "string"
        }
      ],
      "name": "redeem",
      "outputs": [
        {
          "internalType": "bytes32",
          "name": "universalAdapterRequestId",
          "type": "bytes32"
        }
      ],
      "stateMutability": "nonpayable",
      "type": "function"
    },
    {
      "inputs": [],
      "name": "result",
      "outputs": [
        {
          "internalType": "uint256",
          "name": "",
          "type": "uint256"
        }
      ],
      "stateMutability": "view",
      "type": "function"
    },
    {
      "inputs": [
        {
          "internalType": "address",
          "name": "newOwner",
          "type": "address"
        }
      ],
      "name": "setOwner",
      "outputs": [],
      "stateMutability": "nonpayable",
      "type": "function"
    },
    {
      "inputs": [],
      "name": "soulbound",
      "outputs": [
        {
          "internalType": "bool",
          "name": "",
          "type": "bool"
        }
      ],
      "stateMutability": "view",
      "type": "function"
    },
    {
      "inputs": [],
      "name": "state",
      "outputs": [
        {
          "internalType": "enum Agreement.States",
          "name": "_state",
          "type": "uint8"
        }
      ],
      "stateMutability": "view",
      "type": "function"
    }
  ],
  "bytecode": "0x6101406040523480156200001257600080fd5b5060405162001c2638038062001c268339810160408190526200003591620003bf565b600080546001600160a01b0319166001600160a01b03861690811782556040518692907f8292fce18fa69edf4db7b94ea2e58241df0ae57f97e0a6c9b29067028bf92d76908290a3506001600160a01b0388811660805287811660a052861660c05260e0859052610100839052811515610120526000805460ff60a01b191690558051620000cd90820160209081019083016200052d565b60016000600260006004600060036000600560008a9190509080519060200190620000fa92919062000162565b505088516200010f919060208b0190620001f1565b5050875162000124919060208a0190620001f1565b50508651620001399190602089019062000162565b505085516200014e9190602088019062000162565b50505050505050505050505050506200064a565b82805462000170906200060e565b90600052602060002090601f016020900481019282620001945760008555620001df565b82601f10620001af57805160ff1916838001178555620001df565b82800160010185558215620001df579182015b82811115620001df578251825591602001919060010190620001c2565b50620001ed92915062000251565b5090565b82805482825590600052602060002090810192821562000243579160200282015b828111156200024357825180516200023291849160209091019062000162565b509160200191906001019062000212565b50620001ed92915062000268565b5b80821115620001ed576000815560010162000252565b80821115620001ed5760006200027f828262000289565b5060010162000268565b50805462000297906200060e565b6000825580601f10620002a8575050565b601f016020900490600052602060002090810190620002c8919062000251565b50565b6001600160a01b0381168114620002c857600080fd5b634e487b7160e01b600052604160045260246000fd5b604051601f8201601f191681016001600160401b0381118282101715620003225762000322620002e1565b604052919050565b600082601f8301126200033c57600080fd5b81516001600160401b03811115620003585762000358620002e1565b60206200036e601f8301601f19168201620002f7565b82815285828487010111156200038357600080fd5b60005b83811015620003a357858101830151828201840152820162000386565b83811115620003b55760008385840101525b5095945050505050565b600080600080600080600080610100898b031215620003dd57600080fd5b8851620003ea81620002cb565b60208a0151909850620003fd81620002cb565b60408a01519097506200041081620002cb565b60608a015160808b015191975095506200042a81620002cb565b60a08a015160c08b0151919550935080151581146200044857600080fd5b60e08a01519092506001600160401b038111156200046557600080fd5b620004738b828c016200032a565b9150509295985092959890939650565b600082601f8301126200049557600080fd5b815160206001600160401b0380831115620004b457620004b4620002e1565b8260051b620004c5838201620002f7565b9384528581018301938381019088861115620004e057600080fd5b84880192505b858310156200052157825184811115620005005760008081fd5b620005108a87838c01016200032a565b8352509184019190840190620004e6565b98975050505050505050565b600080600080600060a086880312156200054657600080fd5b85516001600160401b03808211156200055e57600080fd5b6200056c89838a016200032a565b965060208801519150808211156200058357600080fd5b6200059189838a016200032a565b95506040880151915080821115620005a857600080fd5b620005b689838a0162000483565b94506060880151915080821115620005cd57600080fd5b620005db89838a0162000483565b93506080880151915080821115620005f257600080fd5b5062000601888289016200032a565b9150509295509295909350565b600181811c908216806200062357607f821691505b6020821081036200064457634e487b7160e01b600052602260045260246000fd5b50919050565b60805160a05160c05160e05161010051610120516114fb6200072b600039600060ae01526000818160ff0152610d7d0152600081816101cb015281816102e90152818161074f0152818161091401528181610b7801528181610e4601528181610f73015261104d01526000818161030f015281816107a70152818161096c01528181610e6c0152610fa70152600081816104ce01528181610557015261063c015260008181610416015281816104a1015281816106c10152818161077d015281816108290152818161094201528181610a550152610c7101526114fb6000f3fe608060405234801561001057600080fd5b50600436106100a45760003560e01c80630fad0f51146100a957806313af4035146100e557806329dcb0cf146100fa578063322000fa1461012f57806334a84827146101425780635d64e3101461016557806365372147146101785780638da5cb5b14610181578063b79550be146101a1578063c19d93fb146101a9578063cf6ad876146101be578063e2739491146101c6575b600080fd5b6100d07f000000000000000000000000000000000000000000000000000000000000000081565b60405190151581526020015b60405180910390f35b6100f86100f3366004611143565b6101ed565b005b6101217f000000000000000000000000000000000000000000000000000000000000000081565b6040519081526020016100dc565b61012161013d3660046111af565b610286565b6100d0610150366004611143565b60076020526000908152604090205460ff1681565b6100f861017336600461121a565b610631565b61012160065481565b600054610194906001600160a01b031681565b6040516100dc919061123c565b6100f8610bc2565b6101b1610d54565b6040516100dc9190611266565b6100f8610dca565b6101217f000000000000000000000000000000000000000000000000000000000000000081565b6000546001600160a01b0316331461023b5760405162461bcd60e51b815260206004820152600c60248201526b15539055551213d49256915160a21b60448201526064015b60405180910390fd5b600080546001600160a01b0319166001600160a01b0383169081178255604051909133917f8292fce18fa69edf4db7b94ea2e58241df0ae57f97e0a6c9b29067028bf92d769190a350565b600080610291610d54565b60038111156102a2576102a2611250565b146102da5760405162461bcd60e51b8152602060048201526008602482015267494e41435449564560c01b6044820152606401610232565b6040516331a9108f60e11b81527f000000000000000000000000000000000000000000000000000000000000000060048201527f00000000000000000000000000000000000000000000000000000000000000006001600160a01b031690636352211e90602401602060405180830381865afa15801561035e573d6000803e3d6000fd5b505050506040513d601f19601f82011682018060405250810190610382919061128e565b6001600160a01b0316336001600160a01b0316146103cd5760405162461bcd60e51b81526020600482015260086024820152672922a222a2a6a2a960c11b6044820152606401610232565b6000600580546103dc906112ab565b905011156103f2576103f060058484611095565b505b6040516323b872dd60e01b81523360048201523060248201526064604482018190527f00000000000000000000000000000000000000000000000000000000000000006001600160a01b0316916323b872dd91016020604051808303816000875af1158015610465573d6000803e3d6000fd5b505050506040513d601f19601f8201168201806040525081019061048991906112e5565b5060405163095ea7b360e01b81526001600160a01b037f0000000000000000000000000000000000000000000000000000000000000000169063095ea7b3906104f9907f000000000000000000000000000000000000000000000000000000000000000090606490600401611307565b6020604051808303816000875af1158015610518573d6000803e3d6000fd5b505050506040513d601f19601f8201168201806040525081019061053c91906112e5565b5060405163d303e6a560e01b81526000906001600160a01b037f0000000000000000000000000000000000000000000000000000000000000000169063d303e6a5906105a0906305d64e3160e41b906001906002908c908c906005906004016113e8565b6020604051808303816000875af11580156105bf573d6000803e3d6000fd5b505050506040513d601f19601f820116820180604052508101906105e39190611452565b9050807f5ef218ae96e09c55d1de0c9ef7c1270c967bcd5f4f8e045834ceee4b102be614600160028989600560405161062095949392919061146b565b60405180910390a295945050505050565b336001600160a01b037f000000000000000000000000000000000000000000000000000000000000000016146106925760405162461bcd60e51b81526020600482015260066024820152654e4f545f554160d01b6044820152606401610232565b6000805460ff60a01b1916600160a01b17905560068190556040516370a0823160e01b81526001600160a01b037f000000000000000000000000000000000000000000000000000000000000000016906370a08231906106f690309060040161123c565b602060405180830381865afa158015610713573d6000803e3d6000fd5b505050506040513d601f19601f820116820180604052508101906107379190611452565b6006541115610905576040516331a9108f60e11b81527f000000000000000000000000000000000000000000000000000000000000000060048201526001600160a01b037f000000000000000000000000000000000000000000000000000000000000000081169163a9059cbb917f00000000000000000000000000000000000000000000000000000000000000001690636352211e90602401602060405180830381865afa1580156107ee573d6000803e3d6000fd5b505050506040513d601f19601f82011682018060405250810190610812919061128e565b6040516370a0823160e01b81526001600160a01b037f000000000000000000000000000000000000000000000000000000000000000016906370a082319061085e90309060040161123c565b602060405180830381865afa15801561087b573d6000803e3d6000fd5b505050506040513d601f19601f8201168201806040525081019061089f9190611452565b6040518363ffffffff1660e01b81526004016108bc929190611307565b6020604051808303816000875af11580156108db573d6000803e3d6000fd5b505050506040513d601f19601f820116820180604052508101906108ff91906112e5565b50610b39565b6040516331a9108f60e11b81527f000000000000000000000000000000000000000000000000000000000000000060048201526001600160a01b037f000000000000000000000000000000000000000000000000000000000000000081169163a9059cbb917f00000000000000000000000000000000000000000000000000000000000000001690636352211e90602401602060405180830381865afa1580156109b3573d6000803e3d6000fd5b505050506040513d601f19601f820116820180604052508101906109d7919061128e565b6006546040518363ffffffff1660e01b81526004016109f7929190611307565b6020604051808303816000875af1158015610a16573d6000803e3d6000fd5b505050506040513d601f19601f82011682018060405250810190610a3a91906112e5565b506000546040516370a0823160e01b81526001600160a01b037f000000000000000000000000000000000000000000000000000000000000000081169263a9059cbb9291169083906370a0823190610a9690309060040161123c565b602060405180830381865afa158015610ab3573d6000803e3d6000fd5b505050506040513d601f19601f82011682018060405250810190610ad79190611452565b6040518363ffffffff1660e01b8152600401610af4929190611307565b6020604051808303816000875af1158015610b13573d6000803e3d6000fd5b505050506040513d601f19601f82011682018060405250810190610b3791906112e5565b505b817f0c2366233f634048c0f0458060d1228fab36d00f7c0ecf6bdf2d9c458503631182604051610b6b91815260200190565b60405180910390a26040517f0000000000000000000000000000000000000000000000000000000000000000907f52867b6621c82bd178a9944b8c1f1f29aba680811948fb9f8cfbd2fbd46108ee90600090a25050565b6000546001600160a01b03163314610c085760405162461bcd60e51b81526020600482015260096024820152682727aa2fa7aba722a960b91b6044820152606401610232565b6000610c12610d54565b6003811115610c2357610c23611250565b03610c5a5760405162461bcd60e51b815260206004820152600760248201526650454e44494e4760c81b6044820152606401610232565b6040516370a0823160e01b81526001600160a01b037f0000000000000000000000000000000000000000000000000000000000000000169063a9059cbb90339083906370a0823190610cb090309060040161123c565b602060405180830381865afa158015610ccd573d6000803e3d6000fd5b505050506040513d601f19601f82011682018060405250810190610cf19190611452565b6040518363ffffffff1660e01b8152600401610d0e929190611307565b6020604051808303816000875af1158015610d2d573d6000803e3d6000fd5b505050506040513d601f19601f82011682018060405250810190610d5191906112e5565b50565b60006001600054600160a01b900460ff166003811115610d7657610d76611250565b14610db9577f00000000000000000000000000000000000000000000000000000000000000004211610db35750600054600160a01b900460ff1690565b50600390565b50600054600160a01b900460ff1690565b6000610dd4610d54565b6003811115610de557610de5611250565b14610e205760405162461bcd60e51b815260206004820152600b60248201526a10d0539517d0d05390d15360aa1b6044820152606401610232565b60005433906001600160a01b031680821480610ef457506040516331a9108f60e11b81527f000000000000000000000000000000000000000000000000000000000000000060048201527f00000000000000000000000000000000000000000000000000000000000000006001600160a01b031690636352211e90602401602060405180830381865afa158015610ebb573d6000803e3d6000fd5b505050506040513d601f19601f82011682018060405250810190610edf919061128e565b6001600160a01b0316826001600160a01b0316145b610f2e5760405162461bcd60e51b815260206004820152600b60248201526a1393d517d0531313d5d15160aa1b6044820152606401610232565b6001600160a01b03808316600090815260076020526040808220805460ff191660011790559183168152205460ff16801561103057506040516331a9108f60e11b81527f000000000000000000000000000000000000000000000000000000000000000060048201526007906000906001600160a01b037f00000000000000000000000000000000000000000000000000000000000000001690636352211e90602401602060405180830381865afa158015610fee573d6000803e3d6000fd5b505050506040513d601f19601f82011682018060405250810190611012919061128e565b6001600160a01b0316815260208101919091526040016000205460ff165b15611091576000805460ff60a01b1916600160a11b1781556040517f0000000000000000000000000000000000000000000000000000000000000000917f0cae0523c4d6568388c55dcaeb921d927527a60000ca46adffedddf87225f0ec91a25b5050565b8280546110a1906112ab565b90600052602060002090601f0160209004810192826110c35760008555611109565b82601f106110dc5782800160ff19823516178555611109565b82800160010185558215611109579182015b828111156111095782358255916020019190600101906110ee565b50611115929150611119565b5090565b5b80821115611115576000815560010161111a565b6001600160a01b0381168114610d5157600080fd5b60006020828403121561115557600080fd5b81356111608161112e565b9392505050565b60008083601f84011261117957600080fd5b5081356001600160401b0381111561119057600080fd5b6020830191508360208285010111156111a857600080fd5b9250929050565b600080600080604085870312156111c557600080fd5b84356001600160401b03808211156111dc57600080fd5b6111e888838901611167565b9096509450602087013591508082111561120157600080fd5b5061120e87828801611167565b95989497509550505050565b6000806040838503121561122d57600080fd5b50508035926020909101359150565b6001600160a01b0391909116815260200190565b634e487b7160e01b600052602160045260246000fd5b602081016004831061128857634e487b7160e01b600052602160045260246000fd5b91905290565b6000602082840312156112a057600080fd5b81516111608161112e565b600181811c908216806112bf57607f821691505b6020821081036112df57634e487b7160e01b600052602260045260246000fd5b50919050565b6000602082840312156112f757600080fd5b8151801515811461116057600080fd5b6001600160a01b03929092168252602082015260400190565b8054600090600181811c908083168061133a57607f831692505b6020808410820361135b57634e487b7160e01b600052602260045260246000fd5b838852602088018280156113765760018114611387576113b2565b60ff198716825282820197506113b2565b60008981526020902060005b878110156113ac57815484820152908601908401611393565b83019850505b5050505050505092915050565b81835281816020850137506000828201602090810191909152601f909101601f19169091010190565b63ffffffff60e01b8716815260a06020820152600061140a60a0830188611320565b828103604084015261141c8188611320565b905082810360608401526114318186886113bf565b905082810360808401526114458185611320565b9998505050505050505050565b60006020828403121561146457600080fd5b5051919050565b60808152600061147e6080830188611320565b82810360208401526114908188611320565b905082810360408401526114a58186886113bf565b905082810360608401526114b98185611320565b9897505050505050505056fea264697066735822122087444d8ff1f7081a53eeb7ed924d618b4b745013b3001a9e52cc1da0b6a27e1064736f6c634300080e0033",
  "linkReferences": {},
  "deployedLinkReferences": {}
}