{
  "_format": "hh-sol-artifact-1",
  "contractName": "Agreement",
  "sourceName": "contracts/Agreement.sol",
  "abi": [
    {
      "inputs": [
        {
          "internalType": "address",
          "name": "_agreementRegistry",
          "type": "address"
        },
        {
          "internalType": "uint256",
          "name": "_agreementId",
          "type": "uint256"
        },
        {
          "internalType": "address",
          "name": "_creator",
          "type": "address"
        },
        {
          "internalType": "address",
          "name": "_redeemer",
          "type": "address"
        },
        {
          "internalType": "uint256",
          "name": "_deadline",
          "type": "uint256"
        },
        {
          "internalType": "bool",
          "name": "_soulbound",
          "type": "bool"
        },
        {
          "internalType": "bytes",
          "name": "data",
          "type": "bytes"
        }
      ],
      "stateMutability": "nonpayable",
      "type": "constructor"
    },
    {
      "anonymous": false,
      "inputs": [
        {
          "indexed": true,
          "internalType": "uint256",
          "name": "agreementId",
          "type": "uint256"
        }
      ],
      "name": "AgreementCancelled",
      "type": "event"
    },
    {
      "anonymous": false,
      "inputs": [
        {
          "indexed": true,
          "internalType": "uint256",
          "name": "agreementId",
          "type": "uint256"
        }
      ],
      "name": "AgreementFulfilled",
      "type": "event"
    },
    {
      "anonymous": false,
      "inputs": [
        {
          "indexed": true,
          "internalType": "address",
          "name": "user",
          "type": "address"
        },
        {
          "indexed": true,
          "internalType": "address",
          "name": "newOwner",
          "type": "address"
        }
      ],
      "name": "OwnerUpdated",
      "type": "event"
    },
    {
      "anonymous": false,
      "inputs": [
        {
          "indexed": true,
          "internalType": "bytes32",
          "name": "requestId",
          "type": "bytes32"
        },
        {
          "indexed": false,
          "internalType": "bytes32",
          "name": "result",
          "type": "bytes32"
        }
      ],
      "name": "RequestFulfilled",
      "type": "event"
    },
    {
      "anonymous": false,
      "inputs": [
        {
          "indexed": true,
          "internalType": "bytes32",
          "name": "requestId",
          "type": "bytes32"
        },
        {
          "indexed": false,
          "internalType": "string",
          "name": "js",
          "type": "string"
        },
        {
          "indexed": false,
          "internalType": "string",
          "name": "cid",
          "type": "string"
        },
        {
          "indexed": false,
          "internalType": "string",
          "name": "vars",
          "type": "string"
        },
        {
          "indexed": false,
          "internalType": "string",
          "name": "ref",
          "type": "string"
        }
      ],
      "name": "RequestSent",
      "type": "event"
    },
    {
      "inputs": [],
      "name": "agreementId",
      "outputs": [
        {
          "internalType": "uint256",
          "name": "",
          "type": "uint256"
        }
      ],
      "stateMutability": "view",
      "type": "function"
    },
    {
      "inputs": [],
      "name": "cancelAgreement",
      "outputs": [],
      "stateMutability": "nonpayable",
      "type": "function"
    },
    {
      "inputs": [
        {
          "internalType": "address",
          "name": "",
          "type": "address"
        }
      ],
      "name": "cancellations",
      "outputs": [
        {
          "internalType": "bool",
          "name": "",
          "type": "bool"
        }
      ],
      "stateMutability": "view",
      "type": "function"
    },
    {
      "inputs": [],
      "name": "deadline",
      "outputs": [
        {
          "internalType": "uint256",
          "name": "",
          "type": "uint256"
        }
      ],
      "stateMutability": "view",
      "type": "function"
    },
    {
      "inputs": [
        {
          "internalType": "bytes32",
          "name": "requestId",
          "type": "bytes32"
        },
        {
          "internalType": "bytes32",
          "name": "_result",
          "type": "bytes32"
        }
      ],
      "name": "fulfillRequest",
      "outputs": [],
      "stateMutability": "nonpayable",
      "type": "function"
    },
    {
      "inputs": [],
      "name": "owner",
      "outputs": [
        {
          "internalType": "address",
          "name": "",
          "type": "address"
        }
      ],
      "stateMutability": "view",
      "type": "function"
    },
    {
      "inputs": [],
      "name": "recoverFunds",
      "outputs": [],
      "stateMutability": "nonpayable",
      "type": "function"
    },
    {
      "inputs": [
        {
          "internalType": "string",
          "name": "_vars",
          "type": "string"
        },
        {
          "internalType": "string",
          "name": "_ref",
          "type": "string"
        }
      ],
      "name": "redeem",
      "outputs": [
        {
          "internalType": "bytes32",
          "name": "universalAdapterRequestId",
          "type": "bytes32"
        }
      ],
      "stateMutability": "nonpayable",
      "type": "function"
    },
    {
      "inputs": [],
      "name": "redeemer",
      "outputs": [
        {
          "internalType": "address",
          "name": "_redeemer",
          "type": "address"
        }
      ],
      "stateMutability": "view",
      "type": "function"
    },
    {
      "inputs": [],
      "name": "result",
      "outputs": [
        {
          "internalType": "uint256",
          "name": "",
          "type": "uint256"
        }
      ],
      "stateMutability": "view",
      "type": "function"
    },
    {
      "inputs": [
        {
          "internalType": "address",
          "name": "newOwner",
          "type": "address"
        }
      ],
      "name": "setOwner",
      "outputs": [],
      "stateMutability": "nonpayable",
      "type": "function"
    },
    {
      "inputs": [],
      "name": "soulbound",
      "outputs": [
        {
          "internalType": "bool",
          "name": "",
          "type": "bool"
        }
      ],
      "stateMutability": "view",
      "type": "function"
    },
    {
      "inputs": [],
      "name": "state",
      "outputs": [
        {
          "internalType": "enum Agreement.States",
          "name": "_state",
          "type": "uint8"
        }
      ],
      "stateMutability": "view",
      "type": "function"
    }
  ],
  "bytecode": "0x6101406040523480156200001257600080fd5b5060405162001869380380620018698339810160408190526200003591620003df565b600080546001600160a01b0319166001600160a01b03871690811782556040518792907f8292fce18fa69edf4db7b94ea2e58241df0ae57f97e0a6c9b29067028bf92d76908290a35073326c977e6efc84e512bb9c30f76e30c160ed06fb608052735526b90295ecabb23e4ce210511071843c8ee95560a0526001600160a01b0387811660c05260e087905260018054610100869052841515610120526001600160a81b0319169186169190911790558051620000fc90820160209081019083016200056d565b60026000600360006005600060046000600660008a91905090805190602001906200012992919062000190565b505088516200013e919060208b01906200021f565b5050875162000153919060208a01906200021f565b50508651620001689190602089019062000190565b505085516200017d9190602088019062000190565b505050505050505050505050506200068a565b8280546200019e906200064e565b90600052602060002090601f016020900481019282620001c257600085556200020d565b82601f10620001dd57805160ff19168380011785556200020d565b828001600101855582156200020d579182015b828111156200020d578251825591602001919060010190620001f0565b506200021b9291506200027f565b5090565b82805482825590600052602060002090810192821562000271579160200282015b828111156200027157825180516200026091849160209091019062000190565b509160200191906001019062000240565b506200021b92915062000296565b5b808211156200021b576000815560010162000280565b808211156200021b576000620002ad8282620002b7565b5060010162000296565b508054620002c5906200064e565b6000825580601f10620002d6575050565b601f016020900490600052602060002090810190620002f691906200027f565b50565b80516001600160a01b03811681146200031157600080fd5b919050565b634e487b7160e01b600052604160045260246000fd5b604051601f8201601f191681016001600160401b038111828210171562000357576200035762000316565b604052919050565b60006001600160401b038311156200037b576200037b62000316565b602062000391601f8501601f191682016200032c565b9150838252848484011115620003a657600080fd5b60005b84811015620003c457838101518382018301528101620003a9565b84811115620003d65760008286850101525b50509392505050565b600080600080600080600060e0888a031215620003fb57600080fd5b6200040688620002f9565b9650602088015195506200041d60408901620002f9565b94506200042d60608901620002f9565b93506080880151925060a088015180151581146200044a57600080fd5b60c08901519092506001600160401b038111156200046757600080fd5b8801601f81018a136200047957600080fd5b6200048a8a8251602084016200035f565b91505092959891949750929550565b600082601f830112620004ab57600080fd5b620004bc838351602085016200035f565b9392505050565b600082601f830112620004d557600080fd5b815160206001600160401b0380831115620004f457620004f462000316565b8260051b620005058382016200032c565b93845285810183019383810190888611156200052057600080fd5b84880192505b858310156200056157825184811115620005405760008081fd5b620005508a87838c010162000499565b835250918401919084019062000526565b98975050505050505050565b600080600080600060a086880312156200058657600080fd5b85516001600160401b03808211156200059e57600080fd5b620005ac89838a0162000499565b96506020880151915080821115620005c357600080fd5b620005d189838a0162000499565b95506040880151915080821115620005e857600080fd5b620005f689838a01620004c3565b945060608801519150808211156200060d57600080fd5b6200061b89838a01620004c3565b935060808801519150808211156200063257600080fd5b50620006418882890162000499565b9150509295509295909350565b600181811c908216806200066357607f821691505b6020821081036200068457634e487b7160e01b600052602260045260246000fd5b50919050565b60805160a05160c05160e0516101005161012051611143620007266000396000818160b9015261029d01526000818161010a0152610b020152600081816101de015281816102cf015281816108f70152610c92015260006102f5015260008181610537015281816105c001526106a501526000818161047f0152818161050a0152818161072c015281816107d701526109f701526111436000f3fe608060405234801561001057600080fd5b50600436106100af5760003560e01c80630fad0f51146100b457806313af4035146100f057806329dcb0cf146101055780632ba29d381461013a578063322000fa1461014f57806334a84827146101625780635d64e3101461018557806365372147146101985780638da5cb5b146101a1578063b79550be146101b4578063c19d93fb146101bc578063cf6ad876146101d1578063e2739491146101d9575b600080fd5b6100db7f000000000000000000000000000000000000000000000000000000000000000081565b60405190151581526020015b60405180910390f35b6101036100fe366004610d8b565b610200565b005b61012c7f000000000000000000000000000000000000000000000000000000000000000081565b6040519081526020016100e7565b610142610299565b6040516100e79190610daf565b61012c61015d366004610e0b565b61037d565b6100db610170366004610d8b565b60086020526000908152604090205460ff1681565b610103610193366004610e76565b61069a565b61012c60075481565b600054610142906001600160a01b031681565b610103610941565b6101c4610ada565b6040516100e79190610eae565b610103610b4f565b61012c7f000000000000000000000000000000000000000000000000000000000000000081565b6000546001600160a01b0316331461024e5760405162461bcd60e51b815260206004820152600c60248201526b15539055551213d49256915160a21b60448201526064015b60405180910390fd5b600080546001600160a01b0319166001600160a01b0383169081178255604051909133917f8292fce18fa69edf4db7b94ea2e58241df0ae57f97e0a6c9b29067028bf92d769190a350565b60007f000000000000000000000000000000000000000000000000000000000000000061036d576040516331a9108f60e11b81527f000000000000000000000000000000000000000000000000000000000000000060048201527f00000000000000000000000000000000000000000000000000000000000000006001600160a01b031690636352211e90602401602060405180830381865afa158015610344573d6000803e3d6000fd5b505050506040513d601f19601f820116820180604052508101906103689190610ed6565b905090565b506001546001600160a01b031690565b600080610388610ada565b600381111561039957610399610e98565b146103db5760405162461bcd60e51b815260206004820152601260248201527112539050d512559157d051d491515351539560721b6044820152606401610245565b6103e3610299565b6001600160a01b0316336001600160a01b0316146104365760405162461bcd60e51b815260206004820152601060248201526f24a72b20a624a22fa922a222a2a6a2a960811b6044820152606401610245565b60006006805461044590610ef3565b9050111561045b5761045960068484610cdd565b505b6040516323b872dd60e01b81523360048201523060248201526064604482018190527f00000000000000000000000000000000000000000000000000000000000000006001600160a01b0316916323b872dd91016020604051808303816000875af11580156104ce573d6000803e3d6000fd5b505050506040513d601f19601f820116820180604052508101906104f29190610f2d565b5060405163095ea7b360e01b81526001600160a01b037f0000000000000000000000000000000000000000000000000000000000000000169063095ea7b390610562907f000000000000000000000000000000000000000000000000000000000000000090606490600401610f4f565b6020604051808303816000875af1158015610581573d6000803e3d6000fd5b505050506040513d601f19601f820116820180604052508101906105a59190610f2d565b5060405163d303e6a560e01b81526000906001600160a01b037f0000000000000000000000000000000000000000000000000000000000000000169063d303e6a590610609906305d64e3160e41b906002906003908c908c90600690600401611030565b6020604051808303816000875af1158015610628573d6000803e3d6000fd5b505050506040513d601f19601f8201168201806040525081019061064c919061109a565b9050807f5ef218ae96e09c55d1de0c9ef7c1270c967bcd5f4f8e045834ceee4b102be61460026003898960066040516106899594939291906110b3565b60405180910390a295945050505050565b336001600160a01b037f0000000000000000000000000000000000000000000000000000000000000000161461070a5760405162461bcd60e51b81526020600482015260156024820152742737ba102ab734bb32b939b0b61020b230b83a32b960591b6044820152606401610245565b6001805460ff60a01b1916600160a01b17905560078190556001600160a01b037f00000000000000000000000000000000000000000000000000000000000000001663a9059cbb610759610299565b6040516001600160e01b031960e084901b16815261077c91908590600401610f4f565b6020604051808303816000875af115801561079b573d6000803e3d6000fd5b505050506040513d601f19601f820116820180604052508101906107bf9190610f2d565b506040516370a0823160e01b81526001600160a01b037f0000000000000000000000000000000000000000000000000000000000000000169063a9059cbb90339083906370a0823190610816903090600401610daf565b602060405180830381865afa158015610833573d6000803e3d6000fd5b505050506040513d601f19601f82011682018060405250810190610857919061109a565b6040518363ffffffff1660e01b8152600401610874929190610f4f565b6020604051808303816000875af1158015610893573d6000803e3d6000fd5b505050506040513d601f19601f820116820180604052508101906108b79190610f2d565b50817f0c2366233f634048c0f0458060d1228fab36d00f7c0ecf6bdf2d9c4585036311826040516108ea91815260200190565b60405180910390a26040517f0000000000000000000000000000000000000000000000000000000000000000907f52867b6621c82bd178a9944b8c1f1f29aba680811948fb9f8cfbd2fbd46108ee90600090a25050565b6000546001600160a01b031633146109885760405162461bcd60e51b815260206004820152600a60248201526927a7262cafa7aba722a960b11b6044820152606401610245565b6000610992610ada565b60038111156109a3576109a3610e98565b036109e05760405162461bcd60e51b815260206004820152600d60248201526c5354494c4c5f50454e44494e4760981b6044820152606401610245565b6040516370a0823160e01b81526001600160a01b037f0000000000000000000000000000000000000000000000000000000000000000169063a9059cbb90339083906370a0823190610a36903090600401610daf565b602060405180830381865afa158015610a53573d6000803e3d6000fd5b505050506040513d601f19601f82011682018060405250810190610a77919061109a565b6040518363ffffffff1660e01b8152600401610a94929190610f4f565b6020604051808303816000875af1158015610ab3573d6000803e3d6000fd5b505050506040513d601f19601f82011682018060405250810190610ad79190610f2d565b50565b600060018054600160a01b900460ff166003811115610afb57610afb610e98565b14610b3e577f00000000000000000000000000000000000000000000000000000000000000004211610b385750600154600160a01b900460ff1690565b50600390565b50600154600160a01b900460ff1690565b6000610b59610ada565b6003811115610b6a57610b6a610e98565b14610ba75760405162461bcd60e51b815260206004820152600d60248201526c10d0539393d517d0d05390d153609a1b6044820152606401610245565b60005433906001600160a01b031680821480610bdb5750610bc6610299565b6001600160a01b0316826001600160a01b0316145b610c155760405162461bcd60e51b815260206004820152600b60248201526a1393d517d0531313d5d15160aa1b6044820152606401610245565b6001600160a01b03808316600090815260086020526040808220805460ff191660011790559183168152205460ff168015610c75575060086000610c57610299565b6001600160a01b0316815260208101919091526040016000205460ff165b15610cd9576001805460ff60a01b1916600160a11b1790556040517f0000000000000000000000000000000000000000000000000000000000000000907f0cae0523c4d6568388c55dcaeb921d927527a60000ca46adffedddf87225f0ec90600090a25b5050565b828054610ce990610ef3565b90600052602060002090601f016020900481019282610d0b5760008555610d51565b82601f10610d245782800160ff19823516178555610d51565b82800160010185558215610d51579182015b82811115610d51578235825591602001919060010190610d36565b50610d5d929150610d61565b5090565b5b80821115610d5d5760008155600101610d62565b6001600160a01b0381168114610ad757600080fd5b600060208284031215610d9d57600080fd5b8135610da881610d76565b9392505050565b6001600160a01b0391909116815260200190565b60008083601f840112610dd557600080fd5b5081356001600160401b03811115610dec57600080fd5b602083019150836020828501011115610e0457600080fd5b9250929050565b60008060008060408587031215610e2157600080fd5b84356001600160401b0380821115610e3857600080fd5b610e4488838901610dc3565b90965094506020870135915080821115610e5d57600080fd5b50610e6a87828801610dc3565b95989497509550505050565b60008060408385031215610e8957600080fd5b50508035926020909101359150565b634e487b7160e01b600052602160045260246000fd5b6020810160048310610ed057634e487b7160e01b600052602160045260246000fd5b91905290565b600060208284031215610ee857600080fd5b8151610da881610d76565b600181811c90821680610f0757607f821691505b602082108103610f2757634e487b7160e01b600052602260045260246000fd5b50919050565b600060208284031215610f3f57600080fd5b81518015158114610da857600080fd5b6001600160a01b03929092168252602082015260400190565b8054600090600181811c9080831680610f8257607f831692505b60208084108203610fa357634e487b7160e01b600052602260045260246000fd5b83885260208801828015610fbe5760018114610fcf57610ffa565b60ff19871682528282019750610ffa565b60008981526020902060005b87811015610ff457815484820152908601908401610fdb565b83019850505b5050505050505092915050565b81835281816020850137506000828201602090810191909152601f909101601f19169091010190565b63ffffffff60e01b8716815260a06020820152600061105260a0830188610f68565b82810360408401526110648188610f68565b90508281036060840152611079818688611007565b9050828103608084015261108d8185610f68565b9998505050505050505050565b6000602082840312156110ac57600080fd5b5051919050565b6080815260006110c66080830188610f68565b82810360208401526110d88188610f68565b905082810360408401526110ed818688611007565b905082810360608401526111018185610f68565b9897505050505050505056fea2646970667358221220da2617f8b81588409fa33d48026e4d3ef04b222ceb9148cebdd32ec2ca26604964736f6c634300080e0033",
  "linkReferences": {},
  "deployedLinkReferences": {}
}