{
  "_format": "hh-sol-artifact-1",
  "contractName": "Agreement",
  "sourceName": "contracts/Agreement.sol",
  "abi": [
    {
      "inputs": [
        {
          "internalType": "contract LinkTokenInterface",
          "name": "_linkToken",
          "type": "address"
        },
        {
          "internalType": "contract IUniversalAdapter",
          "name": "_universalAdapter",
          "type": "address"
        },
        {
          "internalType": "address",
          "name": "_agreementRegistry",
          "type": "address"
        },
        {
          "internalType": "uint256",
          "name": "_agreementId",
          "type": "uint256"
        },
        {
          "internalType": "address",
          "name": "_creator",
          "type": "address"
        },
        {
          "internalType": "uint256",
          "name": "_deadline",
          "type": "uint256"
        },
        {
          "internalType": "bool",
          "name": "_soulbound",
          "type": "bool"
        },
        {
          "internalType": "bytes",
          "name": "data",
          "type": "bytes"
        }
      ],
      "stateMutability": "nonpayable",
      "type": "constructor"
    },
    {
      "anonymous": false,
      "inputs": [
        {
          "indexed": false,
          "internalType": "uint256",
          "name": "result",
          "type": "uint256"
        }
      ],
      "name": "Filled",
      "type": "event"
    },
    {
      "anonymous": false,
      "inputs": [
        {
          "indexed": true,
          "internalType": "address",
          "name": "user",
          "type": "address"
        },
        {
          "indexed": true,
          "internalType": "address",
          "name": "newOwner",
          "type": "address"
        }
      ],
      "name": "OwnerUpdated",
      "type": "event"
    },
    {
      "inputs": [],
      "name": "agreementId",
      "outputs": [
        {
          "internalType": "uint256",
          "name": "",
          "type": "uint256"
        }
      ],
      "stateMutability": "view",
      "type": "function"
    },
    {
      "inputs": [],
      "name": "cancelAgreement",
      "outputs": [],
      "stateMutability": "nonpayable",
      "type": "function"
    },
    {
      "inputs": [
        {
          "internalType": "address",
          "name": "",
          "type": "address"
        }
      ],
      "name": "cancellations",
      "outputs": [
        {
          "internalType": "bool",
          "name": "",
          "type": "bool"
        }
      ],
      "stateMutability": "view",
      "type": "function"
    },
    {
      "inputs": [],
      "name": "cid",
      "outputs": [
        {
          "internalType": "string",
          "name": "",
          "type": "string"
        }
      ],
      "stateMutability": "view",
      "type": "function"
    },
    {
      "inputs": [],
      "name": "deadline",
      "outputs": [
        {
          "internalType": "uint256",
          "name": "",
          "type": "uint256"
        }
      ],
      "stateMutability": "view",
      "type": "function"
    },
    {
      "inputs": [
        {
          "internalType": "bytes32",
          "name": "",
          "type": "bytes32"
        },
        {
          "internalType": "bytes32",
          "name": "_result",
          "type": "bytes32"
        }
      ],
      "name": "fulfillRequest",
      "outputs": [],
      "stateMutability": "nonpayable",
      "type": "function"
    },
    {
      "inputs": [],
      "name": "js",
      "outputs": [
        {
          "internalType": "string",
          "name": "",
          "type": "string"
        }
      ],
      "stateMutability": "view",
      "type": "function"
    },
    {
      "inputs": [],
      "name": "owner",
      "outputs": [
        {
          "internalType": "address",
          "name": "",
          "type": "address"
        }
      ],
      "stateMutability": "view",
      "type": "function"
    },
    {
      "inputs": [],
      "name": "priVars",
      "outputs": [
        {
          "internalType": "string",
          "name": "",
          "type": "string"
        }
      ],
      "stateMutability": "view",
      "type": "function"
    },
    {
      "inputs": [],
      "name": "pubVars",
      "outputs": [
        {
          "internalType": "string",
          "name": "",
          "type": "string"
        }
      ],
      "stateMutability": "view",
      "type": "function"
    },
    {
      "inputs": [],
      "name": "recoverFunds",
      "outputs": [],
      "stateMutability": "nonpayable",
      "type": "function"
    },
    {
      "inputs": [
        {
          "internalType": "string",
          "name": "_vars",
          "type": "string"
        },
        {
          "internalType": "string",
          "name": "_ref",
          "type": "string"
        }
      ],
      "name": "redeem",
      "outputs": [
        {
          "internalType": "bytes32",
          "name": "universalAdapterRequestId",
          "type": "bytes32"
        }
      ],
      "stateMutability": "nonpayable",
      "type": "function"
    },
    {
      "inputs": [
        {
          "internalType": "address",
          "name": "newOwner",
          "type": "address"
        }
      ],
      "name": "setOwner",
      "outputs": [],
      "stateMutability": "nonpayable",
      "type": "function"
    },
    {
      "inputs": [],
      "name": "soulbound",
      "outputs": [
        {
          "internalType": "bool",
          "name": "",
          "type": "bool"
        }
      ],
      "stateMutability": "view",
      "type": "function"
    },
    {
      "inputs": [],
      "name": "state",
      "outputs": [
        {
          "internalType": "uint256",
          "name": "_state",
          "type": "uint256"
        }
      ],
      "stateMutability": "view",
      "type": "function"
    }
  ],
  "bytecode": "0x6101406040523480156200001257600080fd5b5060405162001975380380620019758339810160408190526200003591620002e1565b600080546001600160a01b0319166001600160a01b03861690811782556040518692907f8292fce18fa69edf4db7b94ea2e58241df0ae57f97e0a6c9b29067028bf92d76908290a3506001600160a01b0380891660805287811660a052861660c05260e0859052610100839052811515610120528051620000c09082016020908101908301620003a5565b60026000600360006006600060056000600460008a9190509080519060200190620000ed92919062000155565b5050885162000102919060208b019062000155565b5050875162000117919060208a019062000155565b505086516200012c9190602089019062000155565b50508551620001419190602088019062000155565b5050505050505050505050505050620004c2565b828054620001639062000486565b90600052602060002090601f016020900481019282620001875760008555620001d2565b82601f10620001a257805160ff1916838001178555620001d2565b82800160010185558215620001d2579182015b82811115620001d2578251825591602001919060010190620001b5565b50620001e0929150620001e4565b5090565b5b80821115620001e05760008155600101620001e5565b6001600160a01b03811681146200021157600080fd5b50565b634e487b7160e01b600052604160045260246000fd5b600082601f8301126200023c57600080fd5b81516001600160401b038082111562000259576200025962000214565b604051601f8301601f19908116603f0116810190828211818310171562000284576200028462000214565b81604052838152602092508683858801011115620002a157600080fd5b600091505b83821015620002c55785820183015181830184015290820190620002a6565b83821115620002d75760008385830101525b9695505050505050565b600080600080600080600080610100898b031215620002ff57600080fd5b88516200030c81620001fb565b60208a01519098506200031f81620001fb565b60408a01519097506200033281620001fb565b60608a015160808b015191975095506200034c81620001fb565b60a08a015160c08b0151919550935080151581146200036a57600080fd5b60e08a01519092506001600160401b038111156200038757600080fd5b620003958b828c016200022a565b9150509295985092959890939650565b600080600080600060a08688031215620003be57600080fd5b85516001600160401b0380821115620003d657600080fd5b620003e489838a016200022a565b96506020880151915080821115620003fb57600080fd5b6200040989838a016200022a565b955060408801519150808211156200042057600080fd5b6200042e89838a016200022a565b945060608801519150808211156200044557600080fd5b6200045389838a016200022a565b935060808801519150808211156200046a57600080fd5b5062000479888289016200022a565b9150509295509295909350565b600181811c908216806200049b57607f821691505b602082108103620004bc57634e487b7160e01b600052602260045260246000fd5b50919050565b60805160a05160c05160e05161010051610120516113df62000596600039600060cf0152600081816101200152610d290152600081816101fb015281816102f40152818161077c0152818161094101528181610dad0152610ed501526000818161031a015281816107d40152818161099901528181610dd30152610f090152600081816104c801528181610551015261067f0152600081816104100152818161049b015281816106f0015281816107aa015281816108560152818161096f01528181610a850152610c3801526113df6000f3fe608060405234801561001057600080fd5b50600436106100c55760003560e01c80630fad0f51146100ca57806313af40351461010657806329dcb0cf1461011b578063322000fa1461015057806334a8482714610163578063355c76ba146101865780635d64e3101461019b5780637b40d6b7146101ae5780638da5cb5b146101b6578063aa3ec0a9146101d6578063b79550be146101de578063c19d93fb146101e6578063cf6ad876146101ee578063e2739491146101f6578063edbf55f61461021d575b600080fd5b6100f17f000000000000000000000000000000000000000000000000000000000000000081565b60405190151581526020015b60405180910390f35b61011961011436600461105c565b610225565b005b6101427f000000000000000000000000000000000000000000000000000000000000000081565b6040519081526020016100fd565b61014261015e3660046110c8565b6102be565b6100f161017136600461105c565b60076020526000908152604090205460ff1681565b61018e6105e6565b6040516100fd9190611133565b6101196101a9366004611188565b610674565b61018e610ba0565b6000546101c9906001600160a01b031681565b6040516100fd91906111aa565b61018e610bad565b610119610bba565b610142610d1b565b610119610d62565b6101427f000000000000000000000000000000000000000000000000000000000000000081565b61018e610fa1565b6000546001600160a01b031633146102735760405162461bcd60e51b815260206004820152600c60248201526b15539055551213d49256915160a21b60448201526064015b60405180910390fd5b600080546001600160a01b0319166001600160a01b0383169081178255604051909133917f8292fce18fa69edf4db7b94ea2e58241df0ae57f97e0a6c9b29067028bf92d769190a350565b60006102c8610d1b565b156102e55760405162461bcd60e51b815260040161026a906111be565b6040516331a9108f60e11b81527f000000000000000000000000000000000000000000000000000000000000000060048201527f00000000000000000000000000000000000000000000000000000000000000006001600160a01b031690636352211e90602401602060405180830381865afa158015610369573d6000803e3d6000fd5b505050506040513d601f19601f8201168201806040525081019061038d91906111dd565b6001600160a01b0316336001600160a01b0316146103c75760405162461bcd60e51b8152602060048201526000602482015260440161026a565b6000600480546103d6906111fa565b905011156103ec576103ea60048484610fae565b505b6040516323b872dd60e01b81523360048201523060248201526064604482018190527f00000000000000000000000000000000000000000000000000000000000000006001600160a01b0316916323b872dd91016020604051808303816000875af115801561045f573d6000803e3d6000fd5b505050506040513d601f19601f820116820180604052508101906104839190611234565b5060405163095ea7b360e01b81526001600160a01b037f0000000000000000000000000000000000000000000000000000000000000000169063095ea7b3906104f3907f000000000000000000000000000000000000000000000000000000000000000090606490600401611256565b6020604051808303816000875af1158015610512573d6000803e3d6000fd5b505050506040513d601f19601f820116820180604052508101906105369190611234565b5060405163d303e6a560e01b81526000906001600160a01b037f0000000000000000000000000000000000000000000000000000000000000000169063d303e6a590610599906305d64e3160e41b906002906003908c908c90600490810161130e565b6020604051808303816000875af11580156105b8573d6000803e3d6000fd5b505050506040513d601f19601f820116820180604052508101906105dc9190611390565b9695505050505050565b600580546105f3906111fa565b80601f016020809104026020016040519081016040528092919081815260200182805461061f906111fa565b801561066c5780601f106106415761010080835404028352916020019161066c565b820191906000526020600020905b81548152906001019060200180831161064f57829003601f168201915b505050505081565b336001600160a01b037f000000000000000000000000000000000000000000000000000000000000000016146106d55760405162461bcd60e51b81526020600482015260066024820152654e4f545f554160d01b604482015260640161026a565b600180556040516370a0823160e01b81526001600160a01b037f000000000000000000000000000000000000000000000000000000000000000016906370a08231906107259030906004016111aa565b602060405180830381865afa158015610742573d6000803e3d6000fd5b505050506040513d601f19601f820116820180604052508101906107669190611390565b811115610932576040516331a9108f60e11b81527f000000000000000000000000000000000000000000000000000000000000000060048201526001600160a01b037f000000000000000000000000000000000000000000000000000000000000000081169163a9059cbb917f00000000000000000000000000000000000000000000000000000000000000001690636352211e90602401602060405180830381865afa15801561081b573d6000803e3d6000fd5b505050506040513d601f19601f8201168201806040525081019061083f91906111dd565b6040516370a0823160e01b81526001600160a01b037f000000000000000000000000000000000000000000000000000000000000000016906370a082319061088b9030906004016111aa565b602060405180830381865afa1580156108a8573d6000803e3d6000fd5b505050506040513d601f19601f820116820180604052508101906108cc9190611390565b6040518363ffffffff1660e01b81526004016108e9929190611256565b6020604051808303816000875af1158015610908573d6000803e3d6000fd5b505050506040513d601f19601f8201168201806040525081019061092c9190611234565b50610b69565b6040516331a9108f60e11b81527f000000000000000000000000000000000000000000000000000000000000000060048201526001600160a01b037f000000000000000000000000000000000000000000000000000000000000000081169163a9059cbb917f00000000000000000000000000000000000000000000000000000000000000001690636352211e90602401602060405180830381865afa1580156109e0573d6000803e3d6000fd5b505050506040513d601f19601f82011682018060405250810190610a0491906111dd565b6040516001600160e01b031960e084901b168152610a2791908590600401611256565b6020604051808303816000875af1158015610a46573d6000803e3d6000fd5b505050506040513d601f19601f82011682018060405250810190610a6a9190611234565b506000546040516370a0823160e01b81526001600160a01b037f000000000000000000000000000000000000000000000000000000000000000081169263a9059cbb9291169083906370a0823190610ac69030906004016111aa565b602060405180830381865afa158015610ae3573d6000803e3d6000fd5b505050506040513d601f19601f82011682018060405250810190610b079190611390565b6040518363ffffffff1660e01b8152600401610b24929190611256565b6020604051808303816000875af1158015610b43573d6000803e3d6000fd5b505050506040513d601f19601f82011682018060405250810190610b679190611234565b505b6040518181527fd14df08fabc3175c71c9c6b212bd0fd290d0e78a5f809c5f28deb5ba6f029b919060200160405180910390a15050565b600680546105f3906111fa565b600380546105f3906111fa565b6000546001600160a01b03163314610bfa5760405162461bcd60e51b815260206004820152600360248201526227aba760e91b604482015260640161026a565b610c02610d1b565b600003610c215760405162461bcd60e51b815260040161026a906111be565b6040516370a0823160e01b81526001600160a01b037f0000000000000000000000000000000000000000000000000000000000000000169063a9059cbb90339083906370a0823190610c779030906004016111aa565b602060405180830381865afa158015610c94573d6000803e3d6000fd5b505050506040513d601f19601f82011682018060405250810190610cb89190611390565b6040518363ffffffff1660e01b8152600401610cd5929190611256565b6020604051808303816000875af1158015610cf4573d6000803e3d6000fd5b505050506040513d601f19601f82011682018060405250810190610d189190611234565b50565b6000600154600114610d5b577f00000000000000000000000000000000000000000000000000000000000000004211610d55575060015490565b50600390565b5060015490565b610d6a610d1b565b15610d875760405162461bcd60e51b815260040161026a906111be565b60005433906001600160a01b031680821480610e5b57506040516331a9108f60e11b81527f000000000000000000000000000000000000000000000000000000000000000060048201527f00000000000000000000000000000000000000000000000000000000000000006001600160a01b031690636352211e90602401602060405180830381865afa158015610e22573d6000803e3d6000fd5b505050506040513d601f19601f82011682018060405250810190610e4691906111dd565b6001600160a01b0316826001600160a01b0316145b610e905760405162461bcd60e51b815260040161026a90602080825260049082015263082aaa8960e31b604082015260600190565b6001600160a01b03808316600090815260076020526040808220805460ff191660011790559183168152205460ff168015610f9257506040516331a9108f60e11b81527f000000000000000000000000000000000000000000000000000000000000000060048201526007906000906001600160a01b037f00000000000000000000000000000000000000000000000000000000000000001690636352211e90602401602060405180830381865afa158015610f50573d6000803e3d6000fd5b505050506040513d601f19601f82011682018060405250810190610f7491906111dd565b6001600160a01b0316815260208101919091526040016000205460ff165b15610f9d5760026001555b5050565b600280546105f3906111fa565b828054610fba906111fa565b90600052602060002090601f016020900481019282610fdc5760008555611022565b82601f10610ff55782800160ff19823516178555611022565b82800160010185558215611022579182015b82811115611022578235825591602001919060010190611007565b5061102e929150611032565b5090565b5b8082111561102e5760008155600101611033565b6001600160a01b0381168114610d1857600080fd5b60006020828403121561106e57600080fd5b813561107981611047565b9392505050565b60008083601f84011261109257600080fd5b5081356001600160401b038111156110a957600080fd5b6020830191508360208285010111156110c157600080fd5b9250929050565b600080600080604085870312156110de57600080fd5b84356001600160401b03808211156110f557600080fd5b61110188838901611080565b9096509450602087013591508082111561111a57600080fd5b5061112787828801611080565b95989497509550505050565b600060208083528351808285015260005b8181101561116057858101830151858201604001528201611144565b81811115611172576000604083870101525b50601f01601f1916929092016040019392505050565b6000806040838503121561119b57600080fd5b50508035926020909101359150565b6001600160a01b0391909116815260200190565b60208082526005908201526412539050d560da1b604082015260600190565b6000602082840312156111ef57600080fd5b815161107981611047565b600181811c9082168061120e57607f821691505b60208210810361122e57634e487b7160e01b600052602260045260246000fd5b50919050565b60006020828403121561124657600080fd5b8151801515811461107957600080fd5b6001600160a01b03929092168252602082015260400190565b8054600090600181811c908083168061128957607f831692505b602080841082036112aa57634e487b7160e01b600052602260045260246000fd5b838852602088018280156112c557600181146112d657611301565b60ff19871682528282019750611301565b60008981526020902060005b878110156112fb578154848201529086019084016112e2565b83019850505b5050505050505092915050565b63ffffffff60e01b8716815260a06020820152600061133060a083018861126f565b8281036040840152611342818861126f565b9050828103606084015284815284866020830137600060208683010152601f19601f860116810190506020838203016080840152611383602082018561126f565b9998505050505050505050565b6000602082840312156113a257600080fd5b505191905056fea26469706673582212209a5c78242bfb66d2a136b652cfb20010beb59888d608d9151842ef327f21a1de64736f6c634300080e0033",
  "linkReferences": {},
  "deployedLinkReferences": {}
}