{
  "_format": "hh-sol-artifact-1",
  "contractName": "Agreement",
  "sourceName": "contracts/Agreement.sol",
  "abi": [
    {
      "inputs": [
        {
          "internalType": "contract LinkTokenInterface",
          "name": "_linkToken",
          "type": "address"
        },
        {
          "internalType": "contract IUniversalAdapter",
          "name": "_universalAdapter",
          "type": "address"
        },
        {
          "internalType": "address",
          "name": "_agreementRegistry",
          "type": "address"
        },
        {
          "internalType": "uint256",
          "name": "_agreementId",
          "type": "uint256"
        },
        {
          "internalType": "address",
          "name": "_creator",
          "type": "address"
        },
        {
          "internalType": "uint256",
          "name": "_deadline",
          "type": "uint256"
        },
        {
          "internalType": "bool",
          "name": "_soulbound",
          "type": "bool"
        },
        {
          "internalType": "bytes",
          "name": "data",
          "type": "bytes"
        }
      ],
      "stateMutability": "nonpayable",
      "type": "constructor"
    },
    {
      "anonymous": false,
      "inputs": [
        {
          "indexed": false,
          "internalType": "uint256",
          "name": "result",
          "type": "uint256"
        }
      ],
      "name": "Filled",
      "type": "event"
    },
    {
      "anonymous": false,
      "inputs": [
        {
          "indexed": true,
          "internalType": "address",
          "name": "user",
          "type": "address"
        },
        {
          "indexed": true,
          "internalType": "address",
          "name": "newOwner",
          "type": "address"
        }
      ],
      "name": "OwnerUpdated",
      "type": "event"
    },
    {
      "inputs": [],
      "name": "agreementId",
      "outputs": [
        {
          "internalType": "uint256",
          "name": "",
          "type": "uint256"
        }
      ],
      "stateMutability": "view",
      "type": "function"
    },
    {
      "inputs": [],
      "name": "cancelAgreement",
      "outputs": [],
      "stateMutability": "nonpayable",
      "type": "function"
    },
    {
      "inputs": [],
      "name": "cid",
      "outputs": [
        {
          "internalType": "string",
          "name": "",
          "type": "string"
        }
      ],
      "stateMutability": "view",
      "type": "function"
    },
    {
      "inputs": [],
      "name": "deadline",
      "outputs": [
        {
          "internalType": "uint256",
          "name": "",
          "type": "uint256"
        }
      ],
      "stateMutability": "view",
      "type": "function"
    },
    {
      "inputs": [
        {
          "internalType": "bytes32",
          "name": "",
          "type": "bytes32"
        },
        {
          "internalType": "bytes32",
          "name": "_result",
          "type": "bytes32"
        }
      ],
      "name": "fulfillRequest",
      "outputs": [],
      "stateMutability": "nonpayable",
      "type": "function"
    },
    {
      "inputs": [],
      "name": "js",
      "outputs": [
        {
          "internalType": "string",
          "name": "",
          "type": "string"
        }
      ],
      "stateMutability": "view",
      "type": "function"
    },
    {
      "inputs": [
        {
          "internalType": "address",
          "name": "sender",
          "type": "address"
        },
        {
          "internalType": "uint256",
          "name": "amount",
          "type": "uint256"
        },
        {
          "internalType": "bytes",
          "name": "data",
          "type": "bytes"
        }
      ],
      "name": "onTokenTransfer",
      "outputs": [],
      "stateMutability": "nonpayable",
      "type": "function"
    },
    {
      "inputs": [],
      "name": "owner",
      "outputs": [
        {
          "internalType": "address",
          "name": "",
          "type": "address"
        }
      ],
      "stateMutability": "view",
      "type": "function"
    },
    {
      "inputs": [],
      "name": "priVars",
      "outputs": [
        {
          "internalType": "string",
          "name": "",
          "type": "string"
        }
      ],
      "stateMutability": "view",
      "type": "function"
    },
    {
      "inputs": [],
      "name": "pubVars",
      "outputs": [
        {
          "internalType": "string",
          "name": "",
          "type": "string"
        }
      ],
      "stateMutability": "view",
      "type": "function"
    },
    {
      "inputs": [],
      "name": "recoverFunds",
      "outputs": [],
      "stateMutability": "nonpayable",
      "type": "function"
    },
    {
      "inputs": [
        {
          "internalType": "address",
          "name": "newOwner",
          "type": "address"
        }
      ],
      "name": "setOwner",
      "outputs": [],
      "stateMutability": "nonpayable",
      "type": "function"
    },
    {
      "inputs": [],
      "name": "soulbound",
      "outputs": [
        {
          "internalType": "bool",
          "name": "",
          "type": "bool"
        }
      ],
      "stateMutability": "view",
      "type": "function"
    },
    {
      "inputs": [],
      "name": "state",
      "outputs": [
        {
          "internalType": "uint256",
          "name": "_state",
          "type": "uint256"
        }
      ],
      "stateMutability": "view",
      "type": "function"
    }
  ],
  "bytecode": "0x6101406040523480156200001257600080fd5b506040516200197a3803806200197a8339810160408190526200003591620002e1565b600080546001600160a01b0319166001600160a01b03861690811782556040518692907f8292fce18fa69edf4db7b94ea2e58241df0ae57f97e0a6c9b29067028bf92d76908290a3506001600160a01b0380891660805287811660a052861660c05260e0859052610100839052811515610120528051620000c09082016020908101908301620003a5565b60026000600360006006600060056000600460008a9190509080519060200190620000ed92919062000155565b5050885162000102919060208b019062000155565b5050875162000117919060208a019062000155565b505086516200012c9190602089019062000155565b50508551620001419190602088019062000155565b5050505050505050505050505050620004c2565b828054620001639062000486565b90600052602060002090601f016020900481019282620001875760008555620001d2565b82601f10620001a257805160ff1916838001178555620001d2565b82800160010185558215620001d2579182015b82811115620001d2578251825591602001919060010190620001b5565b50620001e0929150620001e4565b5090565b5b80821115620001e05760008155600101620001e5565b6001600160a01b03811681146200021157600080fd5b50565b634e487b7160e01b600052604160045260246000fd5b600082601f8301126200023c57600080fd5b81516001600160401b038082111562000259576200025962000214565b604051601f8301601f19908116603f0116810190828211818310171562000284576200028462000214565b81604052838152602092508683858801011115620002a157600080fd5b600091505b83821015620002c55785820183015181830184015290820190620002a6565b83821115620002d75760008385830101525b9695505050505050565b600080600080600080600080610100898b031215620002ff57600080fd5b88516200030c81620001fb565b60208a01519098506200031f81620001fb565b60408a01519097506200033281620001fb565b60608a015160808b015191975095506200034c81620001fb565b60a08a015160c08b0151919550935080151581146200036a57600080fd5b60e08a01519092506001600160401b038111156200038757600080fd5b620003958b828c016200022a565b9150509295985092959890939650565b600080600080600060a08688031215620003be57600080fd5b85516001600160401b0380821115620003d657600080fd5b620003e489838a016200022a565b96506020880151915080821115620003fb57600080fd5b6200040989838a016200022a565b955060408801519150808211156200042057600080fd5b6200042e89838a016200022a565b945060608801519150808211156200044557600080fd5b6200045389838a016200022a565b935060808801519150808211156200046a57600080fd5b5062000479888289016200022a565b9150509295509295909350565b600181811c908216806200049b57607f821691505b602082108103620004bc57634e487b7160e01b600052602260045260246000fd5b50919050565b60805160a05160c05160e05161010051610120516113eb6200058f600039600060c40152600081816101150152610d230152600081816101cd01528181610426015281816105eb015281816109310152610d9001526000818161047e01528181610643015281816109570152610db601526000818161032901528181610a6e0152610af401526000818161039a0152818161045401528181610500015281816106190152818161072f0152818161088701528181610a4101528181610c320152610e7801526113eb6000f3fe608060405234801561001057600080fd5b50600436106100ba5760003560e01c80630fad0f51146100bf57806313af4035146100fb57806329dcb0cf14610110578063355c76ba146101455780635d64e3101461015a5780637b40d6b71461016d5780638da5cb5b14610175578063a4c0ed3614610195578063aa3ec0a9146101a8578063b79550be146101b0578063c19d93fb146101b8578063cf6ad876146101c0578063e2739491146101c8578063edbf55f6146101ef575b600080fd5b6100e67f000000000000000000000000000000000000000000000000000000000000000081565b60405190151581526020015b60405180910390f35b61010e610109366004610f74565b6101f7565b005b6101377f000000000000000000000000000000000000000000000000000000000000000081565b6040519081526020016100f2565b61014d610290565b6040516100f29190610fe5565b61010e610168366004610ff8565b61031e565b61014d61084a565b600054610188906001600160a01b031681565b6040516100f2919061101a565b61010e6101a336600461102e565b610857565b61014d610b86565b61010e610b93565b610137610d15565b61010e610d5c565b6101377f000000000000000000000000000000000000000000000000000000000000000081565b61014d610eb9565b6000546001600160a01b031633146102455760405162461bcd60e51b815260206004820152600c60248201526b15539055551213d49256915160a21b60448201526064015b60405180910390fd5b600080546001600160a01b0319166001600160a01b0383169081178255604051909133917f8292fce18fa69edf4db7b94ea2e58241df0ae57f97e0a6c9b29067028bf92d769190a350565b6005805461029d906110b6565b80601f01602080910402602001604051908101604052809291908181526020018280546102c9906110b6565b80156103165780601f106102eb57610100808354040283529160200191610316565b820191906000526020600020905b8154815290600101906020018083116102f957829003601f168201915b505050505081565b336001600160a01b037f0000000000000000000000000000000000000000000000000000000000000000161461037f5760405162461bcd60e51b81526020600482015260066024820152654e4f545f554160d01b604482015260640161023c565b600180556040516370a0823160e01b81526001600160a01b037f000000000000000000000000000000000000000000000000000000000000000016906370a08231906103cf90309060040161101a565b602060405180830381865afa1580156103ec573d6000803e3d6000fd5b505050506040513d601f19601f8201168201806040525081019061041091906110f0565b8111156105dc576040516331a9108f60e11b81527f000000000000000000000000000000000000000000000000000000000000000060048201526001600160a01b037f000000000000000000000000000000000000000000000000000000000000000081169163a9059cbb917f00000000000000000000000000000000000000000000000000000000000000001690636352211e90602401602060405180830381865afa1580156104c5573d6000803e3d6000fd5b505050506040513d601f19601f820116820180604052508101906104e99190611109565b6040516370a0823160e01b81526001600160a01b037f000000000000000000000000000000000000000000000000000000000000000016906370a082319061053590309060040161101a565b602060405180830381865afa158015610552573d6000803e3d6000fd5b505050506040513d601f19601f8201168201806040525081019061057691906110f0565b6040518363ffffffff1660e01b8152600401610593929190611126565b6020604051808303816000875af11580156105b2573d6000803e3d6000fd5b505050506040513d601f19601f820116820180604052508101906105d6919061113f565b50610813565b6040516331a9108f60e11b81527f000000000000000000000000000000000000000000000000000000000000000060048201526001600160a01b037f000000000000000000000000000000000000000000000000000000000000000081169163a9059cbb917f00000000000000000000000000000000000000000000000000000000000000001690636352211e90602401602060405180830381865afa15801561068a573d6000803e3d6000fd5b505050506040513d601f19601f820116820180604052508101906106ae9190611109565b6040516001600160e01b031960e084901b1681526106d191908590600401611126565b6020604051808303816000875af11580156106f0573d6000803e3d6000fd5b505050506040513d601f19601f82011682018060405250810190610714919061113f565b506000546040516370a0823160e01b81526001600160a01b037f000000000000000000000000000000000000000000000000000000000000000081169263a9059cbb9291169083906370a082319061077090309060040161101a565b602060405180830381865afa15801561078d573d6000803e3d6000fd5b505050506040513d601f19601f820116820180604052508101906107b191906110f0565b6040518363ffffffff1660e01b81526004016107ce929190611126565b6020604051808303816000875af11580156107ed573d6000803e3d6000fd5b505050506040513d601f19601f82011682018060405250810190610811919061113f565b505b6040518181527fd14df08fabc3175c71c9c6b212bd0fd290d0e78a5f809c5f28deb5ba6f029b919060200160405180910390a15050565b6006805461029d906110b6565b61085f610d15565b1561087c5760405162461bcd60e51b815260040161023c90611161565b336001600160a01b037f000000000000000000000000000000000000000000000000000000000000000016146108df5760405162461bcd60e51b81526020600482015260086024820152674e4f545f4c494e4b60c01b604482015260640161023c565b606483146109225760405162461bcd60e51b815260206004820152601060248201526f125390d3d4949150d517d05353d5539560821b604482015260640161023c565b6040516331a9108f60e11b81527f000000000000000000000000000000000000000000000000000000000000000060048201527f00000000000000000000000000000000000000000000000000000000000000006001600160a01b031690636352211e90602401602060405180830381865afa1580156109a6573d6000803e3d6000fd5b505050506040513d601f19601f820116820180604052508101906109ca9190611109565b6001600160a01b0316846001600160a01b0316146109fa5760405162461bcd60e51b815260040161023c90611183565b606080610a098385018561124b565b8051919350915015610a2a578051610a28906004906020840190610ec6565b505b60405163095ea7b360e01b81526001600160a01b037f0000000000000000000000000000000000000000000000000000000000000000169063095ea7b390610a99907f000000000000000000000000000000000000000000000000000000000000000090606490600401611126565b6020604051808303816000875af1158015610ab8573d6000803e3d6000fd5b505050506040513d601f19601f82011682018060405250810190610adc919061113f565b5060405163d303e6a560e01b81526001600160a01b037f0000000000000000000000000000000000000000000000000000000000000000169063d303e6a590610b3a906305d64e3160e41b906002906003908890600490810161134d565b6020604051808303816000875af1158015610b59573d6000803e3d6000fd5b505050506040513d601f19601f82011682018060405250810190610b7d91906110f0565b50505050505050565b6003805461029d906110b6565b6000546001600160a01b03163314610bdb5760405162461bcd60e51b815260206004820152600b60248201526a2727aa2fa1a922a0aa27a960a91b604482015260640161023c565b610be3610d15565b600003610c1b5760405162461bcd60e51b815260206004820152600660248201526541435449564560d01b604482015260640161023c565b6040516370a0823160e01b81526001600160a01b037f0000000000000000000000000000000000000000000000000000000000000000169063a9059cbb90339083906370a0823190610c7190309060040161101a565b602060405180830381865afa158015610c8e573d6000803e3d6000fd5b505050506040513d601f19601f82011682018060405250810190610cb291906110f0565b6040518363ffffffff1660e01b8152600401610ccf929190611126565b6020604051808303816000875af1158015610cee573d6000803e3d6000fd5b505050506040513d601f19601f82011682018060405250810190610d12919061113f565b50565b6000600154600114610d55577f00000000000000000000000000000000000000000000000000000000000000004211610d4f575060015490565b50600390565b5060015490565b610d64610d15565b15610d815760405162461bcd60e51b815260040161023c90611161565b6040516331a9108f60e11b81527f000000000000000000000000000000000000000000000000000000000000000060048201527f00000000000000000000000000000000000000000000000000000000000000006001600160a01b031690636352211e90602401602060405180830381865afa158015610e05573d6000803e3d6000fd5b505050506040513d601f19601f82011682018060405250810190610e299190611109565b6001600160a01b0316336001600160a01b031614610e595760405162461bcd60e51b815260040161023c90611183565b60026001556000546040516370a0823160e01b81526001600160a01b037f000000000000000000000000000000000000000000000000000000000000000081169263a9059cbb9291169083906370a0823190610c7190309060040161101a565b6002805461029d906110b6565b828054610ed2906110b6565b90600052602060002090601f016020900481019282610ef45760008555610f3a565b82601f10610f0d57805160ff1916838001178555610f3a565b82800160010185558215610f3a579182015b82811115610f3a578251825591602001919060010190610f1f565b50610f46929150610f4a565b5090565b5b80821115610f465760008155600101610f4b565b6001600160a01b0381168114610d1257600080fd5b600060208284031215610f8657600080fd5b8135610f9181610f5f565b9392505050565b6000815180845260005b81811015610fbe57602081850181015186830182015201610fa2565b81811115610fd0576000602083870101525b50601f01601f19169290920160200192915050565b602081526000610f916020830184610f98565b6000806040838503121561100b57600080fd5b50508035926020909101359150565b6001600160a01b0391909116815260200190565b6000806000806060858703121561104457600080fd5b843561104f81610f5f565b93506020850135925060408501356001600160401b038082111561107257600080fd5b818701915087601f83011261108657600080fd5b81358181111561109557600080fd5b8860208285010111156110a757600080fd5b95989497505060200194505050565b600181811c908216806110ca57607f821691505b6020821081036110ea57634e487b7160e01b600052602260045260246000fd5b50919050565b60006020828403121561110257600080fd5b5051919050565b60006020828403121561111b57600080fd5b8151610f9181610f5f565b6001600160a01b03929092168252602082015260400190565b60006020828403121561115157600080fd5b81518015158114610f9157600080fd5b602080825260089082015267494e41435449564560c01b604082015260600190565b6020808252600c908201526b2727aa2fa922a222a2a6a2a960a11b604082015260600190565b634e487b7160e01b600052604160045260246000fd5b600082601f8301126111d057600080fd5b81356001600160401b03808211156111ea576111ea6111a9565b604051601f8301601f19908116603f01168101908282118183101715611212576112126111a9565b8160405283815286602085880101111561122b57600080fd5b836020870160208301376000602085830101528094505050505092915050565b6000806040838503121561125e57600080fd5b82356001600160401b038082111561127557600080fd5b611281868387016111bf565b9350602085013591508082111561129757600080fd5b506112a4858286016111bf565b9150509250929050565b8054600090600181811c90808316806112c857607f831692505b602080841082036112e957634e487b7160e01b600052602260045260246000fd5b83885260208801828015611304576001811461131557611340565b60ff19871682528282019750611340565b60008981526020902060005b8781101561133a57815484820152908601908401611321565b83019850505b5050505050505092915050565b63ffffffff60e01b8616815260a06020820152600061136f60a08301876112ae565b828103604084015261138181876112ae565b905082810360608401526113958186610f98565b905082810360808401526113a981856112ae565b9897505050505050505056fea2646970667358221220a599b95e3f1b3077b255d10461d65c307c7712c97b3aa3b65974e5cac108f6f564736f6c634300080e0033",
  "linkReferences": {},
  "deployedLinkReferences": {}
}