{
  "_format": "hh-sol-artifact-1",
  "contractName": "Agreement",
  "sourceName": "contracts/Agreement.sol",
  "abi": [
    {
      "inputs": [
        {
          "internalType": "contract LinkTokenInterface",
          "name": "_link",
          "type": "address"
        },
        {
          "internalType": "contract IUniversalAdapter",
          "name": "_universalAdapter",
          "type": "address"
        },
        {
          "internalType": "address",
          "name": "_agreementRegistry",
          "type": "address"
        },
        {
          "internalType": "uint256",
          "name": "_requestCost",
          "type": "uint256"
        },
        {
          "internalType": "uint256",
          "name": "_agreementId",
          "type": "uint256"
        },
        {
          "internalType": "address",
          "name": "_creator",
          "type": "address"
        },
        {
          "internalType": "address",
          "name": "_redeemer",
          "type": "address"
        },
        {
          "internalType": "uint256",
          "name": "_deadline",
          "type": "uint256"
        },
        {
          "internalType": "bool",
          "name": "_soulbound",
          "type": "bool"
        },
        {
          "internalType": "bytes",
          "name": "data",
          "type": "bytes"
        }
      ],
      "stateMutability": "nonpayable",
      "type": "constructor"
    },
    {
      "anonymous": false,
      "inputs": [
        {
          "indexed": true,
          "internalType": "uint256",
          "name": "agreementId",
          "type": "uint256"
        }
      ],
      "name": "AgreementCancelled",
      "type": "event"
    },
    {
      "anonymous": false,
      "inputs": [
        {
          "indexed": true,
          "internalType": "uint256",
          "name": "agreementId",
          "type": "uint256"
        }
      ],
      "name": "AgreementFulfilled",
      "type": "event"
    },
    {
      "anonymous": false,
      "inputs": [
        {
          "indexed": true,
          "internalType": "address",
          "name": "user",
          "type": "address"
        },
        {
          "indexed": true,
          "internalType": "address",
          "name": "newOwner",
          "type": "address"
        }
      ],
      "name": "OwnerUpdated",
      "type": "event"
    },
    {
      "anonymous": false,
      "inputs": [
        {
          "indexed": true,
          "internalType": "bytes32",
          "name": "requestId",
          "type": "bytes32"
        },
        {
          "indexed": false,
          "internalType": "bytes32",
          "name": "result",
          "type": "bytes32"
        }
      ],
      "name": "RequestFulfilled",
      "type": "event"
    },
    {
      "anonymous": false,
      "inputs": [
        {
          "indexed": true,
          "internalType": "bytes32",
          "name": "requestId",
          "type": "bytes32"
        },
        {
          "indexed": false,
          "internalType": "string",
          "name": "js",
          "type": "string"
        },
        {
          "indexed": false,
          "internalType": "string",
          "name": "cid",
          "type": "string"
        },
        {
          "indexed": false,
          "internalType": "string",
          "name": "vars",
          "type": "string"
        },
        {
          "indexed": false,
          "internalType": "string",
          "name": "ref",
          "type": "string"
        }
      ],
      "name": "RequestSent",
      "type": "event"
    },
    {
      "inputs": [],
      "name": "agreementId",
      "outputs": [
        {
          "internalType": "uint256",
          "name": "",
          "type": "uint256"
        }
      ],
      "stateMutability": "view",
      "type": "function"
    },
    {
      "inputs": [],
      "name": "cancelAgreement",
      "outputs": [],
      "stateMutability": "nonpayable",
      "type": "function"
    },
    {
      "inputs": [
        {
          "internalType": "address",
          "name": "",
          "type": "address"
        }
      ],
      "name": "cancellations",
      "outputs": [
        {
          "internalType": "bool",
          "name": "",
          "type": "bool"
        }
      ],
      "stateMutability": "view",
      "type": "function"
    },
    {
      "inputs": [],
      "name": "deadline",
      "outputs": [
        {
          "internalType": "uint256",
          "name": "",
          "type": "uint256"
        }
      ],
      "stateMutability": "view",
      "type": "function"
    },
    {
      "inputs": [
        {
          "internalType": "bytes32",
          "name": "requestId",
          "type": "bytes32"
        },
        {
          "internalType": "bytes32",
          "name": "_result",
          "type": "bytes32"
        }
      ],
      "name": "fulfillRequest",
      "outputs": [],
      "stateMutability": "nonpayable",
      "type": "function"
    },
    {
      "inputs": [
        {
          "internalType": "string",
          "name": "_vars",
          "type": "string"
        }
      ],
      "name": "makeRequest",
      "outputs": [
        {
          "internalType": "bytes32",
          "name": "universalAdapterRequestId",
          "type": "bytes32"
        }
      ],
      "stateMutability": "nonpayable",
      "type": "function"
    },
    {
      "inputs": [],
      "name": "owner",
      "outputs": [
        {
          "internalType": "address",
          "name": "",
          "type": "address"
        }
      ],
      "stateMutability": "view",
      "type": "function"
    },
    {
      "inputs": [],
      "name": "recoverFunds",
      "outputs": [],
      "stateMutability": "nonpayable",
      "type": "function"
    },
    {
      "inputs": [],
      "name": "result",
      "outputs": [
        {
          "internalType": "uint256",
          "name": "",
          "type": "uint256"
        }
      ],
      "stateMutability": "view",
      "type": "function"
    },
    {
      "inputs": [
        {
          "internalType": "address",
          "name": "newOwner",
          "type": "address"
        }
      ],
      "name": "setOwner",
      "outputs": [],
      "stateMutability": "nonpayable",
      "type": "function"
    },
    {
      "inputs": [],
      "name": "soulbound",
      "outputs": [
        {
          "internalType": "bool",
          "name": "",
          "type": "bool"
        }
      ],
      "stateMutability": "view",
      "type": "function"
    },
    {
      "inputs": [],
      "name": "state",
      "outputs": [
        {
          "internalType": "enum Agreement.States",
          "name": "_state",
          "type": "uint8"
        }
      ],
      "stateMutability": "view",
      "type": "function"
    }
  ],
  "bytecode": "0x6101606040523480156200001257600080fd5b50604051620025473803806200254783398181016040528101906200003891906200065d565b84806000806101000a81548173ffffffffffffffffffffffffffffffffffffffff021916908373ffffffffffffffffffffffffffffffffffffffff1602179055508073ffffffffffffffffffffffffffffffffffffffff16600073ffffffffffffffffffffffffffffffffffffffff167f8292fce18fa69edf4db7b94ea2e58241df0ae57f97e0a6c9b29067028bf92d7660405160405180910390a3508973ffffffffffffffffffffffffffffffffffffffff1660808173ffffffffffffffffffffffffffffffffffffffff16815250508873ffffffffffffffffffffffffffffffffffffffff1660a08173ffffffffffffffffffffffffffffffffffffffff16815250508773ffffffffffffffffffffffffffffffffffffffff1660c08173ffffffffffffffffffffffffffffffffffffffff16815250508660e0818152505085610100818152505083600160006101000a81548173ffffffffffffffffffffffffffffffffffffffff021916908373ffffffffffffffffffffffffffffffffffffffff160217905550826101208181525050811515610140811515815250506000600160146101000a81548160ff0219169083600381111562000202576200020162000772565b5b0217905550808060200190518101906200021d919062000855565b6002600060036000600460006005600088919050908051906020019062000246929190620002a9565b5087919050908051906020019062000260929190620002a9565b508691905090805190602001906200027a929190620002a9565b5085919050908051906020019062000294929190620002a9565b505050505050505050505050505050620009a7565b828054620002b79062000972565b90600052602060002090601f016020900481019282620002db576000855562000327565b82601f10620002f657805160ff191683800117855562000327565b8280016001018555821562000327579182015b828111156200032657825182559160200191906001019062000309565b5b5090506200033691906200033a565b5090565b5b80821115620003555760008160009055506001016200033b565b5090565b6000604051905090565b600080fd5b600080fd5b600073ffffffffffffffffffffffffffffffffffffffff82169050919050565b60006200039a826200036d565b9050919050565b6000620003ae826200038d565b9050919050565b620003c081620003a1565b8114620003cc57600080fd5b50565b600081519050620003e081620003b5565b92915050565b6000620003f3826200038d565b9050919050565b6200040581620003e6565b81146200041157600080fd5b50565b6000815190506200042581620003fa565b92915050565b62000436816200038d565b81146200044257600080fd5b50565b60008151905062000456816200042b565b92915050565b6000819050919050565b62000471816200045c565b81146200047d57600080fd5b50565b600081519050620004918162000466565b92915050565b60008115159050919050565b620004ae8162000497565b8114620004ba57600080fd5b50565b600081519050620004ce81620004a3565b92915050565b600080fd5b600080fd5b6000601f19601f8301169050919050565b7f4e487b7100000000000000000000000000000000000000000000000000000000600052604160045260246000fd5b6200052982620004de565b810181811067ffffffffffffffff821117156200054b576200054a620004ef565b5b80604052505050565b60006200056062000359565b90506200056e82826200051e565b919050565b600067ffffffffffffffff821115620005915762000590620004ef565b5b6200059c82620004de565b9050602081019050919050565b60005b83811015620005c9578082015181840152602081019050620005ac565b83811115620005d9576000848401525b50505050565b6000620005f6620005f08462000573565b62000554565b905082815260208101848484011115620006155762000614620004d9565b5b62000622848285620005a9565b509392505050565b600082601f830112620006425762000641620004d4565b5b815162000654848260208601620005df565b91505092915050565b6000806000806000806000806000806101408b8d03121562000684576200068362000363565b5b6000620006948d828e01620003cf565b9a50506020620006a78d828e0162000414565b9950506040620006ba8d828e0162000445565b9850506060620006cd8d828e0162000480565b9750506080620006e08d828e0162000480565b96505060a0620006f38d828e0162000445565b95505060c0620007068d828e0162000445565b94505060e0620007198d828e0162000480565b9350506101006200072d8d828e01620004bd565b9250506101208b015167ffffffffffffffff81111562000752576200075162000368565b5b620007608d828e016200062a565b9150509295989b9194979a5092959850565b7f4e487b7100000000000000000000000000000000000000000000000000000000600052602160045260246000fd5b600067ffffffffffffffff821115620007bf57620007be620004ef565b5b620007ca82620004de565b9050602081019050919050565b6000620007ee620007e884620007a1565b62000554565b9050828152602081018484840111156200080d576200080c620004d9565b5b6200081a848285620005a9565b509392505050565b600082601f8301126200083a5762000839620004d4565b5b81516200084c848260208601620007d7565b91505092915050565b6000806000806080858703121562000872576200087162000363565b5b600085015167ffffffffffffffff81111562000893576200089262000368565b5b620008a18782880162000822565b945050602085015167ffffffffffffffff811115620008c557620008c462000368565b5b620008d38782880162000822565b935050604085015167ffffffffffffffff811115620008f757620008f662000368565b5b620009058782880162000822565b925050606085015167ffffffffffffffff81111562000929576200092862000368565b5b620009378782880162000822565b91505092959194509250565b7f4e487b7100000000000000000000000000000000000000000000000000000000600052602260045260246000fd5b600060028204905060018216806200098b57607f821691505b602082108103620009a157620009a062000943565b5b50919050565b60805160a05160c05160e051610100516101205161014051611af462000a53600039600061020b01526000818161035a0152610d2201526000818161069401528181611027015261107901526000818161084c015261092c0152600050506000818161039e0152818161090b01526109b001526000818161046001528181610524015281816105610152818161080e015281816108cf01528181610bab0152610be80152611af46000f3fe608060405234801561001057600080fd5b50600436106100a45760003560e01c80630fad0f51146100a957806313af4035146100c757806329dcb0cf146100e357806334a84827146101015780635d64e31014610131578063653721471461014d5780638da5cb5b1461016b5780638e9dc38014610189578063b79550be146101b9578063c19d93fb146101c3578063cf6ad876146101e1578063e2739491146101eb575b600080fd5b6100b1610209565b6040516100be91906110b6565b60405180910390f35b6100e160048036038101906100dc9190611139565b61022d565b005b6100eb610358565b6040516100f8919061117f565b60405180910390f35b61011b60048036038101906101169190611139565b61037c565b60405161012891906110b6565b60405180910390f35b61014b600480360381019061014691906111d0565b61039c565b005b6101556106e3565b604051610162919061117f565b60405180910390f35b6101736106e9565b604051610180919061121f565b60405180910390f35b6101a3600480360381019061019e919061129f565b61070d565b6040516101b091906112fb565b60405180910390f35b6101c1610aad565b005b6101cb610ce3565b6040516101d8919061138d565b60405180910390f35b6101e9610d7a565b005b6101f3611077565b604051610200919061117f565b60405180910390f35b7f000000000000000000000000000000000000000000000000000000000000000081565b60008054906101000a900473ffffffffffffffffffffffffffffffffffffffff1673ffffffffffffffffffffffffffffffffffffffff163373ffffffffffffffffffffffffffffffffffffffff16146102bb576040517f08c379a00000000000000000000000000000000000000000000000000000000081526004016102b290611405565b60405180910390fd5b806000806101000a81548173ffffffffffffffffffffffffffffffffffffffff021916908373ffffffffffffffffffffffffffffffffffffffff1602179055508073ffffffffffffffffffffffffffffffffffffffff163373ffffffffffffffffffffffffffffffffffffffff167f8292fce18fa69edf4db7b94ea2e58241df0ae57f97e0a6c9b29067028bf92d7660405160405180910390a350565b7f000000000000000000000000000000000000000000000000000000000000000081565b60076020528060005260406000206000915054906101000a900460ff1681565b7f000000000000000000000000000000000000000000000000000000000000000073ffffffffffffffffffffffffffffffffffffffff163373ffffffffffffffffffffffffffffffffffffffff161461042a576040517f08c379a000000000000000000000000000000000000000000000000000000000815260040161042190611471565b60405180910390fd5b60018060146101000a81548160ff0219169083600381111561044f5761044e611316565b5b02179055508060001c6006819055507f000000000000000000000000000000000000000000000000000000000000000073ffffffffffffffffffffffffffffffffffffffff1663a9059cbb600160009054906101000a900473ffffffffffffffffffffffffffffffffffffffff168360001c6040518363ffffffff1660e01b81526004016104de929190611491565b6020604051808303816000875af11580156104fd573d6000803e3d6000fd5b505050506040513d601f19601f8201168201806040525081019061052191906114e6565b507f000000000000000000000000000000000000000000000000000000000000000073ffffffffffffffffffffffffffffffffffffffff1663a9059cbb337f000000000000000000000000000000000000000000000000000000000000000073ffffffffffffffffffffffffffffffffffffffff166370a08231306040518263ffffffff1660e01b81526004016105b8919061121f565b602060405180830381865afa1580156105d5573d6000803e3d6000fd5b505050506040513d601f19601f820116820180604052508101906105f9919061153f565b6040518363ffffffff1660e01b8152600401610616929190611491565b6020604051808303816000875af1158015610635573d6000803e3d6000fd5b505050506040513d601f19601f8201168201806040525081019061065991906114e6565b50817f0c2366233f634048c0f0458060d1228fab36d00f7c0ecf6bdf2d9c45850363118260405161068a91906112fb565b60405180910390a27f00000000000000000000000000000000000000000000000000000000000000007f52867b6621c82bd178a9944b8c1f1f29aba680811948fb9f8cfbd2fbd46108ee60405160405180910390a25050565b60065481565b60008054906101000a900473ffffffffffffffffffffffffffffffffffffffff1681565b600080600381111561072257610721611316565b5b61072a610ce3565b600381111561073c5761073b611316565b5b1461077c576040517f08c379a0000000000000000000000000000000000000000000000000000000008152600401610773906115b8565b60405180910390fd5b600160009054906101000a900473ffffffffffffffffffffffffffffffffffffffff1673ffffffffffffffffffffffffffffffffffffffff163373ffffffffffffffffffffffffffffffffffffffff161461080c576040517f08c379a000000000000000000000000000000000000000000000000000000000815260040161080390611624565b60405180910390fd5b7f000000000000000000000000000000000000000000000000000000000000000073ffffffffffffffffffffffffffffffffffffffff166323b872dd33307f00000000000000000000000000000000000000000000000000000000000000006040518463ffffffff1660e01b815260040161088993929190611644565b6020604051808303816000875af11580156108a8573d6000803e3d6000fd5b505050506040513d601f19601f820116820180604052508101906108cc91906114e6565b507f000000000000000000000000000000000000000000000000000000000000000073ffffffffffffffffffffffffffffffffffffffff1663095ea7b37f00000000000000000000000000000000000000000000000000000000000000007f00000000000000000000000000000000000000000000000000000000000000006040518363ffffffff1660e01b8152600401610968929190611491565b6020604051808303816000875af1158015610987573d6000803e3d6000fd5b505050506040513d601f19601f820116820180604052508101906109ab91906114e6565b5060007f000000000000000000000000000000000000000000000000000000000000000073ffffffffffffffffffffffffffffffffffffffff1663d303e6a5635d64e31060e01b60026003888860056040518763ffffffff1660e01b8152600401610a1b969594939291906117f8565b6020604051808303816000875af1158015610a3a573d6000803e3d6000fd5b505050506040513d601f19601f82011682018060405250810190610a5e919061187e565b9050807f5ef218ae96e09c55d1de0c9ef7c1270c967bcd5f4f8e045834ceee4b102be6146002600387876005604051610a9b9594939291906118ab565b60405180910390a28091505092915050565b60008054906101000a900473ffffffffffffffffffffffffffffffffffffffff1673ffffffffffffffffffffffffffffffffffffffff163373ffffffffffffffffffffffffffffffffffffffff1614610b3b576040517f08c379a0000000000000000000000000000000000000000000000000000000008152600401610b329061195a565b60405180910390fd5b60006003811115610b4f57610b4e611316565b5b610b57610ce3565b6003811115610b6957610b68611316565b5b03610ba9576040517f08c379a0000000000000000000000000000000000000000000000000000000008152600401610ba0906119c6565b60405180910390fd5b7f000000000000000000000000000000000000000000000000000000000000000073ffffffffffffffffffffffffffffffffffffffff1663a9059cbb337f000000000000000000000000000000000000000000000000000000000000000073ffffffffffffffffffffffffffffffffffffffff166370a08231306040518263ffffffff1660e01b8152600401610c3f919061121f565b602060405180830381865afa158015610c5c573d6000803e3d6000fd5b505050506040513d601f19601f82011682018060405250810190610c80919061153f565b6040518363ffffffff1660e01b8152600401610c9d929190611491565b6020604051808303816000875af1158015610cbc573d6000803e3d6000fd5b505050506040513d601f19601f82011682018060405250810190610ce091906114e6565b50565b600060016003811115610cf957610cf8611316565b5b600160149054906101000a900460ff166003811115610d1b57610d1a611316565b5b14610d64577f00000000000000000000000000000000000000000000000000000000000000004211610d5c57600160149054906101000a900460ff16610d5f565b60035b610d75565b600160149054906101000a900460ff165b905090565b60006003811115610d8e57610d8d611316565b5b610d96610ce3565b6003811115610da857610da7611316565b5b14610de8576040517f08c379a0000000000000000000000000000000000000000000000000000000008152600401610ddf90611a32565b60405180910390fd5b600033905060008060009054906101000a900473ffffffffffffffffffffffffffffffffffffffff1690508073ffffffffffffffffffffffffffffffffffffffff168273ffffffffffffffffffffffffffffffffffffffff161480610e9a5750600160009054906101000a900473ffffffffffffffffffffffffffffffffffffffff1673ffffffffffffffffffffffffffffffffffffffff168273ffffffffffffffffffffffffffffffffffffffff16145b610ed9576040517f08c379a0000000000000000000000000000000000000000000000000000000008152600401610ed090611a9e565b60405180910390fd5b6001600760008473ffffffffffffffffffffffffffffffffffffffff1673ffffffffffffffffffffffffffffffffffffffff16815260200190815260200160002060006101000a81548160ff021916908315150217905550600760008273ffffffffffffffffffffffffffffffffffffffff1673ffffffffffffffffffffffffffffffffffffffff16815260200190815260200160002060009054906101000a900460ff168015610ff5575060076000600160009054906101000a900473ffffffffffffffffffffffffffffffffffffffff1673ffffffffffffffffffffffffffffffffffffffff1673ffffffffffffffffffffffffffffffffffffffff16815260200190815260200160002060009054906101000a900460ff165b15611073576002600160146101000a81548160ff021916908360038111156110205761101f611316565b5b02179055507f00000000000000000000000000000000000000000000000000000000000000007f0cae0523c4d6568388c55dcaeb921d927527a60000ca46adffedddf87225f0ec60405160405180910390a25b5050565b7f000000000000000000000000000000000000000000000000000000000000000081565b60008115159050919050565b6110b08161109b565b82525050565b60006020820190506110cb60008301846110a7565b92915050565b600080fd5b600080fd5b600073ffffffffffffffffffffffffffffffffffffffff82169050919050565b6000611106826110db565b9050919050565b611116816110fb565b811461112157600080fd5b50565b6000813590506111338161110d565b92915050565b60006020828403121561114f5761114e6110d1565b5b600061115d84828501611124565b91505092915050565b6000819050919050565b61117981611166565b82525050565b60006020820190506111946000830184611170565b92915050565b6000819050919050565b6111ad8161119a565b81146111b857600080fd5b50565b6000813590506111ca816111a4565b92915050565b600080604083850312156111e7576111e66110d1565b5b60006111f5858286016111bb565b9250506020611206858286016111bb565b9150509250929050565b611219816110fb565b82525050565b60006020820190506112346000830184611210565b92915050565b600080fd5b600080fd5b600080fd5b60008083601f84011261125f5761125e61123a565b5b8235905067ffffffffffffffff81111561127c5761127b61123f565b5b60208301915083600182028301111561129857611297611244565b5b9250929050565b600080602083850312156112b6576112b56110d1565b5b600083013567ffffffffffffffff8111156112d4576112d36110d6565b5b6112e085828601611249565b92509250509250929050565b6112f58161119a565b82525050565b600060208201905061131060008301846112ec565b92915050565b7f4e487b7100000000000000000000000000000000000000000000000000000000600052602160045260246000fd5b6004811061135657611355611316565b5b50565b600081905061136782611345565b919050565b600061137782611359565b9050919050565b6113878161136c565b82525050565b60006020820190506113a2600083018461137e565b92915050565b600082825260208201905092915050565b7f554e415554484f52495a45440000000000000000000000000000000000000000600082015250565b60006113ef600c836113a8565b91506113fa826113b9565b602082019050919050565b6000602082019050818103600083015261141e816113e2565b9050919050565b7f4e6f7420556e6976657273616c20416461707465720000000000000000000000600082015250565b600061145b6015836113a8565b915061146682611425565b602082019050919050565b6000602082019050818103600083015261148a8161144e565b9050919050565b60006040820190506114a66000830185611210565b6114b36020830184611170565b9392505050565b6114c38161109b565b81146114ce57600080fd5b50565b6000815190506114e0816114ba565b92915050565b6000602082840312156114fc576114fb6110d1565b5b600061150a848285016114d1565b91505092915050565b61151c81611166565b811461152757600080fd5b50565b60008151905061153981611513565b92915050565b600060208284031215611555576115546110d1565b5b60006115638482850161152a565b91505092915050565b7f494e4143544956455f41475245454d454e540000000000000000000000000000600082015250565b60006115a26012836113a8565b91506115ad8261156c565b602082019050919050565b600060208201905081810360008301526115d181611595565b9050919050565b7f494e56414c49445f52454445454d455200000000000000000000000000000000600082015250565b600061160e6010836113a8565b9150611619826115d8565b602082019050919050565b6000602082019050818103600083015261163d81611601565b9050919050565b60006060820190506116596000830186611210565b6116666020830185611210565b6116736040830184611170565b949350505050565b60007fffffffff0000000000000000000000000000000000000000000000000000000082169050919050565b6116b08161167b565b82525050565b7f4e487b7100000000000000000000000000000000000000000000000000000000600052602260045260246000fd5b600060028204905060018216806116fd57607f821691505b6020821081036117105761170f6116b6565b5b50919050565b60008190508160005260206000209050919050565b60008154611738816116e5565b61174281866113a8565b9450600182166000811461175d576001811461176f576117a2565b60ff19831686526020860193506117a2565b61177885611716565b60005b8381101561179a5781548189015260018201915060208101905061177b565b808801955050505b50505092915050565b82818337600083830152505050565b6000601f19601f8301169050919050565b60006117d783856113a8565b93506117e48385846117ab565b6117ed836117ba565b840190509392505050565b600060a08201905061180d60008301896116a7565b818103602083015261181f818861172b565b90508181036040830152611833818761172b565b905081810360608301526118488185876117cb565b9050818103608083015261185c818461172b565b9050979650505050505050565b600081519050611878816111a4565b92915050565b600060208284031215611894576118936110d1565b5b60006118a284828501611869565b91505092915050565b600060808201905081810360008301526118c5818861172b565b905081810360208301526118d9818761172b565b905081810360408301526118ee8185876117cb565b90508181036060830152611902818461172b565b90509695505050505050565b7f4f4e4c595f4f574e455200000000000000000000000000000000000000000000600082015250565b6000611944600a836113a8565b915061194f8261190e565b602082019050919050565b6000602082019050818103600083015261197381611937565b9050919050565b7f5354494c4c5f50454e44494e4700000000000000000000000000000000000000600082015250565b60006119b0600d836113a8565b91506119bb8261197a565b602082019050919050565b600060208201905081810360008301526119df816119a3565b9050919050565b7f43414e4e4f545f43414e43454c00000000000000000000000000000000000000600082015250565b6000611a1c600d836113a8565b9150611a27826119e6565b602082019050919050565b60006020820190508181036000830152611a4b81611a0f565b9050919050565b7f4e4f545f414c4c4f574544000000000000000000000000000000000000000000600082015250565b6000611a88600b836113a8565b9150611a9382611a52565b602082019050919050565b60006020820190508181036000830152611ab781611a7b565b905091905056fea26469706673582212204bb125ff3e381e27e8881afbe512ff8c50f4091acf97edd2e1c64629d694459464736f6c634300080e0033",
  "linkReferences": {},
  "deployedLinkReferences": {}
}