{
  "_format": "hh-sol-artifact-1",
  "contractName": "Agreement",
  "sourceName": "contracts/Agreement.sol",
  "abi": [
    {
      "inputs": [
        {
          "internalType": "contract LinkTokenInterface",
          "name": "_linkToken",
          "type": "address"
        },
        {
          "internalType": "contract IUniversalAdapter",
          "name": "_universalAdapter",
          "type": "address"
        },
        {
          "internalType": "address",
          "name": "_agreementRegistry",
          "type": "address"
        },
        {
          "internalType": "uint256",
          "name": "_agreementId",
          "type": "uint256"
        },
        {
          "internalType": "address",
          "name": "_creator",
          "type": "address"
        },
        {
          "internalType": "uint256",
          "name": "_deadline",
          "type": "uint256"
        },
        {
          "internalType": "bool",
          "name": "_soulbound",
          "type": "bool"
        },
        {
          "internalType": "bytes",
          "name": "data",
          "type": "bytes"
        }
      ],
      "stateMutability": "nonpayable",
      "type": "constructor"
    },
    {
      "anonymous": false,
      "inputs": [
        {
          "indexed": false,
          "internalType": "uint256",
          "name": "result",
          "type": "uint256"
        }
      ],
      "name": "Filled",
      "type": "event"
    },
    {
      "anonymous": false,
      "inputs": [
        {
          "indexed": true,
          "internalType": "address",
          "name": "user",
          "type": "address"
        },
        {
          "indexed": true,
          "internalType": "address",
          "name": "newOwner",
          "type": "address"
        }
      ],
      "name": "OwnerUpdated",
      "type": "event"
    },
    {
      "anonymous": false,
      "inputs": [
        {
          "indexed": false,
          "internalType": "address",
          "name": "",
          "type": "address"
        },
        {
          "indexed": false,
          "internalType": "uint256",
          "name": "",
          "type": "uint256"
        }
      ],
      "name": "Received",
      "type": "event"
    },
    {
      "inputs": [],
      "name": "agreementId",
      "outputs": [
        {
          "internalType": "uint256",
          "name": "",
          "type": "uint256"
        }
      ],
      "stateMutability": "view",
      "type": "function"
    },
    {
      "inputs": [],
      "name": "cancelAgreement",
      "outputs": [],
      "stateMutability": "nonpayable",
      "type": "function"
    },
    {
      "inputs": [],
      "name": "cid",
      "outputs": [
        {
          "internalType": "string",
          "name": "",
          "type": "string"
        }
      ],
      "stateMutability": "view",
      "type": "function"
    },
    {
      "inputs": [],
      "name": "deadline",
      "outputs": [
        {
          "internalType": "uint256",
          "name": "",
          "type": "uint256"
        }
      ],
      "stateMutability": "view",
      "type": "function"
    },
    {
      "inputs": [
        {
          "internalType": "bytes32",
          "name": "",
          "type": "bytes32"
        },
        {
          "internalType": "bytes32",
          "name": "_result",
          "type": "bytes32"
        }
      ],
      "name": "fulfillRequest",
      "outputs": [],
      "stateMutability": "nonpayable",
      "type": "function"
    },
    {
      "inputs": [],
      "name": "js",
      "outputs": [
        {
          "internalType": "string",
          "name": "",
          "type": "string"
        }
      ],
      "stateMutability": "view",
      "type": "function"
    },
    {
      "inputs": [
        {
          "internalType": "address",
          "name": "sender",
          "type": "address"
        },
        {
          "internalType": "uint256",
          "name": "amount",
          "type": "uint256"
        },
        {
          "internalType": "bytes",
          "name": "data",
          "type": "bytes"
        }
      ],
      "name": "onTokenTransfer",
      "outputs": [],
      "stateMutability": "nonpayable",
      "type": "function"
    },
    {
      "inputs": [],
      "name": "owner",
      "outputs": [
        {
          "internalType": "address",
          "name": "",
          "type": "address"
        }
      ],
      "stateMutability": "view",
      "type": "function"
    },
    {
      "inputs": [],
      "name": "priVars",
      "outputs": [
        {
          "internalType": "string",
          "name": "",
          "type": "string"
        }
      ],
      "stateMutability": "view",
      "type": "function"
    },
    {
      "inputs": [],
      "name": "pubVars",
      "outputs": [
        {
          "internalType": "string",
          "name": "",
          "type": "string"
        }
      ],
      "stateMutability": "view",
      "type": "function"
    },
    {
      "inputs": [],
      "name": "recoverFunds",
      "outputs": [],
      "stateMutability": "nonpayable",
      "type": "function"
    },
    {
      "inputs": [
        {
          "internalType": "address",
          "name": "newOwner",
          "type": "address"
        }
      ],
      "name": "setOwner",
      "outputs": [],
      "stateMutability": "nonpayable",
      "type": "function"
    },
    {
      "inputs": [],
      "name": "soulbound",
      "outputs": [
        {
          "internalType": "bool",
          "name": "",
          "type": "bool"
        }
      ],
      "stateMutability": "view",
      "type": "function"
    },
    {
      "inputs": [],
      "name": "state",
      "outputs": [
        {
          "internalType": "uint256",
          "name": "_state",
          "type": "uint256"
        }
      ],
      "stateMutability": "view",
      "type": "function"
    },
    {
      "stateMutability": "payable",
      "type": "receive"
    }
  ],
  "bytecode": "0x6101406040523480156200001257600080fd5b5060405162001683380380620016838339810160408190526200003591620002e1565b600080546001600160a01b0319166001600160a01b03861690811782556040518692907f8292fce18fa69edf4db7b94ea2e58241df0ae57f97e0a6c9b29067028bf92d76908290a3506001600160a01b0380891660805287811660a052861660c05260e0859052610100839052811515610120528051620000c09082016020908101908301620003a5565b60026000600360006006600060056000600460008a9190509080519060200190620000ed92919062000155565b5050885162000102919060208b019062000155565b5050875162000117919060208a019062000155565b505086516200012c9190602089019062000155565b50508551620001419190602088019062000155565b5050505050505050505050505050620004c2565b828054620001639062000486565b90600052602060002090601f016020900481019282620001875760008555620001d2565b82601f10620001a257805160ff1916838001178555620001d2565b82800160010185558215620001d2579182015b82811115620001d2578251825591602001919060010190620001b5565b50620001e0929150620001e4565b5090565b5b80821115620001e05760008155600101620001e5565b6001600160a01b03811681146200021157600080fd5b50565b634e487b7160e01b600052604160045260246000fd5b600082601f8301126200023c57600080fd5b81516001600160401b038082111562000259576200025962000214565b604051601f8301601f19908116603f0116810190828211818310171562000284576200028462000214565b81604052838152602092508683858801011115620002a157600080fd5b600091505b83821015620002c55785820183015181830184015290820190620002a6565b83821115620002d75760008385830101525b9695505050505050565b600080600080600080600080610100898b031215620002ff57600080fd5b88516200030c81620001fb565b60208a01519098506200031f81620001fb565b60408a01519097506200033281620001fb565b60608a015160808b015191975095506200034c81620001fb565b60a08a015160c08b0151919550935080151581146200036a57600080fd5b60e08a01519092506001600160401b038111156200038757600080fd5b620003958b828c016200022a565b9150509295985092959890939650565b600080600080600060a08688031215620003be57600080fd5b85516001600160401b0380821115620003d657600080fd5b620003e489838a016200022a565b96506020880151915080821115620003fb57600080fd5b6200040989838a016200022a565b955060408801519150808211156200042057600080fd5b6200042e89838a016200022a565b945060608801519150808211156200044557600080fd5b6200045389838a016200022a565b935060808801519150808211156200046a57600080fd5b5062000479888289016200022a565b9150509295509295909350565b600181811c908216806200049b57607f821691505b602082108103620004bc57634e487b7160e01b600052602260045260246000fd5b50919050565b60805160a05160c05160e05161010051610120516111246200055f60003960006101080152600081816101730152610a910152600081816102b80152818161049201528181610578015281816107a40152610afe0152600081816104b80152818161059e015281816107ca0152610b24015260008181610421015281816108e101526109670152600081816106fa01526108b401526111246000f3fe6080604052600436106100b15760003560e01c80630fad0f51146100f657806313af40351461013f57806329dcb0cf14610161578063355c76ba146101a35780635d64e310146101c55780637b40d6b7146101e55780638da5cb5b146101fa578063a4c0ed3614610232578063aa3ec0a914610252578063b79550be14610267578063c19d93fb1461027c578063cf6ad87614610291578063e2739491146102a6578063edbf55f6146102da57600080fd5b366100f1577f88a5966d370b9919b20f3e2c13ff65706f196a4e32cc2c12bf57088f8852587433346040516100e7929190610cac565b60405180910390a1005b600080fd5b34801561010257600080fd5b5061012a7f000000000000000000000000000000000000000000000000000000000000000081565b60405190151581526020015b60405180910390f35b34801561014b57600080fd5b5061015f61015a366004610cda565b6102ef565b005b34801561016d57600080fd5b506101957f000000000000000000000000000000000000000000000000000000000000000081565b604051908152602001610136565b3480156101af57600080fd5b506101b8610388565b6040516101369190610d4b565b3480156101d157600080fd5b5061015f6101e0366004610d5e565b610416565b3480156101f157600080fd5b506101b86106bd565b34801561020657600080fd5b5060005461021a906001600160a01b031681565b6040516001600160a01b039091168152602001610136565b34801561023e57600080fd5b5061015f61024d366004610d80565b6106ca565b34801561025e57600080fd5b506101b86109f9565b34801561027357600080fd5b5061015f610a06565b34801561028857600080fd5b50610195610a83565b34801561029d57600080fd5b5061015f610aca565b3480156102b257600080fd5b506101957f000000000000000000000000000000000000000000000000000000000000000081565b3480156102e657600080fd5b506101b8610c06565b6000546001600160a01b0316331461033d5760405162461bcd60e51b815260206004820152600c60248201526b15539055551213d49256915160a21b60448201526064015b60405180910390fd5b600080546001600160a01b0319166001600160a01b0383169081178255604051909133917f8292fce18fa69edf4db7b94ea2e58241df0ae57f97e0a6c9b29067028bf92d769190a350565b6005805461039590610e08565b80601f01602080910402602001604051908101604052809291908181526020018280546103c190610e08565b801561040e5780601f106103e35761010080835404028352916020019161040e565b820191906000526020600020905b8154815290600101906020018083116103f157829003601f168201915b505050505081565b336001600160a01b037f000000000000000000000000000000000000000000000000000000000000000016146104775760405162461bcd60e51b81526020600482015260066024820152654e4f545f554160d01b6044820152606401610334565b6001805547811115610569576040516331a9108f60e11b81527f000000000000000000000000000000000000000000000000000000000000000060048201527f00000000000000000000000000000000000000000000000000000000000000006001600160a01b031690636352211e90602401602060405180830381865afa158015610507573d6000803e3d6000fd5b505050506040513d601f19601f8201168201806040525081019061052b9190610e42565b6001600160a01b03166108fc479081150290604051600060405180830381858888f19350505050158015610563573d6000803e3d6000fd5b50610686565b6040516331a9108f60e11b81527f000000000000000000000000000000000000000000000000000000000000000060048201527f00000000000000000000000000000000000000000000000000000000000000006001600160a01b031690636352211e90602401602060405180830381865afa1580156105ed573d6000803e3d6000fd5b505050506040513d601f19601f820116820180604052508101906106119190610e42565b6040516001600160a01b03919091169082156108fc029083906000818181858888f19350505050158015610649573d6000803e3d6000fd5b50600080546040516001600160a01b03909116914780156108fc02929091818181858888f19350505050158015610684573d6000803e3d6000fd5b505b6040518181527fd14df08fabc3175c71c9c6b212bd0fd290d0e78a5f809c5f28deb5ba6f029b919060200160405180910390a15050565b6006805461039590610e08565b6106d2610a83565b156106ef5760405162461bcd60e51b815260040161033490610e5f565b336001600160a01b037f000000000000000000000000000000000000000000000000000000000000000016146107525760405162461bcd60e51b81526020600482015260086024820152674e4f545f4c494e4b60c01b6044820152606401610334565b606483146107955760405162461bcd60e51b815260206004820152601060248201526f125390d3d4949150d517d05353d5539560821b6044820152606401610334565b6040516331a9108f60e11b81527f000000000000000000000000000000000000000000000000000000000000000060048201527f00000000000000000000000000000000000000000000000000000000000000006001600160a01b031690636352211e90602401602060405180830381865afa158015610819573d6000803e3d6000fd5b505050506040513d601f19601f8201168201806040525081019061083d9190610e42565b6001600160a01b0316846001600160a01b03161461086d5760405162461bcd60e51b815260040161033490610e81565b60608061087c83850185610f49565b805191935091501561089d57805161089b906004906020840190610c13565b505b60405163095ea7b360e01b81526001600160a01b037f0000000000000000000000000000000000000000000000000000000000000000169063095ea7b39061090c907f000000000000000000000000000000000000000000000000000000000000000090606490600401610cac565b6020604051808303816000875af115801561092b573d6000803e3d6000fd5b505050506040513d601f19601f8201168201806040525081019061094f9190610fac565b5060405163d303e6a560e01b81526001600160a01b037f0000000000000000000000000000000000000000000000000000000000000000169063d303e6a5906109ad906305d64e3160e41b906002906003908890600490810161106d565b6020604051808303816000875af11580156109cc573d6000803e3d6000fd5b505050506040513d601f19601f820116820180604052508101906109f091906110d5565b50505050505050565b6003805461039590610e08565b610a0e610a83565b600003610a465760405162461bcd60e51b815260206004820152600660248201526541435449564560d01b6044820152606401610334565b600080546040516001600160a01b03909116914780156108fc02929091818181858888f19350505050158015610a80573d6000803e3d6000fd5b50565b6000600154600114610ac3577f00000000000000000000000000000000000000000000000000000000000000004211610abd575060015490565b50600390565b5060015490565b610ad2610a83565b15610aef5760405162461bcd60e51b815260040161033490610e5f565b6040516331a9108f60e11b81527f000000000000000000000000000000000000000000000000000000000000000060048201527f00000000000000000000000000000000000000000000000000000000000000006001600160a01b031690636352211e90602401602060405180830381865afa158015610b73573d6000803e3d6000fd5b505050506040513d601f19601f82011682018060405250810190610b979190610e42565b6001600160a01b0316336001600160a01b031614610bc75760405162461bcd60e51b815260040161033490610e81565b6002600155600080546040516001600160a01b03909116914780156108fc02929091818181858888f19350505050158015610a80573d6000803e3d6000fd5b6002805461039590610e08565b828054610c1f90610e08565b90600052602060002090601f016020900481019282610c415760008555610c87565b82601f10610c5a57805160ff1916838001178555610c87565b82800160010185558215610c87579182015b82811115610c87578251825591602001919060010190610c6c565b50610c93929150610c97565b5090565b5b80821115610c935760008155600101610c98565b6001600160a01b03929092168252602082015260400190565b6001600160a01b0381168114610a8057600080fd5b600060208284031215610cec57600080fd5b8135610cf781610cc5565b9392505050565b6000815180845260005b81811015610d2457602081850181015186830182015201610d08565b81811115610d36576000602083870101525b50601f01601f19169290920160200192915050565b602081526000610cf76020830184610cfe565b60008060408385031215610d7157600080fd5b50508035926020909101359150565b60008060008060608587031215610d9657600080fd5b8435610da181610cc5565b93506020850135925060408501356001600160401b0380821115610dc457600080fd5b818701915087601f830112610dd857600080fd5b813581811115610de757600080fd5b886020828501011115610df957600080fd5b95989497505060200194505050565b600181811c90821680610e1c57607f821691505b602082108103610e3c57634e487b7160e01b600052602260045260246000fd5b50919050565b600060208284031215610e5457600080fd5b8151610cf781610cc5565b602080825260089082015267494e41435449564560c01b604082015260600190565b6020808252600c908201526b2727aa2fa922a222a2a6a2a960a11b604082015260600190565b634e487b7160e01b600052604160045260246000fd5b600082601f830112610ece57600080fd5b81356001600160401b0380821115610ee857610ee8610ea7565b604051601f8301601f19908116603f01168101908282118183101715610f1057610f10610ea7565b81604052838152866020858801011115610f2957600080fd5b836020870160208301376000602085830101528094505050505092915050565b60008060408385031215610f5c57600080fd5b82356001600160401b0380821115610f7357600080fd5b610f7f86838701610ebd565b93506020850135915080821115610f9557600080fd5b50610fa285828601610ebd565b9150509250929050565b600060208284031215610fbe57600080fd5b81518015158114610cf757600080fd5b8054600090600181811c9080831680610fe857607f831692505b6020808410820361100957634e487b7160e01b600052602260045260246000fd5b83885260208801828015611024576001811461103557611060565b60ff19871682528282019750611060565b60008981526020902060005b8781101561105a57815484820152908601908401611041565b83019850505b5050505050505092915050565b63ffffffff60e01b8616815260a06020820152600061108f60a0830187610fce565b82810360408401526110a18187610fce565b905082810360608401526110b58186610cfe565b905082810360808401526110c98185610fce565b98975050505050505050565b6000602082840312156110e757600080fd5b505191905056fea2646970667358221220a27c37e645d4c1274ef7218c233abdfab69bc988159bc88feaba43099232396364736f6c634300080e0033",
  "linkReferences": {},
  "deployedLinkReferences": {}
}