{
  "abi": [
    {
      "inputs": [
        {
          "internalType": "contract LinkTokenInterface",
          "name": "_linkToken",
          "type": "address"
        },
        {
          "internalType": "contract IUniversalAdapter",
          "name": "_universalAdapter",
          "type": "address"
        },
        {
          "internalType": "uint256",
          "name": "_requestCost",
          "type": "uint256"
        }
      ],
      "stateMutability": "nonpayable",
      "type": "constructor"
    },
    {
      "anonymous": false,
      "inputs": [
        {
          "indexed": true,
          "internalType": "uint256",
          "name": "agreementId",
          "type": "uint256"
        },
        {
          "indexed": false,
          "internalType": "contract Agreement",
          "name": "agreement",
          "type": "address"
        }
      ],
      "name": "AgreementCreated",
      "type": "event"
    },
    {
      "anonymous": false,
      "inputs": [
        {
          "indexed": true,
          "internalType": "address",
          "name": "owner",
          "type": "address"
        },
        {
          "indexed": true,
          "internalType": "address",
          "name": "spender",
          "type": "address"
        },
        {
          "indexed": true,
          "internalType": "uint256",
          "name": "id",
          "type": "uint256"
        }
      ],
      "name": "Approval",
      "type": "event"
    },
    {
      "anonymous": false,
      "inputs": [
        {
          "indexed": true,
          "internalType": "address",
          "name": "owner",
          "type": "address"
        },
        {
          "indexed": true,
          "internalType": "address",
          "name": "operator",
          "type": "address"
        },
        {
          "indexed": false,
          "internalType": "bool",
          "name": "approved",
          "type": "bool"
        }
      ],
      "name": "ApprovalForAll",
      "type": "event"
    },
    {
      "anonymous": false,
      "inputs": [
        {
          "indexed": true,
          "internalType": "address",
          "name": "user",
          "type": "address"
        },
        {
          "indexed": true,
          "internalType": "address",
          "name": "newOwner",
          "type": "address"
        }
      ],
      "name": "OwnerUpdated",
      "type": "event"
    },
    {
      "anonymous": false,
      "inputs": [
        {
          "indexed": true,
          "internalType": "address",
          "name": "from",
          "type": "address"
        },
        {
          "indexed": true,
          "internalType": "address",
          "name": "to",
          "type": "address"
        },
        {
          "indexed": true,
          "internalType": "uint256",
          "name": "id",
          "type": "uint256"
        }
      ],
      "name": "Transfer",
      "type": "event"
    },
    {
      "inputs": [
        {
          "internalType": "uint256",
          "name": "",
          "type": "uint256"
        }
      ],
      "name": "agreements",
      "outputs": [
        {
          "internalType": "contract Agreement",
          "name": "",
          "type": "address"
        }
      ],
      "stateMutability": "view",
      "type": "function"
    },
    {
      "inputs": [
        {
          "internalType": "address",
          "name": "spender",
          "type": "address"
        },
        {
          "internalType": "uint256",
          "name": "id",
          "type": "uint256"
        }
      ],
      "name": "approve",
      "outputs": [],
      "stateMutability": "nonpayable",
      "type": "function"
    },
    {
      "inputs": [
        {
          "internalType": "address",
          "name": "owner",
          "type": "address"
        }
      ],
      "name": "balanceOf",
      "outputs": [
        {
          "internalType": "uint256",
          "name": "",
          "type": "uint256"
        }
      ],
      "stateMutability": "view",
      "type": "function"
    },
    {
      "inputs": [
        {
          "internalType": "address",
          "name": "redeemer",
          "type": "address"
        },
        {
          "internalType": "uint256",
          "name": "deadline",
          "type": "uint256"
        },
        {
          "internalType": "bool",
          "name": "soulbound",
          "type": "bool"
        },
        {
          "internalType": "uint256",
          "name": "maxPayout",
          "type": "uint256"
        },
        {
          "internalType": "bytes",
          "name": "data",
          "type": "bytes"
        }
      ],
      "name": "createAgreement",
      "outputs": [
        {
          "internalType": "contract Agreement",
          "name": "agreement",
          "type": "address"
        }
      ],
      "stateMutability": "nonpayable",
      "type": "function"
    },
    {
      "inputs": [
        {
          "internalType": "address",
          "name": "",
          "type": "address"
        },
        {
          "internalType": "uint256",
          "name": "",
          "type": "uint256"
        }
      ],
      "name": "creatorAgreements",
      "outputs": [
        {
          "internalType": "uint256",
          "name": "",
          "type": "uint256"
        }
      ],
      "stateMutability": "view",
      "type": "function"
    },
    {
      "inputs": [
        {
          "internalType": "uint256",
          "name": "",
          "type": "uint256"
        }
      ],
      "name": "getApproved",
      "outputs": [
        {
          "internalType": "address",
          "name": "",
          "type": "address"
        }
      ],
      "stateMutability": "view",
      "type": "function"
    },
    {
      "inputs": [],
      "name": "ids",
      "outputs": [
        {
          "internalType": "uint256",
          "name": "",
          "type": "uint256"
        }
      ],
      "stateMutability": "view",
      "type": "function"
    },
    {
      "inputs": [
        {
          "internalType": "address",
          "name": "",
          "type": "address"
        },
        {
          "internalType": "address",
          "name": "",
          "type": "address"
        }
      ],
      "name": "isApprovedForAll",
      "outputs": [
        {
          "internalType": "bool",
          "name": "",
          "type": "bool"
        }
      ],
      "stateMutability": "view",
      "type": "function"
    },
    {
      "inputs": [],
      "name": "name",
      "outputs": [
        {
          "internalType": "string",
          "name": "",
          "type": "string"
        }
      ],
      "stateMutability": "view",
      "type": "function"
    },
    {
      "inputs": [],
      "name": "owner",
      "outputs": [
        {
          "internalType": "address",
          "name": "",
          "type": "address"
        }
      ],
      "stateMutability": "view",
      "type": "function"
    },
    {
      "inputs": [
        {
          "internalType": "uint256",
          "name": "id",
          "type": "uint256"
        }
      ],
      "name": "ownerOf",
      "outputs": [
        {
          "internalType": "address",
          "name": "owner",
          "type": "address"
        }
      ],
      "stateMutability": "view",
      "type": "function"
    },
    {
      "inputs": [
        {
          "internalType": "address",
          "name": "",
          "type": "address"
        },
        {
          "internalType": "uint256",
          "name": "",
          "type": "uint256"
        }
      ],
      "name": "redeemerAgreements",
      "outputs": [
        {
          "internalType": "uint256",
          "name": "",
          "type": "uint256"
        }
      ],
      "stateMutability": "view",
      "type": "function"
    },
    {
      "inputs": [],
      "name": "requestCost",
      "outputs": [
        {
          "internalType": "uint256",
          "name": "",
          "type": "uint256"
        }
      ],
      "stateMutability": "view",
      "type": "function"
    },
    {
      "inputs": [
        {
          "internalType": "address",
          "name": "from",
          "type": "address"
        },
        {
          "internalType": "address",
          "name": "to",
          "type": "address"
        },
        {
          "internalType": "uint256",
          "name": "id",
          "type": "uint256"
        }
      ],
      "name": "safeTransferFrom",
      "outputs": [],
      "stateMutability": "nonpayable",
      "type": "function"
    },
    {
      "inputs": [
        {
          "internalType": "address",
          "name": "from",
          "type": "address"
        },
        {
          "internalType": "address",
          "name": "to",
          "type": "address"
        },
        {
          "internalType": "uint256",
          "name": "id",
          "type": "uint256"
        },
        {
          "internalType": "bytes",
          "name": "data",
          "type": "bytes"
        }
      ],
      "name": "safeTransferFrom",
      "outputs": [],
      "stateMutability": "nonpayable",
      "type": "function"
    },
    {
      "inputs": [
        {
          "internalType": "address",
          "name": "operator",
          "type": "address"
        },
        {
          "internalType": "bool",
          "name": "approved",
          "type": "bool"
        }
      ],
      "name": "setApprovalForAll",
      "outputs": [],
      "stateMutability": "nonpayable",
      "type": "function"
    },
    {
      "inputs": [
        {
          "internalType": "address",
          "name": "newOwner",
          "type": "address"
        }
      ],
      "name": "setOwner",
      "outputs": [],
      "stateMutability": "nonpayable",
      "type": "function"
    },
    {
      "inputs": [
        {
          "internalType": "uint256",
          "name": "_requestCost",
          "type": "uint256"
        }
      ],
      "name": "setRequestCost",
      "outputs": [],
      "stateMutability": "nonpayable",
      "type": "function"
    },
    {
      "inputs": [
        {
          "internalType": "contract IUniversalAdapter",
          "name": "_universalAdapter",
          "type": "address"
        }
      ],
      "name": "setUniversalAdapter",
      "outputs": [],
      "stateMutability": "nonpayable",
      "type": "function"
    },
    {
      "inputs": [
        {
          "internalType": "bytes4",
          "name": "interfaceId",
          "type": "bytes4"
        }
      ],
      "name": "supportsInterface",
      "outputs": [
        {
          "internalType": "bool",
          "name": "",
          "type": "bool"
        }
      ],
      "stateMutability": "view",
      "type": "function"
    },
    {
      "inputs": [],
      "name": "symbol",
      "outputs": [
        {
          "internalType": "string",
          "name": "",
          "type": "string"
        }
      ],
      "stateMutability": "view",
      "type": "function"
    },
    {
      "inputs": [
        {
          "internalType": "uint256",
          "name": "id",
          "type": "uint256"
        }
      ],
      "name": "tokenURI",
      "outputs": [
        {
          "internalType": "string",
          "name": "uri",
          "type": "string"
        }
      ],
      "stateMutability": "view",
      "type": "function"
    },
    {
      "inputs": [
        {
          "internalType": "address",
          "name": "from",
          "type": "address"
        },
        {
          "internalType": "address",
          "name": "to",
          "type": "address"
        },
        {
          "internalType": "uint256",
          "name": "id",
          "type": "uint256"
        }
      ],
      "name": "transferFrom",
      "outputs": [],
      "stateMutability": "nonpayable",
      "type": "function"
    }
  ],
  "bytecode": {
    "object": "0x608034620003d657601f1990601f906001600160401b0390620086973881900384810186168301919084831184841017620003c057808492606094604052833981010312620003d65780516001600160a01b03928382169291839003620003d65760209182810151948516809503620003d657604001519462000081620003db565b92601a84527f556e6976657273616c20416461707465722050726f746f636f6c00000000000081850152620000b5620003db565b9060048252630754170760e41b81830152845198848a11620003c0576000998a54966001978881811c91168015620003b5575b85821014620003a1579081878493116200034b575b5084908d888411600114620002eb5792620002df575b5050600019600383901b1c191690871b178a555b8251948511620002cb5785548681811c91168015620002c0575b83821014620002ac5790818587969594931162000253575b5081938511600114620001ee5750508892620001e2575b5050600019600383901b1c191690821b1790555b60018060a01b031990338260065416176006556040519433907f8292fce18fa69edf4db7b94ea2e58241df0ae57f97e0a6c9b29067028bf92d768188a3816007541617600755600854161760085560095561829b9081620003fc8239f35b01519050388062000170565b86959392919316858b52838b20938b905b8282106200023957505084116200021f575b505050811b01905562000184565b015160001960f88460031b161c1916905538808062000211565b8484015186558897909501949384019390810190620001ff565b909192939450868b52828b208580880160051c820192858910620002a2575b9188978a9297969594930160051c01915b8281106200029357505062000159565b8d815588975089910162000283565b9250819262000272565b634e487b7160e01b8b52602260045260248bfd5b90607f169062000141565b634e487b7160e01b8a52604160045260248afd5b01519050388062000113565b9190858b9516838052878420935b888282106200033457505084116200031a575b505050811b018a5562000127565b015160001960f88460031b161c191690553880806200030c565b8385015186558d97909501949384019301620002f9565b9091508c8052848d208780850160051c82019287861062000397575b859493910160051c909101908a908f5b8382106200038857505050620000fd565b81558594508b91018f62000377565b9250819262000367565b634e487b7160e01b8d52602260045260248dfd5b90607f1690620000e8565b634e487b7160e01b600052604160045260246000fd5b600080fd5b60408051919082016001600160401b03811183821017620003c05760405256fe6080604052600436101562000014575b600080fd5b60003560e01c806301ffc9a7146200022357806306fdde031462000218578063081812fc146200020d578063095ea7b314620002025780630badfa6814620001f757806313af403514620001ec5780631b9611cf14620001e157806323b872dd14620001d657806342842e0e14620001cb5780635ac1785714620001c05780636352211e14620001b557806370a0823114620001aa5780638da5cb5b146200019f57806395d89b411462000194578063a22cb4651462000189578063b88d4fde146200017e578063bd14de961462000173578063c41578e91462000168578063c87b56dd146200015d578063ce11ece31462000152578063dafb82dd1462000147578063e7657e15146200013c5763e985e9c5146200013257600080fd5b6200000f620018dd565b506200000f620018bc565b506200000f62001663565b506200000f6200160d565b506200000f62000d81565b506200000f62000d4e565b506200000f62000d00565b506200000f62000bd4565b506200000f62000b07565b506200000f62000a2b565b506200000f620009ff565b506200000f62000976565b506200000f62000903565b506200000f620008aa565b506200000f620007b7565b506200000f62000798565b506200000f62000703565b506200000f6200060c565b506200000f620005eb565b506200000f62000508565b506200000f620004bf565b506200000f620003a1565b506200000f62000241565b6001600160e01b03198116036200000f57565b50346200000f5760203660031901126200000f57602060043562000265816200022e565b63ffffffff60e01b166301ffc9a760e01b8114908115620002a6575b811562000294575b506040519015158152f35b635b5e139f60e01b1490503862000289565b6380ac58cd60e01b8114915062000281565b50634e487b7160e01b600052604160045260246000fd5b6040810190811067ffffffffffffffff821117620002ec57604052565b620002f6620002b8565b604052565b6060810190811067ffffffffffffffff821117620002ec57604052565b90601f8019910116810190811067ffffffffffffffff821117620002ec57604052565b918091926000905b8282106200035d57501162000356575050565b6000910152565b9150806020918301518186015201829162000343565b604091602082526200039581518092816020860152602086860191016200033b565b601f01601f1916010190565b50346200000f57600080600319360112620004bc57604051908080549060019180831c92808216928315620004b1575b60209283861085146200049d5785885260208801949081156200047957506001146200041c575b62000418876200040b8189038262000318565b6040519182918262000373565b0390f35b6000805294509192917f290decd9548b62a8d60345a988386fc84ba6bc95484008f6362f93160ef3e5635b8386106200046757505050910190506200040b82620004183880620003f8565b80548587015294820194810162000447565b60ff191685525050505090151560051b0190506200040b82620004183880620003f8565b634e487b7160e01b82526022600452602482fd5b93607f1693620003d1565b80fd5b50346200000f5760203660031901126200000f576004356000526004602052602060018060a01b0360406000205416604051908152f35b6001600160a01b038116036200000f57565b50346200000f5760403660031901126200000f576004356200052a81620004f6565b602435600081815260026020526040812054909291906001600160a01b03908116903382148015620005c7575b620005629062005d0d565b6200059b846200057c856000526004602052604060002090565b80546001600160a01b0319166001600160a01b03909216919091179055565b6040519316907f8c5be1e5ebec7d5bd14f71427d1e84f3dd0314c0f7b2291e5b200ac8c7c3b9258585a4f35b50818552600560209081526040808720336000908152925290205460ff1662000557565b50346200000f5760003660031901126200000f576020600954604051908152f35b50346200000f5760203660031901126200000f5760006004356200063081620004f6565b600654906001600160a01b03906200064c338385161462001dd3565b1680916001600160601b0360a01b161760065560405190337f8292fce18fa69edf4db7b94ea2e58241df0ae57f97e0a6c9b29067028bf92d768484a3f35b50634e487b7160e01b600052603260045260246000fd5b600c54811015620006c9575b600c600052600080516020620082468339815191520190600090565b620006d36200068a565b620006ad565b8054821015620006f3575b60005260206000200190600090565b620006fd6200068a565b620006e4565b50346200000f5760403660031901126200000f576004356200072581620004f6565b6001600160a01b03166000908152600d60205260409020805460243591908210156200000f576020916200075991620006d9565b90546040519160031b1c8152f35b60609060031901126200000f576004356200078281620004f6565b906024356200079181620004f6565b9060443590565b50346200000f57620007b5620007ae3662000767565b9162001cf1565b005b50346200000f57620007b5620007cd3662000767565b9190620007dc83828462001cf1565b803b15928315620007f1575b50505062005f65565b604051630a85bd0160e11b8082523360048301526001600160a01b03948516602483015260448201929092526080606482015260006084820181905291945092602092849260a4928492165af19081156200089a575b60009162000865575b506001600160e01b03191614388080620007e8565b6200088b915060203d811162000892575b62000882818362000318565b81019062005f4d565b3862000850565b503d62000876565b620008a462001a89565b62000847565b50346200000f5760203660031901126200000f57600435620008cc81620004f6565b6006546001600160a01b039190620008e8908316331462001dd3565b166001600160601b0360a01b60085416176008556000604051f35b50346200000f5760203660031901126200000f576004356000908152600260205260409020546001600160a01b031680156200094457602090604051908152f35b60405162461bcd60e51b815260206004820152600a6024820152691393d517d3525395115160b21b6044820152606490fd5b50346200000f5760203660031901126200000f576004356200099881620004f6565b6001600160a01b03168015620009cb57600052600360205262000418604060002054604051918291829190602083019252565b60405162461bcd60e51b815260206004820152600c60248201526b5a45524f5f4144445245535360a01b6044820152606490fd5b50346200000f5760003660031901126200000f576006546040516001600160a01b039091168152602090f35b50346200000f57600080600319360112620004bc576040519080600190815480831c9280821692831562000af1575b60209283861085146200049d57858852602088019490811562000479575060011462000a935762000418876200040b8189038262000318565b600160005294509192917fb10e2d527612073b26eecdfd717e6a320cf44b4afac2b0732d9fcbe2b7fa0cf65b83861062000adf57505050910190506200040b82620004183880620003f8565b80548587015294820194810162000abf565b93607f169362000a5a565b801515036200000f57565b50346200000f5760403660031901126200000f5760043562000b2981620004f6565b6024359062000b388262000afc565b3360009081526005602090815260408083206001600160a01b038516845290915290209115159160ff1981541660ff841617905560405191825260018060a01b0316907f17307eab39ab6107e8899845ad3d59bd9653f200f220920489ca2b5937696c3160203392a3005b9181601f840112156200000f5782359167ffffffffffffffff83116200000f57602083818601950101116200000f57565b50346200000f5760803660031901126200000f5760043562000bf681620004f6565b6024359062000c0582620004f6565b6064359160443567ffffffffffffffff84116200000f5762000c30620007b594369060040162000ba3565b9262000c3e83828762001cf1565b803b1593841562000c52575b868562005f65565b62000c9f9450600060209496604051809781968295630a85bd0160e11b9b8c855233600486015260018060a01b038096166024860152604485015260806064850152608484019162001a03565b0393165af190811562000cf0575b60009162000ccd575b506001600160e01b03191614803880808062000c4a565b62000ce9915060203d8111620008925762000882818362000318565b3862000cb6565b62000cfa62001a89565b62000cad565b50346200000f5760203660031901126200000f57600435600c548110156200000f57600c6000526000805160206200824683398151915201546040516001600160a01b039091168152602090f35b50346200000f5760203660031901126200000f5762000d7960018060a01b0360065416331462001dd3565b600435600955005b50346200000f576020806003193601126200000f57600480356000818152600260205260409020546001600160a01b0392919062000dc3908416151562001b58565b8362000dcf82620006a1565b905460039190911b1c6001600160a01b031693604094858051958487018762000e0a85836014916001600160601b03199060601b1681520190565b0397601f1998898101825262000e21908262000318565b5190206fffffffffffffffffffffffffffffffff191662000e429062002140565b62000e4d9062006206565b938251809587820162000e8490601a907f646174613a696d6167652f7376672b786d6c3b6261736536342c00000000000081520190565b62000e8f9162001b95565b03888101865262000ea1908662000318565b62000eac8762005a9f565b968351809888820162000ed6906010906f754170702041677265656d656e74202360801b81520190565b62000ee19162001b95565b03898101895262000ef3908962000318565b62000efe9062005a9f565b931662000f0b8162001e50565b835163c19d93fb60e01b80825292919088818681865afa908115620015fd575b600091620015db575b5062000f408162001bc4565b6000906001036200155c57508451636537214760e01b815262000f7d9089818781875afa9081156200154c575b60009162001531575b5062005a9f565b905b8551638da5cb5b60e01b815262000fb0908a818881885afa90811562001521575b60009162001506575b5062001e50565b928962000fe1885163057453a760e31b815282818a81875afa908115620014f6575b600091620014c2575062001e50565b956200101189516329dcb0cf60e01b815283818b81885afa908115620014b2575b6000916200147e575062005a9f565b978951630fad0f5160e01b815283818381885afa9081156200146e575b6000916200143a575b501562001429576200104862001ccf565b995b518094819382525afa90811562001419575b600091620013e5575b50620010718162001bc4565b6200107c9062001f92565b968c519a8b9a8b01620010a090600a90697b276e616d65273a202760b01b81520190565b620010ab9162001b95565b7f272c20276465736372697074696f6e273a2027412074727573742d6d696e696d81527f697365642061677265656d656e7420706f77657265642062792074686520556e602082015271034bb32b939b0b61020b230b83a32b91396160751b60408201526052017f2761747472696275746573273a205b7b2774726169745f74797065273a202741815274677265656d656e74272c202776616c7565273a202760581b6020820152603501620011619162001b95565b7f277d2c207b2774726169745f74797065273a2027436f6e7472616374272c202781526876616c7565273a202760b81b6020820152602901620011a49162001b95565b7f277d2c207b2774726169745f74797065273a202742616c616e6365272c202776815267616c7565273a202760c01b6020820152602801620011e69162001b95565b7f277d2c207b2774726169745f74797065273a202743726561746f72272c202776815267616c7565273a202760c01b6020820152602801620012289162001b95565b7f277d2c207b2774726169745f74797065273a202752656465656d6572272c202781526876616c7565273a202760b81b60208201526029016200126b9162001b95565b7f277d2c207b2774726169745f74797065273a2027446561646c696e65272c202781526876616c7565273a202760b81b6020820152602901620012ae9162001b95565b7f277d2c207b2774726169745f74797065273a2027536f756c626f756e64272c208152692776616c7565273a202760b01b6020820152602a01620012f29162001b95565b7f277d2c207b2774726169745f74797065273a20275374617465272c202776616c8152657565273a202760d01b6020820152602601620013329162001b95565b64013beae96160dd1b81526005016d013b4b6b0b3b2afb230ba30939d160951b8152600e01620013629162001b95565b61277d60f01b81526002010382810182526200137f908262000318565b6200138a9062006206565b82517f646174613a6170706c69636174696f6e2f6a736f6e3b6261736536342c00000094810194855293849190601d01620013c59162001b95565b039081018352620013d7908362000318565b516200041881928262000373565b6200140a91508a3d8c1162001411575b62001401818362000318565b81019062001baa565b3862001065565b503d620013f5565b6200142362001a89565b6200105c565b6200143362001cac565b996200104a565b6200145f9150843d861162001466575b62001456818362000318565b81019062001c0d565b3862001037565b503d6200144a565b6200147862001a89565b6200102e565b620014a39150843d8611620014aa575b6200149a818362000318565b81019062001be5565b3862000f76565b503d6200148e565b620014bc62001a89565b62001002565b620014e79150833d8511620014ee575b620014de818362000318565b81019062001bf5565b3862000fa9565b503d620014d2565b6200150062001a89565b62000fd2565b620014e791508b3d8d11620014ee57620014de818362000318565b6200152b62001a89565b62000fa0565b620014a391508a3d8c11620014aa576200149a818362000318565b6200155662001a89565b62000f6d565b600754620015c4919062001580906001600160a01b03165b6001600160a01b031690565b87516370a0823160e01b81526001600160a01b03861688820190815290918c918391908290819060200103915afa918215620015cb575b9162001531575062005a9f565b9062000f7f565b620015d562001a89565b620015b7565b620015f69150893d8b11620014115762001401818362000318565b3862000f34565b6200160762001a89565b62000f2b565b50346200000f5760403660031901126200000f576004356200162f81620004f6565b6001600160a01b03166000908152600e60205260409020805460243591908210156200000f576020916200075991620006d9565b50346200000f5760a03660031901126200000f576004356200168581620004f6565b602435604435620016968162000afc565b60843567ffffffffffffffff8082116200000f576200041894620017fb620016c76200184d94369060040162000ba3565b6001600160a01b03979096919490620016e4858a1615156200194d565b620016f14282116200198d565b620017c5600a549889976200170f6200170a8a620019e4565b600a55565b336000908152600b6020526040902080549060018201905560405162001773816200176460208201948d33879190604893916001600160601b0319809260601b16845260601b16601483015260288201520190565b03601f19810183528262000318565b5190206007549096906001600160a01b03166008549095908a906001600160a01b0316968c6009546040519a8b9a611f44808d01928d841090841117620018ac575b620063028d393394309262001a24565b03906000f59586156200189c575b600754620017ec9062001574906001600160a01b031681565b60643591881690339062006128565b620018068562001a96565b336000908152600d602052604090206200182290839062001b0d565b6001600160a01b0381166000908152600e602052604090206200184790839062001b0d565b62005fa5565b6040516001600160a01b03831681527f9d0109af3593c414edfa74aa36ce36b7b0c4e261998d858618c7a982b423939a90602090a26040516001600160a01b0390911681529081906020820190565b620018a662001a89565b620017d3565b620018b6620002b8565b620017b5565b50346200000f5760003660031901126200000f576020600a54604051908152f35b50346200000f5760403660031901126200000f57602060ff620019416004356200190781620004f6565b602435906200191682620004f6565b60018060a01b03166000526005845260406000209060018060a01b0316600052602052604060002090565b54166040519015158152f35b156200195557565b60405162461bcd60e51b815260206004820152601060248201526f24a72b20a624a22fa922a222a2a6a2a960811b6044820152606490fd5b156200199557565b60405162461bcd60e51b815260206004820152601060248201526f494e56414c49445f444541444c494e4560801b6044820152606490fd5b50634e487b7160e01b600052601160045260246000fd5b6001906000198114620019f5570190565b620019ff620019cd565b0190565b908060209392818452848401376000828201840152601f01601f1916010190565b9795919294909362001a869b99979460018060a01b0396878096818094168d521660208c01521660408a0152606089015260808801521660a08601521660c084015260e083015215156101008201526101409081610120820152019162001a03565b90565b506040513d6000823e3d90fd5b600c54600160401b81101562001afd575b6001810180600c5581101562001aed575b600c600052600080516020620082468339815191520180546001600160a01b0319166001600160a01b03909216919091179055565b62001af76200068a565b62001ab8565b62001b07620002b8565b62001aa7565b805462001b2e91600160401b82101562001b48575b600182018155620006d9565b819291549060031b600019811b9283911b16911916179055565b62001b52620002b8565b62001b22565b1562001b6057565b60405162461bcd60e51b815260206004820152600d60248201526c24a72b20a624a22faa27a5a2a760991b6044820152606490fd5b90620019ff602092828151948592016200033b565b908160209103126200000f575160048110156200000f5790565b6004111562001bcf57565b634e487b7160e01b600052602160045260246000fd5b908160209103126200000f575190565b908160209103126200000f575162001a8681620004f6565b908160209103126200000f575162001a868162000afc565b60405190612000820182811067ffffffffffffffff821117620002ec57604052565b60209067ffffffffffffffff811162001c66575b601f01601f19160190565b62001c70620002b8565b62001c5b565b604051906020820182811067ffffffffffffffff82111762001c9c575b60405260008252565b62001ca6620002b8565b62001c93565b6040519062001cbb82620002cf565b600582526466616c736560d81b6020830152565b6040519062001cde82620002cf565b60048252637472756560e01b6020830152565b9190600c5482101562001dc3575b600c60005260008051602062008246833981519152820154604051630fad0f5160e01b815290602090829060049082906001600160a01b03165afa90811562001db3575b60009162001d90575b5062001d5f5762001d5d9262005d8c565b565b60405162461bcd60e51b815260206004820152600960248201526814d3d5531093d5539160ba1b6044820152606490fd5b62001dac915060203d8111620014665762001456818362000318565b3862001d4c565b62001dbd62001a89565b62001d43565b62001dcd6200068a565b62001cff565b1562001ddb57565b60405162461bcd60e51b815260206004820152600c60248201526b15539055551213d49256915160a21b6044820152606490fd5b8060131062001e1f575b60130390565b62001e29620019cd565b62001e19565b6004811062001e40575b6003190190565b62001e4a620019cd565b62001e39565b9062001e5b62005a0c565b6000805b6014811062001ed457505062001ec5919250806200176462001e9d62001e8962001a869462005c50565b9262001e96815162001e2f565b9062005c9d565b62001ebe60405195869462001ebe6020870160029061060f60f31b81520190565b9062001b95565b6217171760e91b815260030190565b62001f8c9062001f6162001f2562001f1f62001f0f6001600160a01b038a1662001f0862001f028762001e0f565b62005b6e565b1c60ff1690565b60f81b6001600160f81b03191690565b60f81c90565b600f60f81b9062001f3c60f482901b831662005be9565b62001f5662001f4b8662005b97565b91881a918962005a7d565b5360f81b1662005be9565b62001f8562001f7a62001f748462005b97565b620020eb565b91851a918662005a7d565b53620019e4565b62001e5f565b604051602081529190801562002008578060011462001ff1578060021462001fda5760031462001fc6575b60608201604052565b670745585049524544600783015262001fbd565b50690943414e43454c4c4544600983015262001fbd565b50690946554c46494c4c4544600983015262001fbd565b50670750454e44494e47600783015262001fbd565b6040519060a0820182811067ffffffffffffffff821117620020db575b604052607e82527f7273696f6e3d27312e31272076696577426f783d2730203020382038273e00006080837f3c3f786d6c2076657273696f6e3d27312e302720656e636f64696e673d27555460208201527f462d3827207374616e64616c6f6e653d276e6f273f3e3c73766720786d6c6e7360408201527f3d27687474703a2f2f7777772e77332e6f72672f323030302f7376672720766560608201520152565b620020e5620002b8565b6200203a565b6001906001198111620019f5570190565b6004906004198111620019f5570190565b6002906002198111620019f5570190565b6003906003198111620019f5570190565b6020906020198111620019f5570190565b6200214a6200201d565b90600090815b601081106200218c5750505062001a866200217a9162001764604051938492602084019062001b95565b651e17b9bb339f60d11b815260060190565b909192620021a782849060021b60fc0390600f821b16901c90565b620021b290620049fe565b620021bd8562005a9f565b90604080518093602093848301620021e890600c906b3c726563742066696c6c3d2760a01b81520190565b620021f39162001b95565b6a2720783d27302720793d2760a81b8152600b01620022129162001b95565b7813903bb4b23a341e939893903432b4b3b43a1e93989390179f60391b81526019010392601f199384810182526200224b908262000318565b6200225686620020eb565b6200226e90889060021b60fc0390600f821b16901c90565b6200227990620049fe565b620022848962005a9f565b83516b3c726563742066696c6c3d2760a01b8682019081529092839291600c01620022af9162001b95565b6a2720783d27312720793d2760a81b8152600b01620022ce9162001b95565b7813903bb4b23a341e939893903432b4b3b43a1e93989390179f60391b815260190103858101825262002302908262000318565b6200230d876200210d565b6200232590899060021b60fc0390600f821b16901c90565b6200233090620049fe565b916200233c8a62005a9f565b84516b3c726563742066696c6c3d2760a01b8782019081529094859291600c01620023679162001b95565b6a2720783d27322720793d2760a81b8152600b01620023869162001b95565b7813903bb4b23a341e939893903432b4b3b43a1e93989390179f60391b8152601901038681018452620023ba908462000318565b620023c5886200211e565b620023dd908a9060021b60fc0390600f821b16901c90565b620023e890620049fe565b93620023f48b62005a9f565b81516b3c726563742066696c6c3d2760a01b8882019081529096879291600c016200241f9162001b95565b6a2720783d27332720793d2760a81b8152600b016200243e9162001b95565b7813903bb4b23a341e939893903432b4b3b43a1e93989390179f60391b815260190103878101865262002472908662000318565b519687958601620024839162001b95565b6200248e9162001b95565b620024999162001b95565b620024a49162001b95565b620024af9162001b95565b039081018252620024c1908262000318565b9260010190620024d190620020fc565b91909162002150565b60405190620024e982620002cf565b60078252660233030303030360cc1b6020830152565b604051906200250e82620002cf565b60078252660233830303030360cc1b6020830152565b604051906200253382620002cf565b60078252660233030383030360cc1b6020830152565b604051906200255882620002cf565b60078252660233830383030360cc1b6020830152565b604051906200257d82620002cf565b60078252660233030303038360cc1b6020830152565b60405190620025a282620002cf565b60078252660233830303038360cc1b6020830152565b60405190620025c782620002cf565b60078252660233030383038360cc1b6020830152565b60405190620025ec82620002cf565b60078252660236330633063360cc1b6020830152565b604051906200261182620002cf565b60078252660236330646363360cc1b6020830152565b604051906200263682620002cf565b60078252660236136636166360cc1b6020830152565b604051906200265b82620002cf565b60078252662332613366616160c81b6020830152565b604051906200268082620002cf565b600782526611993099b3333360c91b6020830152565b60405190620026a582620002cf565b60078252660233261356630360cc1b6020830152565b60405190620026ca82620002cf565b60078252662332613566353560c81b6020830152565b60405190620026ef82620002cf565b60078252662332613566616160c81b6020830152565b604051906200271482620002cf565b60078252661199309ab3333360c91b6020830152565b604051906200273982620002cf565b60078252660233261376630360cc1b6020830152565b604051906200275e82620002cf565b60078252662332613766353560c81b6020830152565b604051906200278382620002cf565b60078252662332613766616160c81b6020830152565b60405190620027a882620002cf565b60078252661199309bb3333360c91b6020830152565b60405190620027cd82620002cf565b60078252660233261396630360cc1b6020830152565b60405190620027f282620002cf565b60078252662332613966353560c81b6020830152565b604051906200281782620002cf565b60078252662332613966616160c81b6020830152565b604051906200283c82620002cf565b60078252661199309cb3333360c91b6020830152565b604051906200286182620002cf565b60078252660233261626630360cc1b6020830152565b604051906200288682620002cf565b60078252662332616266353560c81b6020830152565b60405190620028ab82620002cf565b60078252662332616266616160c81b6020830152565b60405190620028d082620002cf565b6007825266119930b133333360c91b6020830152565b60405190620028f582620002cf565b60078252660233261646630360cc1b6020830152565b604051906200291a82620002cf565b60078252662332616466353560c81b6020830152565b604051906200293f82620002cf565b60078252662332616466616160c81b6020830152565b604051906200296482620002cf565b6007825266119930b233333360c91b6020830152565b604051906200298982620002cf565b60078252660233261666630360cc1b6020830152565b60405190620029ae82620002cf565b60078252662332616666353560c81b6020830152565b60405190620029d382620002cf565b60078252662332616666616160c81b6020830152565b60405190620029f882620002cf565b6007825266119930b333333360c91b6020830152565b6040519062002a1d82620002cf565b60078252660233535303030360cc1b6020830152565b6040519062002a4282620002cf565b60078252662335353030353560c81b6020830152565b6040519062002a6782620002cf565b60078252662335353030616160c81b6020830152565b6040519062002a8c82620002cf565b6007825266119a9a9818333360c91b6020830152565b6040519062002ab182620002cf565b60078252660233535316630360cc1b6020830152565b6040519062002ad682620002cf565b60078252662335353166353560c81b6020830152565b6040519062002afb82620002cf565b60078252662335353166616160c81b6020830152565b6040519062002b2082620002cf565b6007825266119a9a98b3333360c91b6020830152565b6040519062002b4582620002cf565b60078252660233535336630360cc1b6020830152565b6040519062002b6a82620002cf565b60078252662335353366353560c81b6020830152565b6040519062002b8f82620002cf565b60078252662335353366616160c81b6020830152565b6040519062002bb482620002cf565b6007825266119a9a99b3333360c91b6020830152565b6040519062002bd982620002cf565b60078252660233535356630360cc1b6020830152565b6040519062002bfe82620002cf565b60078252662335353566353560c81b6020830152565b6040519062002c2382620002cf565b60078252662335353566616160c81b6020830152565b6040519062002c4882620002cf565b6007825266119a9a9ab3333360c91b6020830152565b6040519062002c6d82620002cf565b60078252660233535376630360cc1b6020830152565b6040519062002c9282620002cf565b60078252662335353766353560c81b6020830152565b6040519062002cb782620002cf565b60078252662335353766616160c81b6020830152565b6040519062002cdc82620002cf565b6007825266119a9a9bb3333360c91b6020830152565b6040519062002d0182620002cf565b60078252660233535396630360cc1b6020830152565b6040519062002d2682620002cf565b60078252662335353966353560c81b6020830152565b6040519062002d4b82620002cf565b60078252662335353966616160c81b6020830152565b6040519062002d7082620002cf565b6007825266119a9a9cb3333360c91b6020830152565b6040519062002d9582620002cf565b60078252660233535626630360cc1b6020830152565b6040519062002dba82620002cf565b60078252662335356266353560c81b6020830152565b6040519062002ddf82620002cf565b60078252662335356266616160c81b6020830152565b6040519062002e0482620002cf565b6007825266119a9ab133333360c91b6020830152565b6040519062002e2982620002cf565b60078252660233535646630360cc1b6020830152565b6040519062002e4e82620002cf565b60078252662335356466353560c81b6020830152565b6040519062002e7382620002cf565b60078252662335356466616160c81b6020830152565b6040519062002e9882620002cf565b6007825266119a9ab233333360c91b6020830152565b6040519062002ebd82620002cf565b60078252660233535666630360cc1b6020830152565b6040519062002ee282620002cf565b60078252662335356666353560c81b6020830152565b6040519062002f0782620002cf565b60078252662335356666616160c81b6020830152565b6040519062002f2c82620002cf565b6007825266119a9ab333333360c91b6020830152565b6040519062002f5182620002cf565b60078252660233766303030360cc1b6020830152565b6040519062002f7682620002cf565b60078252662337663030353560c81b6020830152565b6040519062002f9b82620002cf565b60078252662337663030616160c81b6020830152565b6040519062002fc082620002cf565b6007825266119bb31818333360c91b6020830152565b6040519062002fe582620002cf565b60078252660233766316630360cc1b6020830152565b604051906200300a82620002cf565b60078252662337663166353560c81b6020830152565b604051906200302f82620002cf565b60078252662337663166616160c81b6020830152565b604051906200305482620002cf565b6007825266119bb318b3333360c91b6020830152565b604051906200307982620002cf565b60078252660233766336630360cc1b6020830152565b604051906200309e82620002cf565b60078252662337663366353560c81b6020830152565b60405190620030c382620002cf565b60078252662337663366616160c81b6020830152565b60405190620030e882620002cf565b6007825266119bb319b3333360c91b6020830152565b604051906200310d82620002cf565b60078252660233766356630360cc1b6020830152565b604051906200313282620002cf565b60078252662337663566353560c81b6020830152565b604051906200315782620002cf565b60078252662337663566616160c81b6020830152565b604051906200317c82620002cf565b6007825266119bb31ab3333360c91b6020830152565b60405190620031a182620002cf565b60078252660233766376630360cc1b6020830152565b60405190620031c682620002cf565b60078252662337663766353560c81b6020830152565b60405190620031eb82620002cf565b60078252662337663766616160c81b6020830152565b604051906200321082620002cf565b6007825266119bb31bb3333360c91b6020830152565b604051906200323582620002cf565b60078252660233766396630360cc1b6020830152565b604051906200325a82620002cf565b60078252662337663966353560c81b6020830152565b604051906200327f82620002cf565b60078252662337663966616160c81b6020830152565b60405190620032a482620002cf565b6007825266119bb31cb3333360c91b6020830152565b60405190620032c982620002cf565b60078252660233766626630360cc1b6020830152565b60405190620032ee82620002cf565b60078252662337666266353560c81b6020830152565b604051906200331382620002cf565b60078252662337666266616160c81b6020830152565b604051906200333882620002cf565b6007825266119bb33133333360c91b6020830152565b604051906200335d82620002cf565b60078252660233766646630360cc1b6020830152565b604051906200338282620002cf565b60078252662337666466353560c81b6020830152565b60405190620033a782620002cf565b60078252662337666466616160c81b6020830152565b60405190620033cc82620002cf565b6007825266119bb33233333360c91b6020830152565b60405190620033f182620002cf565b60078252660233766666630360cc1b6020830152565b604051906200341682620002cf565b60078252662337666666353560c81b6020830152565b604051906200343b82620002cf565b60078252662337666666616160c81b6020830152565b604051906200346082620002cf565b6007825266119bb33333333360c91b6020830152565b604051906200348582620002cf565b60078252660236161303030360cc1b6020830152565b60405190620034aa82620002cf565b60078252662361613030353560c81b6020830152565b60405190620034cf82620002cf565b60078252662361613030616160c81b6020830152565b60405190620034f482620002cf565b600782526611b0b09818333360c91b6020830152565b604051906200351982620002cf565b60078252660236161316630360cc1b6020830152565b604051906200353e82620002cf565b60078252662361613166353560c81b6020830152565b604051906200356382620002cf565b60078252662361613166616160c81b6020830152565b604051906200358882620002cf565b600782526611b0b098b3333360c91b6020830152565b60405190620035ad82620002cf565b60078252660236161336630360cc1b6020830152565b60405190620035d282620002cf565b60078252662361613366353560c81b6020830152565b60405190620035f782620002cf565b60078252662361613366616160c81b6020830152565b604051906200361c82620002cf565b600782526611b0b099b3333360c91b6020830152565b604051906200364182620002cf565b60078252660236161356630360cc1b6020830152565b604051906200366682620002cf565b60078252662361613566353560c81b6020830152565b604051906200368b82620002cf565b60078252662361613566616160c81b6020830152565b60405190620036b082620002cf565b600782526611b0b09ab3333360c91b6020830152565b60405190620036d582620002cf565b60078252660236161376630360cc1b6020830152565b60405190620036fa82620002cf565b60078252662361613766353560c81b6020830152565b604051906200371f82620002cf565b60078252662361613766616160c81b6020830152565b604051906200374482620002cf565b600782526611b0b09bb3333360c91b6020830152565b604051906200376982620002cf565b60078252660236161396630360cc1b6020830152565b604051906200378e82620002cf565b60078252662361613966353560c81b6020830152565b60405190620037b382620002cf565b60078252662361613966616160c81b6020830152565b60405190620037d882620002cf565b600782526611b0b09cb3333360c91b6020830152565b60405190620037fd82620002cf565b60078252660236161626630360cc1b6020830152565b604051906200382282620002cf565b60078252662361616266353560c81b6020830152565b604051906200384782620002cf565b60078252662361616266616160c81b6020830152565b604051906200386c82620002cf565b600782526611b0b0b133333360c91b6020830152565b604051906200389182620002cf565b60078252660236161646630360cc1b6020830152565b60405190620038b682620002cf565b60078252662361616466353560c81b6020830152565b60405190620038db82620002cf565b60078252662361616466616160c81b6020830152565b604051906200390082620002cf565b600782526611b0b0b233333360c91b6020830152565b604051906200392582620002cf565b60078252660236161666630360cc1b6020830152565b604051906200394a82620002cf565b60078252662361616666353560c81b6020830152565b604051906200396f82620002cf565b60078252662361616666616160c81b6020830152565b604051906200399482620002cf565b600782526611b0b0b333333360c91b6020830152565b60405190620039b982620002cf565b60078252660236434303030360cc1b6020830152565b60405190620039de82620002cf565b60078252662364343030353560c81b6020830152565b6040519062003a0382620002cf565b60078252662364343030616160c81b6020830152565b6040519062003a2882620002cf565b600782526611b21a1818333360c91b6020830152565b6040519062003a4d82620002cf565b60078252660236434316630360cc1b6020830152565b6040519062003a7282620002cf565b60078252662364343166353560c81b6020830152565b6040519062003a9782620002cf565b60078252662364343166616160c81b6020830152565b6040519062003abc82620002cf565b600782526611b21a18b3333360c91b6020830152565b6040519062003ae182620002cf565b60078252660236434336630360cc1b6020830152565b6040519062003b0682620002cf565b60078252662364343366353560c81b6020830152565b6040519062003b2b82620002cf565b60078252662364343366616160c81b6020830152565b6040519062003b5082620002cf565b600782526611b21a19b3333360c91b6020830152565b6040519062003b7582620002cf565b60078252660236434356630360cc1b6020830152565b6040519062003b9a82620002cf565b60078252662364343566353560c81b6020830152565b6040519062003bbf82620002cf565b60078252662364343566616160c81b6020830152565b6040519062003be482620002cf565b600782526611b21a1ab3333360c91b6020830152565b6040519062003c0982620002cf565b60078252660236434376630360cc1b6020830152565b6040519062003c2e82620002cf565b60078252662364343766353560c81b6020830152565b6040519062003c5382620002cf565b60078252662364343766616160c81b6020830152565b6040519062003c7882620002cf565b600782526611b21a1bb3333360c91b6020830152565b6040519062003c9d82620002cf565b60078252660236434396630360cc1b6020830152565b6040519062003cc282620002cf565b60078252662364343966353560c81b6020830152565b6040519062003ce782620002cf565b60078252662364343966616160c81b6020830152565b6040519062003d0c82620002cf565b600782526611b21a1cb3333360c91b6020830152565b6040519062003d3182620002cf565b60078252660236434626630360cc1b6020830152565b6040519062003d5682620002cf565b60078252662364346266353560c81b6020830152565b6040519062003d7b82620002cf565b60078252662364346266616160c81b6020830152565b6040519062003da082620002cf565b600782526611b21a3133333360c91b6020830152565b6040519062003dc582620002cf565b60078252660236434646630360cc1b6020830152565b6040519062003dea82620002cf565b60078252662364346466353560c81b6020830152565b6040519062003e0f82620002cf565b60078252662364346466616160c81b6020830152565b6040519062003e3482620002cf565b600782526611b21a3233333360c91b6020830152565b6040519062003e5982620002cf565b60078252660236434666630360cc1b6020830152565b6040519062003e7e82620002cf565b60078252662364346666353560c81b6020830152565b6040519062003ea382620002cf565b60078252662364346666616160c81b6020830152565b6040519062003ec882620002cf565b600782526611b21a3333333360c91b6020830152565b6040519062003eed82620002cf565b60078252662366663030353560c81b6020830152565b6040519062003f1282620002cf565b60078252662366663030616160c81b6020830152565b6040519062003f3782620002cf565b60078252660236666316630360cc1b6020830152565b6040519062003f5c82620002cf565b60078252662366663166353560c81b6020830152565b6040519062003f8182620002cf565b60078252662366663166616160c81b6020830152565b6040519062003fa682620002cf565b600782526611b33318b3333360c91b6020830152565b6040519062003fcb82620002cf565b60078252660236666336630360cc1b6020830152565b6040519062003ff082620002cf565b60078252662366663366353560c81b6020830152565b604051906200401582620002cf565b60078252662366663366616160c81b6020830152565b604051906200403a82620002cf565b600782526611b33319b3333360c91b6020830152565b604051906200405f82620002cf565b60078252660236666356630360cc1b6020830152565b604051906200408482620002cf565b60078252662366663566353560c81b6020830152565b60405190620040a982620002cf565b60078252662366663566616160c81b6020830152565b60405190620040ce82620002cf565b600782526611b3331ab3333360c91b6020830152565b60405190620040f382620002cf565b60078252660236666376630360cc1b6020830152565b604051906200411882620002cf565b60078252662366663766353560c81b6020830152565b604051906200413d82620002cf565b60078252662366663766616160c81b6020830152565b604051906200416282620002cf565b600782526611b3331bb3333360c91b6020830152565b604051906200418782620002cf565b60078252660236666396630360cc1b6020830152565b60405190620041ac82620002cf565b60078252662366663966353560c81b6020830152565b60405190620041d182620002cf565b60078252662366663966616160c81b6020830152565b60405190620041f682620002cf565b600782526611b3331cb3333360c91b6020830152565b604051906200421b82620002cf565b60078252660236666626630360cc1b6020830152565b604051906200424082620002cf565b60078252662366666266353560c81b6020830152565b604051906200426582620002cf565b60078252662366666266616160c81b6020830152565b604051906200428a82620002cf565b600782526611b3333133333360c91b6020830152565b60405190620042af82620002cf565b60078252660236666646630360cc1b6020830152565b60405190620042d482620002cf565b60078252662366666466353560c81b6020830152565b60405190620042f982620002cf565b60078252662366666466616160c81b6020830152565b604051906200431e82620002cf565b600782526611b3333233333360c91b6020830152565b604051906200434382620002cf565b60078252662366666666353560c81b6020830152565b604051906200436882620002cf565b60078252662366666666616160c81b6020830152565b604051906200438d82620002cf565b600782526611b1b1b1b1b33360c91b6020830152565b60405190620043b282620002cf565b600782526611b33331b1b33360c91b6020830152565b60405190620043d782620002cf565b6007825266119999b333333360c91b6020830152565b60405190620043fc82620002cf565b6007825266119b1b3333333360c91b6020830152565b604051906200442182620002cf565b6007825266119c9cb333333360c91b6020830152565b604051906200444682620002cf565b600782526611b1b1b333333360c91b6020830152565b604051906200446b82620002cf565b60078252660233030376630360cc1b6020830152565b604051906200449082620002cf565b60078252662330303766353560c81b6020830152565b60405190620044b582620002cf565b60078252662330303766616160c81b6020830152565b60405190620044da82620002cf565b60078252661198181bb3333360c91b6020830152565b60405190620044ff82620002cf565b60078252660233030396630360cc1b6020830152565b604051906200452482620002cf565b60078252662330303966353560c81b6020830152565b604051906200454982620002cf565b60078252662330303966616160c81b6020830152565b604051906200456e82620002cf565b60078252661198181cb3333360c91b6020830152565b604051906200459382620002cf565b60078252660233030626630360cc1b6020830152565b60405190620045b882620002cf565b60078252662330306266353560c81b6020830152565b60405190620045dd82620002cf565b60078252662330306266616160c81b6020830152565b604051906200460282620002cf565b60078252661198183133333360c91b6020830152565b604051906200462782620002cf565b60078252660233030646630360cc1b6020830152565b604051906200464c82620002cf565b60078252662330306466353560c81b6020830152565b604051906200467182620002cf565b60078252662330306466616160c81b6020830152565b604051906200469682620002cf565b60078252661198183233333360c91b6020830152565b60405190620046bb82620002cf565b60078252662330306666353560c81b6020830152565b60405190620046e082620002cf565b60078252662330306666616160c81b6020830152565b604051906200470582620002cf565b60078252660233261303030360cc1b6020830152565b604051906200472a82620002cf565b60078252662332613030353560c81b6020830152565b604051906200474f82620002cf565b60078252662332613030616160c81b6020830152565b604051906200477482620002cf565b60078252661199309818333360c91b6020830152565b604051906200479982620002cf565b60078252660233261316630360cc1b6020830152565b60405190620047be82620002cf565b60078252662332613166353560c81b6020830152565b60405190620047e382620002cf565b60078252662332613166616160c81b6020830152565b604051906200480882620002cf565b600782526611993098b3333360c91b6020830152565b604051906200482d82620002cf565b60078252660233261336630360cc1b6020830152565b604051906200485282620002cf565b60078252662332613366353560c81b6020830152565b604051906200487782620002cf565b60078252660236666666266360cc1b6020830152565b604051906200489c82620002cf565b600782526608d84c184c184d60ca1b6020830152565b60405190620048c182620002cf565b60078252660233830383038360cc1b6020830152565b60405190620048e682620002cf565b60078252660236666303030360cc1b6020830152565b604051906200490b82620002cf565b60078252660233030666630360cc1b6020830152565b604051906200493082620002cf565b60078252660236666666630360cc1b6020830152565b604051906200495582620002cf565b60078252661198181818333360c91b6020830152565b604051906200497a82620002cf565b600782526611b3331818333360c91b6020830152565b604051906200499f82620002cf565b60078252661198183333333360c91b6020830152565b60405190620049c482620002cf565b600782526611b3333333333360c91b6020830152565b90610100811015620049ee575b60051b0190565b620049f86200068a565b620049e7565b62005a089062004a0d62001c25565b62004a17620024da565b815262004a23620024ff565b602082015262004a3262002524565b604082015262004a4162002549565b606082015262004a506200256e565b608082015262004a5f62002593565b60a082015262004a6e620025b8565b60c082015262004a7d620025dd565b60e082015262004a8c62002602565b61010082015262004a9c62002627565b61012082015262004aac6200264c565b61014082015262004abc62002671565b61016082015262004acc62002696565b61018082015262004adc620026bb565b6101a082015262004aec620026e0565b6101c082015262004afc62002705565b6101e082015262004b0c6200272a565b61020082015262004b1c6200274f565b61022082015262004b2c62002774565b61024082015262004b3c62002799565b61026082015262004b4c620027be565b61028082015262004b5c620027e3565b6102a082015262004b6c62002808565b6102c082015262004b7c6200282d565b6102e082015262004b8c62002852565b61030082015262004b9c62002877565b61032082015262004bac6200289c565b61034082015262004bbc620028c1565b61036082015262004bcc620028e6565b61038082015262004bdc6200290b565b6103a082015262004bec62002930565b6103c082015262004bfc62002955565b6103e082015262004c0c6200297a565b61040082015262004c1c6200299f565b61042082015262004c2c620029c4565b61044082015262004c3c620029e9565b61046082015262004c4c62002a0e565b61048082015262004c5c62002a33565b6104a082015262004c6c62002a58565b6104c082015262004c7c62002a7d565b6104e082015262004c8c62002aa2565b61050082015262004c9c62002ac7565b61052082015262004cac62002aec565b61054082015262004cbc62002b11565b61056082015262004ccc62002b36565b61058082015262004cdc62002b5b565b6105a082015262004cec62002b80565b6105c082015262004cfc62002ba5565b6105e082015262004d0c62002bca565b61060082015262004d1c62002bef565b61062082015262004d2c62002c14565b61064082015262004d3c62002c39565b61066082015262004d4c62002c5e565b61068082015262004d5c62002c83565b6106a082015262004d6c62002ca8565b6106c082015262004d7c62002ccd565b6106e082015262004d8c62002cf2565b61070082015262004d9c62002d17565b61072082015262004dac62002d3c565b61074082015262004dbc62002d61565b61076082015262004dcc62002d86565b61078082015262004ddc62002dab565b6107a082015262004dec62002dd0565b6107c082015262004dfc62002df5565b6107e082015262004e0c62002e1a565b61080082015262004e1c62002e3f565b61082082015262004e2c62002e64565b61084082015262004e3c62002e89565b61086082015262004e4c62002eae565b61088082015262004e5c62002ed3565b6108a082015262004e6c62002ef8565b6108c082015262004e7c62002f1d565b6108e082015262004e8c62002f42565b61090082015262004e9c62002f67565b61092082015262004eac62002f8c565b61094082015262004ebc62002fb1565b61096082015262004ecc62002fd6565b61098082015262004edc62002ffb565b6109a082015262004eec62003020565b6109c082015262004efc62003045565b6109e082015262004f0c6200306a565b610a0082015262004f1c6200308f565b610a2082015262004f2c620030b4565b610a4082015262004f3c620030d9565b610a6082015262004f4c620030fe565b610a8082015262004f5c62003123565b610aa082015262004f6c62003148565b610ac082015262004f7c6200316d565b610ae082015262004f8c62003192565b610b0082015262004f9c620031b7565b610b2082015262004fac620031dc565b610b4082015262004fbc62003201565b610b6082015262004fcc62003226565b610b8082015262004fdc6200324b565b610ba082015262004fec62003270565b610bc082015262004ffc62003295565b610be08201526200500c620032ba565b610c008201526200501c620032df565b610c208201526200502c62003304565b610c408201526200503c62003329565b610c608201526200504c6200334e565b610c808201526200505c62003373565b610ca08201526200506c62003398565b610cc08201526200507c620033bd565b610ce08201526200508c620033e2565b610d008201526200509c62003407565b610d20820152620050ac6200342c565b610d40820152620050bc62003451565b610d60820152620050cc62003476565b610d80820152620050dc6200349b565b610da0820152620050ec620034c0565b610dc0820152620050fc620034e5565b610de08201526200510c6200350a565b610e008201526200511c6200352f565b610e208201526200512c62003554565b610e408201526200513c62003579565b610e608201526200514c6200359e565b610e808201526200515c620035c3565b610ea08201526200516c620035e8565b610ec08201526200517c6200360d565b610ee08201526200518c62003632565b610f008201526200519c62003657565b610f20820152620051ac6200367c565b610f40820152620051bc620036a1565b610f60820152620051cc620036c6565b610f80820152620051dc620036eb565b610fa0820152620051ec62003710565b610fc0820152620051fc62003735565b610fe08201526200520c6200375a565b6110008201526200521c6200377f565b6110208201526200522c620037a4565b6110408201526200523c620037c9565b6110608201526200524c620037ee565b6110808201526200525c62003813565b6110a08201526200526c62003838565b6110c08201526200527c6200385d565b6110e08201526200528c62003882565b6111008201526200529c620038a7565b611120820152620052ac620038cc565b611140820152620052bc620038f1565b611160820152620052cc62003916565b611180820152620052dc6200393b565b6111a0820152620052ec62003960565b6111c0820152620052fc62003985565b6111e08201526200530c620039aa565b6112008201526200531c620039cf565b6112208201526200532c620039f4565b6112408201526200533c62003a19565b6112608201526200534c62003a3e565b6112808201526200535c62003a63565b6112a08201526200536c62003a88565b6112c08201526200537c62003aad565b6112e08201526200538c62003ad2565b6113008201526200539c62003af7565b611320820152620053ac62003b1c565b611340820152620053bc62003b41565b611360820152620053cc62003b66565b611380820152620053dc62003b8b565b6113a0820152620053ec62003bb0565b6113c0820152620053fc62003bd5565b6113e08201526200540c62003bfa565b6114008201526200541c62003c1f565b6114208201526200542c62003c44565b6114408201526200543c62003c69565b6114608201526200544c62003c8e565b6114808201526200545c62003cb3565b6114a08201526200546c62003cd8565b6114c08201526200547c62003cfd565b6114e08201526200548c62003d22565b6115008201526200549c62003d47565b611520820152620054ac62003d6c565b611540820152620054bc62003d91565b611560820152620054cc62003db6565b611580820152620054dc62003ddb565b6115a0820152620054ec62003e00565b6115c0820152620054fc62003e25565b6115e08201526200550c62003e4a565b6116008201526200551c62003e6f565b6116208201526200552c62003e94565b6116408201526200553c62003eb9565b6116608201526200554c62003ede565b6116808201526200555c62003f03565b6116a08201526200556c62003f28565b6116c08201526200557c62003f4d565b6116e08201526200558c62003f72565b6117008201526200559c62003f97565b611720820152620055ac62003fbc565b611740820152620055bc62003fe1565b611760820152620055cc62004006565b611780820152620055dc6200402b565b6117a0820152620055ec62004050565b6117c0820152620055fc62004075565b6117e08201526200560c6200409a565b6118008201526200561c620040bf565b6118208201526200562c620040e4565b6118408201526200563c62004109565b6118608201526200564c6200412e565b6118808201526200565c62004153565b6118a08201526200566c62004178565b6118c08201526200567c6200419d565b6118e08201526200568c620041c2565b6119008201526200569c620041e7565b611920820152620056ac6200420c565b611940820152620056bc62004231565b611960820152620056cc62004256565b611980820152620056dc6200427b565b6119a0820152620056ec620042a0565b6119c0820152620056fc620042c5565b6119e08201526200570c620042ea565b611a008201526200571c6200430f565b611a208201526200572c62004334565b611a408201526200573c62004359565b611a608201526200574c6200437e565b611a808201526200575c620043a3565b611aa08201526200576c620043c8565b611ac08201526200577c620043ed565b611ae08201526200578c62004412565b611b008201526200579c62004437565b611b20820152620057ac6200445c565b611b40820152620057bc62004481565b611b60820152620057cc620044a6565b611b80820152620057dc620044cb565b611ba0820152620057ec620044f0565b611bc0820152620057fc62004515565b611be08201526200580c6200453a565b611c008201526200581c6200455f565b611c208201526200582c62004584565b611c408201526200583c620045a9565b611c608201526200584c620045ce565b611c808201526200585c620045f3565b611ca08201526200586c62004618565b611cc08201526200587c6200463d565b611ce08201526200588c62004662565b611d008201526200589c62004687565b611d20820152620058ac620046ac565b611d40820152620058bc620046d1565b611d60820152620058cc620046f6565b611d80820152620058dc6200471b565b611da0820152620058ec62004740565b611dc0820152620058fc62004765565b611de08201526200590c6200478a565b611e008201526200591c620047af565b611e208201526200592c620047d4565b611e408201526200593c620047f9565b611e608201526200594c6200481e565b611e808201526200595c62004843565b611ea08201526200596c62004868565b611ec08201526200597c6200488d565b611ee08201526200598c620048b2565b611f008201526200599c620048d7565b611f20820152620059ac620048fc565b611f40820152620059bc62004921565b611f60820152620059cc62004946565b611f80820152620059dc6200496b565b611fa0820152620059ec62004990565b611fc0820152620059fc620049b5565b611fe0820152620049da565b5190565b6040519062005a1b82620002fb565b602882526040366020840137565b6040519062005a3882620002cf565b6004825260203681840137565b9062005a518262001c47565b62005a60604051918262000318565b828152809262005a73601f199162001c47565b0190602036910137565b90602091805182101562005a9057010190565b62005a9a6200068a565b010190565b801562005b4e576000818181805b62005b33575062005abe8162005a45565b935b62005acb5750505090565b6001811062005b23575b6000190190600a908262005b0960308484068019821162005b13575b0160f81b6001600160f81b031916861a918762005a7d565b5304908162005ac0565b62005b1d620019cd565b62005af1565b62005b2d620019cd565b62005ad5565b915062005b42600a91620019e4565b91048084929162005aad565b5060405162005b5d81620002cf565b60018152600360fc1b602082015290565b6001600160fd1b03811160011662005b87575b60031b90565b62005b91620019cd565b62005b81565b6001600160ff1b03811160011662005bb0575b60011b90565b62005bba620019cd565b62005baa565b6001600160fe1b03811160011662005bd9575b60021b90565b62005be3620019cd565b62005bd3565b60f81c600a81101562005c235760cf811162005c13575b60300160f81b6001600160f81b03191690565b62005c1d620019cd565b62005c00565b60a8811162005c40575b60570160f81b6001600160f81b03191690565b62005c4a620019cd565b62005c2d565b6004908162005c5e62005a29565b925b62005c6a57505090565b60001901808062005c966001600160f81b031962005c89838762005a7d565b511660001a918662005a7d565b5362005c60565b600491829162005cac62005a29565b935b62005cb95750505090565b60001980840193849162005ce5908319861162005cfd575b6001600160f81b0319928601018462005a7d565b511660001a62005cf6828762005a7d565b5362005cae565b62005d07620019cd565b62005cd1565b1562005d1557565b60405162461bcd60e51b815260206004820152600e60248201526d1393d517d055551213d49256915160921b6044820152606490fd5b1562005d5357565b60405162461bcd60e51b81526020600482015260116024820152701253959053125117d49150d25412515395607a1b6044820152606490fd5b9060018060a01b038062005daa856000526002602052604060002090565b54169181841692830362005f1b5762005e0962005e459282169462005dd186151562005d4b565b843314801562005ed0575b801562005e97575b62005def9062005d0d565b6001600160a01b0316600090815260036020526040902090565b80546000190190556001600160a01b0381166000908152600360205260409020805460010190556200057c856000526002602052604060002090565b62005e6e62005e5e846000526004602052604060002090565b80546001600160a01b0319169055565b7fddf252ad1be2c89b69c2b068fc378daa952ba7f163c4a11628f55a4df523b3ef6000604051a4565b5062005def62005ec66200157462005eb98a6000526004602052604060002090565b546001600160a01b031690565b3314905062005de4565b5062005f1562005f0e3362005ef78460018060a01b03166000526005602052604060002090565b9060018060a01b0316600052602052604060002090565b5460ff1690565b62005ddc565b60405162461bcd60e51b815260206004820152600a60248201526957524f4e475f46524f4d60b01b6044820152606490fd5b908160209103126200000f575162001a86816200022e565b1562005f6d57565b60405162461bcd60e51b815260206004820152601060248201526f155394d0519157d49150d2541251539560821b6044820152606490fd5b906001600160a01b03808316919062005fc083151562005d4b565b6000908282526002602052604082205416620060f2576001600160a01b038416600090815260036020526040902062001d5d94906001815401905562006015816200057c856000526002602052604060002090565b604051908385847fddf252ad1be2c89b69c2b068fc378daa952ba7f163c4a11628f55a4df523b3ef8186a43b1593841562006055575b5050505062005f65565b630a85bd0160e11b80835233600484015260006024840181905260448401959095526080606484015260848301949094529293509091602090829060a490829086905af1918215620060e2575b91620060bf575b506001600160e01b03191614388080806200604b565b620060db915060203d8111620008925762000882818362000318565b38620060a9565b620060ec62001a89565b620060a2565b60405162461bcd60e51b815260206004820152600e60248201526d1053149150511657d3525395115160921b6044820152606490fd5b9060006064926020958295604051946323b872dd60e01b86526004860152602485015260448401525af13d15601f3d11600160005114161716156200616957565b60405162461bcd60e51b81526020600482015260146024820152731514905394d1915497d19493d357d1905253115160621b6044820152606490fd5b60405190620061b482620002fb565b604082527f6768696a6b6c6d6e6f707172737475767778797a303132333435363738392b2f6040837f4142434445464748494a4b4c4d4e4f505152535455565758595a61626364656660208201520152565b805115620062f65762006218620061a5565b62006239620062336200622c84516200210d565b6003900490565b62005bc0565b916200624f62006249846200212f565b62005a45565b92835280815182019060208501935b828210620062a357505050600390510680600114620062925760021462006283575090565b603d60f81b6000199091015290565b50613d3d60f01b6001199091015290565b9091936004906003809401938451600190603f9082828260121c16880101518553828282600c1c16880101518386015382828260061c16880101516002860153168501015190820153019391906200625e565b5062001a8662001c7656fe6101e060405234620008105762001f44803803806200001e8162000815565b928339810161014090818382031262000810578251926001600160a01b03918285168503620008105760206101c0526101c05182015194838616860362000810576200006d6040840162000851565b906060840151946080850151956200008860a0870162000851565b966200009760c0880162000851565b9060e088015192610100610180526101805189015194851515860362000810576101206101a08190528a01516001600160401b039a8b8211620008105701601f99808b83011215620008105781516101c051620000f5930162000866565b9a169660009c8d97898954997f8292fce18fa69edf4db7b94ea2e58241df0ae57f97e0a6c9b29067028bf92d7681604051a360805260a05260c05260e05261018051526101a0515287526101605260018060a81b031916178555825183019060a0846101c05184019303126200080c576101c05184015183811162000808578262000188916101c05190870101620008d7565b956040850151848111620008045783620001aa916101c05190880101620008d7565b946060810151858111620008005784620001cc916101c05190840101620008f7565b936080820151868111620007fc5781620001ee916101c05190850101620008f7565b9160a0810151878111620007f857906200021092916101c051910101620008d7565b958651868111620007e457806005986200022b8a546200097f565b878111620007a4575b506101c05190878311600114620007375786926200072b575b50508160011b916000199060031b1c19161787555b815168010000000000000000908181116200071757600493845482865580831062000684575b506101c051018486526101c051862086915b8383106200066257505050508551908111620005a7576003958654828855808310620005dc575b506101c051018685526101c051852085915b838310620005ba5750505050805190868211620005a7578190620002f96002546200097f565b86811162000567575b506101c05190868311600114620004f9578592620004ed575b50508160011b9160001990871b1c1916176002555b8751948511620004da57506001946200034a86546200097f565b83811162000499575b50506101c0519184116001146200042f5795839495969362000423575b505082841b92600019911b1c19161790555b60405161145a918262000aea833960805182818161035e0152818161079001528181610aae0152610b4f015260a0518281816103050152610aec015260c051826112e4015260e051828181610a750152610b1d015261018051518281816103ee0152818161091e01528181610d3601526112b801526101a0515182611287015251818181610252015261138701526101605181818161015801526112600152f35b01519150388062000370565b9190601f198416968584526101c0518420935b888110620004805750848697981062000465575b50505050811b01905562000382565b01519060f884600019921b161c191690553880808062000456565b8183015185556101c05194870194928301920162000442565b620004c8918784526101c05184209085808901821c8301936101c0518a10620004d0575b01901c0190620009bc565b388062000353565b93508293620004bd565b634e487b7160e01b825260419052602490fd5b0151905038806200031b565b600286526101c05186209250601f198416865b8181106200054c575090846001959493921062000533575b505050811b0160025562000330565b015160001983891b60f8161c1916905538808062000524565b8284015185556101c05160019095019493840193016200050c565b6200059690600287526101c0518720888086018d1c8201926101c05187106200059d575b018c1c0190620009bc565b3862000302565b925081926200058b565b634e487b7160e01b845260418352602484fd5b600181620005cb82935185620009d5565b6101c05101920192019190620002d3565b878652826101c051872091820191015b818110620005fb5750620002c1565b808b6200060b600193546200097f565b806200061b575b505001620005ec565b8a81118414620006335750508781555b8b3862000612565b836200065192848c528c6101c0518d209301901c82019101620009bc565b876101c0518120818355556200062b565b6001816200067382935185620009d5565b6101c051019201920191906200029a565b8587526101c0518720908b8483015b8a8385018210620006a8575050505062000288565b6001928b620006b884546200097f565b9182620006cd575b50505050018c9062000693565b8383118614620006e85750835550505b8a388f8c90620006c0565b620007069382868894526101c05190209301901c82019101620009bc565b896101c051812081835555620006dd565b634e487b7160e01b85526041600452602485fd5b0151905038806200024d565b8a87526101c05187209250601f198416875b8181106200078957509084600195949392106200076f575b505050811b01875562000262565b015160001960f88460031b161c1916905538808062000761565b8284015185556101c051600190950194938401930162000749565b620007d3908b88526101c0518820898d818701901c8201926101c0518710620007da575b018d1c0190620009bc565b3862000234565b92508192620007c8565b634e487b7160e01b84526041600452602484fd5b8480fd5b8380fd5b8280fd5b5080fd5b8680fd5b8580fd5b600080fd5b6040519190601f01601f191682016001600160401b038111838210176200083b57604052565b634e487b7160e01b600052604160045260246000fd5b51906001600160a01b03821682036200081057565b9192916001600160401b0382116200083b576020906200088f601f8401601f1916830162000815565b9483865283820111620008105782906000905b83838310620008c057505011620008b7575050565b60009184010152565b9181819294500151828289010152018391620008a2565b9080601f8301121562000810578151620008f49260200162000866565b90565b81601f8201121562000810578051916001600160401b03918284116200083b578360051b60209384806200092d81850162000815565b809881520192840101938085116200081057858401925b85841062000956575050505050505090565b83518381116200081057879162000973848480948a0101620008d7565b81520193019262000944565b90600182811c92168015620009b1575b60208310146200099b57565b634e487b7160e01b600052602260045260246000fd5b91607f16916200098f565b818110620009c8575050565b60008155600101620009bc565b81519192916001600160401b0381116200083b57620009f582546200097f565b601f811162000aa7575b50602080601f831160011462000a3f57508192939460009262000a33575b50508160011b916000199060031b1c1916179055565b01519050388062000a1d565b90601f198316958460005282600020926000905b88821062000a8e5750508360019596971062000a74575b505050811b019055565b015160001960f88460031b161c1916905538808062000a6a565b8060018596829496860151815501950193019062000a53565b62000ad790836000526020600020601f840160051c8101916020851062000ade575b601f0160051c0190620009bc565b38620009ff565b909150819062000ac956fe60806040526004361015610013575b600080fd5b60003560e01c80630fad0f511461013f57806313af40351461013657806329dcb0cf1461012d5780632ba29d381461012457806334a848271461011b5780635d64e31014610112578063653721471461010957806369a0fc99146101005780638da5cb5b146100f7578063b79550be146100ee578063c19d93fb146100e5578063cf6ad876146100dc578063dba2a8af146100d3578063ddc77437146100ca5763e2739491146100c257600080fd5b61000e610d1d565b5061000e610cd1565b5061000e6109c9565b5061000e610852565b5061000e610825565b5061000e61071a565b5061000e6106f0565b5061000e610694565b5061000e6104e6565b5061000e6102e6565b5061000e6102a3565b5061000e610275565b5061000e610239565b5061000e61018e565b503461000e57600036600319011261000e5760206040517f000000000000000000000000000000000000000000000000000000000000000015158152f35b6001600160a01b0381160361000e57565b503461000e57602036600319011261000e576004356101ac8161017d565b6000546001600160a01b038082163303610205576000921680916bffffffffffffffffffffffff60a01b1617825560405190337f8292fce18fa69edf4db7b94ea2e58241df0ae57f97e0a6c9b29067028bf92d768484a3f35b60405162461bcd60e51b815260206004820152600c60248201526b15539055551213d49256915160a21b6044820152606490fd5b503461000e57600036600319011261000e5760206040517f00000000000000000000000000000000000000000000000000000000000000008152f35b503461000e57600036600319011261000e57602061029161125c565b6040516001600160a01b039091168152f35b503461000e57602036600319011261000e576004356102c18161017d565b60018060a01b03166000526007602052602060ff604060002054166040519015158152f35b503461000e57604036600319011261000e576024356001600160a01b037f0000000000000000000000000000000000000000000000000000000000000000811633036104a9576000805460ff60a01b1916600160a01b17905561034882600655565b6040516370a0823160e01b8152306004820152907f000000000000000000000000000000000000000000000000000000000000000016602082602481845afa91821561049c575b60009261046c575b50816006541160001461043357906103b7916103b161125c565b906113b3565b604051908152600435907f0c2366233f634048c0f0458060d1228fab36d00f7c0ecf6bdf2d9c458503631190602090a260006040517f00000000000000000000000000000000000000000000000000000000000000007f52867b6621c82bd178a9944b8c1f1f29aba680811948fb9f8cfbd2fbd46108ee8383a2f35b610467916104498461044361125c565b846113b3565b6000546104619085906001600160a01b03169261123b565b916113b3565b6103b7565b61048e91925060203d8111610495575b6104868183610568565b810190610f5b565b9038610397565b503d61047c565b6104a4610f4e565b61038f565b60405162461bcd60e51b81526020600482015260156024820152742737ba102ab734bb32b939b0b61020b230b83a32b960591b6044820152606490fd5b503461000e57600036600319011261000e576020600654604051908152f35b602090600319011261000e5760043590565b90600182811c92168015610547575b602083101461053157565b634e487b7160e01b600052602260045260246000fd5b91607f1691610526565b50634e487b7160e01b600052604160045260246000fd5b90601f8019910116810190811067ffffffffffffffff82111761058a57604052565b610592610551565b604052565b604051908160008254926105aa84610517565b90818452600194858116908160001461061a57506001146105d7575b50506105d492500382610568565b90565b9093915060005260209081600020936000915b8183106106025750506105d4935082010138806105c6565b855487840185015294850194869450918301916105ea565b9150506105d494506020925060ff191682840152151560051b82010138806105c6565b919091602080825283519081818401526000945b82861061067e575050806040939411610671575b601f01601f1916010190565b6000838284010152610665565b8581018201518487016040015294810194610651565b503461000e576106a336610505565b60035481101561000e576106e06106ec9160036000527fc2575a0e9e593c00f959f8c92f12db2869c3395a3b0502d05e2516446f71f85b01610597565b6040519182918261063d565b0390f35b503461000e57600036600319011261000e576000546040516001600160a01b039091168152602090f35b503461000e576000806003193601126108025780546107549061074d906001600160a01b03165b6001600160a01b031690565b33146111c6565b61076f61075f611364565b61076881610805565b15156111ff565b6040516370a0823160e01b81523060048201526107d0906001600160a01b037f000000000000000000000000000000000000000000000000000000000000000016602082602481845afa9182156107f5575b84926107d5575b5033906113b3565b604051f35b6107ee91925060203d8111610495576104868183610568565b90386107c8565b6107fd610f4e565b6107c1565b80fd5b6004111561080f57565b634e487b7160e01b600052602160045260246000fd5b503461000e57600036600319011261000e5761083f611364565b604051600482101561080f576020918152f35b503461000e576000806003193601126108025761087f610870611364565b61087981610805565b15611150565b80546001600160a01b03166108f86108f161089861125c565b926108b76001600160a01b03808316331490811561098f575b5061118c565b3360009081526007602052604090206108d790805460ff19166001179055565b6001600160a01b0316600090815260076020526040902090565b5460ff1690565b9081610968575b5061090957604051f35b6000805460ff60a01b1916600160a11b1790557f00000000000000000000000000000000000000000000000000000000000000007f0cae0523c4d6568388c55dcaeb921d927527a60000ca46adffedddf87225f0ec82604051a2604051f35b6001600160a01b0316600090815260076020526040902061098991506108f1565b386108ff565b905085163314386108b1565b9181601f8401121561000e5782359167ffffffffffffffff831161000e576020838186019501011161000e57565b503461000e57604036600319011261000e5767ffffffffffffffff60043581811161000e576109fc90369060040161099b565b9060243592831161000e57610a186106ec93369060040161099b565b929091610a35610a26611364565b610a2f81610805565b15610d59565b610a4a610a4361074161125c565b3314610d9a565b610a55600554610517565b610cc2575b6040516323b872dd60e01b81523360048201523060248201527f0000000000000000000000000000000000000000000000000000000000000000604482015260209390848160648160006001600160a01b037f0000000000000000000000000000000000000000000000000000000000000000165af18015610cb5575b610c98575b5060405163095ea7b360e01b81527f00000000000000000000000000000000000000000000000000000000000000006001600160a01b0316600482018190527f000000000000000000000000000000000000000000000000000000000000000060248301529085818060448101038160007f00000000000000000000000000000000000000000000000000000000000000006001600160a01b03165af18015610c8b575b610c5e575b5084604051809263d303e6a560e01b825281600081610baa8c898c8c600486016110b5565b03925af1948515610c51575b600095610c08575b505090610bf584957f5ef218ae96e09c55d1de0c9ef7c1270c967bcd5f4f8e045834ceee4b102be614949360405194859485611109565b0390a26040519081529081906020820190565b7f5ef218ae96e09c55d1de0c9ef7c1270c967bcd5f4f8e045834ceee4b102be6149493929550610bf59181610c4892903d10610495576104868183610568565b94919293610bbe565b610c59610f4e565b610bb6565b610c7d90863d8811610c84575b610c758183610568565b810190610f36565b5038610b85565b503d610c6b565b610c93610f4e565b610b80565b610cae90853d8711610c8457610c758183610568565b5038610adc565b610cbd610f4e565b610ad7565b610ccc8484610e4a565b610a5a565b503461000e57610ce036610505565b60045481101561000e576106e06106ec9160046000527f8a35acfbc15ff81a39ae7d344fd709f28e8600b4aa8c65c6b64bfe7fe36bd19b01610597565b503461000e57600036600319011261000e5760206040517f00000000000000000000000000000000000000000000000000000000000000008152f35b15610d6057565b60405162461bcd60e51b815260206004820152601260248201527112539050d512559157d051d491515351539560721b6044820152606490fd5b15610da157565b60405162461bcd60e51b815260206004820152601060248201526f24a72b20a624a22fa922a222a2a6a2a960811b6044820152606490fd5b601f8111610de5575050565b600090600582527f036b6384b5eca791c62761152d0c79bb0604c104a5fb6f4eb0703f3154bb3db0906020601f850160051c83019410610e40575b601f0160051c01915b828110610e3557505050565b818155600101610e29565b9092508290610e20565b919067ffffffffffffffff8111610f29575b610e7081610e6b600554610517565b610dd9565b6000601f8211600114610eaa57819293600092610e9f575b50508160011b916000199060031b1c191617600555565b013590503880610e88565b6005600052601f198216937f036b6384b5eca791c62761152d0c79bb0604c104a5fb6f4eb0703f3154bb3db091805b868110610f115750836001959610610ef7575b505050811b01600555565b0135600019600384901b60f8161c19169055388080610eec565b90926020600181928686013581550194019101610ed9565b610f31610551565b610e5c565b9081602091031261000e5751801515810361000e5790565b506040513d6000823e3d90fd5b9081602091031261000e575190565b90600091600190815491610f7d83610517565b80835292818116908115610ff05750600114610f9857505050565b80929394506000527fb10e2d527612073b26eecdfd717e6a320cf44b4afac2b0732d9fcbe2b7fa0cf6916000925b848410610fd857505060209250010190565b80546020858501810191909152909301928101610fc6565b915050602093945060ff929192191683830152151560051b010190565b6002546000929161101d82610517565b80825291600190818116908115610ff0575060011461103b57505050565b9192935060026000527f405787fa12a823e0f2b7631cc41b3ba8828b3321ca811111fa75cd3aa3bb5ace916000925b84841061107c57505060209250010190565b8054602085850181019190915290930192810161106a565b908060209392818452848401376000828201840152601f01601f1916010190565b92906110fb906105d495936305d64e3160e41b865260a060208701526110ed6110e060a08801610f6a565b878103604089015261100d565b918683036060880152611094565b926080818503910152611094565b9290611142906105d495936080865261113461112760808801610f6a565b878103602089015261100d565b918683036040880152611094565b926060818503910152611094565b1561115757565b60405162461bcd60e51b815260206004820152600d60248201526c10d0539393d517d0d05390d153609a1b6044820152606490fd5b1561119357565b60405162461bcd60e51b815260206004820152600b60248201526a1393d517d0531313d5d15160aa1b6044820152606490fd5b156111cd57565b60405162461bcd60e51b815260206004820152600a60248201526927a7262cafa7aba722a960b11b6044820152606490fd5b1561120657565b60405162461bcd60e51b815260206004820152600d60248201526c5354494c4c5f50454e44494e4760981b6044820152606490fd5b818110611246570390565b634e487b7160e01b600052601160045260246000fd5b60007f0000000000000000000000000000000000000000000000000000000000000000156112a957507f000000000000000000000000000000000000000000000000000000000000000090565b6040516331a9108f60e11b81527f000000000000000000000000000000000000000000000000000000000000000060048201526020816024817f00000000000000000000000000000000000000000000000000000000000000006001600160a01b03165afa918215611357575b809261132157505090565b9091506020823d821161134f575b8161133c60209383610568565b810103126108025750516105d48161017d565b3d915061132f565b61135f610f4e565b611316565b60ff60005460a01c16600481101561080f57600060018203611384575090565b507f00000000000000000000000000000000000000000000000000000000000000004211156105d45750600390565b600091826044926020956040519363a9059cbb60e01b8552600485015260248401525af13d15601f3d11600160005114161716156113ed57565b60405162461bcd60e51b815260206004820152600f60248201526e1514905394d1915497d19052531151608a1b6044820152606490fdfea2646970667358221220d119f16d839ad459a36da67a20747aff53eed71f778516e9bc50f686b33a427464736f6c634300080f0033df6966c971051c3d54ec59162606531493a51404a002842f56009d7e5cf4a8c7a26469706673582212201bdfa0f9965ef9f672fb98e7f422b2913fc577c66813f6b932dc8f5e80b3c2fa64736f6c634300080f0033",
    "linkReferences": {}
  },
  "methodIdentifiers": {
    "agreements(uint256)": "bd14de96",
    "approve(address,uint256)": "095ea7b3",
    "balanceOf(address)": "70a08231",
    "createAgreement(address,uint256,bool,uint256,bytes)": "dafb82dd",
    "creatorAgreements(address,uint256)": "1b9611cf",
    "getApproved(uint256)": "081812fc",
    "ids()": "e7657e15",
    "isApprovedForAll(address,address)": "e985e9c5",
    "name()": "06fdde03",
    "owner()": "8da5cb5b",
    "ownerOf(uint256)": "6352211e",
    "redeemerAgreements(address,uint256)": "ce11ece3",
    "requestCost()": "0badfa68",
    "safeTransferFrom(address,address,uint256)": "42842e0e",
    "safeTransferFrom(address,address,uint256,bytes)": "b88d4fde",
    "setApprovalForAll(address,bool)": "a22cb465",
    "setOwner(address)": "13af4035",
    "setRequestCost(uint256)": "c41578e9",
    "setUniversalAdapter(address)": "5ac17857",
    "supportsInterface(bytes4)": "01ffc9a7",
    "symbol()": "95d89b41",
    "tokenURI(uint256)": "c87b56dd",
    "transferFrom(address,address,uint256)": "23b872dd"
  },
  "id": 1
}