{
  "abi": [
    {
      "inputs": [
        {
          "internalType": "contract LinkTokenInterface",
          "name": "_link",
          "type": "address"
        },
        {
          "internalType": "contract IUniversalAdapter",
          "name": "_universalAdapter",
          "type": "address"
        },
        {
          "internalType": "address",
          "name": "_agreementRegistry",
          "type": "address"
        },
        {
          "internalType": "uint256",
          "name": "_requestCost",
          "type": "uint256"
        },
        {
          "internalType": "uint256",
          "name": "_agreementId",
          "type": "uint256"
        },
        {
          "internalType": "address",
          "name": "_creator",
          "type": "address"
        },
        {
          "internalType": "address",
          "name": "_redeemer",
          "type": "address"
        },
        {
          "internalType": "uint256",
          "name": "_deadline",
          "type": "uint256"
        },
        {
          "internalType": "bool",
          "name": "_soulbound",
          "type": "bool"
        },
        {
          "internalType": "bytes",
          "name": "data",
          "type": "bytes"
        }
      ],
      "stateMutability": "nonpayable",
      "type": "constructor"
    },
    {
      "anonymous": false,
      "inputs": [
        {
          "indexed": true,
          "internalType": "uint256",
          "name": "agreementId",
          "type": "uint256"
        }
      ],
      "name": "AgreementCancelled",
      "type": "event"
    },
    {
      "anonymous": false,
      "inputs": [
        {
          "indexed": true,
          "internalType": "uint256",
          "name": "agreementId",
          "type": "uint256"
        }
      ],
      "name": "AgreementFulfilled",
      "type": "event"
    },
    {
      "anonymous": false,
      "inputs": [
        {
          "indexed": true,
          "internalType": "address",
          "name": "user",
          "type": "address"
        },
        {
          "indexed": true,
          "internalType": "address",
          "name": "newOwner",
          "type": "address"
        }
      ],
      "name": "OwnerUpdated",
      "type": "event"
    },
    {
      "anonymous": false,
      "inputs": [
        {
          "indexed": true,
          "internalType": "bytes32",
          "name": "requestId",
          "type": "bytes32"
        },
        {
          "indexed": false,
          "internalType": "bytes32",
          "name": "result",
          "type": "bytes32"
        }
      ],
      "name": "RequestFulfilled",
      "type": "event"
    },
    {
      "anonymous": false,
      "inputs": [
        {
          "indexed": true,
          "internalType": "bytes32",
          "name": "requestId",
          "type": "bytes32"
        },
        {
          "indexed": false,
          "internalType": "string",
          "name": "js",
          "type": "string"
        },
        {
          "indexed": false,
          "internalType": "string",
          "name": "cid",
          "type": "string"
        },
        {
          "indexed": false,
          "internalType": "string",
          "name": "vars",
          "type": "string"
        },
        {
          "indexed": false,
          "internalType": "string",
          "name": "ref",
          "type": "string"
        }
      ],
      "name": "RequestSent",
      "type": "event"
    },
    {
      "inputs": [],
      "name": "agreementId",
      "outputs": [
        {
          "internalType": "uint256",
          "name": "",
          "type": "uint256"
        }
      ],
      "stateMutability": "view",
      "type": "function"
    },
    {
      "inputs": [],
      "name": "cancelAgreement",
      "outputs": [],
      "stateMutability": "nonpayable",
      "type": "function"
    },
    {
      "inputs": [
        {
          "internalType": "address",
          "name": "",
          "type": "address"
        }
      ],
      "name": "cancellations",
      "outputs": [
        {
          "internalType": "bool",
          "name": "",
          "type": "bool"
        }
      ],
      "stateMutability": "view",
      "type": "function"
    },
    {
      "inputs": [],
      "name": "deadline",
      "outputs": [
        {
          "internalType": "uint256",
          "name": "",
          "type": "uint256"
        }
      ],
      "stateMutability": "view",
      "type": "function"
    },
    {
      "inputs": [
        {
          "internalType": "bytes32",
          "name": "requestId",
          "type": "bytes32"
        },
        {
          "internalType": "bytes32",
          "name": "_result",
          "type": "bytes32"
        }
      ],
      "name": "fulfillRequest",
      "outputs": [],
      "stateMutability": "nonpayable",
      "type": "function"
    },
    {
      "inputs": [
        {
          "internalType": "string",
          "name": "_vars",
          "type": "string"
        },
        {
          "internalType": "string",
          "name": "_ref",
          "type": "string"
        }
      ],
      "name": "makeRequest",
      "outputs": [
        {
          "internalType": "bytes32",
          "name": "universalAdapterRequestId",
          "type": "bytes32"
        }
      ],
      "stateMutability": "nonpayable",
      "type": "function"
    },
    {
      "inputs": [],
      "name": "owner",
      "outputs": [
        {
          "internalType": "address",
          "name": "",
          "type": "address"
        }
      ],
      "stateMutability": "view",
      "type": "function"
    },
    {
      "inputs": [
        {
          "internalType": "uint256",
          "name": "",
          "type": "uint256"
        }
      ],
      "name": "privateVars",
      "outputs": [
        {
          "internalType": "string",
          "name": "",
          "type": "string"
        }
      ],
      "stateMutability": "view",
      "type": "function"
    },
    {
      "inputs": [
        {
          "internalType": "uint256",
          "name": "",
          "type": "uint256"
        }
      ],
      "name": "publicVars",
      "outputs": [
        {
          "internalType": "string",
          "name": "",
          "type": "string"
        }
      ],
      "stateMutability": "view",
      "type": "function"
    },
    {
      "inputs": [],
      "name": "recoverFunds",
      "outputs": [],
      "stateMutability": "nonpayable",
      "type": "function"
    },
    {
      "inputs": [],
      "name": "redeemer",
      "outputs": [
        {
          "internalType": "address",
          "name": "_redeemer",
          "type": "address"
        }
      ],
      "stateMutability": "view",
      "type": "function"
    },
    {
      "inputs": [],
      "name": "result",
      "outputs": [
        {
          "internalType": "uint256",
          "name": "",
          "type": "uint256"
        }
      ],
      "stateMutability": "view",
      "type": "function"
    },
    {
      "inputs": [
        {
          "internalType": "address",
          "name": "newOwner",
          "type": "address"
        }
      ],
      "name": "setOwner",
      "outputs": [],
      "stateMutability": "nonpayable",
      "type": "function"
    },
    {
      "inputs": [],
      "name": "soulbound",
      "outputs": [
        {
          "internalType": "bool",
          "name": "",
          "type": "bool"
        }
      ],
      "stateMutability": "view",
      "type": "function"
    },
    {
      "inputs": [],
      "name": "state",
      "outputs": [
        {
          "internalType": "enum Agreement.States",
          "name": "_state",
          "type": "uint8"
        }
      ],
      "stateMutability": "view",
      "type": "function"
    }
  ],
  "bytecode": {
    "object": "0x6101e060405234620008105762001f44803803806200001e8162000815565b928339810161014090818382031262000810578251926001600160a01b03918285168503620008105760206101c0526101c05182015194838616860362000810576200006d6040840162000851565b906060840151946080850151956200008860a0870162000851565b966200009760c0880162000851565b9060e088015192610100610180526101805189015194851515860362000810576101206101a08190528a01516001600160401b039a8b8211620008105701601f99808b83011215620008105781516101c051620000f5930162000866565b9a169660009c8d97898954997f8292fce18fa69edf4db7b94ea2e58241df0ae57f97e0a6c9b29067028bf92d7681604051a360805260a05260c05260e05261018051526101a0515287526101605260018060a81b031916178555825183019060a0846101c05184019303126200080c576101c05184015183811162000808578262000188916101c05190870101620008d7565b956040850151848111620008045783620001aa916101c05190880101620008d7565b946060810151858111620008005784620001cc916101c05190840101620008f7565b936080820151868111620007fc5781620001ee916101c05190850101620008f7565b9160a0810151878111620007f857906200021092916101c051910101620008d7565b958651868111620007e457806005986200022b8a546200097f565b878111620007a4575b506101c05190878311600114620007375786926200072b575b50508160011b916000199060031b1c19161787555b815168010000000000000000908181116200071757600493845482865580831062000684575b506101c051018486526101c051862086915b8383106200066257505050508551908111620005a7576003958654828855808310620005dc575b506101c051018685526101c051852085915b838310620005ba5750505050805190868211620005a7578190620002f96002546200097f565b86811162000567575b506101c05190868311600114620004f9578592620004ed575b50508160011b9160001990871b1c1916176002555b8751948511620004da57506001946200034a86546200097f565b83811162000499575b50506101c0519184116001146200042f5795839495969362000423575b505082841b92600019911b1c19161790555b60405161145a918262000aea833960805182818161035e0152818161079001528181610aae0152610b4f015260a0518281816103050152610aec015260c051826112e4015260e051828181610a750152610b1d015261018051518281816103ee0152818161091e01528181610d3601526112b801526101a0515182611287015251818181610252015261138701526101605181818161015801526112600152f35b01519150388062000370565b9190601f198416968584526101c0518420935b888110620004805750848697981062000465575b50505050811b01905562000382565b01519060f884600019921b161c191690553880808062000456565b8183015185556101c05194870194928301920162000442565b620004c8918784526101c05184209085808901821c8301936101c0518a10620004d0575b01901c0190620009bc565b388062000353565b93508293620004bd565b634e487b7160e01b825260419052602490fd5b0151905038806200031b565b600286526101c05186209250601f198416865b8181106200054c575090846001959493921062000533575b505050811b0160025562000330565b015160001983891b60f8161c1916905538808062000524565b8284015185556101c05160019095019493840193016200050c565b6200059690600287526101c0518720888086018d1c8201926101c05187106200059d575b018c1c0190620009bc565b3862000302565b925081926200058b565b634e487b7160e01b845260418352602484fd5b600181620005cb82935185620009d5565b6101c05101920192019190620002d3565b878652826101c051872091820191015b818110620005fb5750620002c1565b808b6200060b600193546200097f565b806200061b575b505001620005ec565b8a81118414620006335750508781555b8b3862000612565b836200065192848c528c6101c0518d209301901c82019101620009bc565b876101c0518120818355556200062b565b6001816200067382935185620009d5565b6101c051019201920191906200029a565b8587526101c0518720908b8483015b8a8385018210620006a8575050505062000288565b6001928b620006b884546200097f565b9182620006cd575b50505050018c9062000693565b8383118614620006e85750835550505b8a388f8c90620006c0565b620007069382868894526101c05190209301901c82019101620009bc565b896101c051812081835555620006dd565b634e487b7160e01b85526041600452602485fd5b0151905038806200024d565b8a87526101c05187209250601f198416875b8181106200078957509084600195949392106200076f575b505050811b01875562000262565b015160001960f88460031b161c1916905538808062000761565b8284015185556101c051600190950194938401930162000749565b620007d3908b88526101c0518820898d818701901c8201926101c0518710620007da575b018d1c0190620009bc565b3862000234565b92508192620007c8565b634e487b7160e01b84526041600452602484fd5b8480fd5b8380fd5b8280fd5b5080fd5b8680fd5b8580fd5b600080fd5b6040519190601f01601f191682016001600160401b038111838210176200083b57604052565b634e487b7160e01b600052604160045260246000fd5b51906001600160a01b03821682036200081057565b9192916001600160401b0382116200083b576020906200088f601f8401601f1916830162000815565b9483865283820111620008105782906000905b83838310620008c057505011620008b7575050565b60009184010152565b9181819294500151828289010152018391620008a2565b9080601f8301121562000810578151620008f49260200162000866565b90565b81601f8201121562000810578051916001600160401b03918284116200083b578360051b60209384806200092d81850162000815565b809881520192840101938085116200081057858401925b85841062000956575050505050505090565b83518381116200081057879162000973848480948a0101620008d7565b81520193019262000944565b90600182811c92168015620009b1575b60208310146200099b57565b634e487b7160e01b600052602260045260246000fd5b91607f16916200098f565b818110620009c8575050565b60008155600101620009bc565b81519192916001600160401b0381116200083b57620009f582546200097f565b601f811162000aa7575b50602080601f831160011462000a3f57508192939460009262000a33575b50508160011b916000199060031b1c1916179055565b01519050388062000a1d565b90601f198316958460005282600020926000905b88821062000a8e5750508360019596971062000a74575b505050811b019055565b015160001960f88460031b161c1916905538808062000a6a565b8060018596829496860151815501950193019062000a53565b62000ad790836000526020600020601f840160051c8101916020851062000ade575b601f0160051c0190620009bc565b38620009ff565b909150819062000ac956fe60806040526004361015610013575b600080fd5b60003560e01c80630fad0f511461013f57806313af40351461013657806329dcb0cf1461012d5780632ba29d381461012457806334a848271461011b5780635d64e31014610112578063653721471461010957806369a0fc99146101005780638da5cb5b146100f7578063b79550be146100ee578063c19d93fb146100e5578063cf6ad876146100dc578063dba2a8af146100d3578063ddc77437146100ca5763e2739491146100c257600080fd5b61000e610d1d565b5061000e610cd1565b5061000e6109c9565b5061000e610852565b5061000e610825565b5061000e61071a565b5061000e6106f0565b5061000e610694565b5061000e6104e6565b5061000e6102e6565b5061000e6102a3565b5061000e610275565b5061000e610239565b5061000e61018e565b503461000e57600036600319011261000e5760206040517f000000000000000000000000000000000000000000000000000000000000000015158152f35b6001600160a01b0381160361000e57565b503461000e57602036600319011261000e576004356101ac8161017d565b6000546001600160a01b038082163303610205576000921680916bffffffffffffffffffffffff60a01b1617825560405190337f8292fce18fa69edf4db7b94ea2e58241df0ae57f97e0a6c9b29067028bf92d768484a3f35b60405162461bcd60e51b815260206004820152600c60248201526b15539055551213d49256915160a21b6044820152606490fd5b503461000e57600036600319011261000e5760206040517f00000000000000000000000000000000000000000000000000000000000000008152f35b503461000e57600036600319011261000e57602061029161125c565b6040516001600160a01b039091168152f35b503461000e57602036600319011261000e576004356102c18161017d565b60018060a01b03166000526007602052602060ff604060002054166040519015158152f35b503461000e57604036600319011261000e576024356001600160a01b037f0000000000000000000000000000000000000000000000000000000000000000811633036104a9576000805460ff60a01b1916600160a01b17905561034882600655565b6040516370a0823160e01b8152306004820152907f000000000000000000000000000000000000000000000000000000000000000016602082602481845afa91821561049c575b60009261046c575b50816006541160001461043357906103b7916103b161125c565b906113b3565b604051908152600435907f0c2366233f634048c0f0458060d1228fab36d00f7c0ecf6bdf2d9c458503631190602090a260006040517f00000000000000000000000000000000000000000000000000000000000000007f52867b6621c82bd178a9944b8c1f1f29aba680811948fb9f8cfbd2fbd46108ee8383a2f35b610467916104498461044361125c565b846113b3565b6000546104619085906001600160a01b03169261123b565b916113b3565b6103b7565b61048e91925060203d8111610495575b6104868183610568565b810190610f5b565b9038610397565b503d61047c565b6104a4610f4e565b61038f565b60405162461bcd60e51b81526020600482015260156024820152742737ba102ab734bb32b939b0b61020b230b83a32b960591b6044820152606490fd5b503461000e57600036600319011261000e576020600654604051908152f35b602090600319011261000e5760043590565b90600182811c92168015610547575b602083101461053157565b634e487b7160e01b600052602260045260246000fd5b91607f1691610526565b50634e487b7160e01b600052604160045260246000fd5b90601f8019910116810190811067ffffffffffffffff82111761058a57604052565b610592610551565b604052565b604051908160008254926105aa84610517565b90818452600194858116908160001461061a57506001146105d7575b50506105d492500382610568565b90565b9093915060005260209081600020936000915b8183106106025750506105d4935082010138806105c6565b855487840185015294850194869450918301916105ea565b9150506105d494506020925060ff191682840152151560051b82010138806105c6565b919091602080825283519081818401526000945b82861061067e575050806040939411610671575b601f01601f1916010190565b6000838284010152610665565b8581018201518487016040015294810194610651565b503461000e576106a336610505565b60035481101561000e576106e06106ec9160036000527fc2575a0e9e593c00f959f8c92f12db2869c3395a3b0502d05e2516446f71f85b01610597565b6040519182918261063d565b0390f35b503461000e57600036600319011261000e576000546040516001600160a01b039091168152602090f35b503461000e576000806003193601126108025780546107549061074d906001600160a01b03165b6001600160a01b031690565b33146111c6565b61076f61075f611364565b61076881610805565b15156111ff565b6040516370a0823160e01b81523060048201526107d0906001600160a01b037f000000000000000000000000000000000000000000000000000000000000000016602082602481845afa9182156107f5575b84926107d5575b5033906113b3565b604051f35b6107ee91925060203d8111610495576104868183610568565b90386107c8565b6107fd610f4e565b6107c1565b80fd5b6004111561080f57565b634e487b7160e01b600052602160045260246000fd5b503461000e57600036600319011261000e5761083f611364565b604051600482101561080f576020918152f35b503461000e576000806003193601126108025761087f610870611364565b61087981610805565b15611150565b80546001600160a01b03166108f86108f161089861125c565b926108b76001600160a01b03808316331490811561098f575b5061118c565b3360009081526007602052604090206108d790805460ff19166001179055565b6001600160a01b0316600090815260076020526040902090565b5460ff1690565b9081610968575b5061090957604051f35b6000805460ff60a01b1916600160a11b1790557f00000000000000000000000000000000000000000000000000000000000000007f0cae0523c4d6568388c55dcaeb921d927527a60000ca46adffedddf87225f0ec82604051a2604051f35b6001600160a01b0316600090815260076020526040902061098991506108f1565b386108ff565b905085163314386108b1565b9181601f8401121561000e5782359167ffffffffffffffff831161000e576020838186019501011161000e57565b503461000e57604036600319011261000e5767ffffffffffffffff60043581811161000e576109fc90369060040161099b565b9060243592831161000e57610a186106ec93369060040161099b565b929091610a35610a26611364565b610a2f81610805565b15610d59565b610a4a610a4361074161125c565b3314610d9a565b610a55600554610517565b610cc2575b6040516323b872dd60e01b81523360048201523060248201527f0000000000000000000000000000000000000000000000000000000000000000604482015260209390848160648160006001600160a01b037f0000000000000000000000000000000000000000000000000000000000000000165af18015610cb5575b610c98575b5060405163095ea7b360e01b81527f00000000000000000000000000000000000000000000000000000000000000006001600160a01b0316600482018190527f000000000000000000000000000000000000000000000000000000000000000060248301529085818060448101038160007f00000000000000000000000000000000000000000000000000000000000000006001600160a01b03165af18015610c8b575b610c5e575b5084604051809263d303e6a560e01b825281600081610baa8c898c8c600486016110b5565b03925af1948515610c51575b600095610c08575b505090610bf584957f5ef218ae96e09c55d1de0c9ef7c1270c967bcd5f4f8e045834ceee4b102be614949360405194859485611109565b0390a26040519081529081906020820190565b7f5ef218ae96e09c55d1de0c9ef7c1270c967bcd5f4f8e045834ceee4b102be6149493929550610bf59181610c4892903d10610495576104868183610568565b94919293610bbe565b610c59610f4e565b610bb6565b610c7d90863d8811610c84575b610c758183610568565b810190610f36565b5038610b85565b503d610c6b565b610c93610f4e565b610b80565b610cae90853d8711610c8457610c758183610568565b5038610adc565b610cbd610f4e565b610ad7565b610ccc8484610e4a565b610a5a565b503461000e57610ce036610505565b60045481101561000e576106e06106ec9160046000527f8a35acfbc15ff81a39ae7d344fd709f28e8600b4aa8c65c6b64bfe7fe36bd19b01610597565b503461000e57600036600319011261000e5760206040517f00000000000000000000000000000000000000000000000000000000000000008152f35b15610d6057565b60405162461bcd60e51b815260206004820152601260248201527112539050d512559157d051d491515351539560721b6044820152606490fd5b15610da157565b60405162461bcd60e51b815260206004820152601060248201526f24a72b20a624a22fa922a222a2a6a2a960811b6044820152606490fd5b601f8111610de5575050565b600090600582527f036b6384b5eca791c62761152d0c79bb0604c104a5fb6f4eb0703f3154bb3db0906020601f850160051c83019410610e40575b601f0160051c01915b828110610e3557505050565b818155600101610e29565b9092508290610e20565b919067ffffffffffffffff8111610f29575b610e7081610e6b600554610517565b610dd9565b6000601f8211600114610eaa57819293600092610e9f575b50508160011b916000199060031b1c191617600555565b013590503880610e88565b6005600052601f198216937f036b6384b5eca791c62761152d0c79bb0604c104a5fb6f4eb0703f3154bb3db091805b868110610f115750836001959610610ef7575b505050811b01600555565b0135600019600384901b60f8161c19169055388080610eec565b90926020600181928686013581550194019101610ed9565b610f31610551565b610e5c565b9081602091031261000e5751801515810361000e5790565b506040513d6000823e3d90fd5b9081602091031261000e575190565b90600091600190815491610f7d83610517565b80835292818116908115610ff05750600114610f9857505050565b80929394506000527fb10e2d527612073b26eecdfd717e6a320cf44b4afac2b0732d9fcbe2b7fa0cf6916000925b848410610fd857505060209250010190565b80546020858501810191909152909301928101610fc6565b915050602093945060ff929192191683830152151560051b010190565b6002546000929161101d82610517565b80825291600190818116908115610ff0575060011461103b57505050565b9192935060026000527f405787fa12a823e0f2b7631cc41b3ba8828b3321ca811111fa75cd3aa3bb5ace916000925b84841061107c57505060209250010190565b8054602085850181019190915290930192810161106a565b908060209392818452848401376000828201840152601f01601f1916010190565b92906110fb906105d495936305d64e3160e41b865260a060208701526110ed6110e060a08801610f6a565b878103604089015261100d565b918683036060880152611094565b926080818503910152611094565b9290611142906105d495936080865261113461112760808801610f6a565b878103602089015261100d565b918683036040880152611094565b926060818503910152611094565b1561115757565b60405162461bcd60e51b815260206004820152600d60248201526c10d0539393d517d0d05390d153609a1b6044820152606490fd5b1561119357565b60405162461bcd60e51b815260206004820152600b60248201526a1393d517d0531313d5d15160aa1b6044820152606490fd5b156111cd57565b60405162461bcd60e51b815260206004820152600a60248201526927a7262cafa7aba722a960b11b6044820152606490fd5b1561120657565b60405162461bcd60e51b815260206004820152600d60248201526c5354494c4c5f50454e44494e4760981b6044820152606490fd5b818110611246570390565b634e487b7160e01b600052601160045260246000fd5b60007f0000000000000000000000000000000000000000000000000000000000000000156112a957507f000000000000000000000000000000000000000000000000000000000000000090565b6040516331a9108f60e11b81527f000000000000000000000000000000000000000000000000000000000000000060048201526020816024817f00000000000000000000000000000000000000000000000000000000000000006001600160a01b03165afa918215611357575b809261132157505090565b9091506020823d821161134f575b8161133c60209383610568565b810103126108025750516105d48161017d565b3d915061132f565b61135f610f4e565b611316565b60ff60005460a01c16600481101561080f57600060018203611384575090565b507f00000000000000000000000000000000000000000000000000000000000000004211156105d45750600390565b600091826044926020956040519363a9059cbb60e01b8552600485015260248401525af13d15601f3d11600160005114161716156113ed57565b60405162461bcd60e51b815260206004820152600f60248201526e1514905394d1915497d19052531151608a1b6044820152606490fdfea2646970667358221220d119f16d839ad459a36da67a20747aff53eed71f778516e9bc50f686b33a427464736f6c634300080f0033",
    "linkReferences": {}
  },
  "methodIdentifiers": {
    "agreementId()": "e2739491",
    "cancelAgreement()": "cf6ad876",
    "cancellations(address)": "34a84827",
    "deadline()": "29dcb0cf",
    "fulfillRequest(bytes32,bytes32)": "5d64e310",
    "makeRequest(string,string)": "dba2a8af",
    "owner()": "8da5cb5b",
    "privateVars(uint256)": "ddc77437",
    "publicVars(uint256)": "69a0fc99",
    "recoverFunds()": "b79550be",
    "redeemer()": "2ba29d38",
    "result()": "65372147",
    "setOwner(address)": "13af4035",
    "soulbound()": "0fad0f51",
    "state()": "c19d93fb"
  },
  "id": 0
}