{
  "_format": "hh-sol-artifact-1",
  "contractName": "UniversalAdapter",
  "sourceName": "contracts/UniversalAdapter.sol",
  "abi": [
    {
      "inputs": [
        {
          "internalType": "address",
          "name": "_link",
          "type": "address"
        },
        {
          "internalType": "address[]",
          "name": "nodes",
          "type": "address[]"
        },
        {
          "internalType": "address[]",
          "name": "paymentCollectors",
          "type": "address[]"
        }
      ],
      "stateMutability": "nonpayable",
      "type": "constructor"
    },
    {
      "anonymous": false,
      "inputs": [
        {
          "indexed": true,
          "internalType": "bytes32",
          "name": "id",
          "type": "bytes32"
        }
      ],
      "name": "ChainlinkCancelled",
      "type": "event"
    },
    {
      "anonymous": false,
      "inputs": [
        {
          "indexed": true,
          "internalType": "bytes32",
          "name": "id",
          "type": "bytes32"
        }
      ],
      "name": "ChainlinkFulfilled",
      "type": "event"
    },
    {
      "anonymous": false,
      "inputs": [
        {
          "indexed": true,
          "internalType": "bytes32",
          "name": "id",
          "type": "bytes32"
        }
      ],
      "name": "ChainlinkRequested",
      "type": "event"
    },
    {
      "anonymous": false,
      "inputs": [
        {
          "indexed": true,
          "internalType": "bytes32",
          "name": "specId",
          "type": "bytes32"
        },
        {
          "indexed": false,
          "internalType": "address",
          "name": "requester",
          "type": "address"
        },
        {
          "indexed": false,
          "internalType": "bytes32",
          "name": "requestId",
          "type": "bytes32"
        },
        {
          "indexed": false,
          "internalType": "uint256",
          "name": "payment",
          "type": "uint256"
        },
        {
          "indexed": false,
          "internalType": "address",
          "name": "callbackAddr",
          "type": "address"
        },
        {
          "indexed": false,
          "internalType": "bytes4",
          "name": "callbackFunctionId",
          "type": "bytes4"
        },
        {
          "indexed": false,
          "internalType": "uint256",
          "name": "cancelExpiration",
          "type": "uint256"
        },
        {
          "indexed": false,
          "internalType": "uint256",
          "name": "dataVersion",
          "type": "uint256"
        },
        {
          "indexed": false,
          "internalType": "bytes",
          "name": "data",
          "type": "bytes"
        }
      ],
      "name": "OracleRequest",
      "type": "event"
    },
    {
      "inputs": [],
      "name": "REQUEST_COST_IN_JULES",
      "outputs": [
        {
          "internalType": "uint256",
          "name": "",
          "type": "uint256"
        }
      ],
      "stateMutability": "view",
      "type": "function"
    },
    {
      "inputs": [
        {
          "internalType": "uint8",
          "name": "",
          "type": "uint8"
        }
      ],
      "name": "balance",
      "outputs": [
        {
          "internalType": "uint256",
          "name": "",
          "type": "uint256"
        }
      ],
      "stateMutability": "view",
      "type": "function"
    },
    {
      "inputs": [
        {
          "internalType": "bytes4",
          "name": "callbackFunctionId",
          "type": "bytes4"
        },
        {
          "internalType": "string",
          "name": "js",
          "type": "string"
        },
        {
          "internalType": "string",
          "name": "cid",
          "type": "string"
        },
        {
          "internalType": "string",
          "name": "vars",
          "type": "string"
        },
        {
          "internalType": "string",
          "name": "ref",
          "type": "string"
        }
      ],
      "name": "makeRequest",
      "outputs": [
        {
          "internalType": "bytes32",
          "name": "_requestId",
          "type": "bytes32"
        }
      ],
      "stateMutability": "nonpayable",
      "type": "function"
    },
    {
      "inputs": [
        {
          "internalType": "bytes32",
          "name": "requestId",
          "type": "bytes32"
        },
        {
          "internalType": "bytes8",
          "name": "hashedAnswer",
          "type": "bytes8"
        }
      ],
      "name": "respondWithHashedAnswer",
      "outputs": [],
      "stateMutability": "nonpayable",
      "type": "function"
    },
    {
      "inputs": [
        {
          "internalType": "bytes32",
          "name": "requestId",
          "type": "bytes32"
        },
        {
          "internalType": "bytes32",
          "name": "salt",
          "type": "bytes32"
        },
        {
          "internalType": "bytes32",
          "name": "answer",
          "type": "bytes32"
        }
      ],
      "name": "respondWithUnhashedAnswer",
      "outputs": [
        {
          "internalType": "bool",
          "name": "isSuccessful",
          "type": "bool"
        }
      ],
      "stateMutability": "nonpayable",
      "type": "function"
    },
    {
      "inputs": [],
      "name": "withdrawEarnings",
      "outputs": [],
      "stateMutability": "nonpayable",
      "type": "function"
    }
  ],
  "bytecode": "0x60a060405260016004553480156200001657600080fd5b506040516200210c3803806200210c833981016040819052620000399162000321565b60ff8251106200007b5760405162461bcd60e51b8152602060048201526008602482015267746f6f206d616e7960c01b60448201526064015b60405180910390fd5b601082511480156200008e575060108151145b620000d15760405162461bcd60e51b81526020600482015260126024820152710eee4dedcce40c2e4e4c2f240d8cadccee8d60731b604482015260640162000072565b60005b82518160ff16101562000211576000620000f0826001620003b4565b90508060086000868560ff16815181106200010f576200010f620003dc565b6020908102919091018101516001600160a01b03168252810191909152604001600020805460ff191660ff928316179055845185918416908110620001585762000158620003dc565b6020026020010151600960008360ff1660ff16815260200190815260200160002060006101000a8154816001600160a01b0302191690836001600160a01b0316021790555080600b6000858560ff1681518110620001ba57620001ba620003dc565b60200260200101516001600160a01b03166001600160a01b0316815260200190815260200160002060006101000a81548160ff021916908360ff1602179055505080806200020890620003f2565b915050620000d4565b50600280546001600160a01b0319166001600160a01b03851617905550506001600160a01b031660805262000414565b80516001600160a01b03811681146200025957600080fd5b919050565b634e487b7160e01b600052604160045260246000fd5b600082601f8301126200028657600080fd5b815160206001600160401b0380831115620002a557620002a56200025e565b8260051b604051601f19603f83011681018181108482111715620002cd57620002cd6200025e565b604052938452858101830193838101925087851115620002ec57600080fd5b83870191505b848210156200031657620003068262000241565b83529183019190830190620002f2565b979650505050505050565b6000806000606084860312156200033757600080fd5b620003428462000241565b60208501519093506001600160401b03808211156200036057600080fd5b6200036e8783880162000274565b935060408601519150808211156200038557600080fd5b50620003948682870162000274565b9150509250925092565b634e487b7160e01b600052601160045260246000fd5b600060ff821660ff84168060ff03821115620003d457620003d46200039e565b019392505050565b634e487b7160e01b600052603260045260246000fd5b600060ff821660ff81036200040b576200040b6200039e565b60010192915050565b608051611cd562000437600039600081816107c301526108620152611cd56000f3fe608060405234801561001057600080fd5b50600436106100625760003560e01c80631580c36a146100675780637f2f1a961461007c578063b73c6ce9146100a4578063c810e677146100ac578063d303e6a5146100c2578063ef47ff4b146100d5575b600080fd5b61007a61007536600461166c565b6100f5565b005b61008f61008a3660046116a9565b610370565b60405190151581526020015b60405180910390f35b61007a610786565b6100b4606481565b60405190815260200161009b565b6100b46100d036600461171d565b61083b565b6100b46100e3366004611802565b600a6020526000908152604090205481565b60008281526007602052604090205464ffffffffff161580159061012b575060008281526007602052604090206005015460ff16155b6101505760405162461bcd60e51b815260040161014790611825565b60405180910390fd5b6000828152600760205260409020544264ffffffffff90911610156101b357600082815260076020526040812080546001600160f01b03191681559061019960018301826115e2565b60058201805460ff19169055600060068301555b50505050565b3360009081526008602052604081205460ff16908190036102055760405162461bcd60e51b815260206004820152600c60248201526b1d5b985d5d1a1bdc9a5e995960a21b6044820152606401610147565b6000838152600760205260409020600190810190610223908361185d565b60ff166010811061023657610236611880565b60048104919091015460039091166008026101000a900460c01b6001600160c01b0319161561029b5760405162461bcd60e51b8152602060048201526011602482015270185b1c9958591e481c995cdc1bdb991959607a1b6044820152606401610147565b600083815260076020526040902082906001908101906102bb908461185d565b60ff16601081106102ce576102ce611880565b600481049190910180546001600160401b0360039093166008026101000a928302191660c09390931c9190910291909117905560008381526007602052604090208054600160e81b900460ff1690601d61032783611896565b82546101009290920a60ff818102199093169183160217909155600085815260076020526040902054600160e81b90041660091901905061036b5761036b83610b0d565b505050565b60008381526007602052604081205464ffffffffff1681036103a45760405162461bcd60e51b815260040161014790611825565b6000848152600760205260409020544264ffffffffff909116101561040b57600084815260076020526040812080546001600160f01b0319168155906103ed60018301826115e2565b60058201805460ff191690556000600683015550506000905061077f565b3360009081526008602090815260408083205487845260079092529091205460ff91821691600a600160e81b9092041610156104745760405162461bcd60e51b81526020600482015260086024820152673a37b79039b7b7b760c11b6044820152606401610147565b600085815260076020526040902060c090600190810190610495908461185d565b60ff16601081106104a8576104a8611880565b60048104919091015460039091166008026101000a900460c01b6001600160c01b031916901c6104d885856118b5565b6040516020016104ea91815260200190565b604051602081830303815290604052805190602001206001600160401b0360001b161461054e5760405162461bcd60e51b81526020600482015260126024820152710d0c2e6d040c8decae6dc4ee840dac2e8c6d60731b6044820152606401610147565b600085815260076020526040902060019081019061056c908361185d565b60ff166010811061057f5761057f611880565b600491828204019190066008026101000a8154906001600160401b0302191690556105aa8584610bb1565b600a6105b8600260646118e3565b6105c291906118e3565b3360009081526008602090815260408083205460ff168352600a909152812080549091906105f19084906118b5565b909155505060008581526007602052604090206005015460ff166009190161077957600061061e86610e25565b600087815260076020526040812080546001600160f01b0319811682559293506001600160a01b03600160281b84041692600160c81b900460e01b9161066760018301826115e2565b60058201805460ff19169055600060068301555050620186a05a10156106c05760405162461bcd60e51b815260206004820152600e60248201526d4e6f7420656e6f7567682067617360901b6044820152606401610147565b6000826001600160a01b0316828a866040516024016106e9929190918252602082015260400190565b60408051601f198184030181529181526020820180516001600160e01b03166001600160e01b03199094169390931790925290516107279190611923565b6000604051808303816000865af19150503d8060008114610764576040519150601f19603f3d011682016040523d82523d6000602084013e610769565b606091505b5090965061077f95505050505050565b60019150505b9392505050565b336000818152600b602090815260408083205460ff168352600a9091529081902054905163a9059cbb60e01b8152600481019290925260248201527f00000000000000000000000000000000000000000000000000000000000000006001600160a01b03169063a9059cbb906044016020604051808303816000875af1158015610814573d6000803e3d6000fd5b505050506040513d601f19601f82011682018060405250810190610838919061193f565b50565b6040516323b872dd60e01b81523360048201523060248201526064604482018190526000917f00000000000000000000000000000000000000000000000000000000000000006001600160a01b0316916323b872dd91016020604051808303816000875af11580156108b1573d6000803e3d6000fd5b505050506040513d601f19601f820116820180604052508101906108d5919061193f565b506108de6115fe565b6108fe600080516020611c4083398151915230630ac061b560e11b6110c5565b905061095b6040518060400160405280600381526020016272657160e81b81525033604051602001610943919060609190911b6001600160601b031916815260140190565b60408051601f198184030181529190528391906110ea565b88156109c4576109bf604051806040016040528060028152602001616a7360f01b8152508b8b8080601f0160208091040260200160405190810160405280939291908181526020018383808284376000920191909152508694939250506111089050565b610a29565b8615610a2957610a296040518060400160405280600381526020016218da5960ea1b81525089898080601f0160208091040260200160405190810160405280939291908181526020018383808284376000920191909152508694939250506111089050565b8415610a8f57610a8f604051806040016040528060048152602001637661727360e01b81525087878080601f0160208091040260200160405190810160405280939291908181526020018383808284376000920191909152508694939250506111089050565b8215610af457610af4604051806040016040528060038152602001623932b360e91b81525085858080601f0160208091040260200160405190810160405280939291908181526020018383808284376000920191909152508694939250506111089050565b610afe8b82611126565b9b9a5050505050505050505050565b610b156115fe565b610b35600080516020611c8083398151915230633f978d4b60e11b6110c5565b600083815260076020526040808220546080840151519151939450600080516020611c8083398151915293600080516020611c6083398151915293610ba5936001600160a01b03600160281b8504169389938592600160c81b830460e01b9264ffffffffff16916001919061198d565b60405180910390a25050565b33600090815260086020908152604080832054858452600780845282852060ff928316808752818301865293862087905587865293526005909201549092911681610bfd6002836119ec565b60ff1690505b828214610caa57600086815260076020526040812060060182600a8110610c2c57610c2c611880565b6020808204929092015460008a815260078085526040808320601f9095166101000a90930460ff1680835293019093529091205490915080871015610c7357829350610c81565b610c7e8360016118b5565b94505b6002610c8d8686611a0e565b610c9791906118e3565b610ca190866118b5565b92505050610c03565b60015b600087815260076020526040902060050154610ccd90859060ff16611a0e565b8111610d985760008781526007602052604090206005810154600690910190610cfa90839060ff16611a0e565b600a8110610d0a57610d0a611880565b60208082049092015460008a815260079093526040909220600581015460ff601f9093166101000a909304821692600690910191610d4a91859116611a0e565b610d559060016118b5565b600a8110610d6557610d65611880565b602091828204019190066101000a81548160ff021916908360ff1602179055508080610d9090611a25565b915050610cad565b506000868152600760205260409020849060060184600a8110610dbd57610dbd611880565b6020808204909201805460ff948516601f9093166101000a9283029285021916919091179055600088815260079091526040812060050180549092169190610e0483611896565b91906101000a81548160ff021916908360ff16021790555050505050505050565b600080610e346002600a6118e3565b60008481526007602052604081209192509060060182600a8110610e5a57610e5a611880565b60208082049290920154600087815260078085526040808320601f9095166101000a90930460ff16808352930190935290912054909150610e99611633565b60ff8316815260016000610ead8287611a3e565b90506000610ebc8760016118b5565b90505b600082121580610ecf5750600a81105b156110395760008212610f8457600089815260076020526040812060060183600a8110610efe57610efe611880565b6020808204929092015460008d815260078085526040808320601f9095166101000a90930460ff16808352930190935290912054909150869003610f7c57808585600a8110610f4f57610f4f611880565b60ff909216602092909202015283610f6681611a25565b9450508280610f7490611a7d565b935050610f82565b60001992505b505b600a81101561103457600089815260076020526040812060060182600a8110610faf57610faf611880565b6020808204929092015460008d815260078085526040808320601f9095166101000a90930460ff1680835293019093529091205490915086900361102d57808585600a811061100057611000611880565b60ff90921660209290920201528361101781611a25565b945050818061102590611a25565b925050611032565b600a91505b505b610ebf565b600083611048600260646118e3565b61105291906118e3565b905060005b848110156110b65781600a60008884600a811061107657611076611880565b602002015160ff1660ff168152602001908152602001600020600082825461109e91906118b5565b909155508190506110ae81611a25565b915050611057565b50949998505050505050505050565b6110cd6115fe565b6110d56115fe565b6110e181868686611202565b95945050505050565b60808301516110f9908361123f565b608083015161036b9082611256565b6080830151611117908361123f565b608083015161036b908261123f565b600680546000918261113783611a25565b909155505060065460008181526007602052604081208054600160281b600160e81b03191633600160281b0263ffffffff60c81b191617600160c81b60e088901c0217905561118842612710611a9a565b600083815260076020526040808220805464ffffffffff191664ffffffffff85169081179091556080880151519151939450600080516020611c4083398151915293600080516020611c60833981519152936111f0933393899385928e929160019190611ac3565b60405180910390a25090505b92915050565b61120a6115fe565b61121a8560800151610100611263565b50509183526001600160a01b031660208301526001600160e01b031916604082015290565b61124c82600383516112bb565b61036b82826113c2565b61124c82600283516112bb565b61126b611652565b611276602083611b1c565b1561129e57611286602083611b1c565b611291906020611a0e565b61129b90836118b5565b91505b506020828101829052604080518085526000815290920101905290565b6017816001600160401b0316116112df576101ad8360e0600585901b1683176113dc565b60ff816001600160401b03161161131b57611305836018611fe0600586901b16176113dc565b506101ad836001600160401b03831660016113f4565b61ffff816001600160401b03161161135857611342836019611fe0600586901b16176113dc565b506101ad836001600160401b03831660026113f4565b63ffffffff816001600160401b0316116113975761138183601a611fe0600586901b16176113dc565b506101ad836001600160401b03831660046113f4565b6113ac83601b611fe0600586901b16176113dc565b506101ad836001600160401b03831660086113f4565b6113ca611652565b61077f83846000015151848551611415565b6113e4611652565b61077f83846000015151846114f2565b6113fc611652565b61140d848560000151518585611540565b949350505050565b61141d611652565b825182111561142b57600080fd5b602085015161143a83866118b5565b111561146d5761146d8561145d8760200151878661145891906118b5565b6115b4565b611468906002611b30565b6115cb565b60008086518051876020830101935080888701111561148c5787860182525b505050602084015b602084106114cc57805182526114ab6020836118b5565b91506114b86020826118b5565b90506114c5602085611a0e565b9350611494565b51815160001960208690036101000a019081169019919091161790525083949350505050565b6114fa611652565b8360200151831061151a5761151a84856020015160026114689190611b30565b8351805160208583010184815350808503611536576001810182525b5093949350505050565b611548611652565b602085015161155785846118b5565b111561156b5761156b8561145d86856118b5565b6000600161157b84610100611c33565b6115859190611a0e565b90508551838682010185831982511617815250805184870111156115a95783860181525b509495945050505050565b6000818311156115c55750816111fc565b50919050565b81516115d78383611263565b506101ad83826113c2565b5060008155600101600081556001016000815560010160009055565b6040805160a08101825260008082526020820181905291810182905260608101919091526080810161162e611652565b905290565b604051806101400160405280600a906020820280368337509192915050565b604051806040016040528060608152602001600081525090565b6000806040838503121561167f57600080fd5b8235915060208301356001600160c01b03198116811461169e57600080fd5b809150509250929050565b6000806000606084860312156116be57600080fd5b505081359360208301359350604090920135919050565b60008083601f8401126116e757600080fd5b5081356001600160401b038111156116fe57600080fd5b60208301915083602082850101111561171657600080fd5b9250929050565b600080600080600080600080600060a08a8c03121561173b57600080fd5b89356001600160e01b03198116811461175357600080fd5b985060208a01356001600160401b038082111561176f57600080fd5b61177b8d838e016116d5565b909a50985060408c013591508082111561179457600080fd5b6117a08d838e016116d5565b909850965060608c01359150808211156117b957600080fd5b6117c58d838e016116d5565b909650945060808c01359150808211156117de57600080fd5b506117eb8c828d016116d5565b915080935050809150509295985092959850929598565b60006020828403121561181457600080fd5b813560ff8116811461077f57600080fd5b602080825260089082015267746f6f206c61746560c01b604082015260600190565b634e487b7160e01b600052601160045260246000fd5b600060ff821660ff84168082101561187757611877611847565b90039392505050565b634e487b7160e01b600052603260045260246000fd5b600060ff821660ff81036118ac576118ac611847565b60010192915050565b600082198211156118c8576118c8611847565b500190565b634e487b7160e01b600052601260045260246000fd5b6000826118f2576118f26118cd565b500490565b60005b838110156119125781810151838201526020016118fa565b838111156101ad5750506000910152565b600082516119358184602087016118f7565b9190910192915050565b60006020828403121561195157600080fd5b8151801515811461077f57600080fd5b600081518084526119798160208601602086016118f7565b601f01601f19169290920160200192915050565b6001600160a01b0389811682526020820189905260408201889052861660608201526001600160e01b03198516608082015264ffffffffff841660a082015260c0810183905261010060e08201819052600090610afe83820185611961565b600060ff8316806119ff576119ff6118cd565b8060ff84160491505092915050565b600082821015611a2057611a20611847565b500390565b600060018201611a3757611a37611847565b5060010190565b60008083128015600160ff1b850184121615611a5c57611a5c611847565b6001600160ff1b0384018313811615611a7757611a77611847565b50500390565b6000600160ff1b8201611a9257611a92611847565b506000190190565b600064ffffffffff808316818516808303821115611aba57611aba611847565b01949350505050565b6001600160a01b0389811682526020820189905260408201889052861660608201526001600160e01b03198516608082015260a0810184905260c0810183905261010060e08201819052600090610afe83820185611961565b600082611b2b57611b2b6118cd565b500690565b6000816000190483118215151615611b4a57611b4a611847565b500290565b600181815b80851115611b8a578160001904821115611b7057611b70611847565b80851615611b7d57918102915b93841c9390800290611b54565b509250929050565b600082611ba1575060016111fc565b81611bae575060006111fc565b8160018114611bc45760028114611bce57611bea565b60019150506111fc565b60ff841115611bdf57611bdf611847565b50506001821b6111fc565b5060208310610133831016604e8410600b8410161715611c0d575081810a6111fc565b611c178383611b4f565b8060001904821115611c2b57611c2b611847565b029392505050565b600061077f8383611b9256fe3133346463393332346463643465633061383131363162356131363730323432d8d7ecc4800d25fa53ce0372f13a416d98907a7ef3d8d3bdd79cf4fe75529c656339336337646136616536303432363762653736663136353837306431326230a2646970667358221220dd4c30aabc609085173fe0c4c3089e9c20d9ca1f03f2f4d8a63d4fc514c50a0364736f6c634300080e0033",
  "linkReferences": {},
  "deployedLinkReferences": {}
}