{
  "_format": "hh-sol-artifact-1",
  "contractName": "UniversalAdapter",
  "sourceName": "contracts/UniversalAdapter.sol",
  "abi": [
    {
      "inputs": [
        {
          "internalType": "address",
          "name": "_link",
          "type": "address"
        },
        {
          "internalType": "address[]",
          "name": "nodes",
          "type": "address[]"
        },
        {
          "internalType": "address[]",
          "name": "paymentCollectors",
          "type": "address[]"
        }
      ],
      "stateMutability": "nonpayable",
      "type": "constructor"
    },
    {
      "anonymous": false,
      "inputs": [
        {
          "indexed": true,
          "internalType": "bytes32",
          "name": "id",
          "type": "bytes32"
        }
      ],
      "name": "ChainlinkCancelled",
      "type": "event"
    },
    {
      "anonymous": false,
      "inputs": [
        {
          "indexed": true,
          "internalType": "bytes32",
          "name": "id",
          "type": "bytes32"
        }
      ],
      "name": "ChainlinkFulfilled",
      "type": "event"
    },
    {
      "anonymous": false,
      "inputs": [
        {
          "indexed": true,
          "internalType": "bytes32",
          "name": "id",
          "type": "bytes32"
        }
      ],
      "name": "ChainlinkRequested",
      "type": "event"
    },
    {
      "anonymous": false,
      "inputs": [
        {
          "indexed": true,
          "internalType": "bytes32",
          "name": "specId",
          "type": "bytes32"
        },
        {
          "indexed": false,
          "internalType": "address",
          "name": "requester",
          "type": "address"
        },
        {
          "indexed": false,
          "internalType": "bytes32",
          "name": "requestId",
          "type": "bytes32"
        },
        {
          "indexed": false,
          "internalType": "uint256",
          "name": "payment",
          "type": "uint256"
        },
        {
          "indexed": false,
          "internalType": "address",
          "name": "callbackAddr",
          "type": "address"
        },
        {
          "indexed": false,
          "internalType": "bytes4",
          "name": "callbackFunctionId",
          "type": "bytes4"
        },
        {
          "indexed": false,
          "internalType": "uint256",
          "name": "cancelExpiration",
          "type": "uint256"
        },
        {
          "indexed": false,
          "internalType": "uint256",
          "name": "dataVersion",
          "type": "uint256"
        },
        {
          "indexed": false,
          "internalType": "bytes",
          "name": "data",
          "type": "bytes"
        }
      ],
      "name": "OracleRequest",
      "type": "event"
    },
    {
      "inputs": [],
      "name": "REQUEST_COST_IN_JULES",
      "outputs": [
        {
          "internalType": "uint256",
          "name": "",
          "type": "uint256"
        }
      ],
      "stateMutability": "view",
      "type": "function"
    },
    {
      "inputs": [
        {
          "internalType": "uint8",
          "name": "",
          "type": "uint8"
        }
      ],
      "name": "balance",
      "outputs": [
        {
          "internalType": "uint256",
          "name": "",
          "type": "uint256"
        }
      ],
      "stateMutability": "view",
      "type": "function"
    },
    {
      "inputs": [
        {
          "internalType": "bytes4",
          "name": "callbackFunctionId",
          "type": "bytes4"
        },
        {
          "internalType": "string",
          "name": "js",
          "type": "string"
        },
        {
          "internalType": "string",
          "name": "cid",
          "type": "string"
        },
        {
          "internalType": "string",
          "name": "vars",
          "type": "string"
        },
        {
          "internalType": "string",
          "name": "ref",
          "type": "string"
        }
      ],
      "name": "makeRequest",
      "outputs": [
        {
          "internalType": "bytes32",
          "name": "_requestId",
          "type": "bytes32"
        }
      ],
      "stateMutability": "nonpayable",
      "type": "function"
    },
    {
      "inputs": [
        {
          "internalType": "bytes32",
          "name": "requestId",
          "type": "bytes32"
        },
        {
          "internalType": "bytes8",
          "name": "hashedAnswer",
          "type": "bytes8"
        }
      ],
      "name": "respondWithHashedAnswer",
      "outputs": [],
      "stateMutability": "nonpayable",
      "type": "function"
    },
    {
      "inputs": [
        {
          "internalType": "bytes32",
          "name": "requestId",
          "type": "bytes32"
        },
        {
          "internalType": "bytes32",
          "name": "salt",
          "type": "bytes32"
        },
        {
          "internalType": "bytes32",
          "name": "answer",
          "type": "bytes32"
        }
      ],
      "name": "respondWithUnhashedAnswer",
      "outputs": [
        {
          "internalType": "bool",
          "name": "isSuccessful",
          "type": "bool"
        }
      ],
      "stateMutability": "nonpayable",
      "type": "function"
    },
    {
      "inputs": [],
      "name": "withdrawEarnings",
      "outputs": [],
      "stateMutability": "nonpayable",
      "type": "function"
    }
  ],
  "bytecode": "0x60a060405260016004553480156200001657600080fd5b50604051620039a9380380620039a983398181016040528101906200003c919062000435565b60ff82511062000083576040517f08c379a00000000000000000000000000000000000000000000000000000000081526004016200007a9062000541565b60405180910390fd5b6001825114801562000096575060018151145b620000d8576040517f08c379a0000000000000000000000000000000000000000000000000000000008152600401620000cf9062000563565b60405180910390fd5b60005b82518160ff161015620002e6576000600182620000f99190620005f9565b90508060086000868560ff16815181106200013d577f4e487b7100000000000000000000000000000000000000000000000000000000600052603260045260246000fd5b602002602001015173ffffffffffffffffffffffffffffffffffffffff1673ffffffffffffffffffffffffffffffffffffffff16815260200190815260200160002060006101000a81548160ff021916908360ff160217905550838260ff1681518110620001d4577f4e487b7100000000000000000000000000000000000000000000000000000000600052603260045260246000fd5b6020026020010151600960008360ff1660ff16815260200190815260200160002060006101000a81548173ffffffffffffffffffffffffffffffffffffffff021916908373ffffffffffffffffffffffffffffffffffffffff16021790555080600b6000858560ff168151811062000275577f4e487b7100000000000000000000000000000000000000000000000000000000600052603260045260246000fd5b602002602001015173ffffffffffffffffffffffffffffffffffffffff1673ffffffffffffffffffffffffffffffffffffffff16815260200190815260200160002060006101000a81548160ff021916908360ff160217905550508080620002dd9062000678565b915050620000db565b50620002f8836200033860201b60201c565b8273ffffffffffffffffffffffffffffffffffffffff1660808173ffffffffffffffffffffffffffffffffffffffff1660601b815250505050506200071f565b80600260006101000a81548173ffffffffffffffffffffffffffffffffffffffff021916908373ffffffffffffffffffffffffffffffffffffffff16021790555050565b6000620003936200038d84620005b9565b62000585565b90508083825260208201905082856020860282011115620003b357600080fd5b60005b85811015620003e75781620003cc8882620003f1565b845260208401935060208301925050600181019050620003b6565b5050509392505050565b600081519050620004028162000705565b92915050565b600082601f8301126200041a57600080fd5b81516200042c8482602086016200037c565b91505092915050565b6000806000606084860312156200044b57600080fd5b60006200045b86828701620003f1565b935050602084015167ffffffffffffffff8111156200047957600080fd5b620004878682870162000408565b925050604084015167ffffffffffffffff811115620004a557600080fd5b620004b38682870162000408565b9150509250925092565b6000620004cc600883620005e8565b91507f746f6f206d616e790000000000000000000000000000000000000000000000006000830152602082019050919050565b60006200050e601283620005e8565b91507f77726f6e67206172726179206c656e67746800000000000000000000000000006000830152602082019050919050565b600060208201905081810360008301526200055c81620004bd565b9050919050565b600060208201905081810360008301526200057e81620004ff565b9050919050565b6000604051905081810181811067ffffffffffffffff82111715620005af57620005ae620006d6565b5b8060405250919050565b600067ffffffffffffffff821115620005d757620005d6620006d6565b5b602082029050602081019050919050565b600082825260208201905092915050565b600062000606826200066b565b915062000613836200066b565b92508260ff038211156200062c576200062b620006a7565b5b828201905092915050565b600062000644826200064b565b9050919050565b600073ffffffffffffffffffffffffffffffffffffffff82169050919050565b600060ff82169050919050565b600062000685826200066b565b915060ff8214156200069c576200069b620006a7565b5b600182019050919050565b7f4e487b7100000000000000000000000000000000000000000000000000000000600052601160045260246000fd5b7f4e487b7100000000000000000000000000000000000000000000000000000000600052604160045260246000fd5b620007108162000637565b81146200071c57600080fd5b50565b60805160601c6132646200074560003960008181610c3a0152610d5601526132646000f3fe608060405234801561001057600080fd5b50600436106100625760003560e01c80631580c36a146100675780637f2f1a9614610083578063b73c6ce9146100b3578063c810e677146100bd578063d303e6a5146100db578063ef47ff4b1461010b575b600080fd5b610081600480360381019061007c919061241c565b61013b565b005b61009d600480360381019061009891906123cd565b61054f565b6040516100aa91906129b0565b60405180910390f35b6100bb610c38565b005b6100c5610d4d565b6040516100d29190612acf565b60405180910390f35b6100f560048036038101906100f09190612458565b610d52565b60405161010291906129cb565b60405180910390f35b61012560048036038101906101209190612540565b611131565b6040516101329190612acf565b60405180910390f35b60006007600084815260200190815260200160002060000160009054906101000a900464ffffffffff1664ffffffffff16141580156101a0575060006007600084815260200190815260200160002060020160009054906101000a900460ff1660ff16145b6101df576040517f08c379a00000000000000000000000000000000000000000000000000000000081526004016101d690612a8f565b60405180910390fd5b426007600084815260200190815260200160002060000160009054906101000a900464ffffffffff1664ffffffffff1610156102ce5760076000838152602001908152602001600020600080820160006101000a81549064ffffffffff02191690556000820160056101000a81549073ffffffffffffffffffffffffffffffffffffffff02191690556000820160196101000a81549063ffffffff021916905560008201601d6101000a81549060ff02191690556001820160006102a3919061223a565b6002820160006101000a81549060ff02191690556003820160006102c79190612241565b505061054b565b6000600860003373ffffffffffffffffffffffffffffffffffffffff1673ffffffffffffffffffffffffffffffffffffffff16815260200190815260200160002060009054906101000a900460ff16905060008160ff161415610366576040517f08c379a000000000000000000000000000000000000000000000000000000000815260040161035d90612a4f565b60405180910390fd5b600060c01b6007600085815260200190815260200160002060010160018361038e9190612ea8565b60ff16600181106103c8577f4e487b7100000000000000000000000000000000000000000000000000000000600052603260045260246000fd5b600491828204019190066008029054906101000a900460c01b77ffffffffffffffffffffffffffffffffffffffffffffffff19161461043c576040517f08c379a000000000000000000000000000000000000000000000000000000000815260040161043390612aaf565b60405180910390fd5b81600760008581526020019081526020016000206001016001836104609190612ea8565b60ff166001811061049a577f4e487b7100000000000000000000000000000000000000000000000000000000600052603260045260246000fd5b600491828204019190066008026101000a81548167ffffffffffffffff021916908360c01c021790555060076000848152602001908152602001600020600001601d81819054906101000a900460ff16809291906104f7906130a9565b91906101000a81548160ff021916908360ff16021790555050600160076000858152602001908152602001600020600001601d9054906101000a900460ff1660ff1614156105495761054883611149565b5b505b5050565b6000806007600086815260200190815260200160002060000160009054906101000a900464ffffffffff1664ffffffffff1614156105c2576040517f08c379a00000000000000000000000000000000000000000000000000000000081526004016105b990612a8f565b60405180910390fd5b426007600086815260200190815260200160002060000160009054906101000a900464ffffffffff1664ffffffffff1610156106b55760076000858152602001908152602001600020600080820160006101000a81549064ffffffffff02191690556000820160056101000a81549073ffffffffffffffffffffffffffffffffffffffff02191690556000820160196101000a81549063ffffffff021916905560008201601d6101000a81549060ff0219169055600182016000610686919061223a565b6002820160006101000a81549060ff02191690556003820160006106aa9190612241565b505060009050610c31565b6000600860003373ffffffffffffffffffffffffffffffffffffffff1673ffffffffffffffffffffffffffffffffffffffff16815260200190815260200160002060009054906101000a900460ff169050600160076000878152602001908152602001600020600001601d9054906101000a900460ff1660ff161015610770576040517f08c379a000000000000000000000000000000000000000000000000000000000815260040161076790612a2f565b60405180910390fd5b60c0600760008781526020019081526020016000206001016001836107959190612ea8565b60ff16600181106107cf577f4e487b7100000000000000000000000000000000000000000000000000000000600052603260045260246000fd5b600491828204019190066008029054906101000a900460c01b77ffffffffffffffffffffffffffffffffffffffffffffffff1916901c67ffffffffffffffff60001b8560001c8560001c6108239190612b22565b604051602001610833919061282b565b60405160208183030381529060405280519060200120161461088a576040517f08c379a000000000000000000000000000000000000000000000000000000000815260040161088190612a0f565b60405180910390fd5b600760008681526020019081526020016000206001016001826108ad9190612ea8565b60ff16600181106108e7577f4e487b7100000000000000000000000000000000000000000000000000000000600052603260045260246000fd5b600491828204019190066008026101000a81549067ffffffffffffffff021916905561091385846112af565b6001600260646109239190612bb3565b61092d9190612bb3565b600a6000600860003373ffffffffffffffffffffffffffffffffffffffff1673ffffffffffffffffffffffffffffffffffffffff16815260200190815260200160002060009054906101000a900460ff1660ff1660ff16815260200190815260200160002060008282546109a19190612b22565b9250508190555060016007600087815260200190815260200160002060020160009054906101000a900460ff1660ff161415610c2b5760006109e28661167f565b905060006007600088815260200190815260200160002060000160059054906101000a900473ffffffffffffffffffffffffffffffffffffffff16905060006007600089815260200190815260200160002060000160199054906101000a900460e01b905060076000898152602001908152602001600020600080820160006101000a81549064ffffffffff02191690556000820160056101000a81549073ffffffffffffffffffffffffffffffffffffffff02191690556000820160196101000a81549063ffffffff021916905560008201601d6101000a81549060ff0219169055600182016000610ad5919061223a565b6002820160006101000a81549060ff0219169055600382016000610af99190612241565b5050620186a05a1015610b41576040517f08c379a0000000000000000000000000000000000000000000000000000000008152600401610b3890612a6f565b60405180910390fd5b60008273ffffffffffffffffffffffffffffffffffffffff16828a86604051602401610b6e9291906129e6565b604051602081830303815290604052907bffffffffffffffffffffffffffffffffffffffffffffffffffffffff19166020820180517bffffffffffffffffffffffffffffffffffffffffffffffffffffffff8381831617835250505050604051610bd89190612814565b6000604051808303816000865af19150503d8060008114610c15576040519150601f19603f3d011682016040523d82523d6000602084013e610c1a565b606091505b505090508095505050505050610c31565b60019150505b9392505050565b7f000000000000000000000000000000000000000000000000000000000000000073ffffffffffffffffffffffffffffffffffffffff1663a9059cbb33600a6000600b60003373ffffffffffffffffffffffffffffffffffffffff1673ffffffffffffffffffffffffffffffffffffffff16815260200190815260200160002060009054906101000a900460ff1660ff1660ff168152602001908152602001600020546040518363ffffffff1660e01b8152600401610cf8929190612987565b602060405180830381600087803b158015610d1257600080fd5b505af1158015610d26573d6000803e3d6000fd5b505050506040513d601f19601f82011682018060405250810190610d4a91906123a4565b50565b606481565b60007f000000000000000000000000000000000000000000000000000000000000000073ffffffffffffffffffffffffffffffffffffffff166323b872dd333060646040518463ffffffff1660e01b8152600401610db293929190612846565b602060405180830381600087803b158015610dcc57600080fd5b505af1158015610de0573d6000803e3d6000fd5b505050506040513d601f19601f82011682018060405250810190610e0491906123a4565b50610e0d612248565b610e3f7f313334646339333234646364346563306138313136316235613136373032343230631580c36a60e01b611acc565b9050610eaa6040518060400160405280600381526020017f726571000000000000000000000000000000000000000000000000000000000081525033604051602001610e8b91906127f9565b60405160208183030381529060405283611afd9092919063ffffffff16565b60008a8a905014610f4857610f436040518060400160405280600281526020017f6a730000000000000000000000000000000000000000000000000000000000008152508b8b8080601f016020809104026020016040519081016040528093929190818152602001838380828437600081840152601f19601f8201169050808301925050505050505083611b309092919063ffffffff16565b610fe3565b60008888905014610fe257610fe16040518060400160405280600381526020017f636964000000000000000000000000000000000000000000000000000000000081525089898080601f016020809104026020016040519081016040528093929190818152602001838380828437600081840152601f19601f8201169050808301925050505050505083611b309092919063ffffffff16565b5b5b6000868690501461107d5761107c6040518060400160405280600481526020017f766172730000000000000000000000000000000000000000000000000000000081525087878080601f016020809104026020016040519081016040528093929190818152602001838380828437600081840152601f19601f8201169050808301925050505050505083611b309092919063ffffffff16565b5b60008484905014611117576111166040518060400160405280600381526020017f726566000000000000000000000000000000000000000000000000000000000081525085858080601f016020809104026020016040519081016040528093929190818152602001838380828437600081840152601f19601f8201169050808301925050505050505083611b309092919063ffffffff16565b5b6111218b82611b63565b9150509998505050505050505050565b600a6020528060005260406000206000915090505481565b611151612248565b6111837f633933633764613661653630343236376265373666313635383730643132623030637f2f1a9660e01b611acc565b90507f63393363376461366165363034323637626537366631363538373064313262307fd8d7ecc4800d25fa53ce0372f13a416d98907a7ef3d8d3bdd79cf4fe75529c656007600085815260200190815260200160002060000160059054906101000a900473ffffffffffffffffffffffffffffffffffffffff168460006007600088815260200190815260200160002060000160059054906101000a900473ffffffffffffffffffffffffffffffffffffffff166007600089815260200190815260200160002060000160199054906101000a900460e01b600760008a815260200190815260200160002060000160009054906101000a900464ffffffffff1660018960800151600001516040516112a3989796959493929190612902565b60405180910390a25050565b6000600860003373ffffffffffffffffffffffffffffffffffffffff1673ffffffffffffffffffffffffffffffffffffffff16815260200190815260200160002060009054906101000a900460ff169050816007600085815260200190815260200160002060040160008360ff1660ff168152602001908152602001600020819055506000806007600086815260200190815260200160002060020160009054906101000a900460ff1660ff169050600060026007600088815260200190815260200160002060020160009054906101000a900460ff166113909190612be4565b60ff1690505b60011561149657818314156113aa57611496565b60006007600088815260200190815260200160002060030182600181106113fa577f4e487b7100000000000000000000000000000000000000000000000000000000600052603260045260246000fd5b602091828204019190069054906101000a900460ff16905060006007600089815260200190815260200160002060040160008360ff1660ff1681526020019081526020016000205490508060001c8760001c101561145a5782935061146a565b6001836114679190612b22565b94505b600285856114789190612e74565b6114829190612bb3565b8561148d9190612b22565b92505050611396565b60008390505b6007600088815260200190815260200160002060020160009054906101000a900460ff1660ff168110156115bb57600760008881526020019081526020016000206003018160018110611518577f4e487b7100000000000000000000000000000000000000000000000000000000600052603260045260246000fd5b602091828204019190069054906101000a900460ff16600760008981526020019081526020016000206003016001836115519190612b22565b60018110611588577f4e487b7100000000000000000000000000000000000000000000000000000000600052603260045260246000fd5b602091828204019190066101000a81548160ff021916908360ff16021790555080806115b390613060565b91505061149c565b508360076000888152602001908152602001600020600301846001811061160b577f4e487b7100000000000000000000000000000000000000000000000000000000600052603260045260246000fd5b602091828204019190066101000a81548160ff021916908360ff16021790555060076000878152602001908152602001600020600201600081819054906101000a900460ff168092919061165e906130a9565b91906101000a81548160ff021916908360ff16021790555050505050505050565b600080600260016116909190612bb3565b905060006007600085815260200190815260200160002060030182600181106116e2577f4e487b7100000000000000000000000000000000000000000000000000000000600052603260045260246000fd5b602091828204019190069054906101000a900460ff16905060006007600086815260200190815260200160002060040160008360ff1660ff1681526020019081526020016000205490506117346122b5565b828160006001811061176f577f4e487b7100000000000000000000000000000000000000000000000000000000600052603260045260246000fd5b602002019060ff16908160ff168152505060006001905060006001866117959190612de0565b905060006001876117a69190612b22565b90505b6000821215806117b95750600181105b15611a1357600082126118f5576000600760008b81526020019081526020016000206003018360018110611816577f4e487b7100000000000000000000000000000000000000000000000000000000600052603260045260246000fd5b602091828204019190069054906101000a900460ff16905085600760008c815260200190815260200160002060040160008360ff1660ff1681526020019081526020016000205414156118cf578085856001811061189d577f4e487b7100000000000000000000000000000000000000000000000000000000600052603260045260246000fd5b602002019060ff16908160ff168152505083806118b990613060565b94505082806118c790613017565b9350506118f3565b7fffffffffffffffffffffffffffffffffffffffffffffffffffffffffffffffff92505b505b6001811015611a0e576000600760008b8152602001908152602001600020600301826001811061194e577f4e487b7100000000000000000000000000000000000000000000000000000000600052603260045260246000fd5b602091828204019190069054906101000a900460ff16905085600760008c815260200190815260200160002060040160008360ff1660ff168152602001908152602001600020541415611a0757808585600181106119d5577f4e487b7100000000000000000000000000000000000000000000000000000000600052603260045260246000fd5b602002019060ff16908160ff168152505083806119f190613060565b94505081806119ff90613060565b925050611a0c565b600191505b505b6117a9565b60008360026064611a249190612bb3565b611a2e9190612bb3565b905060005b84811015611abb5781600a6000888460018110611a79577f4e487b7100000000000000000000000000000000000000000000000000000000600052603260045260246000fd5b602002015160ff1660ff1681526020019081526020016000206000828254611aa19190612b22565b925050819055508080611ab390613060565b915050611a33565b508598505050505050505050919050565b611ad4612248565b611adc612248565b611af385858584611cd9909392919063ffffffff16565b9150509392505050565b611b14828460800151611d8990919063ffffffff16565b611b2b818460800151611dae90919063ffffffff16565b505050565b611b47828460800151611d8990919063ffffffff16565b611b5e818460800151611d8990919063ffffffff16565b505050565b600060066000815480929190611b7890613060565b9190505550600060065460001b9050336007600083815260200190815260200160002060000160056101000a81548173ffffffffffffffffffffffffffffffffffffffff021916908373ffffffffffffffffffffffffffffffffffffffff160217905550836007600083815260200190815260200160002060000160196101000a81548163ffffffff021916908360e01c021790555060004261012c611c1e9190612b78565b9050806007600084815260200190815260200160002060000160006101000a81548164ffffffffff021916908364ffffffffff1602179055507f31333464633933323464636434656330613831313631623561313637303234327fd8d7ecc4800d25fa53ce0372f13a416d98907a7ef3d8d3bdd79cf4fe75529c6533846000338a8764ffffffffff1660018c6080015160000151604051611cc698979695949392919061287d565b60405180910390a2819250505092915050565b611ce1612248565b611cf18560800151610100611dd3565b508385600001818152505082856020019073ffffffffffffffffffffffffffffffffffffffff16908173ffffffffffffffffffffffffffffffffffffffff16815250508185604001907bffffffffffffffffffffffffffffffffffffffffffffffffffffffff191690817bffffffffffffffffffffffffffffffffffffffffffffffffffffffff191681525050849050949350505050565b611d968260038351611e3d565b611da98183611fc290919063ffffffff16565b505050565b611dbb8260028351611e3d565b611dce8183611fc290919063ffffffff16565b505050565b611ddb6122d7565b6000602083611dea9190613101565b14611e1657602082611dfc9190613101565b6020611e089190612e74565b82611e139190612b22565b91505b81836020018181525050604051808452600081528281016020016040525082905092915050565b60178167ffffffffffffffff1611611e7457611e6e8160058460ff16901b60ff161784611fe490919063ffffffff16565b50611fbd565b60ff8167ffffffffffffffff1611611eca57611ea3601860058460ff16901b1784611fe490919063ffffffff16565b50611ec48167ffffffffffffffff166001856120049092919063ffffffff16565b50611fbc565b61ffff8167ffffffffffffffff1611611f2157611efa601960058460ff16901b1784611fe490919063ffffffff16565b50611f1b8167ffffffffffffffff166002856120049092919063ffffffff16565b50611fbb565b63ffffffff8167ffffffffffffffff1611611f7a57611f53601a60058460ff16901b1784611fe490919063ffffffff16565b50611f748167ffffffffffffffff166004856120049092919063ffffffff16565b50611fba565b611f97601b60058460ff16901b1784611fe490919063ffffffff16565b50611fb88167ffffffffffffffff166008856120049092919063ffffffff16565b505b5b5b5b505050565b611fca6122d7565b611fdc83846000015151848551612026565b905092915050565b611fec6122d7565b611ffc8384600001515184612115565b905092915050565b61200c6122d7565b61201d84856000015151858561216c565b90509392505050565b61202e6122d7565b825182111561203c57600080fd5b8460200151828561204d9190612b22565b1115612082576120818560026120728860200151888761206d9190612b22565b6121fa565b61207c9190612d86565b612216565b5b6000808651805187602083010193508088870111156120a15787860182525b60208701925050505b602084106120e857805182526020826120c39190612b22565b91506020816120d29190612b22565b90506020846120e19190612e74565b93506120aa565b60006001856020036101000a03905080198251168184511681811785525050508692505050949350505050565b61211d6122d7565b8360200151831061214357612142846002866020015161213d9190612d86565b612216565b5b835180516020858301018481538186141561215f576001820183525b5050508390509392505050565b6121746122d7565b846020015184836121859190612b22565b11156121ad576121ac856002868561219d9190612b22565b6121a79190612d86565b612216565b5b60006001836101006121bf9190612c68565b6121c99190612e74565b905085518386820101858319825116178152815185880111156121ec5784870182525b505085915050949350505050565b60008183111561220c57829050612210565b8190505b92915050565b6000826000015190506122298383611dd3565b506122348382611fc2565b50505050565b5060009055565b5060009055565b6040518060a0016040528060008019168152602001600073ffffffffffffffffffffffffffffffffffffffff16815260200160007bffffffffffffffffffffffffffffffffffffffffffffffffffffffff19168152602001600081526020016122af6122d7565b81525090565b6040518060200160405280600190602082028036833780820191505090505090565b604051806040016040528060608152602001600081525090565b600081519050612300816131bb565b92915050565b600081359050612315816131d2565b92915050565b60008135905061232a816131e9565b92915050565b60008135905061233f81613200565b92915050565b60008083601f84011261235757600080fd5b8235905067ffffffffffffffff81111561237057600080fd5b60208301915083600182028301111561238857600080fd5b9250929050565b60008135905061239e81613217565b92915050565b6000602082840312156123b657600080fd5b60006123c4848285016122f1565b91505092915050565b6000806000606084860312156123e257600080fd5b60006123f086828701612306565b935050602061240186828701612306565b925050604061241286828701612306565b9150509250925092565b6000806040838503121561242f57600080fd5b600061243d85828601612306565b925050602061244e85828601612330565b9150509250929050565b600080600080600080600080600060a08a8c03121561247657600080fd5b60006124848c828d0161231b565b99505060208a013567ffffffffffffffff8111156124a157600080fd5b6124ad8c828d01612345565b985098505060408a013567ffffffffffffffff8111156124cc57600080fd5b6124d88c828d01612345565b965096505060608a013567ffffffffffffffff8111156124f757600080fd5b6125038c828d01612345565b945094505060808a013567ffffffffffffffff81111561252257600080fd5b61252e8c828d01612345565b92509250509295985092959850929598565b60006020828403121561255257600080fd5b60006125608482850161238f565b91505092915050565b61257281612edc565b82525050565b61258961258482612edc565b6130d3565b82525050565b61259881612eee565b82525050565b6125a781612efa565b82525050565b6125b681612f04565b82525050565b60006125c782612aea565b6125d18185612af5565b93506125e1818560208601612fe4565b6125ea81613190565b840191505092915050565b600061260082612aea565b61260a8185612b06565b935061261a818560208601612fe4565b80840191505092915050565b61262f81612fae565b82525050565b61263e81612fc0565b82525050565b6000612651601283612b11565b91507f6861736820646f65736e2774206d6174636800000000000000000000000000006000830152602082019050919050565b6000612691600883612b11565b91507f746f6f20736f6f6e0000000000000000000000000000000000000000000000006000830152602082019050919050565b60006126d1600c83612b11565b91507f756e617574686f72697a656400000000000000000000000000000000000000006000830152602082019050919050565b6000612711600e83612b11565b91507f4e6f7420656e6f756768206761730000000000000000000000000000000000006000830152602082019050919050565b6000612751600883612b11565b91507f746f6f206c6174650000000000000000000000000000000000000000000000006000830152602082019050919050565b6000612791601183612b11565b91507f616c726561647920726573706f6e6465640000000000000000000000000000006000830152602082019050919050565b6127cd81612f86565b82525050565b6127e46127df82612f86565b6130f7565b82525050565b6127f381612fd2565b82525050565b60006128058284612578565b60148201915081905092915050565b600061282082846125f5565b915081905092915050565b600061283782846127d3565b60208201915081905092915050565b600060608201905061285b6000830186612569565b6128686020830185612569565b61287560408301846127c4565b949350505050565b600061010082019050612893600083018b612569565b6128a0602083018a61259e565b6128ad6040830189612626565b6128ba6060830188612569565b6128c760808301876125ad565b6128d460a08301866127c4565b6128e160c0830185612635565b81810360e08301526128f381846125bc565b90509998505050505050505050565b600061010082019050612918600083018b612569565b612925602083018a61259e565b6129326040830189612626565b61293f6060830188612569565b61294c60808301876125ad565b61295960a08301866127ea565b61296660c0830185612635565b81810360e083015261297881846125bc565b90509998505050505050505050565b600060408201905061299c6000830185612569565b6129a960208301846127c4565b9392505050565b60006020820190506129c5600083018461258f565b92915050565b60006020820190506129e0600083018461259e565b92915050565b60006040820190506129fb600083018561259e565b612a08602083018461259e565b9392505050565b60006020820190508181036000830152612a2881612644565b9050919050565b60006020820190508181036000830152612a4881612684565b9050919050565b60006020820190508181036000830152612a68816126c4565b9050919050565b60006020820190508181036000830152612a8881612704565b9050919050565b60006020820190508181036000830152612aa881612744565b9050919050565b60006020820190508181036000830152612ac881612784565b9050919050565b6000602082019050612ae460008301846127c4565b92915050565b600081519050919050565b600082825260208201905092915050565b600081905092915050565b600082825260208201905092915050565b6000612b2d82612f86565b9150612b3883612f86565b9250827fffffffffffffffffffffffffffffffffffffffffffffffffffffffffffffffff03821115612b6d57612b6c613132565b5b828201905092915050565b6000612b8382612f90565b9150612b8e83612f90565b92508264ffffffffff03821115612ba857612ba7613132565b5b828201905092915050565b6000612bbe82612f86565b9150612bc983612f86565b925082612bd957612bd8613161565b5b828204905092915050565b6000612bef82612fa1565b9150612bfa83612fa1565b925082612c0a57612c09613161565b5b828204905092915050565b6000808291508390505b6001851115612c5f57808604811115612c3b57612c3a613132565b5b6001851615612c4a5780820291505b8081029050612c58856131ae565b9450612c1f565b94509492505050565b6000612c7382612f86565b9150612c7e83612f86565b9250612cab7fffffffffffffffffffffffffffffffffffffffffffffffffffffffffffffffff8484612cb3565b905092915050565b600082612cc35760019050612d7f565b81612cd15760009050612d7f565b8160018114612ce75760028114612cf157612d20565b6001915050612d7f565b60ff841115612d0357612d02613132565b5b8360020a915084821115612d1a57612d19613132565b5b50612d7f565b5060208310610133831016604e8410600b8410161715612d555782820a905083811115612d5057612d4f613132565b5b612d7f565b612d628484846001612c15565b92509050818404811115612d7957612d78613132565b5b81810290505b9392505050565b6000612d9182612f86565b9150612d9c83612f86565b9250817fffffffffffffffffffffffffffffffffffffffffffffffffffffffffffffffff0483118215151615612dd557612dd4613132565b5b828202905092915050565b6000612deb82612f5c565b9150612df683612f5c565b9250827f800000000000000000000000000000000000000000000000000000000000000001821260008412151615612e3157612e30613132565b5b827f7fffffffffffffffffffffffffffffffffffffffffffffffffffffffffffffff018213600084121615612e6957612e68613132565b5b828203905092915050565b6000612e7f82612f86565b9150612e8a83612f86565b925082821015612e9d57612e9c613132565b5b828203905092915050565b6000612eb382612fa1565b9150612ebe83612fa1565b925082821015612ed157612ed0613132565b5b828203905092915050565b6000612ee782612f66565b9050919050565b60008115159050919050565b6000819050919050565b60007fffffffff0000000000000000000000000000000000000000000000000000000082169050919050565b60007fffffffffffffffff00000000000000000000000000000000000000000000000082169050919050565b6000819050919050565b600073ffffffffffffffffffffffffffffffffffffffff82169050919050565b6000819050919050565b600064ffffffffff82169050919050565b600060ff82169050919050565b6000612fb982612f86565b9050919050565b6000612fcb82612f86565b9050919050565b6000612fdd82612f90565b9050919050565b60005b83811015613002578082015181840152602081019050612fe7565b83811115613011576000848401525b50505050565b600061302282612f5c565b91507f800000000000000000000000000000000000000000000000000000000000000082141561305557613054613132565b5b600182039050919050565b600061306b82612f86565b91507fffffffffffffffffffffffffffffffffffffffffffffffffffffffffffffffff82141561309e5761309d613132565b5b600182019050919050565b60006130b482612fa1565b915060ff8214156130c8576130c7613132565b5b600182019050919050565b60006130de826130e5565b9050919050565b60006130f0826131a1565b9050919050565b6000819050919050565b600061310c82612f86565b915061311783612f86565b92508261312757613126613161565b5b828206905092915050565b7f4e487b7100000000000000000000000000000000000000000000000000000000600052601160045260246000fd5b7f4e487b7100000000000000000000000000000000000000000000000000000000600052601260045260246000fd5b6000601f19601f8301169050919050565b60008160601b9050919050565b60008160011c9050919050565b6131c481612eee565b81146131cf57600080fd5b50565b6131db81612efa565b81146131e657600080fd5b50565b6131f281612f04565b81146131fd57600080fd5b50565b61320981612f30565b811461321457600080fd5b50565b61322081612fa1565b811461322b57600080fd5b5056fea2646970667358221220404d3c0a83237688a928a2ad1f135beeead668435438aa5f57720fb90311301264736f6c63430008000033",
  "linkReferences": {},
  "deployedLinkReferences": {}
}