{
  "_format": "hh-sol-artifact-1",
  "contractName": "Requester",
  "sourceName": "contracts/Requester.sol",
  "abi": [
    {
      "inputs": [
        {
          "internalType": "address",
          "name": "_link",
          "type": "address"
        },
        {
          "internalType": "address",
          "name": "_universalAdapter",
          "type": "address"
        },
        {
          "internalType": "uint256",
          "name": "_requestCost",
          "type": "uint256"
        }
      ],
      "stateMutability": "nonpayable",
      "type": "constructor"
    },
    {
      "anonymous": false,
      "inputs": [
        {
          "indexed": false,
          "internalType": "bytes32",
          "name": "result",
          "type": "bytes32"
        },
        {
          "indexed": false,
          "internalType": "bytes32",
          "name": "requestId",
          "type": "bytes32"
        }
      ],
      "name": "RequestFulfilled",
      "type": "event"
    },
    {
      "anonymous": false,
      "inputs": [
        {
          "indexed": false,
          "internalType": "bytes4",
          "name": "callbackFunctionId",
          "type": "bytes4"
        },
        {
          "indexed": false,
          "internalType": "string",
          "name": "js",
          "type": "string"
        },
        {
          "indexed": false,
          "internalType": "string",
          "name": "cid",
          "type": "string"
        },
        {
          "indexed": false,
          "internalType": "string",
          "name": "vars",
          "type": "string"
        },
        {
          "indexed": false,
          "internalType": "string",
          "name": "ref",
          "type": "string"
        }
      ],
      "name": "RequestSent",
      "type": "event"
    },
    {
      "inputs": [
        {
          "internalType": "bytes32",
          "name": "requestId",
          "type": "bytes32"
        },
        {
          "internalType": "bytes32",
          "name": "_result",
          "type": "bytes32"
        }
      ],
      "name": "fulfillDirectRequest",
      "outputs": [],
      "stateMutability": "nonpayable",
      "type": "function"
    },
    {
      "inputs": [
        {
          "internalType": "string",
          "name": "js",
          "type": "string"
        },
        {
          "internalType": "string",
          "name": "cid",
          "type": "string"
        },
        {
          "internalType": "string",
          "name": "vars",
          "type": "string"
        },
        {
          "internalType": "string",
          "name": "ref",
          "type": "string"
        }
      ],
      "name": "makeRequest",
      "outputs": [
        {
          "internalType": "bytes32",
          "name": "universalAdapterRequestId",
          "type": "bytes32"
        }
      ],
      "stateMutability": "nonpayable",
      "type": "function"
    },
    {
      "inputs": [],
      "name": "result",
      "outputs": [
        {
          "internalType": "bytes32",
          "name": "",
          "type": "bytes32"
        }
      ],
      "stateMutability": "view",
      "type": "function"
    }
  ],
  "bytecode": "0x608060405234801561001057600080fd5b50604051610ace380380610ace833981810160405281019061003291906100ec565b826000806101000a81548173ffffffffffffffffffffffffffffffffffffffff021916908373ffffffffffffffffffffffffffffffffffffffff16021790555081600160006101000a81548173ffffffffffffffffffffffffffffffffffffffff021916908373ffffffffffffffffffffffffffffffffffffffff160217905550806003819055505050506101a5565b6000815190506100d181610177565b92915050565b6000815190506100e68161018e565b92915050565b60008060006060848603121561010157600080fd5b600061010f868287016100c2565b9350506020610120868287016100c2565b9250506040610131868287016100d7565b9150509250925092565b60006101468261014d565b9050919050565b600073ffffffffffffffffffffffffffffffffffffffff82169050919050565b6000819050919050565b6101808161013b565b811461018b57600080fd5b50565b6101978161016d565b81146101a257600080fd5b50565b61091a806101b46000396000f3fe608060405234801561001057600080fd5b50600436106100415760003560e01c8063353b554f1461004657806365372147146100625780638ba8198814610080575b600080fd5b610060600480360381019061005b9190610512565b6100b0565b005b61006a610184565b604051610077919061072c565b60405180910390f35b61009a6004803603810190610095919061054e565b61018a565b6040516100a7919061072c565b60405180910390f35b600160009054906101000a900473ffffffffffffffffffffffffffffffffffffffff1673ffffffffffffffffffffffffffffffffffffffff163373ffffffffffffffffffffffffffffffffffffffff1614610140576040517f08c379a0000000000000000000000000000000000000000000000000000000008152600401610137906107e7565b60405180910390fd5b806002819055507f0c2366233f634048c0f0458060d1228fab36d00f7c0ecf6bdf2d9c45850363118183604051610178929190610747565b60405180910390a15050565b60025481565b60008060009054906101000a900473ffffffffffffffffffffffffffffffffffffffff1673ffffffffffffffffffffffffffffffffffffffff166323b872dd33306003546040518463ffffffff1660e01b81526004016101ec939291906106cc565b602060405180830381600087803b15801561020657600080fd5b505af115801561021a573d6000803e3d6000fd5b505050506040513d601f19601f8201168201806040525081019061023e91906104c0565b5060008054906101000a900473ffffffffffffffffffffffffffffffffffffffff1673ffffffffffffffffffffffffffffffffffffffff1663095ea7b3600160009054906101000a900473ffffffffffffffffffffffffffffffffffffffff166003546040518363ffffffff1660e01b81526004016102be929190610703565b602060405180830381600087803b1580156102d857600080fd5b505af11580156102ec573d6000803e3d6000fd5b505050506040513d601f19601f8201168201806040525081019061031091906104c0565b506000600160009054906101000a900473ffffffffffffffffffffffffffffffffffffffff1673ffffffffffffffffffffffffffffffffffffffff1663d303e6a563353b554f60e01b8c8c8c8c8c8c8c8c6040518a63ffffffff1660e01b815260040161038599989796959493929190610770565b602060405180830381600087803b15801561039f57600080fd5b505af11580156103b3573d6000803e3d6000fd5b505050506040513d601f19601f820116820180604052508101906103d791906104e9565b90507fd8ce1271d5973e36f20b41bd1b81ee54f473ecf03c9fac4e2eddc338b00e608a63353b554f60e01b8b8b8b8b8b8b8b8b60405161041f99989796959493929190610770565b60405180910390a18091505098975050505050505050565b600081519050610446816108b6565b92915050565b60008135905061045b816108cd565b92915050565b600081519050610470816108cd565b92915050565b60008083601f84011261048857600080fd5b8235905067ffffffffffffffff8111156104a157600080fd5b6020830191508360018202830111156104b957600080fd5b9250929050565b6000602082840312156104d257600080fd5b60006104e084828501610437565b91505092915050565b6000602082840312156104fb57600080fd5b600061050984828501610461565b91505092915050565b6000806040838503121561052557600080fd5b60006105338582860161044c565b92505060206105448582860161044c565b9150509250929050565b6000806000806000806000806080898b03121561056a57600080fd5b600089013567ffffffffffffffff81111561058457600080fd5b6105908b828c01610476565b9850985050602089013567ffffffffffffffff8111156105af57600080fd5b6105bb8b828c01610476565b9650965050604089013567ffffffffffffffff8111156105da57600080fd5b6105e68b828c01610476565b9450945050606089013567ffffffffffffffff81111561060557600080fd5b6106118b828c01610476565b92509250509295985092959890939650565b61062c81610818565b82525050565b61063b81610836565b82525050565b61064a81610840565b82525050565b600061065c8385610807565b9350610669838584610896565b610672836108a5565b840190509392505050565b600061068a601583610807565b91507f4e6f7420556e6976657273616c204164617074657200000000000000000000006000830152602082019050919050565b6106c68161088c565b82525050565b60006060820190506106e16000830186610623565b6106ee6020830185610623565b6106fb60408301846106bd565b949350505050565b60006040820190506107186000830185610623565b61072560208301846106bd565b9392505050565b60006020820190506107416000830184610632565b92915050565b600060408201905061075c6000830185610632565b6107696020830184610632565b9392505050565b600060a082019050610785600083018c610641565b8181036020830152610798818a8c610650565b905081810360408301526107ad81888a610650565b905081810360608301526107c2818688610650565b905081810360808301526107d7818486610650565b90509a9950505050505050505050565b600060208201905081810360008301526108008161067d565b9050919050565b600082825260208201905092915050565b60006108238261086c565b9050919050565b60008115159050919050565b6000819050919050565b60007fffffffff0000000000000000000000000000000000000000000000000000000082169050919050565b600073ffffffffffffffffffffffffffffffffffffffff82169050919050565b6000819050919050565b82818337600083830152505050565b6000601f19601f8301169050919050565b6108bf8161082a565b81146108ca57600080fd5b50565b6108d681610836565b81146108e157600080fd5b5056fea26469706673582212202cb82f1a0d0fe66df72744903237eb609b41a3186fb4296765a20cd127c2a63a64736f6c63430008000033",
  "linkReferences": {},
  "deployedLinkReferences": {}
}