{
  "_format": "hh-sol-artifact-1",
  "contractName": "Requester",
  "sourceName": "contracts/Requester.sol",
  "abi": [
    {
      "inputs": [
        {
          "internalType": "address",
          "name": "_link",
          "type": "address"
        },
        {
          "internalType": "address",
          "name": "_universalAdapter",
          "type": "address"
        },
        {
          "internalType": "uint256",
          "name": "_requestCost",
          "type": "uint256"
        }
      ],
      "stateMutability": "nonpayable",
      "type": "constructor"
    },
    {
      "anonymous": false,
      "inputs": [
        {
          "indexed": false,
          "internalType": "bytes32",
          "name": "result",
          "type": "bytes32"
        },
        {
          "indexed": false,
          "internalType": "bytes32",
          "name": "requestId",
          "type": "bytes32"
        }
      ],
      "name": "RequestFulfilled",
      "type": "event"
    },
    {
      "anonymous": false,
      "inputs": [
        {
          "indexed": false,
          "internalType": "bytes4",
          "name": "callbackFunctionId",
          "type": "bytes4"
        },
        {
          "indexed": false,
          "internalType": "string",
          "name": "js",
          "type": "string"
        },
        {
          "indexed": false,
          "internalType": "string",
          "name": "cid",
          "type": "string"
        },
        {
          "indexed": false,
          "internalType": "string",
          "name": "vars",
          "type": "string"
        },
        {
          "indexed": false,
          "internalType": "string",
          "name": "ref",
          "type": "string"
        },
        {
          "indexed": false,
          "internalType": "bytes32",
          "name": "requestId",
          "type": "bytes32"
        }
      ],
      "name": "RequestSent",
      "type": "event"
    },
    {
      "inputs": [
        {
          "internalType": "bytes32",
          "name": "requestId",
          "type": "bytes32"
        },
        {
          "internalType": "bytes32",
          "name": "_result",
          "type": "bytes32"
        }
      ],
      "name": "fulfillDirectRequest",
      "outputs": [],
      "stateMutability": "nonpayable",
      "type": "function"
    },
    {
      "inputs": [
        {
          "internalType": "string",
          "name": "js",
          "type": "string"
        },
        {
          "internalType": "string",
          "name": "cid",
          "type": "string"
        },
        {
          "internalType": "string",
          "name": "vars",
          "type": "string"
        },
        {
          "internalType": "string",
          "name": "ref",
          "type": "string"
        }
      ],
      "name": "makeRequest",
      "outputs": [
        {
          "internalType": "bytes32",
          "name": "universalAdapterRequestId",
          "type": "bytes32"
        }
      ],
      "stateMutability": "nonpayable",
      "type": "function"
    },
    {
      "inputs": [],
      "name": "result",
      "outputs": [
        {
          "internalType": "bytes32",
          "name": "",
          "type": "bytes32"
        }
      ],
      "stateMutability": "view",
      "type": "function"
    }
  ],
  "bytecode": "0x608060405234801561001057600080fd5b50604051610b55380380610b55833981810160405281019061003291906100ec565b826000806101000a81548173ffffffffffffffffffffffffffffffffffffffff021916908373ffffffffffffffffffffffffffffffffffffffff16021790555081600160006101000a81548173ffffffffffffffffffffffffffffffffffffffff021916908373ffffffffffffffffffffffffffffffffffffffff160217905550806003819055505050506101a5565b6000815190506100d181610177565b92915050565b6000815190506100e68161018e565b92915050565b60008060006060848603121561010157600080fd5b600061010f868287016100c2565b9350506020610120868287016100c2565b9250506040610131868287016100d7565b9150509250925092565b60006101468261014d565b9050919050565b600073ffffffffffffffffffffffffffffffffffffffff82169050919050565b6000819050919050565b6101808161013b565b811461018b57600080fd5b50565b6101978161016d565b81146101a257600080fd5b50565b6109a1806101b46000396000f3fe608060405234801561001057600080fd5b50600436106100415760003560e01c8063353b554f1461004657806365372147146100625780638ba8198814610080575b600080fd5b610060600480360381019061005b9190610514565b6100b0565b005b61006a610184565b604051610077919061072e565b60405180910390f35b61009a60048036038101906100959190610550565b61018a565b6040516100a7919061072e565b60405180910390f35b600160009054906101000a900473ffffffffffffffffffffffffffffffffffffffff1673ffffffffffffffffffffffffffffffffffffffff163373ffffffffffffffffffffffffffffffffffffffff1614610140576040517f08c379a00000000000000000000000000000000000000000000000000000000081526004016101379061086e565b60405180910390fd5b806002819055507f0c2366233f634048c0f0458060d1228fab36d00f7c0ecf6bdf2d9c45850363118183604051610178929190610749565b60405180910390a15050565b60025481565b60008060009054906101000a900473ffffffffffffffffffffffffffffffffffffffff1673ffffffffffffffffffffffffffffffffffffffff166323b872dd33306003546040518463ffffffff1660e01b81526004016101ec939291906106ce565b602060405180830381600087803b15801561020657600080fd5b505af115801561021a573d6000803e3d6000fd5b505050506040513d601f19601f8201168201806040525081019061023e91906104c2565b5060008054906101000a900473ffffffffffffffffffffffffffffffffffffffff1673ffffffffffffffffffffffffffffffffffffffff1663095ea7b3600160009054906101000a900473ffffffffffffffffffffffffffffffffffffffff166003546040518363ffffffff1660e01b81526004016102be929190610705565b602060405180830381600087803b1580156102d857600080fd5b505af11580156102ec573d6000803e3d6000fd5b505050506040513d601f19601f8201168201806040525081019061031091906104c2565b506000600160009054906101000a900473ffffffffffffffffffffffffffffffffffffffff1673ffffffffffffffffffffffffffffffffffffffff1663d303e6a563353b554f60e01b8c8c8c8c8c8c8c8c6040518a63ffffffff1660e01b815260040161038599989796959493929190610772565b602060405180830381600087803b15801561039f57600080fd5b505af11580156103b3573d6000803e3d6000fd5b505050506040513d601f19601f820116820180604052508101906103d791906104eb565b90507f7d765ef4cb8e6506d0a0e6dbd14ddf2915bc7648d0f0f1f7226407c2227a4b9d63353b554f60e01b8b8b8b8b8b8b8b8b8a6040516104219a999897969594939291906107e9565b60405180910390a18091505098975050505050505050565b6000815190506104488161093d565b92915050565b60008135905061045d81610954565b92915050565b60008151905061047281610954565b92915050565b60008083601f84011261048a57600080fd5b8235905067ffffffffffffffff8111156104a357600080fd5b6020830191508360018202830111156104bb57600080fd5b9250929050565b6000602082840312156104d457600080fd5b60006104e284828501610439565b91505092915050565b6000602082840312156104fd57600080fd5b600061050b84828501610463565b91505092915050565b6000806040838503121561052757600080fd5b60006105358582860161044e565b92505060206105468582860161044e565b9150509250929050565b6000806000806000806000806080898b03121561056c57600080fd5b600089013567ffffffffffffffff81111561058657600080fd5b6105928b828c01610478565b9850985050602089013567ffffffffffffffff8111156105b157600080fd5b6105bd8b828c01610478565b9650965050604089013567ffffffffffffffff8111156105dc57600080fd5b6105e88b828c01610478565b9450945050606089013567ffffffffffffffff81111561060757600080fd5b6106138b828c01610478565b92509250509295985092959890939650565b61062e8161089f565b82525050565b61063d816108bd565b82525050565b61064c816108c7565b82525050565b600061065e838561088e565b935061066b83858461091d565b6106748361092c565b840190509392505050565b600061068c60158361088e565b91507f4e6f7420556e6976657273616c204164617074657200000000000000000000006000830152602082019050919050565b6106c881610913565b82525050565b60006060820190506106e36000830186610625565b6106f06020830185610625565b6106fd60408301846106bf565b949350505050565b600060408201905061071a6000830185610625565b61072760208301846106bf565b9392505050565b60006020820190506107436000830184610634565b92915050565b600060408201905061075e6000830185610634565b61076b6020830184610634565b9392505050565b600060a082019050610787600083018c610643565b818103602083015261079a818a8c610652565b905081810360408301526107af81888a610652565b905081810360608301526107c4818688610652565b905081810360808301526107d9818486610652565b90509a9950505050505050505050565b600060c0820190506107fe600083018d610643565b8181036020830152610811818b8d610652565b9050818103604083015261082681898b610652565b9050818103606083015261083b818789610652565b90508181036080830152610850818587610652565b905061085f60a0830184610634565b9b9a5050505050505050505050565b600060208201905081810360008301526108878161067f565b9050919050565b600082825260208201905092915050565b60006108aa826108f3565b9050919050565b60008115159050919050565b6000819050919050565b60007fffffffff0000000000000000000000000000000000000000000000000000000082169050919050565b600073ffffffffffffffffffffffffffffffffffffffff82169050919050565b6000819050919050565b82818337600083830152505050565b6000601f19601f8301169050919050565b610946816108b1565b811461095157600080fd5b50565b61095d816108bd565b811461096857600080fd5b5056fea2646970667358221220fd0c1e847b93e6f8751e59b61c7b848ba036c115e822a0f8188933284a0e7c5764736f6c63430008000033",
  "linkReferences": {},
  "deployedLinkReferences": {}
}