{
  "_format": "hh-sol-artifact-1",
  "contractName": "OfferRegistry",
  "sourceName": "contracts/OfferRegistry.sol",
  "abi": [
    {
      "inputs": [
        {
          "internalType": "bytes32",
          "name": "_requesterContractHash",
          "type": "bytes32"
        }
      ],
      "stateMutability": "nonpayable",
      "type": "constructor"
    },
    {
      "inputs": [
        {
          "internalType": "uint256",
          "name": "offerIndex",
          "type": "uint256"
        }
      ],
      "name": "getMaxOfferValue",
      "outputs": [
        {
          "internalType": "uint256",
          "name": "maxOfferValue",
          "type": "uint256"
        }
      ],
      "stateMutability": "view",
      "type": "function"
    },
    {
      "inputs": [
        {
          "internalType": "uint256",
          "name": "offerIndex",
          "type": "uint256"
        }
      ],
      "name": "getOfferContractAddress",
      "outputs": [
        {
          "internalType": "address",
          "name": "contractAddress",
          "type": "address"
        }
      ],
      "stateMutability": "view",
      "type": "function"
    },
    {
      "inputs": [
        {
          "internalType": "uint256",
          "name": "offerIndex",
          "type": "uint256"
        }
      ],
      "name": "getOfferInfo",
      "outputs": [
        {
          "components": [
            {
              "internalType": "address",
              "name": "contractAddress",
              "type": "address"
            },
            {
              "internalType": "address",
              "name": "offerer",
              "type": "address"
            },
            {
              "internalType": "address",
              "name": "offeree",
              "type": "address"
            },
            {
              "internalType": "string",
              "name": "scriptIpfsHash",
              "type": "string"
            },
            {
              "internalType": "uint256",
              "name": "maxOfferValue",
              "type": "uint256"
            }
          ],
          "internalType": "struct OfferRegistry.Offer",
          "name": "offer",
          "type": "tuple"
        }
      ],
      "stateMutability": "view",
      "type": "function"
    },
    {
      "inputs": [
        {
          "internalType": "uint256",
          "name": "offerIndex",
          "type": "uint256"
        }
      ],
      "name": "getOfferOfferee",
      "outputs": [
        {
          "internalType": "address",
          "name": "offeree",
          "type": "address"
        }
      ],
      "stateMutability": "view",
      "type": "function"
    },
    {
      "inputs": [
        {
          "internalType": "uint256",
          "name": "offerIndex",
          "type": "uint256"
        }
      ],
      "name": "getOfferOfferer",
      "outputs": [
        {
          "internalType": "address",
          "name": "offerer",
          "type": "address"
        }
      ],
      "stateMutability": "view",
      "type": "function"
    },
    {
      "inputs": [
        {
          "internalType": "uint256",
          "name": "offerIndex",
          "type": "uint256"
        }
      ],
      "name": "getOfferScriptIpfsHash",
      "outputs": [
        {
          "internalType": "string",
          "name": "scriptIpfsHash",
          "type": "string"
        }
      ],
      "stateMutability": "view",
      "type": "function"
    },
    {
      "inputs": [
        {
          "internalType": "uint256",
          "name": "offerIndex",
          "type": "uint256"
        }
      ],
      "name": "getOfferState",
      "outputs": [
        {
          "internalType": "bytes32",
          "name": "state",
          "type": "bytes32"
        }
      ],
      "stateMutability": "view",
      "type": "function"
    },
    {
      "inputs": [],
      "name": "getRegistryLength",
      "outputs": [
        {
          "internalType": "uint256",
          "name": "length",
          "type": "uint256"
        }
      ],
      "stateMutability": "view",
      "type": "function"
    },
    {
      "inputs": [
        {
          "internalType": "uint256",
          "name": "",
          "type": "uint256"
        }
      ],
      "name": "offers",
      "outputs": [
        {
          "internalType": "address",
          "name": "contractAddress",
          "type": "address"
        },
        {
          "internalType": "address",
          "name": "offerer",
          "type": "address"
        },
        {
          "internalType": "address",
          "name": "offeree",
          "type": "address"
        },
        {
          "internalType": "string",
          "name": "scriptIpfsHash",
          "type": "string"
        },
        {
          "internalType": "uint256",
          "name": "maxOfferValue",
          "type": "uint256"
        }
      ],
      "stateMutability": "view",
      "type": "function"
    },
    {
      "inputs": [],
      "name": "owner",
      "outputs": [
        {
          "internalType": "address",
          "name": "",
          "type": "address"
        }
      ],
      "stateMutability": "view",
      "type": "function"
    },
    {
      "inputs": [
        {
          "internalType": "address",
          "name": "offerer",
          "type": "address"
        },
        {
          "internalType": "address",
          "name": "offeree",
          "type": "address"
        },
        {
          "internalType": "string",
          "name": "scriptIpfsHash",
          "type": "string"
        },
        {
          "internalType": "uint256",
          "name": "maxOfferValue",
          "type": "uint256"
        }
      ],
      "name": "registerOffer",
      "outputs": [
        {
          "internalType": "uint256",
          "name": "offerIndex",
          "type": "uint256"
        }
      ],
      "stateMutability": "nonpayable",
      "type": "function"
    },
    {
      "inputs": [],
      "name": "requesterContractHash",
      "outputs": [
        {
          "internalType": "bytes32",
          "name": "",
          "type": "bytes32"
        }
      ],
      "stateMutability": "view",
      "type": "function"
    }
  ],
  "bytecode": "0x60806040523480156200001157600080fd5b50604051620014ff380380620014ff83398181016040528101906200003791906200009d565b33600160006101000a81548173ffffffffffffffffffffffffffffffffffffffff021916908373ffffffffffffffffffffffffffffffffffffffff1602179055508060028190555050620000ed565b6000815190506200009781620000d3565b92915050565b600060208284031215620000b057600080fd5b6000620000c08482850162000086565b91505092915050565b6000819050919050565b620000de81620000c9565b8114620000ea57600080fd5b50565b61140280620000fd6000396000f3fe608060405234801561001057600080fd5b50600436106100b45760003560e01c80638a72ea6a116100715780638a72ea6a146101c75780638bbad845146101fb5780638da5cb5b1461022b578063a6ece00214610249578063c49e5b5e14610267578063db3cadc814610297576100b4565b80631b58f66b146100b95780632273ae52146100d75780632a1da982146101075780635c7753081461013757806360d74f7e146101675780636f80a04814610197575b600080fd5b6100c16102c7565b6040516100ce91906111d5565b60405180910390f35b6100f160048036038101906100ec9190610f1b565b6102cd565b6040516100fe9190611254565b60405180910390f35b610121600480360381019061011c9190610fc4565b610545565b60405161012e9190611232565b60405180910390f35b610151600480360381019061014c9190610fc4565b610745565b60405161015e91906111f0565b60405180910390f35b610181600480360381019061017c9190610fc4565b610822565b60405161018e9190611160565b60405180910390f35b6101b160048036038101906101ac9190610fc4565b610896565b6040516101be9190611160565b60405180910390f35b6101e160048036038101906101dc9190610fc4565b61090a565b6040516101f295949392919061117b565b60405180910390f35b61021560048036038101906102109190610fc4565b610a38565b6040516102229190611160565b60405180910390f35b610233610aac565b6040516102409190611160565b60405180910390f35b610251610ad2565b60405161025e9190611254565b60405180910390f35b610281600480360381019061027c9190610fc4565b610ade565b60405161028e91906111d5565b60405180910390f35b6102b160048036038101906102ac9190610fc4565b610bcf565b6040516102be9190611254565b60405180910390f35b60025481565b6000806000339050803f91506103176040518060400160405280601f81526020017f2323232052657175657374657220636f6e747261637420686173682023232300815250610c23565b61032082610cbc565b6002548214610364576040517f08c379a000000000000000000000000000000000000000000000000000000000815260040161035b90611212565b60405180910390fd5b60006040518060a001604052803373ffffffffffffffffffffffffffffffffffffffff1681526020018a73ffffffffffffffffffffffffffffffffffffffff1681526020018973ffffffffffffffffffffffffffffffffffffffff16815260200188888080601f016020809104026020016040519081016040528093929190818152602001838380828437600081840152601f19601f82011690508083019250505050505050815260200186815250908060018154018082558091505060019003906000526020600020906005020160009091909190915060008201518160000160006101000a81548173ffffffffffffffffffffffffffffffffffffffff021916908373ffffffffffffffffffffffffffffffffffffffff16021790555060208201518160010160006101000a81548173ffffffffffffffffffffffffffffffffffffffff021916908373ffffffffffffffffffffffffffffffffffffffff16021790555060408201518160020160006101000a81548173ffffffffffffffffffffffffffffffffffffffff021916908373ffffffffffffffffffffffffffffffffffffffff160217905550606082015181600301908051906020019061052d929190610d7e565b50608082015181600401555050505095945050505050565b61054d610e04565b60008281548110610587577f4e487b7100000000000000000000000000000000000000000000000000000000600052603260045260246000fd5b90600052602060002090600502016040518060a00160405290816000820160009054906101000a900473ffffffffffffffffffffffffffffffffffffffff1673ffffffffffffffffffffffffffffffffffffffff1673ffffffffffffffffffffffffffffffffffffffff1681526020016001820160009054906101000a900473ffffffffffffffffffffffffffffffffffffffff1673ffffffffffffffffffffffffffffffffffffffff1673ffffffffffffffffffffffffffffffffffffffff1681526020016002820160009054906101000a900473ffffffffffffffffffffffffffffffffffffffff1673ffffffffffffffffffffffffffffffffffffffff1673ffffffffffffffffffffffffffffffffffffffff1681526020016003820180546106b290611315565b80601f01602080910402602001604051908101604052809291908181526020018280546106de90611315565b801561072b5780601f106107005761010080835404028352916020019161072b565b820191906000526020600020905b81548152906001019060200180831161070e57829003601f168201915b505050505081526020016004820154815250509050919050565b606060008281548110610781577f4e487b7100000000000000000000000000000000000000000000000000000000600052603260045260246000fd5b9060005260206000209060050201600301805461079d90611315565b80601f01602080910402602001604051908101604052809291908181526020018280546107c990611315565b80156108165780601f106107eb57610100808354040283529160200191610816565b820191906000526020600020905b8154815290600101906020018083116107f957829003601f168201915b50505050509050919050565b600080828154811061085d577f4e487b7100000000000000000000000000000000000000000000000000000000600052603260045260246000fd5b906000526020600020906005020160020160009054906101000a900473ffffffffffffffffffffffffffffffffffffffff169050919050565b60008082815481106108d1577f4e487b7100000000000000000000000000000000000000000000000000000000600052603260045260246000fd5b906000526020600020906005020160010160009054906101000a900473ffffffffffffffffffffffffffffffffffffffff169050919050565b6000818154811061091a57600080fd5b90600052602060002090600502016000915090508060000160009054906101000a900473ffffffffffffffffffffffffffffffffffffffff16908060010160009054906101000a900473ffffffffffffffffffffffffffffffffffffffff16908060020160009054906101000a900473ffffffffffffffffffffffffffffffffffffffff16908060030180546109af90611315565b80601f01602080910402602001604051908101604052809291908181526020018280546109db90611315565b8015610a285780601f106109fd57610100808354040283529160200191610a28565b820191906000526020600020905b815481529060010190602001808311610a0b57829003601f168201915b5050505050908060040154905085565b6000808281548110610a73577f4e487b7100000000000000000000000000000000000000000000000000000000600052603260045260246000fd5b906000526020600020906005020160000160009054906101000a900473ffffffffffffffffffffffffffffffffffffffff169050919050565b600160009054906101000a900473ffffffffffffffffffffffffffffffffffffffff1681565b60008080549050905090565b6000808281548110610b19577f4e487b7100000000000000000000000000000000000000000000000000000000600052603260045260246000fd5b906000526020600020906005020160000160009054906101000a900473ffffffffffffffffffffffffffffffffffffffff1673ffffffffffffffffffffffffffffffffffffffff16631865c57d6040518163ffffffff1660e01b815260040160206040518083038186803b158015610b9057600080fd5b505afa158015610ba4573d6000803e3d6000fd5b505050506040513d601f19601f82011682018060405250810190610bc89190610f9b565b9050919050565b6000808281548110610c0a577f4e487b7100000000000000000000000000000000000000000000000000000000600052603260045260246000fd5b9060005260206000209060050201600401549050919050565b610cb981604051602401610c3791906111f0565b6040516020818303038152906040527f41304fac000000000000000000000000000000000000000000000000000000007bffffffffffffffffffffffffffffffffffffffffffffffffffffffff19166020820180517bffffffffffffffffffffffffffffffffffffffffffffffffffffffff8381831617835250505050610d55565b50565b610d5281604051602401610cd091906111d5565b6040516020818303038152906040527f27b7cf85000000000000000000000000000000000000000000000000000000007bffffffffffffffffffffffffffffffffffffffffffffffffffffffff19166020820180517bffffffffffffffffffffffffffffffffffffffffffffffffffffffff8381831617835250505050610d55565b50565b60008151905060006a636f6e736f6c652e6c6f679050602083016000808483855afa5050505050565b828054610d8a90611315565b90600052602060002090601f016020900481019282610dac5760008555610df3565b82601f10610dc557805160ff1916838001178555610df3565b82800160010185558215610df3579182015b82811115610df2578251825591602001919060010190610dd7565b5b509050610e009190610e75565b5090565b6040518060a00160405280600073ffffffffffffffffffffffffffffffffffffffff168152602001600073ffffffffffffffffffffffffffffffffffffffff168152602001600073ffffffffffffffffffffffffffffffffffffffff16815260200160608152602001600081525090565b5b80821115610e8e576000816000905550600101610e76565b5090565b600081359050610ea181611387565b92915050565b600081519050610eb68161139e565b92915050565b60008083601f840112610ece57600080fd5b8235905067ffffffffffffffff811115610ee757600080fd5b602083019150836001820283011115610eff57600080fd5b9250929050565b600081359050610f15816113b5565b92915050565b600080600080600060808688031215610f3357600080fd5b6000610f4188828901610e92565b9550506020610f5288828901610e92565b945050604086013567ffffffffffffffff811115610f6f57600080fd5b610f7b88828901610ebc565b93509350506060610f8e88828901610f06565b9150509295509295909350565b600060208284031215610fad57600080fd5b6000610fbb84828501610ea7565b91505092915050565b600060208284031215610fd657600080fd5b6000610fe484828501610f06565b91505092915050565b610ff68161129c565b82525050565b6110058161129c565b82525050565b611014816112ae565b82525050565b60006110258261126f565b61102f818561127a565b935061103f8185602086016112e2565b61104881611376565b840191505092915050565b600061105e8261126f565b611068818561128b565b93506110788185602086016112e2565b61108181611376565b840191505092915050565b600061109960158361128b565b91507f496e76616c696420636f6e7472616374206861736800000000000000000000006000830152602082019050919050565b600060a0830160008301516110e46000860182610fed565b5060208301516110f76020860182610fed565b50604083015161110a6040860182610fed565b5060608301518482036060860152611122828261101a565b91505060808301516111376080860182611142565b508091505092915050565b61114b816112d8565b82525050565b61115a816112d8565b82525050565b60006020820190506111756000830184610ffc565b92915050565b600060a0820190506111906000830188610ffc565b61119d6020830187610ffc565b6111aa6040830186610ffc565b81810360608301526111bc8185611053565b90506111cb6080830184611151565b9695505050505050565b60006020820190506111ea600083018461100b565b92915050565b6000602082019050818103600083015261120a8184611053565b905092915050565b6000602082019050818103600083015261122b8161108c565b9050919050565b6000602082019050818103600083015261124c81846110cc565b905092915050565b60006020820190506112696000830184611151565b92915050565b600081519050919050565b600082825260208201905092915050565b600082825260208201905092915050565b60006112a7826112b8565b9050919050565b6000819050919050565b600073ffffffffffffffffffffffffffffffffffffffff82169050919050565b6000819050919050565b60005b838110156113005780820151818401526020810190506112e5565b8381111561130f576000848401525b50505050565b6000600282049050600182168061132d57607f821691505b6020821081141561134157611340611347565b5b50919050565b7f4e487b7100000000000000000000000000000000000000000000000000000000600052602260045260246000fd5b6000601f19601f8301169050919050565b6113908161129c565b811461139b57600080fd5b50565b6113a7816112ae565b81146113b257600080fd5b50565b6113be816112d8565b81146113c957600080fd5b5056fea2646970667358221220cd2f45f1ab1b16ef68da2490a2de808819bf61c8493d4c1e6b550618a952ca3164736f6c63430008000033",
  "linkReferences": {},
  "deployedLinkReferences": {}
}